:020000040800F2
:10000000F8050020A1010008D71A000837190008D8
:10001000D51A0008C9050008F520000800000000F6
:10002000000000000000000000000000811B00082C
:100030008906000800000000D91A0008831B000888
:10004000BB010008BB010008BB010008BB010008A0
:10005000BB010008BB010008BB010008BB01000890
:10006000BB010008BB010008BB010008BB01000880
:10007000BB010008BB010008BB010008BB01000870
:10008000BB010008BB010008BB010008BB01000860
:10009000BB010008BB010008BB010008BB01000850
:1000A000BB010008BB010008BB010008BB01000840
:1000B000BB010008BB010008BB010008BB01000830
:1000C000BB010008BB010008BB010008BB01000820
:1000D000BB010008E9200008BB010008BB010008C3
:1000E000BB010008BB010008BB010008BB01000800
:1000F000BB010008BB010008BB010008BB010008F0
:10010000BB010008BB010008BB010008BB010008DF
:10011000BB010008BB010008BB010008BB010008CF
:10012000BB010008BB010008CD050008BB010008A9
:10013000BB010008BB010008BB010008BB010008AF
:10014000BB010008BB010008BB010008BB0100089F
:10015000BB010008BB010008D9050008BB0100086D
:10016000BB010008BB010008BB010008BB0100087F
:10017000BB010008BB010008BB0100080000000033
:10018000BB010008BB010008DFF810D000F08AF8BE
:10019000004800479D260008AFF30080F8050020C6
:1001A0000648804706480047FEE7FEE7FEE7FEE711
:1001B000FEE7FEE7FEE7FEE7FEE7FEE71D1C0008A0
:1001C000890100082DE9F05F0546002092469B4614
:1001D00088460646814640241BE02846414647465D
:1001E000224600F04FF853465A46C01A914110D3A8
:1001F00011461846224600F036F82D1A67EB010822
:100200004F4622460120002100F02DF817EB00098F
:100210004E41201EA4F10104DFDC484631462A4647
:100220004346BDE8F09FD2B201E000F8012B491E21
:10023000FBD270470022F6E710B513460A46044683
:100240001946FFF7F0FF204610BD10B5002200E070
:10025000521C835C8C5CA34201D1002BF8D1D8B234
:10026000E1B2401A10BD202A04DB203A00FA02F164
:10027000002070479140C2F1200320FA03F3194394
:1002800090407047202A04DB203A21FA02F0002136
:10029000704721FA02F3D040C2F120029140084396
:1002A00019467047064C074D06E0E06840F0010330
:1002B00094E8070098471034AC42F6D3FFF768FF84
:1002C000F82800081829000810B50446406822697B
:1002D000008881B220469047422810D06068636948
:1002E0004222008881B220469847606822690088CF
:1002F00081B220469047422801D0012010BD002045
:1003000010BD000010B5054C21680968FFF79DFF7E
:1003100008B1002010BD206810BD0000440000207E
:1003200010B5044603A001F0E7FEA0680169BDE82E
:1003300010400847415432344358585F496E69743D
:100340000D0A00002DE9F041044680680D461E4666
:10035000816990468847A068A021026B9047A068F9
:10036000C16A884760680068B0F5006F06D9A06868
:10037000290A026B9047A068C16A8847A068E9B261
:10038000026B9047A068C16A8847A068C169884726
:10039000A068A121026B9047A068C16A8847002528
:1003A000771E0BE0BD4201D0012100E00021A068D2
:1003B000426B904708F805006D1CADB2B542F1D311
:1003C000A068016ABDE8F041084770B5044680683E
:1003D0000D4681698847A068A021026B9047A068FC
:1003E000C16A884760680068B0F5006F06D9A068E8
:1003F000290A026B9047A068C16A8847A068E9B2E1
:10040000026B9047A068C16A8847A068C1698847A5
:10041000A068A121026B9047A068C16A8847A068C4
:100420000021426B90470546A068816A8847A06812
:10043000016A8847284670BD2DE9F05F0446406890
:100440000D469946B0F806808088B1FBF8F19346D6
:1004500081426ED2B5FBF8F108FB1150B5FBF8F103
:10046000281A08FB11511FFA80FAA8EB010086B286
:100470003EE08847A068A021026B9047A068C16A4F
:10048000884760680068B0F5006F07D9A0684FEA38
:100490001A21026B9047A068C16A8847A0680AF0D9
:1004A000FF01026B9047A068C16A8847002709E0F6
:1004B000A0681BF80710026B9047A068C16A8847C4
:1004C0007F1CBFB2B742F3D3A068016A8847A06817
:1004D000816C42F210708847A9EB06001FFA80F980
:1004E000A81985B2B3440AEB08001FFA80FA464601
:1004F000A068B1458169BCD88847A068A021026B7B
:100500009047A068C16A884760680068B0F5006FCE
:1005100006D9A068290A026B9047A068C16A88477B
:10052000A068E9B2026B9047A068C16A88470025BD
:100530000AE015E0A0681BF80510026B9047A06860
:10054000C16A88476D1CADB24D45F3D3A068016AFE
:100550008847A068816CBDE8F05F42F210700847E0
:10056000BDE8F09F70B5044680680D461646816967
:100570008847A068A021026B9047A068C16A88479D
:1005800060680068B0F5006F06D9A068290A026BA0
:100590009047A068C16A8847A068E9B2026B90479B
:1005A000A068C16A8847A0683146026B9047A0687E
:1005B000C16A8847A068016A8847A068816CBDE865
:1005C000704042F210700847FEE70000014800F05A
:1005D000D1B8000038010020014800F0CBB800007D
:1005E0009801002001681823CAB2103AB2FBF3F256
:1005F000054B6FF30901032A9B5CC36500D9091DF4
:1006000081650846704700007828000810B501464B
:1006100000208B698A6A4FF0C07453B1B3F5005F54
:1006200015D072B1012A0CD0022A0AD0032A09D1AE
:1006300004E01AB1012A06D0022A03D1C96AC9010D
:1006400000D5012010BDC96AA142FAD010BD002A10
:10065000F7D0012AF2D0022AF3D0032AF3D010BD3A
:1006600030B50468256825F480252560046863603A
:100670008368402B036803D099600068C26030BD76
:100680009A600068C16030BD704772B6FEE7000036
:1006900070B5094D0646002455F82400016830461F
:1006A000FFF7D3FD20B1641C032CF5D3002070BDEF
:1006B00055F8240070BD0000E00000202DE9F04155
:1006C0000446876D00F0E4FA064694F835000025EC
:1006D000022806D08020606584F834500120BDE8EF
:1006E000F0812068016821F01601016020684169ED
:1006F00021F080014161206C08B9A06C20B1206814
:10070000016821F0080101602068016821F0010101
:1007100001600CE000F0BCFA801B052807D92020FE
:100720006065032084F8350084F83450D7E72068EA
:100730000068C007EED194F85C103F208840B86094
:10074000012084F8350084F834500020C7E790F881
:100750003510022903D08021416501207047052111
:1007600080F835100068016821F001010160002067
:10077000704700002DE9F84304464FF00009CDF81A
:10078000009063484FF41651A56D0068B0FBF1F777
:100790002E6894F85C10082000FA01F131420FD065
:1007A00021680A6852070BD50A6822F004020A6021
:1007B00094F85C108840A860606D40F001006065AE
:1007C00094F85C104FF0010808FA01F0304208D0AC
:1007D00021684969090604D5A860606D40F00200EF
:1007E000606594F85C1004208840304208D021688D
:1007F0000968890704D5A860606D40F00400606551
:1008000094F85C1010208840304218D021680968A4
:10081000090714D5A86020680168490304D5006859
:10082000000308D5A16C07E00168C90503D401687D
:1008300021F008010160216C09B12046884794F835
:100840005C1020208840304231D021680968C906F8
:100850002DD5A86094F8350005282068016806D0D9
:10086000490347D5006800031DD4616C1CE021F0EA
:10087000160101602068416921F080014161206C0E
:1008800008B9A06C20B12068016821F0080101605E
:1008900094F85C103F208840A86084F8358084F884
:1008A0003490216D1FE0E16B09B120468847606DEF
:1008B00000282BD0606DC00714D0052084F83500C7
:1008C0002068016821F0010101600098401C00903F
:1008D000B84203D820680068C007F6D184F8358094
:1008E00084F83490E16C002910D001B02046BDE8B6
:1008F000F04308470168C905D5D4016821F010010B
:10090000016084F8358084F83490CCE7BDE8F88342
:100910000C0000202DE9F041044600F0B9F906462C
:100920005CB1022084F83500002584F8345020683A
:10093000016821F0010101600DE00120BDE8F081B6
:1009400000F0A6F9801B052805D92020606503204A
:1009500084F83500F2E720680068C007F0D122680B
:10096000116820480140D4E901031843D4E9033653
:100970003343184363691843A3691843E369184371
:10098000236A18430843616A042903D1D4E90B138D
:1009900019430843106020684069666A20F0070127
:1009A00030460E43012704280CD1A06A0643E06AB2
:1009B00040B12046FFF72AFE20B14020606584F850
:1009C0003570BAE7206846612046FFF70BFE94F8C1
:1009D0005C203F2191408160656584F8357000207E
:1009E000ACE700003F8010F02DE9F0410446866D31
:1009F00090F83400002501280DD0012084F834003F
:100A000094F835700020012F07D084F834000225B7
:100A10002846BDE8F0810220FBE7022784F8357004
:100A200060652046FFF71CFE94F85C103F2088406C
:100A3000B0602068016841F016010160206C20B1AF
:100A40002068016841F0080101602068016841F0F8
:100A500001010160DCE7000070B5044600F018F900
:100A60000546601C02D004480078044400F010F9E8
:100A7000401BA042FAD370BD000000202DE9F84FC2
:100A8000DFF8BCA10022012503264FF00F090AF16F
:100A9000040BAAF1040E00BF0B6805FA02F4234010
:100AA000A34270D10F7907F00307012F01D0022F65
:100AB00016D187684FEA420806FA08FC27EA0C07B5
:100AC000D1F80CC00CFA08FC4CEA070CC0F808C0BE
:100AD0004768A7430C79C4F3001494403C43446036
:100AE0000C79E443A4070AD0C4684FEA420C06FA22
:100AF0000CF7BC438F6807FA0CF72743C7600C79E3
:100B000004F00304022C12D1D40800EB840CDCF8AE
:100B100020405707FF0E09FA07F824EA0804D1F825
:100B2000108008FA07F848EA0408CCF82080046826
:100B30004FEA420C06FA0CF7BC430F7907F00307A3
:100B400007FA0CF7274307604C6814F4403F70D055
:100B50003C4C276847F480472760246822F003074D
:100B600004F480440094384C07EB040CDCF808488B
:100B700097074FEA177809FA08F7BC43334FB84292
:100B800002D1002724E054E0314FB84201D10127BF
:100B90001EE0304FB84201D1022719E02E4FB84273
:100BA00001D1032714E02D4FB84201D104270FE0F3
:100BB0002B4FB84201D105270AE02A4FB84201D194
:100BC000062705E0284FB84201D1072700E0082793
:100BD00007FA08F72743CCF80878DAF800405746B8
:100BE000D1F804C09C435FEACC2C00D51C433C6088
:100BF000DBF800405F46D1F804C09C435FEA8C2CD0
:100C000000D51C433C60DEF800407746D1F804C0B4
:100C10009C435FEA8C3C00D51C433C60084F083F76
:100C20003C68D1F804C09C435FEACC3C00D51C432F
:100C30003C60521C102AFFF42FAFBDE8F88F000073
:100C4000083C0140443802400030014000000240AE
:100C50000004024000080240000C02400010024064
:100C60000014024000180240001C024000690840C5
:100C700000D001207047426921EA02030A4043EA9A
:100C80000241816170470AB1816170470904FBE745
:100C90000148806870470000000000200248816819
:100CA0000278114481607047000000200B4810B5A5
:100CB000016841F400710160016841F480610160E4
:100CC000016841F480710160032000F06FF80F208B
:100CD00000F006F800F024F8002010BD003C0240AF
:100CE00070B50D4D04464FF47A712878B1FBF0F0E1
:100CF0000A490968B1FBF0F000F00CFB48B9102C70
:100D000007D200222146501E00F030F800206C600F
:100D100070BD012070BD0000000000200C0000200C
:100D20000A4808B5016841F480410160006800F498
:100D3000804000900548001F016841F0805101602B
:100D4000006800F08050009008BD00004438024068
:100D5000002809DB00F01F020121914040098000BA
:100D600000F1E020C0F8001170470000F0B40E4B15
:100D70001B680C46C3F30223C3F10705042D00D9F9
:100D80000425191D072901D2002300E0DB1E0126DE
:100D900006FA05F1491E214099409E40761E1640F4
:100DA0003143F0BC01F0B0B90CED00E0064900F0B1
:100DB000070208684FF6FF03184040EA0220034A82
:100DC00010430860704700000CED00E00000FA05D9
:100DD0002DE9F0470E46050065D0DFF81481D8F8FC
:100DE0000000F7B200F00700B04207D288F80070A8
:100DF000D8F8000000F00700B04254D128683D4CFC
:100E0000810712D5400703D5206840F4E0502060E8
:100E10002878000703D5206840F4604020602068EF
:100E2000A96820F0F000084320602878C0072DD082
:100E3000304968680839012812D0022813D00328E5
:100E400011D00968890700292DDA216821F00301F2
:100E500001432160FFF71CFF814641F2883A0EE012
:100E600009688903EFE709688901ECE7FFF710FFDC
:100E7000A0EB0901514502D90320BDE8F0872068A5
:100E8000696800F00C00B0EB810FEFD1D8F80010CA
:100E9000404601F00701B14207D90770006800F031
:100EA0000700B04201D00120E7E72878400705D5C8
:100EB0002068E96820F4E0500843206028780007A3
:100EC00006D52068296920F4604040EAC10020600E
:100ED00000F038F82168084AC1F30311515CC8409A
:100EE0000649086006480068FFF7FAFE0020C4E7DC
:100EF000003C024008380240802800080C00002016
:100F0000040000200448054900680968044AC1F348
:100F10008221515CC84070470C0000200838024014
:100F2000902800080448054900680968044AC1F38C
:100F30004231515CC84070470C0000200838024024
:100F400090280008154810B5006810F00C021448ED
:100F500013D01449042A0FD0082A0ED10F4C241F95
:100F60002268236802F03F025B0207D52068C0F3C5
:100F70008810A0FB010106E0084610BD2168C1F3FE
:100F80008811A1FB00010023FFF71CF92168C1F3C0
:100F90000141491C4900B0FBF1F010BD0838024086
:100FA0000024F40040787D012DE9F84F04006ED054
:100FB0002078DFF84C93C007A9F104054AD009F165
:100FC00004000168C1F38101012908D00068C0F361
:100FD000810002280AD1D9F80000400206D528680D
:100FE000800337D560680028E1D033E06068B0F551
:100FF000803F10D0B0F5A02F286810D020F48030AA
:101000002860286820F4802028606068A8B1FFF775
:101010003FFE06460DE0286840F48030F4E740F4D7
:1010200080202860F7E700BFFFF732FE801B6428AE
:1010300073D828688003F7D50CE0FFF729FE064631
:1010400005E000BFFFF724FE801B6428F0D8286865
:101050008003F7D42078DFF8AC8280074FF0000AD5
:101060003ED5A748001D016811F00C0F08D000689C
:10107000C0F3810002280BD1D9F80000400207D448
:101080002868800716D5E068012800D112E033E116
:10109000E068B8B10120C8F80000FFF7F9FD064686
:1010A00005E000BFFFF7F4FD801B0228C0D82868C8
:1010B0008007F7D52868216920F0F80040EAC100D0
:1010C00028600DE0C8F800A0FFF7E2FD064604E046
:1010D000FFF7DEFD801B02281FD828688007F7D4A1
:1010E0002078000722D5864F87486169703771B133
:1010F00001210160FFF7CCFD064604E0FFF7C8FDC3
:10110000801B022809D838688007F7D50EE0C0F8A0
:1011100000A0FFF7BDFD064605E082E0FFF7B8FD41
:10112000801B02287DD838688007F7D420784007D4
:1011300068D5DFF8CCB100270BF13C0BDBF80000E1
:10114000C0000BD4DBF8001041F08051CBF8001048
:10115000DBF80000012700F0805000906B4E3068F3
:10116000C00510D4306840F480703060FFF790FD07
:10117000009005E0FFF78CFD0099401A022850D836
:101180003068C005F6D55E4EA0686C3601280FD0D9
:101190000528306810D020F001003060306820F061
:1011A00004003060A068B8B1FFF772FD00900FE056
:1011B000306840F00100F4E740F004003060F7E7E9
:1011C000FFF766FD0099411A41F28830814266D8E6
:1011D00030688007F4D50EE0FFF75AFD009007E075
:1011E000FFF756FD0099411A41F28830814256D8E6
:1011F00030688007F4D42FB1DBF8001021F0805163
:10120000CBF80010A069C8B33D49091D0968C1F3B6
:10121000810102294AD00228504607D0C8F8600050
:1012200000E03CE0FFF734FD04463BE04746C8F8E9
:101230006000FFF72DFD064605E000BFFFF728FD23
:10124000801B02282BD828688001F7D4D4E9070135
:101250000843A16A2E4A490802EB0141626A41EA49
:101260008211084394F82C1040EA0161C9F800107B
:1012700001203866FFF70CFD044606E03EE000BFA3
:10128000FFF706FD001B022809D828688001F7D562
:1012900034E000BFFFF7FCFC001B022802D903204A
:1012A000BDE8F88F28688001F4D427E00128F7D042
:1012B000D9F80000E26900F4800191421CD1226A51
:1012C00000F03F01914217D147F6C071626A0140B8
:1012D000B1EB821F10D1A26A4FF0FF3300F440310E
:1012E00003EB5202B1EB024F06D194F82C1000F040
:1012F0007060B0EB016F01D00120D1E70020CFE793
:101300000438024000004742800E4742007000400F
:101310000000FFFF10B5401EB0F1807F01D3012017
:1013200010BD4FF0E02460610F21601700F0ECFE6B
:101330000020A06107202061002010BD7047704789
:10134000F8B5016804460868CA684B6910F00F0FC9
:101350004FF0000559D003F0010602F490773743AF
:1013600065D0C10705D0D10503D5616C41F00101FD
:101370006164410705D5D90703D0616C41F00201D2
:101380006164810705D5D90703D0616C41F0040180
:101390006164010707D502F02001314303D0616C7D
:1013A00041F008016164616C00293AD0800604D5DF
:1013B000900602D5204600F013FD20684069616C5C
:1013C000C0F38010090700D460B3204600F0D3FCBE
:1013D00020684069400621D52068143050E8001F7D
:1013E00021F0400140E80012002AF5D1E06BA8B1DD
:1013F0006E490165E06BFFF7AAF9002811D0E06B98
:10140000016D01B0BDE8F040084783060FD5930693
:101410000DD52046BDE8F84000F0E2BC2046FFF7BD
:101420008EFFF8BD2046FFF78AFF6564F8BD266B86
:101430002023012E7DD1C6067BD5D60679D5086836
:101440004868009048694FF00206400641D5E16BBC
:10145000086840680004000CE8D0A28D8242E5D9FB
:10146000E085C869B0F5807F2DD020680C3050E849
:10147000001F21F4807140E80012002AF5D1206895
:10148000143050E8001F21F0010140E80012002A4A
:10149000F5D12068143050E8001F21F0400140E8E9
:1014A0000012002AF5D184F84230256320680C3000
:1014B00050E8001F21F0100140E80012002AF5D189
:1014C000E06BFFF7FBF86663A08DE18D401A81B2F7
:1014D0002AE0A08DE18D401A81B2E08D0028A5D0D0
:1014E0000029A3D022680C3252E8000F20F490703B
:1014F00042E80007002FF5D12068143050E8002F93
:1015000022F0010240E80027002FF5D184F8423094
:10151000256320680C3050E8002F22F0100240E8CC
:101520000023002BF5D166632046FFF707FFF8BDC7
:10153000FFE705062BD5150629D594F8410021288B
:10154000F5D1A068B0F5805F01D12069B0B1206A03
:10155000411C2162216800784860E08C401E000434
:10156000000CE084E3D12068C16821F08001C160F3
:101570002068C16841F04001C160D8E7206A008856
:10158000C0F308004860206A801C2062E5E740063E
:10159000CDD55006CBD5CA68204622F04002CA609D
:1015A00084F8413000F0C5F9C1E700002D1C0008A7
:1015B00070B5040004D094F84100002510B106E095
:1015C000012070BD84F84050204600F023F824200C
:1015D00084F841002068C16821F40051C1602046B0
:1015E00000F060FC2068016921F4904101612068ED
:1015F000416921F02A0141612068C16841F400512C
:10160000C1606564202084F8410084F8420065636D
:10161000002070BD2DE9F04186B0064614216846D1
:10162000FEF708FE30493068884259D12F4800241F
:10163000016841F010010160006800F010000590A1
:101640002A481438016841F00101016000686946C8
:1016500000F0010005904FF4C06000900220CDE939
:10166000010403200390072004902148FFF706FAA5
:10167000214D20484FF000672860C5E901744FF400
:101680008068C5E903486C61AC61EC612C62284656
:101690006C62FFF73FF908B1FEF7F7FFF563AE6341
:1016A000154D144860357830E5E802074020A5E87C
:1016B0001101114845F814496030AC61EC612C62AD
:1016C0006C62FFF727F908B1FEF7DFFFB563002270
:1016D00011462520AE63FFF749FB2520FFF738FBB5
:1016E00006B0BDE8F081000000100140443802401F
:1016F0000000024040640240380100202DE9F84F0C
:10170000044690F842009A4616460D46202802D01C
:101710000220BDE8F88FB5B1AEB10020606422218F
:1017200084F842102063FFF7B3FAA6858146E68568
:10173000A0684FF480582027404501D1206920B18E
:101740002E46002529E00120E3E7002625E04B4650
:10175000002220212046CDF800A000F08CFC18B11A
:1017600084F842700320D4E726B1A06840451AD01F
:1017700038B108E020684068C0F3080025F8020B83
:1017800008E0206978B12068406800F07F0000BF61
:1017900006F8010BE08D401EE085E08D0028D6D1D3
:1017A00084F84270B5E720684068F1E790F842306D
:1017B000202B01D00220704721B11AB1002303630E
:1017C00000F0F6BB0120704790F84230202B01D08A
:1017D0000220704721B11AB10023036300F030BC2E
:1017E00001207047704770472DE9F843044690F890
:1017F0004100984616460D46202802D00220BDE83A
:10180000F88385B17EB100206064212084F8410016
:10181000FFF73EFAA6848146E684A0682027B0F54B
:10182000805F02D003E00120E9E7206910B12E4675
:1018300000250EE000260CE08021204600F01BFC75
:10184000A8B9C6B116F8010B21684860E08C401EAB
:10185000E084E08C4B464FF00002CDF80080002879
:10186000EAD14FF04001204600F005FC40B184F879
:1018700041700320C3E735F8020BC0F30800E3E72B
:1018800084F841700020BAE770B5044690F8410032
:10189000202801D0022070BD49B342B32162A28446
:1018A000E28400206064212384F84130A56B114B51
:1018B000EB63A56B104B2B64A56B104BEB64A36B18
:1018C0001865256813462A1DA06BFFF78DF821685F
:1018D0006FF0400008602068143050E8001F41F0AD
:1018E000800140E80012002AF5D1002070BD0120DF
:1018F00070BD00002B1D00086D1D00083D1C000878
:1019000090F84130202B01D00220704779B172B19C
:1019100001628284C28400214164212180F8411047
:101920000068C16841F08001C1600020704701205B
:10193000704770477047FEE7C1898068FFF796B926
:10194000012907D0002909D1818940685FF0000290
:10195000FFF799B9818940680122F9E770470000D3
:10196000012907D0002909D1C18980685FF00002F0
:10197000FFF789B9C18980680122F9E77047000043
:101980000D4808B5016841F480010160006800223B
:1019900000F48000009011463A20FFF7E7F93A2062
:1019A000FFF7D6F9002211464620FFF7DFF9BDE820
:1019B00008404620FFF7CCB9303802402DE9F04707
:1019C00086B014216846FEF735FC304800240168D3
:1019D00041F020010160016801F0200105910168DA
:1019E00041F080010160016801F08001059101680A
:1019F00041F004010160016801F0040105910168F2
:101A000041F001010160016801F0010105910168E7
:101A100041F0020101600068DFF8748000F002000C
:101A20004FF4C0650590002229464046FFF72BF988
:101A3000DFF86090002201214846FFF724F9DFF823
:101A400058A06F10012239465046FFF71CF90226B4
:101A50000095CDE902640125694640460195FFF7EE
:101A60000DF8CDE902640095694648460195FFF7F7
:101A700005F811200097CDE9010403200390694681
:101A80005046FEF7FBFF06B0BDE8F0873038024055
:101A90000014024000080240000402400C4810B547
:101AA0000A4901604FF4E1314160002181600C225C
:101AB000C160C0E904128161C161FFF779FD0028AE
:101AC00003D0BDE81040FEF7E0BD10BD001001409E
:101AD000F0000020FEE7FEE7704770B5D0E904563D
:101AE000049C2E60056969600021082A01D0092A3A
:101AF00002D00269916003E005694FF48052AA6048
:101B0000012C01D0022C02D00269D16003E00469EB
:101B10004FF40052E260452B06D04E2B01D04F2BE4
:101B200005D00269116106E04FF4806201E04FF4D4
:101B3000C06203691A6103690C225A6102699161EA
:101B40000269D1610069FFF733FD002070BD1346C3
:101B500000690122FFF7D2BD00690122FFF726BE0E
:101B600000690122FFF730BE92B20069FFF73CBE68
:101B700092B20069FFF788BE92B20069FFF7C0BE5B
:101B80007047FFF78BB8000030B593B0302168463E
:101B9000FEF750FB14210CA8FEF74CFB1D48002556
:101BA000016841F080510160006800F080501190A0
:101BB0001948016841F4804101600068022400F482
:101BC000804011900120039010200490009406940E
:101BD0000820CDE90750A820CDE9090404200B9086
:101BE0006846FFF7E1F908B172B6FEE70CA90F20CD
:101BF00081E831004FF4A0500F904FF480501090C6
:101C000005210CA8FFF7E4F8002801D072B6FEE722
:101C100013B030BD403802400070004002480168F7
:101C200041F470010160704788ED00E010B5806BF1
:101C30000021C185C184FFF782FB10BD70B5846BA4
:101C40002068406994F84110C0F3C0100025212994
:101C500004D118B1E584204600F0B4F8206840694A
:101C600094F84210C0F38010222904D118B1E58500
:101C7000204600F080F8606C40F010006064204660
:101C8000FFF75DFB70BD10B50146806B0968096800
:101C90004FF00002C9052ED4C28501680C3151E80D
:101CA000003F23F4807341E80034002CF5D1016833
:101CB000143151E8003F23F0010341E80034002CC7
:101CC000F5D10168143151E8003F23F0400341E8A9
:101CD0000034002CF5D1202180F84210016B01293D
:101CE00009D101680C3151E8003F23F0100341E8AD
:101CF0000034002CF5D14263016B012902D0FFF7BB
:101D000071FD10BD818DFFF719FB10BD10B5806B03
:101D100001214163016B012902D0FFF764FD10BD71
:101D2000818D4908FFF70AFB10BD10B50146806B95
:101D300009680968C90516D40021C18401681431F5
:101D400051E8002F22F0800241E80023002BF5D15A
:101D500001680C3151E8002F42F0400241E80023B5
:101D6000002BF5D110BDFFF7E4FD10BD10B5806B61
:101D7000FFF7E0FD10BD01680C3151E8002F22F49F
:101D8000907241E80023002BF5D10168143151E82D
:101D9000002F22F0010241E80023002BF5D1016B56
:101DA000012909D101680C3151E8002F22F01002FD
:101DB00041E80023002BF5D1202180F842100021BA
:101DC0000163704701680C3151E8002F22F0C00216
:101DD00041E80023002BF5D1202180F84110704705
:101DE00008B590F84210222901D0022008BD82686F
:101DF0004FF480539A4201D1016921B1816A9A421C
:101E00001BD04AB10AE00268816A5268C2F3080234
:101E10000A80816A891C08E0026972B1026852680E
:101E200002F07F020A70816A491C8162C18D491EDD
:101E30000904090CC18503D01BE002685268F1E770
:101E40000168CA6822F02002CA600168CA6822F4E8
:101E50008072CA6001684A6922F001024A61202149
:101E600080F8421000214163026B012A03D0FFF782
:101E7000B9FC002008BD016301680C3151E8002F56
:101E800022F0100241E80023002BF5D101680A6816
:101E9000D20602D50A6849680091818DFFF74EFA93
:101EA000E7E7000070B5044600680169E26821F4C4
:101EB0004051114301612169A068E26908436169E9
:101EC000114308432168CA6849F20C639A430243EC
:101ED000CA6020684169A26921F4407111434161DF
:101EE00031492068884202D03049884202D1FFF748
:101EF00019F801E0FFF706F8E269002319216425CB
:101F00003226B2F5004F626828D0A0FB0101930F82
:101F10009200FEF757F90146B0FBF5F06FF018029A
:101F2000504301EB800006EB0010B0FBF5F000F031
:101F3000F002B1FBF5F002EB0012B1FBF5F06FF02F
:101F40001803584301EB800006EB0010B0FBF5F0DE
:101F500000F00F0021681044886070BDA0FB0101F3
:101F600092185B41FEF72EF90146B0FBF5F0020135
:101F7000B1FBF5F06FF01803584301EB800006EB5E
:101F8000C000B0FBF5F000F0F80002EB4002B1FB3E
:101F9000F5F0584301EB800006EBC000B0FBF5F014
:101FA00000F00700D6E700000010014000140140D7
:101FB00038B581620446828500201346606422227F
:101FC00084F84220E56B1B4AEA63E56B1A4A2A64EF
:101FD000E56B1A4AEA64E26B10650A462168E06B19
:101FE000091DFEF701FD2068016840680090206926
:101FF00048B120680C3050E8001F41F4807140E87F
:102000000012002AF5D12068143050E8001F41F07A
:10201000010140E80012002AF5D12068143050E890
:10202000001F41F0400140E80012002AF5D10020D5
:1020300038BD0000871C00080D1D00083D1C00086D
:1020400081628285C28500214164222180F842108C
:10205000016921B10168CA6842F48072CA600168EE
:102060004A6942F001024A610068C16841F02001FA
:10207000C160002070472DE9F843984617460D4689
:102080000446089E24E0701C22D0FEF701FEA0EB5F
:102090000800B0421AD8CEB12068C168490717D5E8
:1020A000802D15D0402D13D00168C94309070FD4E6
:1020B00001680025406800902046FFF75CFE08207C
:1020C000606484F840500120BDE8F8830320FBE7FA
:1020D0002068006835EA000004D00020B842D2D061
:1020E0000020F1E70120F9E70148FFF729B90000D6
:1020F000F0000020FEE70000014A024900F023B88A
:1021000079210008EC0000200907090E002804DBF3
:1021100000F1E02080F80014704700F00F0000F19B
:10212000E02080F8141D704702E008C8121F08C1A3
:10213000002AFAD170477047002001E001C1121F48
:10214000002AFBD170472DE9F04116460F460446A0
:10215000002503E03946B047641C6D1C2078002838
:10216000F8D12846BDE8F081A8214843800800BF87
:10217000401EFCD27047000013B54FF6FF730122DA
:1021800069460248FFF730FB00981CBDF0000020B4
:1021900070B515460C46064600F025FA2146304635
:1021A00000F001FA304600F04FFA2946304600F0C0
:1021B000FAF9304600F048FA304600F0D8F9641CCD
:1021C000E1B2304600F0EFF9304600F03DFA01216F
:1021D000304600F09FF90502304600F085F80021F6
:1021E000304600F097F940EA0504304600F07AF9ED
:1021F000304600F014FA204670BD70B516460C4605
:10220000054600F0F0F92146284600F0CCF92846B2
:1022100000F01AFA3146284600F0C5F9284600F0C9
:1022200013FA284600F0A3F9641CE1B2284600F036
:10223000BAF9284600F008FA0021284600F06AF9A9
:102240000446284600F04EF9284600F0E8F92046FA
:1022500070BD2DE9F0411C4617460E46054600F0BC
:10226000C2F93146284600F09EF9284600F0ECF904
:102270003946284600F097F9284600F0E5F9210A8A
:10228000284600F090F9284600F0DEF9E1B2284631
:1022900000F089F9284600F0D7F92846BDE8F0415A
:1022A00000F0BDB92DE9F0411E4617460C46054623
:1022B00000F099F92146284600F075F9284600F00B
:1022C000C3F93946284600F06EF9284600F0BCF9FB
:1022D0003146284600F067F9284600F0B5F928464F
:1022E000BDE8F04100F09BB910B504460021FFF7AE
:1022F00037FBA16C0120884701212046FFF720FB16
:10230000A16C0120884700212046FFF719FBA16C32
:102310000120884701212046FFF722FBA16CBDE880
:102320001040012008470000214A43682149934298
:1023300002D08368934203D10A6822F001020A6046
:102340001D4A4368934202D08368934203D10A68CE
:1023500022F002020A60194A4368934202D083685D
:10236000934203D10A6822F004020A60144A4368C7
:10237000934202D08368934203D10A6822F0080294
:102380000A60104A4368934202D08368934203D1A3
:102390000A6822F010020A600B4A4368934202D096
:1023A0008068904203D1086820F080000860704780
:1023B00000000240303802400004024000080240A1
:1023C000000C024000100240001C0240F0B5044620
:1023D0003D4942683D48002587B08A4202D0A26844
:1023E0008A4207D1016841F001010160016801F0F2
:1023F00001010591364962688A4202D0A2688A4288
:1024000007D1016841F002010160016801F0020199
:102410000591304962688A4202D0A2688A4207D197
:10242000016841F004010160016801F004010591B7
:10243000294962688A4202D0A2688A4207D10168AB
:1024400041F008010160016801F00801059123498C
:1024500062688A4202D0A2688A4207D1016841F0CC
:1024600010010160016801F0100105911C496268CA
:102470008A4202D0A2688A4207D1016841F08001F5
:102480000160006800F080000590A08911260327F4
:10249000CDE90006CDE9025769466068FEF7EEFA1D
:1024A000E089CDE90006CDE902576946A068FEF74C
:1024B000E5FA01212046FFF743FA01212046FFF704
:1024C0004FFA07B0F0BD0000000002403038024073
:1024D0000004024000080240000C024000100240CC
:1024E000001C024010B504460121FFF739FAA16C27
:1024F0000120884701212046FFF722FAA16C012024
:10250000884700212046FFF71BFAA16CBDE8104068
:10251000012008472DE9F0410F460646002401211D
:10252000FFF71EFA002501213046FFF709FAB16CCA
:10253000012088476006040E3046FFF7FDF908B118
:10254000641CE4B200213046FFF7FAF9B16C0120B7
:1025500088476D1CEDB2082DE5D3304617B1FFF763
:10256000C3FE01E0FFF7BEFF2046BDE8F08110B5D5
:1025700004460121FFF7F4F901212046FFF7E0F9B5
:10258000A16C0320884700212046FFF7E9F9A16CE0
:102590000320884700212046FFF7D2F9A16CBDE84F
:1025A00010400120084770B50D4606460024E90991
:1025B0003046FFF7D5F96806050EB16C0120884753
:1025C00001213046FFF7BCF9B16C0120884700219A
:1025D0003046FFF7B5F9B16C01208847641CE4B2BE
:1025E000082CE4D370BD10B504460121FFF7B8F9FB
:1025F00001212046FFF7A4F9A16C012088470021A2
:102600002046FFF7ADF9A16C012088470021204644
:10261000FFF796F9A16CBDE810400120084710B5FE
:1026200004460021FFF79CF901212046FFF788F9B5
:10263000A16C0120884701212046FFF791F9A16C88
:10264000BDE810400120084770B500240546264625
:102650000121FFF785F9A96C01208847012128464F
:10266000FFF76EF9A96C0120884708E0641CE4B20A
:10267000FA2C04D92846FFF7D2FF012604E02846A9
:10268000FFF75AF90028F1D100212846FFF758F941
:10269000A96C01208847304670BD000008B5FEF7E0
:1026A00005FBFFF771FAFFF789F9FFF769F9FFF703
:1026B000F5F94FF4FA70FEF7CFF91FA0FFF71CFDF4
:1026C00028A0FFF719FD2FA0FFF716FD35A0FFF793
:1026D00013FD3CA0FFF710FD42A0FFF70DFD45A044
:1026E000FFF70AFD14A0FFF707FD46A0FFF704FD62
:1026F00049A0FDF7CDFF012100914E234468082237
:102700004FF4E131A0474AA0FDF7FCFD016A88477C
:1027100078B149A0FFF7F0FC4F4D4FF480644FF4BF
:102720007A7621462846FEF7A6FA3046FEF794F957
:10273000F7E74AA0EEE700003D3D3D3D3D3D3D3D14
:102740003D3D3D3D3D3D3D3D3D3D3D3D3D3D3D3DB9
:102750003D3D3D3D3D3D3D3D3D3D3D3D3D3D0D0A0C
:10276000000000002020205F5F5F5F5F5F20205F30
:102770005F5F5F5F5F20205F5F5F5F5F5F5F200D78
:102780000A00000020202F205F5F2F20207C2F20B8
:10279000202F205F20292F205F5F2F205F205C0DDE
:1027A0000A000000202F205F2F2F202F7C5F2F207A
:1027B0002F205F20202F205F2F2F202C205F2F0D18
:1027C0000A0000002F5F5F5F2F5F2F20202F5F2FF9
:1027D0005F5F5F5F2F5F5F5F2F5F2F7C5F7C200DF0
:1027E0000A00000053797374656D2053746172742C
:1027F000210D0A0056657273696F6E3A20312E30D2
:102800000D0A00005B696E666F5D52756E6E696ED3
:10281000672E2E2E2E0D0A0053544D33325F426127
:1028200072655F48414C5F55415254315F495400D5
:1028300041543234433032005B696E666F5D4154FF
:10284000323443585820436865636B204661696C95
:102850006564210D0A000000001402405B696E6689
:102860006F5D4154323443585820436865636B2090
:102870004F4B210D0A00000000061016000610162E
:102880000000000000000000010203040607080920
:10289000000000000102030441543234433032008E
:1028A000415432344336345F4949430053544D3325
:1028B000325F426172655F48414C5F55415254310D
:1028C0000000000053544D33325F426172655F482F
:1028D000414C5F55415254315F49540053544D337C
:1028E000325F426172655F48414C5F5541525431DD
:1028F0005F444D410000000018290008000000203E
:10290000F000000028210008082A0008F00000203C
:102910000805000038210008010000001000000038
:10292000000000000024F400000100002000080066
:10293000A000000098280008100000204800002097
:1029400021030008CB0300086505000839040008CE
:1029500045030008C9020008000000001C00002018
:10296000A028000800040240000402400001000208
:10297000CD23000829230008E72500086F2500085B
:102980001F260008E9220008E5240008492600085F
:10299000A725000815250008A522000853220008D5
:1029A000FB210008912100086921000800000000B7
:1029B000AC280008DB1A0008691B00084F1B000840
:1029C000F000002000100140C4280008DB1A0008B5
:1029D000791B0008611B0008F00000200010014076
:1029E000DC280008DB1A0008711B0008591B0008CE
:1029F000F00000200010014098000020B0000020EE
:082A0000C800002000000000E6
:040000050800018965
:00000001FF
