:020000040800F2
:10000000A0090020B10100082B1D0008291A0008D2
:10001000291D0008390700088F2300080000000090
:100020000000000000000000000000005D2000084B
:10003000D1070008000000002D1D00085F20000807
:10004000CB010008CB010008CB010008CB01000860
:10005000CB010008CB010008CB010008CB01000850
:10006000CB010008CB010008CB010008CB01000840
:10007000CB010008CB010008CB010008CB01000830
:10008000CB010008CB010008CB01000800000000F4
:10009000000000000000000000000000CB0100088C
:1000A000CB0100081121000805210008CB01000840
:1000B000CB010008CB010008CB010008CB010008F0
:1000C000CB010008CB010008CB010008CB010008E0
:1000D000CB010008CB010008CB01000800000000A4
:1000E000CB010008CB010008CB0100080000000094
:1000F000000000000000000000000000CB0100082C
:1001000000000000CB010008CB010008CB01000873
:1001100000000000000000000000000000000000DF
:10012000CB010008CB0100083D070008CB01000807
:10013000CB010008000000000000000000000000EB
:10014000000000000000000000000000CB010008DB
:10015000CB010008CB01000849070008CB010008CB
:10016000CB010008CB0100080000000000000000E7
:10017000000000000000000000000000000000007F
:1001800000000000CB01000800000000000000009B
:10019000CB010008CB010008DFF810D000F0BAFA5C
:1001A000004800473D2D0008AFF30080A009002063
:1001B0000648804706480047FEE7FEE7FEE7FEE701
:1001C000FEE7FEE7FEE7FEE7FEE7FEE7F5200008B4
:1001D000990100082DE9F05F0546002092469B46F4
:1001E00088460646814640241BE02846414647464D
:1001F000224600F0DFF953465A46C01A914110D307
:1002000011461846224600F0C6F92D1A67EB010880
:100210004F4622460120002100F0BDF917EB0009EE
:100220004E41201EA4F10104DFDC484631462A4637
:100230004346BDE8F09FD2B201E000F8012B491E11
:10024000FBD270470022F6E710B513460A46044673
:100250001946FFF7F0FF204610BD2DE9FE4F8046FE
:1002600081EA0300C00F0C46009021F0004123F00A
:100270000045B8EB0200A94105D240462146904610
:100280001C460B46024623F00040104347D0270D82
:10029000C7F30A00C3F30A510290401A01904028A4
:1002A0006BDAC3F3130040F4801B0098924620B130
:1002B0000023D2EB030A63EB0B0B01985946C0F104
:1002C0004002504600F067F906460D465046594632
:1002D000019A00F07FF910EB08006141002487EAE1
:1002E000115284EAE7731A4340D0009A62B3019A2C
:1002F000012A4FEA075215DC001B61EB02014FF0A7
:10030000004202EA0752CDE90042001C41F580118B
:1003100032462B4600F07FF903B0BDE8F08F40462F
:100320002146F9E7001B61EB0201001C41F5801337
:1003300000185B412018A2F5001747EB030140EAC3
:10034000D570B6196D4111E06D084FEA360645EAE1
:10035000C0754FEA0752001B61EB0201001C41F51A
:10036000801149084FEA30000019514132462B46AE
:1003700003B0BDE8F04F00F03FB900980122400003
:100380000023D0EB020263EBE073009821464FEAB2
:10039000E074B8EB000061EB0401E9E783F000438F
:1003A0005BE781F0004158E72DE9FE4F81EA030445
:1003B00004F0004421F0004100944FF0000B23F0C2
:1003C000004350EA01045ED052EA03045BD0C3F359
:1003D0000A54C1F30A552C44A4F2F3340194A0FB4F
:1003E0000254C1F3130141F48011C3F3130343F426
:1003F000801301FB024400FB034E840A970A44EA7F
:10040000815447EA8357A4FB076802958D0A05FBD0
:1004100007854FEA932C04FB0C542705029D4FEAF5
:10042000065847EA1637B5EB08056EEB070C870E42
:10043000920E47EA811742EA8312A7FB0201B6EB4C
:100440000B0164EB00042B0D43EA0C335E1844EB04
:100450001C50DA465146E7FB0201C5F313044FEA8C
:100460000B3343EA14534FEA0432019C43EA060378
:10047000A4F10C040294009CCDE900B400F0CBF888
:1004800003B0BDE8F08F00200146F9E72DE9F04DFB
:1004900081EA030404F0004B21F0004514464FF0BC
:1004A000000A23F0004150EA050220D054EA01027C
:1004B0001DD0C5F30A570246C5F31303C1F3130059
:1004C000C1F30A5640F4801543F48013A7EB0608E5
:1004D000101BD64608F2FD3873EB050002D308F175
:1004E000010801E092185B41B8F1000F03DA002027
:1004F0000146BDE8F08D00204FF480110646844689
:100500000EE0171B73EB050705D3121B63EB050306
:1005100006434CEA010C49084FEA300092185B414F
:1005200050EA0107EDD152EA030012D082EA04003A
:1005300083EA0501084305D0101BAB4106D2012216
:10054000002306E000224FF0004302E06FF00102BA
:1005500053101AEB06004CEB085110EB0A0041EB6C
:100560000B01BDE8F04D00F047B830B50B46014631
:1005700000202022012409E021FA02F59D4205D342
:1005800003FA02F5491B04FA02F52844151EA2F1EC
:100590000102F1DC30BD202A04DB203A00FA02F12E
:1005A000002070479140C2F1200320FA03F3194361
:1005B00090407047202A04DB203A21FA02F0002103
:1005C000704721FA02F3D040C2F120029140084363
:1005D00019467047202A06DBCB17203A41FA02F071
:1005E00043EAE07306E041FA02F3D040C2F1200290
:1005F000914008431946704710B5141E73F100046A
:1006000008DA401C41F1000192185B411A4301D104
:1006100020F0010010BD2DE9F04D92469B4611B12E
:10062000B1FA81F202E0B0FA80F220329046FFF790
:10063000B2FF04460F4640EA0A0041EA0B01534666
:100640005A46084313D0114653EA010019D0C8F1A5
:1006500040025046FFF7AEFF05460E46504659464B
:100660004246FFF798FF084305D0012004E02046EA
:100670003946BDE8F08D0020054346EAE0762C437C
:1006800037430A986305E40AA0EB08000022FD0A3C
:1006900044EA47540A3002D500200146E9E7010543
:1006A00010196941DDE9084500196941BDE8F04DBF
:1006B000A2E7C1F30A52C1F3130140F2FF3341F440
:1006C00080119A4202DA00200146704740F233431B
:1006D0009A42A2F2334202DC5242FFF76BBFFFF7AD
:1006E0005ABF000030B5041E71F1000404DB4FF066
:1006F0000044404264EB0101141E73F1000405DB69
:100700001C464FF00043524263EB0403994208BF7A
:10071000904230BD064C074D06E0E06840F0010312
:1007200094E8070098471034AC42F6D3FFF738FD41
:100730003C3000085C300008FEE70000014800F093
:100740004BB800009C010020014800F045B80000B3
:10075000FC01002001681823CAB2103AB2FBF3F280
:10076000054B6FF30901032A9B5CC36500D9091D82
:100770008165084670470000A62F000810B50146A5
:1007800000208B698A6A4FF0C07453B1B3F5005FE3
:1007900015D072B1012A0CD0022A0AD0032A09D13D
:1007A00004E01AB1012A06D0022A03D1C96AC9019C
:1007B00000D5012010BDC96AA142FAD010BD002A9F
:1007C000F7D0012AF2D0022AF3D0032AF3D010BDC9
:1007D000704772B6FEE700002DE9F84304464FF07B
:1007E0000009CDF8009063484FF41651A56D0068DC
:1007F000B0FBF1F72E6894F85C10082000FA01F1C4
:1008000031420FD021680A6852070BD50A6822F0DE
:1008100004020A6094F85C108840A860606D40F0A3
:100820000100606594F85C104FF0010808FA01F0CF
:10083000304208D021684969090604D5A860606D76
:1008400040F00200606594F85C100420884030425B
:1008500008D021680968890704D5A860606D40F058
:100860000400606594F85C1010208840304218D075
:1008700021680968090714D5A86020680168490340
:1008800004D50068000308D5A16C07E00168C9051C
:1008900003D4016821F008010160216C09B12046F0
:1008A000884794F85C1020208840304231D021687D
:1008B0000968C9062DD5A86094F835000528206878
:1008C000016806D0490347D5006800031DD4616C58
:1008D0001CE021F0160101602068416921F08001CF
:1008E0004161206C08B9A06C20B12068016821F03A
:1008F0000801016094F85C103F208840A86084F8EB
:10090000358084F83490216D1FE0E16B09B12046F9
:100910008847606D00282BD0606DC00714D005207B
:1009200084F835002068016821F001010160009819
:10093000401C0090B84203D820680068C007F6D178
:1009400084F8358084F83490E16C002910D001B02F
:100950002046BDE8F04308470168C905D5D40168C1
:1009600021F01001016084F8358084F83490CCE7E0
:10097000BDE8F883140000202DE9F041044600F0A2
:1009800075F906465CB1022084F83500002584F82C
:1009900034502068016821F0010101600DE0012060
:1009A000BDE8F08100F062F9801B052805D9202000
:1009B0006065032084F83500F2E720680068C0070E
:1009C000F0D12268116820480140D4E9010318439E
:1009D000D4E903363343184363691843A3691843C2
:1009E000E3691843236A18430843616A042903D161
:1009F000D4E90B1319430843106020684069666A04
:100A000020F0070130460E43012704280CD1A06ACC
:100A10000643E06A40B12046FFF7B0FE20B1402017
:100A2000606584F83570BAE7206846612046FFF7B4
:100A300091FE94F85C203F2191408160656584F8C7
:100A400035700020ACE700003F8010F070B5044620
:100A500000F00CF90546601C02D0044800780444FC
:100A600000F004F9401BA042FAD370BD080000203A
:100A70002DE9F84FDFF8B8A10022012403254FF03B
:100A80000F090AF1040BAAF1040E00BF0B6804FA67
:100A900002F63340B34273D10F7907F00307012FF9
:100AA00001D0022F16D187684FEA420805FA08FCE8
:100AB00027EA0C07D1F80CC00CFA08FC4CEA070C2A
:100AC000C0F808C04768B7430E79C6F300169640D1
:100AD0003E4346600E79F643B6070DD0C768560010
:100AE00005FA06FC27EA0C07D1F808C00CFA06FC48
:100AF0004CEA070CC0F80CC00E7906F00306022E73
:100B000010D1D60800EB8608D8F8206057074FEAC6
:100B1000D76C09FA0CF7BE430F6907FA0CF7374395
:100B2000C8F8207006684FEA420C05FA0CF7BE437D
:100B30000F7907F0030707FA0CF7374307604E6891
:100B400016F4403F6DD03B4E376847F4804737601E
:100B5000366822F0030706F480460096364E07EB0F
:100B6000060CDCF8086897073F0F09FA07F826EA31
:100B70000806DFF8C880404503D14FF000081EE0AA
:100B80004FE0DFF8BC80404502D14FF0010816E08D
:100B9000DFF8B080404502D14FF002080FE0DFF8E7
:100BA000A880404502D14FF0030808E0DFF89C80A0
:100BB000404502D14FF0040801E04FF0070808FA61
:100BC00007F848EA0608CCF80888DAF800605746C3
:100BD000D1F804C09E435FEACC2C00D51E433E6092
:100BE000DBF800605F46D1F804C09E435FEA8C2CBE
:100BF00000D51E433E60DEF800607746D1F804C0A1
:100C00009E435FEA8C3C00D51E433E60084F083F80
:100C10003E68D1F804C09E435FEACC3C00D51E4339
:100C20003E60521C102AFFF431AFBDE8F88F00007F
:100C3000083C0140443802400030014000000240BE
:100C40000004024000080240000C02400010024074
:100C5000426921EA02030A4043EA02418161704786
:100C60000AB1816170470904FBE700000148806810
:100C70007047000008000020024881680278114493
:100C800081607047080000200B4810B5016841F4EE
:100C900000710160016841F480610160016841F404
:100CA00080710160032000F06FF80F2000F006F85B
:100CB00000F024F8002010BD003C024070B50D4D3E
:100CC00004464FF47A712878B1FBF0F00A490968BC
:100CD000B1FBF0F000F057FC48B9102C07D200220D
:100CE0002146501E00F030F800206C6070BD0120DD
:100CF00070BD000008000020140000200A4808B55C
:100D0000016841F480410160006800F48040009077
:100D10000548001F016841F080510160006800F043
:100D20008050009008BD000044380240002809DBD4
:100D300000F01F02012191404009800000F1E020F5
:100D4000C0F8001170470000F0B40E4B1B680C4651
:100D5000C3F30223C3F10705042D00D90425191D8F
:100D6000072901D2002300E0DB1E012606FA05F167
:100D7000491E214099409E40761E16403143F0BCEA
:100D800001F016BB0CED00E0064900F00702086810
:100D90004FF6FF03184040EA0220034A1043086060
:100DA000704700000CED00E00000FA052DE9F04767
:100DB0000E46050065D0DFF81481D8F80000F7B2C0
:100DC00000F00700B04207D288F80070D8F80000A1
:100DD00000F00700B04254D128683D4C810712D57D
:100DE000400703D5206840F4E050206028780007D1
:100DF00003D5206840F4604020602068A96820F096
:100E0000F000084320602878C0072DD0304968687A
:100E10000839012812D0022813D0032811D00968FC
:100E2000890700292DDA216821F00301014321609F
:100E3000FFF71CFF814641F2883A0EE009688903FA
:100E4000EFE709688901ECE7FFF710FFA0EB090164
:100E5000514502D90320BDE8F0872068696800F099
:100E60000C00B0EB810FEFD1D8F80010404601F034
:100E70000701B14207D90770006800F00700B042CF
:100E800001D00120E7E72878400705D52068E96808
:100E900020F4E050084320602878000706D5206839
:100EA000296920F4604040EAC100206000F038F871
:100EB0002168084AC1F30311515CC8400649086023
:100EC00006480068FFF7FAFE0020C4E7003C024035
:100ED00008380240AE2F0008140000200C0000204B
:100EE0000448054900680968044AC1F38221515C3D
:100EF000C84070471400002008380240BE2F000888
:100F00000448054900680968044AC1F34231515C4C
:100F1000C84070471400002008380240BE2F000867
:100F2000154810B5006810F00C02144813D014498D
:100F3000042A0FD0082A0ED10F4C241F22682368E0
:100F400002F03F025B0207D52068C0F38810A0FBC7
:100F5000010106E0084610BD2168C1F38811A1FB1C
:100F600000010023FFF736F92168C1F30141491C54
:100F70004900B0FBF1F010BD083802400024F40035
:100F800040787D012DE9F84F04006ED02078DFF81D
:100F90004C93C007A9F104054AD009F10400016887
:100FA000C1F38101012908D00068C0F38100022843
:100FB0000AD1D9F80000400206D52868800337D549
:100FC00060680028E1D033E06068B0F5803F10D061
:100FD000B0F5A02F286810D020F480302860286851
:100FE00020F4802028606068A8B1FFF73FFE064625
:100FF0000DE0286840F48030F4E740F48020286059
:10100000F7E700BFFFF732FE801B642873D828681B
:101010008003F7D50CE0FFF729FE064605E000BF88
:10102000FFF724FE801B6428F0D828688003F7D4DB
:101030002078DFF8AC8280074FF0000A3ED5A74841
:10104000001D016811F00C0F08D00068C0F381008A
:1010500002280BD1D9F80000400207D42868800785
:1010600016D5E068012800D112E033E1E068B8B19C
:101070000120C8F80000FFF7F9FD064605E000BFB3
:10108000FFF7F4FD801B0228C0D828688007F7D539
:101090002868216920F0F80040EAC10028600DE0CE
:1010A000C8F800A0FFF7E2FD064604E0FFF7DEFD0A
:1010B000801B02281FD828688007F7D420780007F3
:1010C00022D5864F87486169703771B1012101606F
:1010D000FFF7CCFD064604E0FFF7C8FD801B0228A1
:1010E00009D838688007F7D50EE0C0F800A0FFF7F0
:1010F000BDFD064605E082E0FFF7B8FD801B022833
:101100007DD838688007F7D42078400768D5DFF8A5
:10111000CCB100270BF13C0BDBF80000C0000BD476
:10112000DBF8001041F08051CBF80010DBF8000034
:10113000012700F0805000906B4E3068C00510D43D
:10114000306840F480703060FFF790FD009005E05B
:10115000FFF78CFD0099401A022850D83068C0056E
:10116000F6D55E4EA0686C3601280FD00528306891
:1011700010D020F001003060306820F004003060B2
:10118000A068B8B1FFF772FD00900FE0306840F042
:101190000100F4E740F004003060F7E7FFF766FD78
:1011A0000099411A41F28830814266D83068800740
:1011B000F4D50EE0FFF75AFD009007E0FFF756FD6B
:1011C0000099411A41F28830814256D83068800730
:1011D000F4D42FB1DBF8001021F08051CBF80010CF
:1011E000A069C8B33D49091D0968C1F381010229FD
:1011F0004AD00228504607D0C8F8600000E03CE022
:10120000FFF734FD04463BE04746C8F86000FFF7AF
:101210002DFD064605E000BFFFF728FD801B0228D4
:101220002BD828688001F7D4D4E907010843A16AC4
:101230002E4A490802EB0141626A41EA82110843E1
:1012400094F82C1040EA0161C9F8001001203866BA
:10125000FFF70CFD044606E03EE000BFFFF706FD89
:10126000001B022809D828688001F7D534E000BFA8
:10127000FFF7FCFC001B022802D90320BDE8F88F11
:1012800028688001F4D427E00128F7D0D9F80000BD
:10129000E26900F4800191421CD1226A00F03F0112
:1012A000914217D147F6C071626A0140B1EB821FCB
:1012B00010D1A26A4FF0FF3300F4403103EB520229
:1012C000B1EB024F06D194F82C1000F07060B0EB37
:1012D000016F01D00120D1E70020CFE704380240A0
:1012E00000004742800E4742007000400000FFFFB0
:1012F00070B5040009D0606A002540B125616561C0
:10130000A56294F8510040B10CE0012070BD606806
:10131000B0F5827FF4D0E561F2E784F850502046C2
:1013200000F044F8022084F851002068016821F0A0
:1013300040010160A088218900F4827001F4044119
:101340000843A18901F400610843217C01F00201F6
:101350000843217D01F001010843218B01F4007154
:101360000843217F01F03801084394F8201001F070
:1013700080010843218D01F4005108432168086071
:10138000A069042101EA104094F8241001F0100132
:101390000843216848602068C16921F40061C16187
:1013A0006565012084F85100002070BD10B586B03D
:1013B000044614216846FEF745FF14492068884218
:1013C00021D113480021026842F480420260006883
:1013D00000F4804005900E481038026842F0020286
:1013E0000260006800F0020005904FF42040009079
:1013F0000220CDE9010103200390052004906946F5
:101400000448FFF735FB06B010BD0000003800406F
:1014100040380240000402402DE9F84F044690F89D
:1014200050000026984615468A4601280CD0012710
:1014300084F85070FFF71AFC814694F85100B346C7
:10144000012804D002269AE00220BDE8F88FBAF104
:10145000000F6FD0002D6DD0032084F85100C4F828
:1014600054B0C4F830A0A586E586C4F838B0A4F816
:101470003CB0A4F83EB0C4F844B0C4F840B0A06892
:10148000B0F5004F09D12068016821F040010160EA
:101490002068016841F480410160206801684906C4
:1014A00003D4016841F040010160E068B0F5006FCD
:1014B000606803D058B3012D29D049E008B1012D4F
:1014C0001FD1206B21680088C86006E02068816811
:1014D000890709D5216B0988C160206B801C2063B6
:1014E000E08E401EE0860CE0FFF7C0FBA0EB090198
:1014F000414503D3B8F1FF3F03D006E0B8F1000F38
:1015000003D0E08E0028E1D125E0032635E0206BF2
:1015100021680078087306E02068816889070AD589
:10152000216B09780173206B401C2063E08E401E04
:10153000E0860DE01FE0FFF799FBA0EB09014145B4
:1015400003D3B8F1FF3F03D0DFE7B8F1000FDCD0E1
:10155000E08E0028E0D14A464146204600F0F0FBEC
:1015600008B120206065A06818B92068C16880684B
:101570000090606D08B1012601E084F8517084F894
:1015800050B0304661E710B5401EB0F1807F01D306
:10159000012010BD4FF0E02460610F21601700F0C2
:1015A00007FF0020A06107202061002010BD7047C8
:1015B000704710B5040003D094F83D0010B107E067
:1015C000012010BD002084F83C00204600F01EF8E9
:1015D000022084F83D00211D206800F09FFD0120BD
:1015E00084F8460084F83E0084F83F0084F8400008
:1015F00084F8410084F8420084F8430084F84400F1
:1016000084F8450084F83D00002010BD08B5154A57
:101610000168154891420ED1016841F40031016022
:101620000068002200F40030009011461920FFF7F6
:101630008BFB192010E00D4A914211D1016841F451
:10164000802101600068002200F480200090114693
:101650001A20FFF779FB1A20BDE80840FFF766BBA8
:1016600008BD0000004401404438024000480140E9
:1016700090F83D10012901D001207047022180F827
:101680003D100168CA6842F00102CA6000680E4954
:1016900088420ED0B0F1804F0BD00C49884208D060
:1016A0000B49884205D00B49884202D00A4988423A
:1016B00004D1816801F00701062903D0016841F0D7
:1016C000010101600020704700000140000400405B
:1016D00000080040000C00400040014070472DE928
:1016E000F04104460068C66805694FF00007A90785
:1016F00013D5B10711D5F91E0161012020772068AB
:1017000080698007204602D0FFF7E8FF04E000F080
:101710007EF8204600F07CF82777680716D570071A
:1017200014D521686FF0040008610220207720683A
:10173000806910F4407F204602D0FFF7CFFF04E01D
:1017400000F065F8204600F063F82777280715D5E4
:10175000300713D521686FF0080008610420207756
:101760002068C0698007204602D0FFF7B7FF04E079
:1017700000F04DF8204600F04BF82777E80616D524
:10178000F00614D521686FF010000861082020775A
:101790002068C06910F4407F204602D0FFF79EFF0A
:1017A00004E000F034F8204600F032F82777E8072C
:1017B00008D0F00706D021686FF0010008612046CC
:1017C00000F028F8280608D5300606D521686FF005
:1017D000800008612046FFF7EAFE680608D570061B
:1017E00006D521686FF040000861204600F02CF813
:1017F000A8060AD5B00608D521686FF02000086158
:101800002046BDE8F041FFF7D3BEBDE8F081704748
:101810007047000010B5094904460068096888420D
:1018200002D1074801F0A6FB0649206809688842F2
:1018300003D1BDE8104001F07FBB10BDC400002003
:10184000240000200C010020704770B5040004D073
:1018500094F84100002510B106E0012070BD84F825
:101860004050204600F024F8242084F841002068ED
:10187000C16821F40051C160204600F0C9FC206815
:10188000016921F4904101612068416921F02A0138
:1018900041612068C16841F40051C1606564202045
:1018A00084F8410084F842006563002070BD0000A8
:1018B0002DE9F04186B0064614216846FEF7C2FCC9
:1018C0002C493068884251D12B480024016841F0EE
:1018D00010010160006800F01000059026481438DF
:1018E000016841F0010101600068694600F00100F3
:1018F00005904FF4C06000900220CDE90104032060
:101900000390072004901D48FFF7B2F81D4D1C48B6
:101910004FF000672860C5E901744FF48068C5E99D
:1019200003486C61AC61EC612C6228466C62FFF785
:1019300023F808B1FEF74DFFF563AE63114D104873
:1019400060357830E5E802074020A5E811010D4830
:1019500045F814496030AC61EC612C626C62FFF7B1
:101960000BF808B1FEF735FFB563AE6306B0BDE80E
:10197000F0810000001001404438024000000240A5
:10198000406402409C0100202DE9F843044690F891
:101990004100984616460D46202802D00220BDE898
:1019A000F88385B17EB100206064212084F8410075
:1019B000FFF75CF9A6848146E684A0682027B0F58D
:1019C000805F02D003E00120E9E7206910B12E46D4
:1019D00000250EE000260CE08021204600F09EFC51
:1019E000A8B9C6B116F8010B21684860E08C401E0A
:1019F000E084E08C4B464FF00002CDF800800028D8
:101A0000EAD14FF04001204600F088FC40B184F854
:101A100041700320C3E735F8020BC0F30800E3E789
:101A200084F841700020BAE7FEE72DE9F041283044
:101A300087B228323431343395B28EB29CB22A2028
:101A400000F066F8380A00F071F8F8B200F06EF8AD
:101A5000280A00F06BF8E8B200F068F82B2000F0DC
:101A600057F8300A00F062F8F0B200F05FF8200A90
:101A700000F05CF8E0B200F059F8BDE8F0412C202D
:101A800000F046B870B5040AC5B200218623EF22E3
:101A90000846FFF7CAFF0F4900204FF4A27200BFAB
:101AA00001F8104001EB4003401C80B25D70904291
:101AB000F6D3012291030848FFF7D2F800244FF42F
:101AC00022752946034800F009F8641CA4B2642C6E
:101AD000F7D370BD5C020020000402402DE9F04104
:101AE0000A4D0E4607464FF48054002221462846F0
:101AF000FFF7B6F83146384600F01AF92146284675
:101B0000BDE8F0410122FFF7ABB80000000402403D
:101B100001B500224FF480410348FFF7A1F80121ED
:101B20006846FFF7DBFF08BD0004024001B5012253
:101B300091030448FFF794F801216846FFF7CEFFB0
:101B400008BD0000000402400D4808B5016841F4DA
:101B5000800101600068002200F4800000901146BE
:101B60003A20FFF7F1F83A20FFF7E0F8002211469B
:101B70004620FFF7E9F8BDE808404620FFF7D6B851
:101B8000303802402DE9F04387B014216846FEF753
:101B900059FB24480024016841F0040101600168F8
:101BA00001F004010591016841F0800101600168C4
:101BB00001F080010591016841F0020101600168B6
:101BC00001F002010591016841F001010160006826
:101BD000DFF8548000F001000590002248214046C3
:101BE000FFF73EF8DFF8449045F21007002239462F
:101BF0004846FFF735F8482001250326CDE90005C2
:101C0000CDE9024669464046FEF732FF009703964B
:101C1000CDE9015469464846FEF72AFF07B0BDE802
:101C2000F083000030380240000802400004024007
:101C3000104810B50E4901604FF4827141600021D7
:101C400002228160C0E90312012242615202C0E90E
:101C500006210162416281620A21C162FFF748FBED
:101C6000002803D0BDE81040FEF7B3BD10BD000052
:101C7000003800406C0000200C4810B50A49016093
:101C800041F61F414160002142F20F72C0E9021289
:101C900001618161FFF78DFC002803D0BDE8104091
:101CA000FEF797BD10BD000000440140C4000020B5
:101CB0000C4810B50A4901600B490C4A096841609B
:101CC000002181601268C0E903218161FFF771FC86
:101CD000002803D0BDE81040FEF77BBD10BD00001A
:101CE000004801400C0100200000002004000020FA
:101CF0000C4810B50A4901604FF4E1314160002100
:101D000081600C22C160C0E904128161C161FFF7EA
:101D10009CFD002803D0BDE81040FEF75ABD10BD61
:101D20000010014054010020FEE7FEE7704700006C
:101D30000A460146FF230148FFF76EBB6C000020F6
:101D4000F8B515460E460B460092044601220221C4
:101D500000F02CF8A0B9134813490068B0FBF1F06B
:101D60004FF47A71484300906068B0F5827F0DD1DE
:101D70003346002280212046009500F017F870B10C
:101D8000606D40F0200060650320F8BD009830B120
:101D9000401E009020688068C0430006F6D50020F1
:101DA000F8BD00001400002000366E012DE9F84354
:101DB0001E46914688460446089DFEF757FF401B85
:101DC000351AFEF753FF074625480068C0F3CB30AD
:101DD000684338E0701C37D0FEF748FFC01BA842AC
:101DE00003D215B1009860B32CE02068416821F05F
:101DF000E00141606068B0F5827F0BD1A068B0F56A
:101E0000004F02D0B0F5806F04D12068016821F046
:101E100040010160A06AB0F5005F09D12068016847
:101E200021F4005101602068016841F40051016013
:101E3000012084F85100002084F850000320BDE800
:101E4000F8830025401E00902068816838EA010070
:101E500004D000214945BDD10020F0E70121F9E778
:101E60001400002070B57B4C012210212046FEF7A3
:101E7000F7FE794D002240212846FEF7F1FE0C20A6
:101E8000FEF7E4FD012240212846FEF7E9FE0C2082
:101E9000FEF7DCFD1120FFF73BFE0C20FEF7D6FD20
:101EA0003A20FFF735FE0520FFF740FEC520FFF77B
:101EB0002FFE1A20FFF73AFE3620FFF729FEA0205A
:101EC000FFF734FEB220FFF723FE0520FFF72EFEBA
:101ED0000520FFF72BFE0020FFF728FE3320FFF739
:101EE00025FE3320FFF722FEB720FFF711FE052065
:101EF000FFF71CFEBB20FFF70BFE3F20FFF716FE8F
:101F0000C020FFF705FE2C20FFF710FEC220FFF7D0
:101F1000FFFD0120FFF70AFEC320FFF7F9FD0F20A8
:101F2000FFF704FEC420FFF7F3FD2020FFF7FEFDBE
:101F3000C620FFF7EDFD0120FFF7F8FDD020FFF7E9
:101F4000E7FDA420FFF7F2FDA120FFF7EFFDE82059
:101F5000FFF7DEFD0320FFF7E9FDE920FFF7D8FDDD
:101F60000920FFF7E3FD0920FFF7E0FD0820FFF758
:101F7000DDFDE020FFF7CCFDD020FFF7D7FD0520E9
:101F8000FFF7D4FD0920FFF7D1FD0920FFF7CEFDB3
:101F90000820FFF7CBFD1420FFF7C8FD2820FFF72E
:101FA000C5FD3320FFF7C2FD3F20FFF7BFFD07202F
:101FB000FFF7BCFD1320FFF7B9FD1420FFF7B6FDB6
:101FC0002820FFF7B3FD3020FFF7B0FDE120FFF739
:101FD0009FFDD020FFF7AAFD0520FFF7A7FD0920F0
:101FE000FFF7A4FD0920FFF7A1FD0820FFF79EFDE4
:101FF0000320FFF79BFD2420FFF798FD3220FFF719
:1020000095FD3220FFF792FD3B20FFF78FFD142056
:10201000FFF78CFD1320FFF789FD2820FFF786FDD1
:102020002F20FFF783FD2120FFF772FD2920FFF706
:102030006FFD00218623EF220846FFF7F6FC002003
:10204000FFF720FD2046BDE8704000221021FEF77A
:1020500007BE000000040240000802407047FEF77F
:102060000BBE000030B593B030216846FEF7EAF8A9
:1020700014210CA8FEF7E6F81C480025016841F081
:1020800080510160006800F080501190184801688C
:1020900041F4404101600068022400F44040119086
:1020A00001200090000401908001CDE906400C2041
:1020B00008906020CDE9090404200B906846FEF7E3
:1020C00061FF08B172B6FEE70CA90F2081E831006C
:1020D0004FF48050CDE90F0503210CA8FEF766FEF2
:1020E000002801D072B6FEE713B030BD4038024080
:1020F000007000400248016841F4700101607047BF
:1021000088ED00E00148FFF7EABA00000C0100206A
:102110000148FFF7E4BA0000C4000020F0B50268EF
:10212000204B214C9F03214D214E984207D0B842AD
:1021300005D0A04203D0A84201D0B04204D122F081
:10214000700C4A6842EA0C02984210D0B8420ED095
:10215000A0420CD0A8420AD0B04208D0154CA042F0
:1021600005D0154CA04202D0144CA04203D122F459
:102170004074CA6822434C6922F080022243026004
:102180008A68C2620A688262984201D10969016361
:10219000012141610169C90703D0016921F00101F1
:1021A0000161F0BD00000140000400400008004053
:1021B000000C004000400140004401400048014044
:1021C00001680C3151E8002F22F4907241E800239D
:1021D000002BF5D10168143151E8002F22F00102E3
:1021E00041E80023002BF5D1016B012909D10168D9
:1021F0000C3151E8002F22F0100241E80023002B9F
:10220000F5D1202180F842100021016370470000C1
:1022100070B5044600680169E26821F44051114339
:1022200001612169A068E2690843616911430843BB
:102230002168CA6849F20C639A430243CA60206865
:102240004169A26921F4407111434161314920681B
:10225000884202D03049884202D1FEF751FE01E0A7
:10226000FEF73EFEE2690023192164253226B2F50D
:10227000004F626828D0A0FB0101930F9200FDF788
:10228000A9FF0146B0FBF5F06FF01802504301EBD7
:10229000800006EB0010B0FBF5F000F0F002B1FB9F
:1022A000F5F002EB0012B1FBF5F06FF018035843A4
:1022B00001EB800006EB0010B0FBF5F000F00F0022
:1022C00021681044886070BDA0FB010192185B4139
:1022D000FDF780FF0146B0FBF5F00201B1FBF5F020
:1022E0006FF01803584301EB800006EBC000B0FB11
:1022F000F5F000F0F80002EB4002B1FBF5F05843B6
:1023000001EB800006EBC000B0FBF5F000F0070029
:10231000D6E7000000100140001401402DE9F84309
:10232000984617460D460446089E24E0701C22D0AD
:10233000FEF79CFCA0EB0800B0421AD8CEB1206892
:10234000C168490717D5802D15D0402D13D00168DD
:10235000C94309070FD40168002540680090204652
:10236000FFF72EFF0820606484F840500120BDE88C
:10237000F8830320FBE72068006835EA000004D0FA
:102380000020B842D2D00020F1E70120F9E7FEE7B3
:102390000FB4054B10B503A9044A029800F0EAF8FF
:1023A00010BC5DF814FB0000252D00082000002063
:1023B0000907090E002804DB00F1E02080F8001472
:1023C000704700F00F0000F1E02080F8141D704706
:1023D00002E008C8121F08C1002AFAD170477047EE
:1023E000002001E001C1121F002AFBD1704700004C
:1023F0002DE9FF5F82B00021DDE90430020DDDF838
:1024000040B0034318D044F61050A2F2FF324243CA
:102410001514119801281FD0A5EB0B00401C5FEA92
:10242000000A4FF000064E4FDFF83891B046504694
:1024300015D5CAF1000413E0119801244AA301281C
:1024400001D16FEA0B010298119AC0E90031C0E98D
:10245000024206B0BDE8F09FCBF10000DFE7044682
:102460000021404A491842EB0450CDE9001012E027
:10247000E00707D032463B4640464946FDF794FF09
:102480008046894632463B4610461946FDF78CFF8A
:1024900006460F466410002CEAD1DDE90401DDE9AF
:1024A0000023BAF1000F06DAFDF77EFF42464B46E5
:1024B000FDF77AFF05E0FDF7E9FF42464B46FDF7E1
:1024C000E5FF04460E460022284BFEF70BF903D821
:1024D0004FF0FF30014607E00022254B20463146F1
:1024E000FDF7BBFEFEF7E5F8102409E0002C0ADB3F
:1024F0000A220023FDF76EFE039B30321A55641E3C
:1025000050EA0102F2D1641C039AC4F1110314448D
:10251000119A012A03D0012208430DD10AE0084391
:1025200004D000204FF0110B119072E7A3EB0B05C4
:102530006D1E0DE05B4504DD4FF0000205F1010565
:1025400004E003DA4FF00002A5F10105002AECD007
:1025500002981199C0E90231C0E9004579E700000D
:10256000000014400000F03F300000000000F04385
:102570000000E03F2DE9FF4F95B09A468846064699
:102580000025EEE1252877D100242746F94A0121CC
:10259000039400E0044316F8013F203B01FA03F0E6
:1025A0001042F7D130782A2811D06FF02F033078FD
:1025B000A0F13002092A16D8039A44F0020402EB73
:1025C000820203EB42021044761C0390EFE758F8B6
:1025D000042B0392002A03DA504244F4005403907F
:1025E00044F00204761C30782E2816D116F8010F1C
:1025F00044F004042A280DD06FF02F023078A0F1A7
:102600003003092B09D807EB870302EB4303C718F4
:10261000761CF3E758F8047B761C30786C280FD0D2
:1026200006DC4C2817D068280DD06A2814D104E0A5
:10263000742810D07A280FD10DE044F400140AE079
:1026400044F4801401E044F440147278824202D1D0
:1026500004F58014761C761C307866280BD013DCC9
:10266000582877D009DC002875D04528F6D04628B0
:10267000F4D047281AD193E118E0632835D06428B4
:1026800079D0652812D18BE1702873D008DC6728D7
:10269000F1D069286FD06E280DD06F2806D1ACE03C
:1026A00073282CD0752874D0782853D052461799A7
:1026B00090476D1C54E1C4F30250022809D003284E
:1026C0000DD0D8F8001004280DD00D6008F10408D2
:1026D00046E1D8F80010EA17C1E90052F6E7D8F849
:1026E00000100D80F2E70D70F0E718F8041B8DF86C
:1026F000001000208DF80100EB46012003E058F89F
:1027000004BB4FF0FF3061074FF0000102D40DE031
:1027100009F101018946B9420FDA8145F8DB1BF85E
:1027200009100029F4D108E009F10101894681422C
:10273000FADB1BF809100029F6D103985346A0EBE9
:10274000090721463846179A00F080FA284400EB22
:10275000090507E044E008E10DE01BF8010B5246D3
:1027600017999047B9F10109F7D2534621463846E7
:10277000179AF2E039E00A21C4F302524FF0000B3D
:102780000091022A06D058F8040BC117032A09D079
:102790000AE023E008F1070020F00702F2E8020156
:1027A000904605E000B2C117042A01D140B2C1171A
:1027B000002906DA0A460021404261EB02012D227F
:1027C00002E0220504D52B228DF80420012203E02B
:1027D000E20701D02022F7E7914657E00A2100E006
:1027E00010214FF0000B00910BE010214FF0000B77
:1027F00044F004040827009103E008204FF0000B88
:102800000090C4F30252022A05D058F8040B0021AC
:10281000032A08D008E008F1070020F00702F2E8D8
:102820000201904603E080B2042A00D1C0B24FF00A
:10283000000922072AD53278702A07D0DDF800C0B7
:102840008CF0100C5CEA0B0C05D00EE040228DF8E9
:102850000420012208E050EA010306D030238DF85D
:1028600004308DF8052002229146009B83F0080376
:1028700053EA0B030AD150EA010201D1620705D5E0
:1028800030228DF804204FF001097F1E3278582A3B
:1028900004D039A20C920CAA02920BE03BA2F9E7F9
:1028A0005B46009AFDF796FC0C9B9B5C029A521EBD
:1028B0000292137050EA0102F2D1029804A9081A98
:1028C00000F1200B600702D524F4803400E00127DA
:1028D0005F4502DDA7EB0B0000E0002000EB0B01E1
:1028E000009003984944401A0390E00306D45346ED
:1028F0002146179A039800F0A9F90544002706E03D
:1029000001A85246C05D179990476D1C7F1C4F452A
:10291000F6DBE0030CD553462146179A039800F0E6
:1029200095F9054404E030205246179990476D1CF4
:102930000099481E00900029F5DC08E002980299F1
:1029400052460078491C0291179990476D1CBBF1C3
:102950000001ABF1010BF1DC5BE100F065F905442E
:10296000761C307800287FF40DAE19B02846BDE8FB
:10297000F08F00000928010030313233343536370A
:1029800038396162636465660000000030313233BB
:10299000343536373839414243444546000000005B
:1029A000600700D4062708F1070020F00700F0E8D0
:1029B0000223804603F0004C5FEA0C0001D097A090
:1029C00009E0200501D596A005E0E00701D095A01B
:1029D00001E0AFF24C001390307823F000436528FB
:1029E0000CD006DC452809D046281DD047287FD1C9
:1029F0003BE0662818D067287AD136E00021112FF5
:102A000001DB112000E0781CCDE9000104A90CA82D
:102A1000FFF7EEFCDDE90D010C9A4FF0000B07F11A
:102A20000109109200914EE04FF000400097CDE96F
:102A3000011004A90CA8FFF7DBFCDDE90D020C9BDB
:102A40000F994FF0000B91461093009211B9791C29
:102A500000EB0109B7EB090003D4C0F1FF3B07F11C
:102A60000109A9EB0700019042E0012F00DA0127DC
:102A70000021112F01DD112000E03846CDE90001D1
:102A800004A90CA8FFF7B4FCDDE90D010C9A009134
:102A90004FF0000BB946109221070FD4009A4A4517
:102AA00003DA914601E0A9F10109B9F1010F05DD51
:102AB000109AA9F10101515C3029F4D0B84202DA30
:102AC00010F1040F03DA0121CDE9011010E0002814
:102AD00003DC8344A9EB000102E0411C494500DD11
:102AE0008946A0EB0B00401C01904FF00040029083
:102AF000200705D40198484502DB4FF0FF300190D4
:102B000000208DF84B0002980DF14B07B0F1004FFB
:102B100025D002200C902B200D90029800280CDA72
:102B2000404202902D200D9007E00A210298FDF707
:102B30001CFD3031029007F8011D0C99481E0C90C5
:102B40000029F2DC02980028EFD1791E0D98087058
:102B5000307800F0200040F0450007F8020D11A881
:102B6000C01BC01D02901398007800B1012000EB3B
:102B70000901019801EBE071029801440398401AA1
:102B8000401E0390E00306D453462146179A03984B
:102B900000F05CF805441398007818B15246179974
:102BA00090476D1CE00323D553462146179A03989E
:102BB00000F04CF805441BE0BBF1000F07DB009868
:102BC000584504DD1098179910F80B0001E017998B
:102BD00030205246904701980BF1010B401E05F141
:102BE0000105019004D12E205246179990476D1C83
:102BF000B9F10001A9F10109DEDC05E017F8010BCC
:102C00005246179990476D1C0299481E0290002960
:102C1000F4DC53462146179A03989EE62D000000E7
:102C20002B000000200000002DE9F04104460025A3
:102C30001E461746880404D405E039462020B047D4
:102C40006D1C641EF9D52846BDE8F0812DE9F041E0
:102C5000044600251E469046C80301D5302700E0F3
:102C60002027880404D505E041463846B0476D1C4E
:102C7000641EF9D52846BDE8F08100002DE9FF412A
:102C800001231E04154CC0EB00450AE05B1CB34257
:102C900007D313A0FFF77CFB4FF0FF3004B0BDE873
:102CA000F081B4FBF3F7AF42F0D85B1E0B605B1C06
:102CB000B4FBF3F3B3FBF0F010600968CDE9021048
:102CC0009FED130B16488DED000B9FED130B53EC8E
:102CD000102BFFF75DFB0020E0E7000000E1F505A9
:102CE0005B4552524F525D2043616E277420466906
:102CF0006E64205072657363616C65722026204398
:102D00006F756E7465725F706572696F640A00003A
:102D1000000000000000F03F0000000000005940EB
:102D2000E82F000813B54FF0FF330122694602482F
:102D3000FEF72AFE00981CBD54010020FDF7A4FFF9
:102D4000FFF790F9FEF71EFFFEF7FEFEFEF794FF79
:102D5000FEF7AEFFFEF7CCFFFEF76AFF2C4A4FF4FA
:102D60007A70111FFFF78AFF08B9FEF7A1FF294803
:102D7000FEF77EFC2848FEF77BFC6420FDF766FE2C
:102D80004FF4FA70FDF762FE24A0FFF701FB2EA0BE
:102D9000FFF7FEFA34A0FFF7FBFA3BA0FFF7F8FAC3
:102DA00041A0FFF7F5FA48A0FFF7F2FA4AA0FFF7B3
:102DB000EFFA1AA0FFF7ECFA4BA0FFF7E9FAFFF7DA
:102DC00051F84E4D4FF6FF744FF478462046FEF70B
:102DD00059FE072000F09EF848B1072000F090F857
:102DE00008212846FDF734FF3046FEF74BFE04204D
:102DF00000F090F810B1042000F082F8012000F0FB
:102E000089F80028E2D0012000F07AF8DEE700001F
:102E1000040000200C010020C40000200D0A3D3DEC
:102E20003D3D3D3D3D3D3D3D3D3D3D3D3D3D3D3DD2
:102E30003D3D3D3D3D3D3D3D3D3D3D3D3D3D3D3DC2
:102E40003D3D3D3D0D0A00002020205F5F5F5F5F3C
:102E50005F20205F5F5F5F5F5F20205F5F5F5F5F7E
:102E60005F5F200D0A00000020202F205F5F2F20D1
:102E7000207C2F20202F205F20292F205F5F2F20F4
:102E80005F205C0D0A000000202F205F2F2F202FD5
:102E90007C5F2F202F205F20202F205F2F2F202CC2
:102EA000205F2F0D0A0000002F5F5F5F2F5F2F2034
:102EB000202F5F2F5F5F5F5F2F5F5F5F2F5F2F7C34
:102EC0005F7C200D0A00000053797374656D2053F8
:102ED00074617274210D0A0056657273696F6E3ADF
:102EE00020312E300D0A00005B696E666F5D5275F1
:102EF0006E6E696E672E2E2E2E0D0A00000802409F
:102F000001218140C84302490A7802400A70704793
:102F100018000020012181400148007808407047D6
:102F200018000020012181400248027811430170FD
:102F3000704700001800002030B50C4B5868401C4A
:102F4000586000200A4C5870C0B25A6854F82010DB
:102F5000B2FBF1F501FB152109B9FFF7E3FF587842
:102F6000401CC0B258700828EED330BD18000020B5
:102F7000C82F00084168491C41603C2912D33C39E4
:102F800041608168491C81603C290BD33C398160D8
:102F9000C168491CC160182904D31839C16001698E
:102FA000491C01617047000610160006101600004B
:102FB00000000000000001020304060708090000E9
:102FC0000000010203040000010000000A000000EC
:102FD000140000003200000064000000C80000007F
:102FE000F4010000E80300005B696E666F5D0A4D46
:102FF00041494E5F465245513A20252E3266204DBA
:10300000487A0A5441524745545F465245513A2046
:10301000252E3266204B487A0A5072657363616CC4
:1030200065723A2025750A436F756E7465725F701C
:103030006572696F643A2025750A00005C300008EB
:103040000000002024000000D02300088030000889
:10305000240000207C090000E0230008000000009C
:10306000000000000100000010000000000000004F
:103070000024F40000000000000000000000000038
:040000050800019955
:00000001FF
