:020000040800F2
:10000000E0290120E50300085F420008753B000875
:100010005D42000869220008754B000800000000DE
:1000200000000000000000000000000025030008A0
:100030001D2300080000000081030008D5450008CA
:10004000FF030008FF030008FF030008FF03000888
:10005000FF030008FF030008FF030008FF03000878
:10006000FF030008FF030008FF030008FF03000868
:10007000FF030008FF030008FF030008FF03000858
:10008000FF030008FF030008FF0300080000000052
:10009000000000000000000000000000FF03000856
:1000A000FF030008FF03000889460008FF0300085B
:1000B000FF030008FF030008FF030008FF03000818
:1000C000FF030008FF030008FF030008FF03000808
:1000D000FF030008FF030008FF0300080000000002
:1000E000FF030008FF030008FF03000800000000F2
:1000F0000000000000000000000000006D22000869
:1001000000000000FF030008FF030008FF030008D1
:1001100000000000000000000000000000000000DF
:10012000FF030008FF030008FF030008FF030008A7
:10013000FF030008000000000000000000000000B5
:10014000000000000000000000000000FF030008A5
:10015000FF030008FF030008FF030008FF03000877
:10016000FF030008FF03000800000000000000007B
:10017000000000000000000000000000000000007F
:1001800000000000FF030008000000000000000065
:10019000FF030008FF03000800F002F800F0B2F8C7
:1001A0000AA090E8000C82448344AAF10107DA45D2
:1001B00001D100F0A7F8AFF2090EBAE80F0013F072
:1001C000010F18BFFB1A43F00103184724F3030083
:1001D00044F303000A444FF0000C10F8013B13F005
:1001E000070408BF10F8014B1D1108BF10F8015B90
:1001F000641E05D010F8016B641E01F8016BF9D183
:1002000013F0080F1EBF10F8014BAD1C0C1B09D1D9
:100210006D1E58BF01F801CBFAD505E014F8016B4B
:1002200001F8016B6D1EF9D59142D6D370470000DD
:100230000023002400250026103A28BF78C1FBD8EF
:10024000520728BF30C148BF0B6070476E2900F0CD
:10025000DD84702900F03D86662929F01C8165291E
:1002600029F01981672929F01681612929F0158162
:1002700003681B0A28BF41F08001692900F0CA8188
:10028000642900F0C781752900F0C4816F2900F04E
:10029000CA85782900F00986E92900F06585E429F6
:1002A00000F06285F52900F05F85EF2900F0C78531
:1002B000F82900F008860368DB0928BF41F08001B7
:1002C000632900F0E684732900F0EB84E32901F050
:1002D0002582F32901F02A82002070471FB529F0FA
:1002E000D5F801F079FA04000020002129F0B8F8CF
:1002F000401C60600020002129F09CF8E0601FBDD8
:1003000010B510BD01F03AFA1146FFF7E7FF22F0F1
:10031000A7FB01F017FB03B4FFF7F2FF03BC01F0EA
:100320001BFB00002C4B19680868B0E8F04F80F305
:100330000988BFF36F8F4FF0000080F3118870477A
:100340000000000008480068006880F308884FF04B
:10035000000080F3148862B661B6BFF34F8FBFF31D
:100360006F8F00DF00BF00BF08ED00E0DFF80C007A
:10037000016841F470010160704700BF88ED00E042
:10038000EFF30980BFF36F8F134B1A681EF0100F45
:1003900008BF20ED108A20E9F04F106009B44FF03B
:1003A000500080F31188BFF34F8FBFF36F8F28F099
:1003B00027FB4FF0000080F3118809BC196808681A
:1003C000B0E8F04F1EF0100F08BFB0EC108A80F3B9
:1003D0000988BFF36F8F70472C000020EFF3058072
:1003E000704700000948804709480047FEE7FEE7DC
:1003F000FEE7FEE7FEE7FEE7FEE7FEE7FEE7FEE7D5
:1004000004480549054A064B704700007946000834
:1004100099010008E0230120E0290120E0250120C6
:10042000E025012053EA020C00F069802DE9F04B31
:100430004FF00006002B1FBFB3FA83F503FA05F453
:1004400024FA05F65E4012BF1643B2FA82F502FAAC
:1004500005F4C5F120051EBF22FA05FC44EA0C0490
:10046000203556EA044C4FEA144418BF641C4FF080
:1004700000084FF00009904271EB030C39D30029BA
:1004800019BFB1FA81F701FA07F6B0FA80F700FA5E
:1004900007F6C7F120071EBF20FA07FC46EA0C0644
:1004A0002037B6FBF4FCA7EB0507103F07F01F0B46
:1004B000CBF120060CFA0BFB2CFA06F644BFB34630
:1004C0000026202FA4BF5E464FF0000B5BEA060C0F
:1004D00008BF4FF0010B19EB0B09ABFB027C48EB9B
:1004E0000608C01B06FB02CC0BFB03CC71EB0C0116
:1004F000C1E70B46024641464846BDE8F08B13B5BE
:100500004FF000004FF00001AFF30080BDE81C4049
:10051000704700007CB51D4616460C00009001D0C7
:100520002044401E074B7B442A46694601903046D2
:1005300000F085FB05461CB10020694600F092FBE7
:1005400028467CBD450700000FB41CB5084B06AA21
:100550007B4469460090059800F071FB044600203A
:10056000694600F07FFB20461CBC5DF814FB0000D0
:100570001107000070B5044685690068C10601D501
:10058000302600E02026C00707D070BDD4E9012145
:1005900030469047206A401C20626D1EF6D570BD23
:1005A00070B5044685690078C00707D170BDD4E9ED
:1005B000012120209047206A401C20626D1EF6D544
:1005C00070BD70B50C460546012A05D02878800616
:1005D00000D5EA69002302E0012305E05B1C934299
:1005E00002D2E05C0028F9D1A869E618C01AA86117
:1005F000286A184428622846FFF7BCFF04E0D5E9C2
:10060000012114F8010B9047B442F8D32846FFF7B4
:10061000C7FF70BD2DE9F04106460024106875291A
:10062000314616A510D000F086FA002802DA4042C2
:1006300013A507E031688A0701D512A502E0490732
:1006400004D511A5012401E000F07EFA00210A2260
:1006500006F1240709E0B0FBF2FCB0FBF2F302FB69
:100660001C00303078541846491C0028F3D123462A
:100670002A463046BDE8F04100F06FBA00000000A5
:100680002D0000002B000000200000002DE9F05F8D
:10069000894604464FF0000ADFF874B1FB44C0F805
:1006A00020A02046E1688847002874D0252806D07D
:1006B000D4E901219047206A401C2062F1E700261E
:1006C0005F462046E16888472028054607DB312D34
:1006D00005D2781910F8200C08B10643F1E7B007ED
:1006E00001D526F00406C4F81CA00027C4F818A001
:1006F0002A2D09D0284604F0ADFA38B304EB870858
:10070000303DC8F8185019E059F8041B204604EB96
:1007100087029161E1688847012F054618D1E06999
:10072000002820DA26F020061DE0D8F8180000EB9B
:10073000800005EB40003038C8F818002046E1681A
:100740008847054604F086FA0028EED1012F0AD02A
:100750002E2D08D12046E16888477F1C0546022FD0
:1007600046F02006C4DBA069002803DA404246F0C8
:100770000106A061F00701D026F010066C2D0BD009
:10078000682D09D04C2D39D06A2D35D0742D35D037
:100790007A2D33D016E038E0E1682F4620468847AE
:1007A000B842054609D16C2F26D04FF48060E1682D
:1007B000064320468847054604E06C2F1AD04FF4C4
:1007C000807006430DB3A5F14100192802D82035E9
:1007D00046F400664A462946204626604E46FFF704
:1007E00035FD80B101280BD0F61D26F0070000F181
:1007F000080956E74020E4E78020D8E70020D6E744
:1008000006F104094DE7284652E7206ABDE8F09F4B
:1008100080E8030040EA0103024630B59B0710D18F
:100820004FF0013400E008C208C91D1B9D4315EAC2
:10083000C41FF8D013F0FF0102F8011B0DD01B0AF2
:10084000F8E711F8013B002B02F8013B05D011F845
:10085000013B002B02F8013BF3D130BD10B5431C26
:1008600002E010F8011B71B18107FAD14FF001329B
:1008700002C88C1A8C4314EAC211F9D0C01A0A06B5
:1008800003D0C01E10BDC01A10BD0A0401D0801EC6
:1008900010BD0902FCD0401E10BD032A40F230807A
:1008A00010F0030C00F0158011F8013BBCF1020FB1
:1008B000624498BF11F801CB00F8013B38BF11F832
:1008C000013BA2F1040298BF00F801CB38BF00F849
:1008D000013B11F0030300F06780083AC0F0088084
:1008E00051F8043B083A51F804CBA0E80810F5E7AA
:1008F000121D5CBF51F8043B40F8043BAFF300808D
:10090000D20724BF11F8013B11F801CB48BF11F801
:10091000012B24BF00F8013B00F801CB48BF00F8D1
:10092000012B7047431A28BF9A427FF6B6AF032ABD
:100930001044114440F2268010F0030F1EBF11F83E
:10094000013D521E00F8013D10F0030F7FF4F6AF99
:1009500011F0030300F0DB82083AC0F00B8051F87D
:10096000043D083A51F804CD40F8043D40F804CD68
:10097000FFF7F3BF121D5CBF51F8043D40F8043D82
:10098000AFF30080D20724BF11F8013D11F801CD6B
:1009900048BF11F8012C24BF00F8013D00F801CD3B
:1009A00048BF00F8012C704710B5203AC0F00B800A
:1009B000B1E81850203AA0E81850B1E81850A0E863
:1009C0001850BFF4F5AF5FEA027C24BFB1E81850BD
:1009D000A0E8185044BF18C918C0BDE810405FEA2D
:1009E000827C24BF51F8043B40F8043B08BF7047A9
:1009F000D20728BF31F8023B48BF11F8012B28BFAE
:100A000020F8023B48BF00F8012B704702F0FF03BB
:100A100043EA032242EA024200F002B84FF0000229
:100A20000429C0F0128010F0030C00F01B80CCF100
:100A3000040CBCF1020F18BF00F8012BA8BF20F86E
:100A4000022BA1EB0C0100F00DB85FEAC17C24BFC2
:100A500000F8012B00F8012B48BF00F8012B70476C
:100A60004FF0000200B5134694469646203922BF47
:100A7000A0E80C50A0E80C50B1F12001BFF4F7AF92
:100A8000090728BFA0E80C5048BF0CC05DF804EB74
:100A9000890028BF40F8042B08BF704748BF20F8E2
:100AA000022B11F0804F18BF00F8012B7047000097
:100AB0004FF0013C50F8042B51F8043B9A4221D1ED
:100AC000A2EB0C03934313EACC1317D150F8042B79
:100AD00051F8043B9A4215D1A2EB0C03934313EA5D
:100AE000CC130BD150F8042B51F8043B9A4209D196
:100AF000A2EB0C03934313EACC13DBD04FF00000BE
:100B0000704700BFD01A01BAB1FA81F101F01801A3
:100B100022FA01F0CB40C1F12001DBB2C0B2C01A11
:100B20002CFA01F3D11A914311EAC311E6D17047AF
:100B300070477047704709684A0501D540B2704751
:100B4000C905FCD500B2704709684A0501D5C0B295
:100B50007047C905FCD580B270472DE9F0470D46B6
:100B600099469246044600F124080168880604D597
:100B7000E06921F01001216000E00120A84201DDC0
:100B8000471B00E00027A1697A1902EB0900081A47
:100B9000A0612078C00602D42046FFF7EBFC0026B7
:100BA00008E0D4E901211AF806009047206A401CA9
:100BB000761C20624E45F4DB2078C0060AD520461C
:100BC000FFF7D8FC06E0D4E9012130209047206AE5
:100BD000401C2062381EA7F10107F4DC07E0D4E9CD
:100BE000012118F805009047206A401C2062281E49
:100BF000A5F10105F3DC2046FFF7D2FC20780006C2
:100C000002D50220BDE8F0870120FBE711680268E9
:100C1000006A530501D508700AE0D30501D50880A4
:100C200006E0130603D5C217C1E9000200E0086020
:100C30000120704701694A1C02610878704700B5BD
:100C40008FB0CDE901310021059105497944CDE905
:100C5000031011466846FFF719FD0FB000BD0000F4
:100C6000E5FFFFFF0A6802F8010B0A607047D1E94F
:100C700000239A4202D2531C0B601070704710B5CB
:100C8000436913B1AFF3008001E0FFF79AFC012044
:100C900010BD127800F124010A7000224A7001226E
:100CA000EDE711684FF0FF32E9E700002DE9FF5F43
:100CB00015468A460446DFF8AC80F8440027D8E998
:100CC00000103E46CDE9001010E03AF816106A46D2
:100CD00002A800F02FFD411C07D02178890603D51A
:100CE000E269391891420DD80744761C20788006B5
:100CF00002D5E069B84205DDAE42E6DB3AF81600FF
:100D00000028E2D1A069C01BA0612046FFF732FC99
:100D1000D8E90010CDE90010002017E03AF81810CB
:100D20006A4602A800F006FDB0F1FF3F81460BD0F5
:100D300000250DF1080B05E0D4E901211BF80500A1
:100D400090476D1C4D45F7D308F10100B042804635
:100D5000E4DB206A384420622046FFF721FCBDE82E
:100D6000FF9F000076E203002DE9F0418046D21D8E
:100D700022F007020025D2E90002F52915A614D0B9
:100D8000011E72F1000106DA0023D0EB030063EBD1
:100D9000020211A608E0D8F800108B0701D50FA6B3
:100DA00002E0490701D50EA601251146002408F1ED
:100DB000240704E000F0D5F830323A55641C50EABC
:100DC0000102F7D12B46324621464046BDE8F041AC
:100DD000FFF7C3BE000000002D0000002B00000044
:100DE0002000000030B4002100F1240408E002F0EB
:100DF0000705D208303542EA4372DB086554491CC6
:100E000052EA0305F3D10468002310A2250707D591
:100E1000A40600D421B1C46901230DA2641EC461DB
:100E200030BCFFF79ABE10B5044621461068FFF7A4
:100E30008BFE02462046BDE810400023D2E7D21DBB
:100E400022F00701D1E90023CCE7000000000000F8
:100E500030000000F0B40D460188090502D5214C90
:100E60007C4402E01F4C7C440E34002100F1240637
:100E700008E002F00F071209E75D42EA03721B095E
:100E80007754491C52EA0307F3D102780023120772
:100E900004D5702D06D009B1022311342246F0BCCE
:100EA000FFF75BBE01231034F8E770B504460D462A
:100EB00021461068FFF748FE024629462046BDE855
:100EC00070400023C6E7D21D22F00703D3E90023B8
:100ED000C0E70368126843F0200303600823C3617E
:100EE0000023B7E7D8E00300431A28BF9A427FF6F1
:100EF0005BAD104410F0030F11441EBF11F8013D0B
:100F0000521E00F8013D10F0030F7FF4F6AF103AC7
:100F1000C0F00A8010B531E91850103A20E9185095
:100F2000BFF4F9AFBDE81040530724BF31E9081002
:100F300020E9081044BF51F8043D40F8043D12F088
:100F4000030F08BF7047D20728BF31F8023D48BFE2
:100F500011F8012C28BF20F8023D48BF00F8012CF1
:100F6000704730B5B0F10A024FEA900E71F10003FC
:100F70004EEA817EB0EB0E0061EB91014FEA101E4C
:100F80004EEA017E10EB0E0041EB11114FEA102EDC
:100F90004EEA016E10EB0E0041EB11214FEA104EAC
:100FA0004EEA014E10EB0E0041EB1141401841F1A9
:100FB00000014FEAD00040EA41704FEAD10110EB46
:100FC00080054FEA810444EA907444EB01046D19F2
:100FD00044EB0404521BA3414FF0000348BF0A3204
:100FE00000D530BD401C41F1000130BD70472DE9F6
:100FF000FF4F0C461E464FF0FF378BB0D2E9000181
:10100000DDF860800A908A46C1F30A5505B93D466D
:10101000002108464FF00000BAF1000F00F4400034
:1010200005DA00EB80004FF4400101EA50004FEA7E
:101030009059B9F1010F00DDB9460A9850EA4A000B
:101040000ED044F61050A5F2FF3545432F14B8F1E9
:10105000000F1ED07542291E1EDDC9F100021CE0E2
:10106000B8F1010F4FF0000001D0302103E0F2434E
:1010700005E02154401CB042FBDB30460022002139
:1010800021540B99C1F80880C1E900200FB0BDE8D8
:10109000F08FBD1B6D1CDEE74A4600DA694206A8E8
:1010A00000F0DEFB06AB93E8070003AB83E8070024
:1010B00050460A9900F057FC8DE80700A0F5005053
:1010C0001F3800900398002D0ADD42F21F014A46A6
:1010D0000844002303A90390684600F0C0FE09E01D
:1010E000A0F500504A461F38002303A90390684624
:1010F00000F0CAFE8DE807000004000C03D04FF09A
:10110000FF30410800E01046B8F1000F03D0002284
:10111000009215461EE0751E05D4FFF722FF3032FF
:1011200062556D1EF9D5B3460122084302D0002254
:101130007F1C04E02078302801D100227F1E002A85
:10114000099784D01DE0112D07DAFFF70AFF30322E
:1011500062556D1C50EA0102F5D1084302D0009897
:10116000C8B10EE00021681E05E0235C625C635498
:101170002254401E491C8142F7DBAB46A81B401E8F
:101180000990002004F80B000B98099AC0F8088019
:10119000C0E9002B7AE711264FF0000857E72DE948
:1011A000F04F88460446D21D22F0070191B0D1E9E4
:1011B0000001CDE90A0103F007FD02460B98C00FBC
:1011C00001D02D2007E02068810701D52B2002E007
:1011D000202101EAC000032A099001D0072A05DB7B
:1011E00003464146204600F0FBFA0BE120788006DA
:1011F00001D5E06900E00620B8F1650F814606D010
:10120000B8F1660F18D0B8F1670F70D131E0002047
:10121000B9F1110F009001DB112301E009F1010385
:101220000AAA01A90CA8FFF7E2FEDDE90C7000266E
:1012300009F10105834647E001204B4600904FF03D
:1012400000470AAA01A90CA8FFF7D1FEDDE90DB0FD
:101250000C995D46002610B909F101000D18B9EB93
:10126000050003D4C0F1FF3609F10105A5EB090023
:101270002BE0B9F1010F01DA4FF001090020B9F1BB
:10128000110F0090484601DD112300E003460AAA31
:1012900001A90CA8FFF7ABFEDDE90C704D46002656
:1012A0008346207800070AD4AB4500DA5D4601A8E2
:1012B000012D04DD411911F8011C302907D04F45DB
:1012C00002DA17F1040F04DA012082460FE06D1EE6
:1012D000EEE7002F02DCED1B3E4403E0781CA84241
:1012E00000DD7D1CB81B00F1010A4FF0004720789B
:1012F000000703D4AA4501DB4FF0FF3A0021B7F104
:10130000004F0DF143088DF8431024D002202B2309
:10131000002F01DA7F422D230A21021EA0F10100D5
:1013200000DC5FB197FBF1FC97FBF1F201FB1C7C49
:1013300017460CF1300C08F801CDEEE7A8F10100DA
:1013400003702188090501D5452100E06521A0F140
:10135000010800F8011C09980FA9A1EB0807FF1D5F
:1013600000B10120411901EBEA70A1693844081A63
:10137000401EA0612078C00602D42046FFF7FAF88C
:10138000099828B1D4E901219047206A401C2062C5
:101390002078C00622D52046FFF7ECF81EE0002E8C
:1013A00004DBB34502DD01A8805D00E03020D4E914
:1013B00001219047206A401C2062761CAAF101009E
:1013C0005FEA000A0AD100F007FAC0680168405CD1
:1013D000D4E901219047206A401C2062281EA5F113
:1013E0000105DCDC07E0D4E9012118F8010B904786
:1013F000206A401C2062381EA7F10107F3DC20465A
:10140000FFF7CEF8032011B041E600002DE9F04FC0
:1014100004460D46D21D22F0070089B0D0E900979E
:101420004846394603F0D0FB0246F80F01D02D2381
:1014300007E02068810701D52B2302E0202101EA83
:10144000C0038DF820300BB1012000E00020032AFA
:10145000824601D0072A04DB2946204600F0C0F965
:101460003FE12078800601D40D2500E0E569C7F34F
:101470000A560D2D49DA00214FEA175B08464FF056
:101480000000002F00F4400007DA00EB80004FF46A
:10149000400100EBD07001EA60008115012901DDF7
:1014A0004FF0FF3100224FEA850CBCF1180F06D334
:1014B0001346ACF118004FF08052C24003E04FF4E5
:1014C000801323FA0CF30CF10C0CBCF1200F04D3A5
:1014D000ACF1200C09FA0CF001E007FA0CF000293D
:1014E0004FF0004801DD18B90FE00ED140450CD394
:1014F00019EB02095F4121B9404502D19F4329EA16
:101500000209BBEB175F00D0761C2088000502D5CE
:101510007B48784402E07A487844193808AA302396
:1015200002F80A30037C0AF10101002E0AF1020AD6
:1015300053546A4602DC4FF0300101E04FF03101B4
:101540004FF001088DF8001002D0A6F2FF3603E03C
:1015500059EA470100D06B4E002D02DC21780907C3
:1015600004D54FF002082E218DF80110C446002149
:101570000BE0C7F303433F01C35C491C6D1E02F837
:101580000830052908F1010801DA002DF1DC0021FD
:101590000CE000EB1973491C1B786D1E082902F83A
:1015A00008304FEA091908F1010801DA002DF0DCD2
:1015B00021688B0602D516E0A8F10108E04505DD9B
:1015C00002EB080313F8013C302BF5D0B8F1000F03
:1015D00009DD02EB080313F8013C2E2B03D10907A8
:1015E00001D4A8F10108002D05DD3E2102F8081004
:1015F0006D1E08F10108407C002E02F8080008F179
:10160000010804DA2D20764202F8080002E02B20BF
:1016100002F808000A214FF47A70864208F10108A6
:101620000BDB96FBF0F3303302F8083096FBF0F357
:1016300008F1010800FB136601E0642E0CDB642056
:1016400096FBF0F3303302F8083096FBF0F308F124
:10165000010800FB136601E00A2E06DB96FBF1F0A1
:10166000303002F8080008F1010896FBF1F001FBA8
:101670001060303002F80800A16908F1010808EB99
:10168000050202EB0A00081AA0612078C00602D405
:101690002046FEF76FFF216A08AE01EB0A002062C8
:1016A00004E0D4E9012116F8010B9047BAF1010AD0
:1016B000F7D22078C00602D52046FEF75BFF6E46C3
:1016C00009E016F8010B3E280FD0D4E9012190471C
:1016D000206A401C2062B8F10108F2D22046FEF7D1
:1016E0005FFF09B00320BDE8F08F206A2844206224
:1016F00003E0D4E90121302090476D1EEBD3F8E7D9
:1017000061DA030002FCFFFF10B5436913B1AFF3C8
:10171000008001E0FFF7CAFA012010BD128800F135
:10172000240182840022C2840122EDE711684FF077
:10173000FF32E9E770B516460C46054600F044F85E
:10174000036893F80101012806D0FF2C0FD8185D1B
:1017500068B101202C7070BDD3F8070132462146D4
:1017600003F2071303442846BDE8704018474FF0C2
:10177000FF3070BD004870477C2301207546FFF79D
:10178000F9FFAE4605006946534620F0070085463E
:1017900018B020B5FEF734FEBDE820404FF000063B
:1017A0004FF000074FF000084FF0000B21F0070149
:1017B000AC46ACE8C009ACE8C009ACE8C009ACE88C
:1017C000C0098D467047000010B500F005F8001DF7
:1017D00010BD00BF8D7C0200004870479C23012093
:1017E0002DE9F0411F46044603260168072A01F44B
:1017F000006004DB08B116A505E016A503E008B1FA
:1018000015A500E015A521F010002060A069C01EFC
:10181000A0610FB1401EA0612046FEF7ABFE4FB1A4
:10182000D4E9012138469047206A401C2062C01C40
:10183000206206E0206AFAE7D4E9012115F8010BDD
:101840009047761EF8D22046FEF7AAFEBDE8F0814A
:101850004E414E006E616E00494E4600696E660054
:101860002DE9F047814616468AB0354878440DC8C0
:101870008DE80D0032487844801C03AC0DC884E824
:101880000D0041F69B300844372190FBF1F290FBAC
:10189000F1F5A5F1800501FB12041B3C02D5644261
:1018A000012000E00020DFF898A080460027FA44DD
:1018B000AAF1BE0A0EE0E0070AD03246684607EBFE
:1018C000470101230AEB810100F0DEFA8DE80700F1
:1018D00064107F1C002CEED1194F7F44AE3F19E0FD
:1018E000E80715D007EB04100DF1180A90E80E0078
:1018F0008AE80E00C068F04201D19819089032467B
:10190000012306A903A800F0BFFA03AB83E8070090
:101910006D10641C002DE3D14FF00103324669467F
:10192000B8F1000F03A802D000F099FA01E000F02E
:10193000ABFAC9E90001C9F808200AB0BDE8F08790
:1019400098D7030010B50446AFF300802046BDE8E9
:101950001040FEF7E0BC000001491820ABBEFEE7D6
:101960002600020070475FEA400C08BF91F0000FAC
:101970004FEA8C234FEAC12243EA51514FEA1C50EF
:1019800018BF00F5F0404FEA300018BF41F00041A9
:101990005FEA6C5C00F02980BCF1FF3F08BF40F0BB
:1019A00080407047130C06BF12044FF0100C4FF02C
:1019B000000C130E04BF12020CF1080C130F04BF2D
:1019C00012010CF1040C930F04BF92000CF1020CF5
:1019D000D30F04BF52000CF1010C11464FF000026E
:1019E000A0F11F00A0EB0C00704711F0004F08BFE2
:1019F000704731F000413FF4D5AF0B0C06BF09042E
:101A00004FF0100C4FF0000C0B0E04BF09020CF14C
:101A1000080C0B0F04BF09010CF1040C8B0F04BF61
:101A200089000CF1020CCB0F04BF49000CF1010C32
:101A3000CCF12003A0EB0C0022FA03F302FA0CF223
:101A400041EA030100F10100704720F07F4C80EA79
:101A5000030023F07F47ACEB070303F57C5300F052
:101A6000004003F1FF032DE980494FEA154B09B40B
:101A70004FEA144325EA0B4E24EA03480FF20426EA
:101A800006EB132749083E785FEA320203FB06673C
:101A9000C7F5000707FB06F64FEA54374FEAD6466C
:101AA00006F1020607FB066CCCF1005C4FEA1C470E
:101AB0002CEA074C07FB06F40CFB06F504EB154675
:101AC0004FEA961634BF00204FF000404FEAD1375E
:101AD00006FB07FC4FEA1C4C0CFB0BF7D21B03FB6D
:101AE0000CF761EB07010CFB0EF7B0EB074072EB54
:101AF00017420CFB08F734BFA2EB0742B2EB0742D8
:101B000061EB17414FEA0C444FEA910706FB07FCD3
:101B10004FEA1C4C0CFB0BF7B0EBC74072EB573293
:101B200003FB0CF734BFA2EBC742B2EBC74261EB39
:101B300057310CFB0EF7B0EBC70072EB57720CFB82
:101B400008F734BFA2EBC702B2EBC70261EB5771D3
:101B5000039F4FEA816141EA921104EBCC044FEA02
:101B6000D1374FEA826206FB07FC42EA90124FEA45
:101B700080604FEA1C4C0CFB0BF7D21B03FB0CF7ED
:101B800061EB07010CFB0EF7B0EB074072EB17425D
:101B90000CFB08F734BFA2EB0742B2EB074261EB44
:101BA00017414FEA8C554FEA910704EB9C2406FB42
:101BB00007FC4FEA1C4C0CFB0BF7B0EBC74072EB79
:101BC000573203FB0CF734BFA2EBC742B2EBC7425C
:101BD00061EB57310CFB0EF7B0EBC70072EB57729D
:101BE0000CFB08F734BFA2EBC702B2EBC70261EBF4
:101BF000577115EB4C254FEA816141EA92114FEA8A
:101C000082624FEAD13742EA901206FB07FC44F1A8
:101C100000044FEA80604FEA1C4C0CFB0BF7D21B10
:101C200003FB0CF761EB07010CFB0EF7B0EB074071
:101C300072EB17420CFB08F734BFA2EB0742B2EB82
:101C4000074261EB174115EB1C154FEA813141EA60
:101C500092414FEA823242EA90424FEA80304FEAA4
:101C60000C7644F1000448EA03434EEA0B484FF077
:101C7000000EB2EB080C71EB030724BF6246394635
:101C80004EEB0E0E4FF0000B0018524149414BEB4A
:101C90000B0BB2EB080C71EB03077BF1000B24BFBD
:101CA000624639464EEB0E0E4FF0000B00185241C3
:101CB00049414BEB0B0BB2EB080C71EB03077BF1CB
:101CC000000B24BF624639464EEB0E0E51EA020766
:101CD00018BF46F0010616EB0E7655F1000254F1DE
:101CE000000103D5BDE88901BDE80088BDE8890190
:101CF000BDE80048B619524141EB0101A3F10103CF
:101D0000704780807F7E7D7C7B7A79787776767568
:101D10007473727171706F6E6E6D6C6C6B6A6A69E0
:101D20006868676666656464636362616160605F7A
:101D30005F5E5E5D5D5C5C5B5B5A5A5959585857F3
:101D4000575656555555545453535252525151505B
:101D500050504F4F4F4E4E4D4D4D4C4C4C4B4B4BAE
:101D60004A4A4A49494948484847474747464646F4
:101D7000454545444444444343434342424242412F
:101D80004141002B9C4630D477002BD01CB54FEA44
:101D9000370703B44FF010004FF01001BAF1000FF5
:101DA00006D0BCF1000FDCBF40F0080040F0080195
:101DB0004FF000000FBCBDE810400BF1010BBBF170
:101DC000010F08BF5FEA170722BF12F1010211F1EC
:101DD00001014FF0004143F1000300F0004043EAED
:101DE00000007047F9D35708D0E746EA064613F1DA
:101DF000400F4FEA16461FDD13F1200FDFBF1643D9
:101E00000A46002120335B42BED0C3F1200746EAD8
:101E1000064602FA07F74FEA164646EA0706C3F1F6
:101E2000200722FA03F201FA07F721FA03F14FF033
:101E3000000342EA0702A7E746EA020646EA064628
:101E40004FEA164646EA0106BCBF46EA0646360C8D
:101E50004FF000034FF000024FF0000194E72DE92E
:101E6000804C9A46934670B491E8380007C831EA2E
:101E7000400C48BF34EA430C03D5FFF7E6FDFFF7FB
:101E800080FFF0BCBDE8008C2DE9804C9A4693465B
:101E900070B491E8380007C810F0804F08BF13F005
:101EA000804F03D100F005F8FFF76BFFF0BCBDE8F1
:101EB000008C20F07F4780EA030023F07F4C07EB83
:101EC0000C03A3F57C5300F00040A3F1FE0392F055
:101ED000000F00F0B38095F0000F00F077802DE93F
:101EE00001494FEA11404FEA144621EA004800FB3D
:101EF00006FC24EA064708FB06F607FB08F800FB89
:101F000007F718EB06484CEB164C4FEA124B18EB50
:101F100007484FEA15464CEB174022EA0B4E0BFBE5
:101F200006FC25EA06470EFB06F607FB0EFE0BFB3A
:101F300007F71EEB064E4CEB164C4FF000061EEB5F
:101F4000074E4CEB174B18EB0B0840F1000018EB59
:101F50000E0B58EB000840F100008F1A4FF0000103
:101F60003CBFC943661B14BFB5EB040C00213CBF4A
:101F7000C943F61B4FEA17444EEA8E0E27EA044582
:101F80004FEA1C4704FB07622CEA074C05FB07F7E6
:101F90000CFB05F604FB0CFC16EB074642EB174264
:101FA00016EB0C4642EB1C421BEB060658EB0202FA
:101FB000414146EA9E0601D5BDE80189B619524164
:101FC00041EB0101A3F10103BDE801894FEA14458A
:101FD0004FEA114724EA054621EA074C05FB07F4BE
:101FE00006FB07F70CFB06F105FB0CFC11EB0741A8
:101FF00044EB17444FEA124711EB0C4144EB1C44ED
:1020000022EA074C05FB07F206FB07F70CFB06F676
:1020100005FB0CFC16EB074642EB174216EB0C4691
:1020200042EB1C456A1854F1000148BF7047B619CD
:10203000524141EB0101A3F10103704795F0000FFC
:1020400037D04FEA11424FEA144721EA024624EA08
:10205000074C02FB07F106FB07F70CFB06F402FB3B
:102060000CFC14EB074441EB17414FEA154714EB06
:102070000C4441EB1C4125EA074C02FB07F506FB2B
:1020800007F70CFB06F602FB0CFC16EB074645EBCC
:10209000174516EB0C4645EB1C42121951F1000195
:1020A00048BF7047B619524141EB0101A3F101034A
:1020B00070474FEA14454FEA114724EA054621EAE2
:1020C000074C05FB07F106FB07F70CFB06F24FF088
:1020D000000605FB0CFC12EB074241EB174112EB2B
:1020E0000C4251EB1C4148BF7047921841EB010173
:1020F000A3F1010370470000094C00250A2026F0D7
:1021000073FB6088401C80B260800228F6D326F002
:10211000A9FA00F05BF8658026F0C4FAEEE700004B
:102120000000002010B586B014216846FEF798FC28
:1021300014480024016841F002010160006800F0C9
:10214000020005900F481030016841F00201016063
:102150000068694600F00200059002200090CDE979
:10216000010403900490084800F060FA4FF47A707C
:1021700002F090FA054801210170447014210172A7
:1021800006B010BD30380240000402407023012028
:1021900010B504460C210A4801F040FC0948002112
:1021A000046001E0491C89B214F821003D28F9D1EE
:1021B000054881800021C18001224270418010BD0C
:1021C000A0080020B80200207023012070B5214C27
:1021D000214E0025607880B3207870B3E088A18814
:1021E00088422AD261884FF6FF72491E89B2618007
:1021F00091422ED3194A116811F82000184931F87C
:10220000100002F0D5F917490B68D862C860237A2C
:102210000968C3F1640390FBF3F080B20864E088BE
:10222000116801EB8001401C49886180E080BDE8B5
:1022300070400C210B4801F0C5BA0C21094801F08F
:10224000EDFB65703046BDE870400022022100F0D1
:10225000E5BA70BD7023012000040240B8020020DE
:1022600088EE0308A0080020FEE70000014800F007
:1022700059B800003009002001681823CAB2103A8A
:10228000B2FBF3F2054B6FF30901032A9B5CC365B4
:1022900000D9091D81650846704700009E94020818
:1022A00010B5014600208B698A6A4FF0C07453B1A3
:1022B000B3F5005F15D072B1012A0CD0022A0AD002
:1022C000032A09D104E01AB1012A06D0022A03D157
:1022D000C96AC90100D5012010BDC96AA142FAD05E
:1022E00010BD002AF7D0012AF2D0022AF3D0032A27
:1022F000F3D010BD30B50468256825F4802525602D
:10230000046863608368402B036803D099600068A9
:10231000C26030BD9A600068C16030BD704772B65F
:10232000FEE700002DE9F84304464FF00009CDF820
:10233000009063484FF41651A56D0068B0FBF1F7AB
:102340002E6894F85C10082000FA01F131420FD099
:1023500021680A6852070BD50A6822F004020A6055
:1023600094F85C108840A860606D40F001006065E2
:1023700094F85C104FF0010808FA01F0304208D0E0
:1023800021684969090604D5A860606D40F0020023
:10239000606594F85C1004208840304208D02168C1
:1023A0000968890704D5A860606D40F00400606585
:1023B00094F85C1010208840304218D021680968D9
:1023C000090714D5A86020680168490304D500688E
:1023D000000308D5A16C07E00168C90503D40168B2
:1023E00021F008010160216C09B12046884794F86A
:1023F0005C1020208840304231D021680968C9062D
:102400002DD5A86094F8350005282068016806D00D
:10241000490347D5006800031DD4616C1CE021F01E
:10242000160101602068416921F080014161206C42
:1024300008B9A06C20B12068016821F00801016092
:1024400094F85C103F208840A86084F8358084F8B8
:102450003490216D1FE0E16B09B120468847606D23
:1024600000282BD0606DC00714D0052084F83500FB
:102470002068016821F0010101600098401C009073
:10248000B84203D820680068C007F6D184F83580C8
:1024900084F83490E16C002910D001B02046BDE8EA
:1024A000F04308470168C905D5D4016821F010013F
:1024B000016084F8358084F83490CCE7BDE8F88377
:1024C000280000202DE9F041044600F0ADF9064651
:1024D0005CB1022084F83500002584F8345020686F
:1024E000016821F0010101600DE00120BDE8F081EB
:1024F00000F09AF9801B052805D92020606503208B
:1025000084F83500F2E720680068C007F0D122683F
:10251000116820480140D4E901031843D4E9033687
:102520003343184363691843A3691843E3691843A5
:10253000236A18430843616A042903D1D4E90B13C1
:1025400019430843106020684069666A20F007015B
:1025500030460E43012704280CD1A06A0643E06AE6
:1025600040B12046FFF79CFE20B14020606584F812
:102570003570BAE7206846612046FFF77DFE94F883
:102580005C203F2191408160656584F835700020B2
:10259000ACE700003F8010F02DE9F0410446866D65
:1025A00090F83400002501280DD0012084F8340073
:1025B00094F835700020012F07D084F834000225EC
:1025C0002846BDE8F0810220FBE7022784F8357039
:1025D00060652046FFF78EFE94F85C103F2088402F
:1025E000B0602068016841F016010160206C20B1E4
:1025F0002068016841F0080101602068016841F02D
:1026000001010160DCE7000070B5044600F00CF940
:102610000546601C02D004480078044400F004F928
:10262000401BA042FAD370BD1C0000202DE9F84FDA
:10263000DFF8B8A10022012403254FF00F090AF1A9
:10264000040BAAF1040E00BF0B6804FA02F6334033
:10265000B34273D10F7907F00307012F01D0022F86
:1026600016D187684FEA420805FA08FC27EA0C07EA
:10267000D1F80CC00CFA08FC4CEA070CC0F808C0F2
:102680004768B7430E79C6F3001696403E4346604E
:102690000E79F643B6070DD0C768560005FA06FC5A
:1026A00027EA0C07D1F808C00CFA06FC4CEA070C24
:1026B000C0F80CC00E7906F00306022E10D1D60821
:1026C00000EB8608D8F8206057074FEAD76C09FA64
:1026D0000CF7BE430F6907FA0CF73743C8F82070B0
:1026E00006684FEA420C05FA0CF7BE430F7907F073
:1026F000030707FA0CF7374307604E6816F4403FAC
:102700006DD03B4E376847F480473760366822F01B
:10271000030706F480460096364E07EB060CDCF8FD
:10272000086897073F0F09FA07F826EA0806DFF856
:10273000C880404503D14FF000081EE04FE0DFF8AD
:10274000BC80404502D14FF0010816E0DFF8B080B0
:10275000404502D14FF002080FE0DFF8A880404565
:1027600002D14FF0030808E0DFF89C80404502D119
:102770004FF0040801E04FF0070808FA07F848EAAC
:102780000608CCF80888DAF800605746D1F804C08B
:102790009E435FEACC2C00D51E433E60DBF8006010
:1027A0005F46D1F804C09E435FEA8C2C00D51E43DF
:1027B0003E60DEF800607746D1F804C09E435FEAD1
:1027C0008C3C00D51E433E60084F083F3E68D1F860
:1027D00004C09E435FEACC3C00D51E433E60521CC1
:1027E000102AFFF431AFBDE8F88F0000083C01402B
:1027F0004438024000300140000002400004024022
:1028000000080240000C024000100240426921EA28
:1028100002030A4043EA0241816170470AB18161C3
:1028200070470904FBE7000001488068704700001A
:102830001C000020024881680278114481607047C2
:102840001C0000200B4810B5016841F400710160C4
:10285000016841F480610160016841F480710160A8
:10286000032000F099F8012000F006F800F04AF883
:10287000002010BD003C024030B505461C4887B022
:102880000024016841F480210160006806A900F479
:102890008020009001A800F02BF900F059F91549AB
:1028A000154AB0FBF1F11548491E026040F2E732CB
:1028B000C0E90324C0E90114846100F0FBFC0400BA
:1028C00012D10E4800F038FD04000DD11A2000F09E
:1028D00035F8102D07D2002229461A2000F03CF8C6
:1028E0000748056000E0012407B0204630BD000025
:1028F0004438024040420F0000480140D8090020FF
:10290000200000200C4882B0016841F48041016041
:10291000006800F4804000900748001F016841F003
:10292000805101600068002200F0805000900F216B
:10293000901E02B000F010B844380240002809DBB5
:1029400000F01F02012191404009800000F1E020C9
:10295000C0F8001170470000F0B40E4B1B680C4625
:10296000C3F30223C3F10705042D00D90425191D63
:10297000072901D2002300E0DB1E012606FA05F13B
:10298000491E214099409E40761E16403143F0BCBE
:1029900002F032B90CED00E0064900F007020868C9
:1029A0004FF6FF03184040EA0220034A1043086034
:1029B000704700000CED00E00000FA052DE9F0473B
:1029C0000E46050065D0DFF81481D8F80000F7B294
:1029D00000F00700B04207D288F80070D8F8000075
:1029E00000F00700B04254D128683D4C810712D551
:1029F000400703D5206840F4E050206028780007A5
:102A000003D5206840F4604020602068A96820F069
:102A1000F000084320602878C0072DD0304968684E
:102A20000839012812D0022813D0032811D00968D0
:102A3000890700292DDA216821F003010143216073
:102A4000FFF7F2FE814641F2883A0EE009688903F9
:102A5000EFE709688901ECE7FFF7E6FEA0EB090163
:102A6000514502D90320BDE8F0872068696800F06D
:102A70000C00B0EB810FEFD1D8F80010404601F008
:102A80000701B14207D90770006800F00700B042A3
:102A900001D00120E7E72878400705D52068E968DC
:102AA00020F4E050084320602878000706D520680D
:102AB000296920F4604040EAC100206000F058F825
:102AC0002168084AC1F30311515CC84006490860F7
:102AD00006480068FFF7D0FE0020C4E7003C024033
:102AE00008380240A6940208280000202000002098
:102AF0000F2202600C4A136803F00303436013685B
:102B000003F0F0038360136803F4E053C3601268BA
:102B10004FF4E05303EAD20202610448006800F077
:102B2000070008607047000008380240003C02407F
:102B30000448054900680968044AC1F38221515CD0
:102B4000C84070472800002008380240B6940208A8
:102B50000448054900680968044AC1F34231515CE0
:102B6000C84070472800002008380240B694020888
:102B7000154810B5006810F00C02144813D0144921
:102B8000042A0FD0082A0ED10F4C241F2268236874
:102B900002F03F025B0207D52068C0F38810A0FB5B
:102BA000010106E0084610BD2168C1F38811A1FBB0
:102BB00000010023FDF736FC2168C1F30141491CE7
:102BC0004900B0FBF1F010BD083802400024F400C9
:102BD00040787D012DE9F84F04006ED02078DFF8B1
:102BE0004C93C007A9F104054AD009F1040001681B
:102BF000C1F38101012908D00068C0F381000228D7
:102C00000AD1D9F80000400206D52868800337D5DC
:102C100060680028E1D033E06068B0F5803F10D0F4
:102C2000B0F5A02F286810D020F4803028602868E4
:102C300020F4802028606068A8B1FFF7F5FD064603
:102C40000DE0286840F48030F4E740F480202860EC
:102C5000F7E700BFFFF7E8FD801B642873D82868FA
:102C60008003F7D50CE0FFF7DFFD064605E000BF67
:102C7000FFF7DAFD801B6428F0D828688003F7D4BA
:102C80002078DFF8AC8280074FF0000A3ED5A748D5
:102C9000001D016811F00C0F08D00068C0F381001E
:102CA00002280BD1D9F80000400207D42868800719
:102CB00016D5E068012800D112E033E1E068B8B130
:102CC0000120C8F80000FFF7AFFD064605E000BF91
:102CD000FFF7AAFD801B0228C0D828688007F7D517
:102CE0002868216920F0F80040EAC10028600DE062
:102CF000C8F800A0FFF798FD064604E0FFF794FD32
:102D0000801B02281FD828688007F7D42078000786
:102D100022D5864F87486169703771B10121016002
:102D2000FFF782FD064604E0FFF77EFD801B0228C8
:102D300009D838688007F7D50EE0C0F800A0FFF783
:102D400073FD064605E082E0FFF76EFD801B02285A
:102D50007DD838688007F7D42078400768D5DFF839
:102D6000CCB100270BF13C0BDBF80000C0000BD40A
:102D7000DBF8001041F08051CBF80010DBF80000C8
:102D8000012700F0805000906B4E3068C00510D4D1
:102D9000306840F480703060FFF746FD009005E039
:102DA000FFF742FD0099401A022850D83068C0054C
:102DB000F6D55E4EA0686C3601280FD00528306825
:102DC00010D020F001003060306820F00400306046
:102DD000A068B8B1FFF728FD00900FE0306840F020
:102DE0000100F4E740F004003060F7E7FFF71CFD56
:102DF0000099411A41F28830814266D830688007D4
:102E0000F4D50EE0FFF710FD009007E0FFF70CFD92
:102E10000099411A41F28830814256D830688007C3
:102E2000F4D42FB1DBF8001021F08051CBF8001062
:102E3000A069C8B33D49091D0968C1F38101022990
:102E40004AD00228504607D0C8F8600000E03CE0B5
:102E5000FFF7EAFC04463BE04746C8F86000FFF78E
:102E6000E3FC064605E000BFFFF7DEFC801B0228FE
:102E70002BD828688001F7D4D4E907010843A16A58
:102E80002E4A490802EB0141626A41EA8211084375
:102E900094F82C1040EA0161C9F80010012038664E
:102EA000FFF7C2FC044606E03EE000BFFFF7BCFCB3
:102EB000001B022809D828688001F7D534E000BF3C
:102EC000FFF7B2FC001B022802D90320BDE8F88FEF
:102ED00028688001F4D427E00128F7D0D9F8000051
:102EE000E26900F4800191421CD1226A00F03F01A6
:102EF000914217D147F6C071626A0140B1EB821F5F
:102F000010D1A26A4FF0FF3300F4403103EB5202BC
:102F1000B1EB024F06D194F82C1000F07060B0EBCA
:102F2000016F01D00120D1E70020CFE70438024033
:102F300000004742800E4742007000400000FFFF43
:102F400070B5040009D0606A002540B12561656153
:102F5000A56294F8510040B10CE0012070BD60689A
:102F6000B0F5827FF4D0E561F2E784F85050204656
:102F700000F044F8022084F851002068016821F034
:102F800040010160A088218900F4827001F40441AD
:102F90000843A18901F400610843217C01F002018A
:102FA0000843217D01F001010843218B01F40071E8
:102FB0000843217F01F03801084394F8201001F004
:102FC00080010843218D01F4005108432168086005
:102FD000A069042101EA104094F8241001F01001C6
:102FE0000843216848602068C16921F40061C1611B
:102FF0006565012084F85100002070BDF0B587B0F0
:10300000044614216846FDF72BFD2A4A2168002456
:103010002948022503260527914217D12649143154
:103020000A6842F480520A60096801F480510591EF
:10303000016841F0010101600068694600F001008B
:103040000590A020CDE900051C482CE01C4A9142C7
:103050002ED1194910310A6842F480420A60096889
:1030600001F480410591016841F0040101600168AB
:1030700001F004010591016841F00201016000685E
:1030800002AA00F0020005900C20CDE9000582E8BC
:10309000D00069460B48FFF7C9FA4FF48060CDE9CC
:1030A00000050948694602AA82E8D000FFF7BEFA87
:1030B00007B0F0BD0030014030380240000002404F
:1030C0000038004000080240000402402DE9F84F9B
:1030D000984616468A460446FFF7A6FB814694F8B2
:1030E000510001281ED1BAF1000F73D0002E71D00B
:1030F00094F85000012815D0012784F8507003205F
:1031000084F8510000256565C4F830A0A686E686DF
:10311000A563A587E58765642564A068B0F5004FC1
:1031200003D00CE00220BDE8F88F2068016821F090
:10313000400101602068016841F48041016020681D
:103140000168490603D4016841F040010160E0686C
:10315000B0F5006F606803D048B3012E27D047E078
:1031600008B1012E1FD1206B21680088C86006E0DD
:1031700020688168890709D5216B0988C160206BA7
:10318000801C2063E08E401EE0860CE0FFF74CFBC5
:10319000A0EB0901414503D3B8F1FF3F03D035E06F
:1031A000B8F1000F32D0E08E0028E1D123E0206B8F
:1031B00021680078087306E02068816889070AD5CD
:1031C000216B09780173206B401C2063E08E401E48
:1031D000E0860DE02BE0FFF727FBA0EB090141455E
:1031E00003D3B8F1FF3F03D010E0B8F1000F0DD0CA
:1031F000E08E0028E0D14A464146204601F04AF8D8
:1032000008B120206065A06830B109E084F85170F1
:1032100084F85050032086E72068C16880680090D9
:1032200084F8517004F8505F60680028F3D00120E2
:1032300079E770477047000070B590F83C20012A8C
:103240002CD0012480F83C40022280F83D20036805
:103250005A689D6822F070060A6832435A60104B23
:1032600002689A420ED0B2F1804F0BD00D4B9A42B9
:1032700008D00D4B9A4205D00C4B9A4202D00C4B11
:103280009A4204D1496825F080031943916080F87F
:103290003D40002180F83C10084670BD022070BD02
:1032A000000001400004004000080040000C004005
:1032B0000040014010B5040003D094F83D0010B167
:1032C00007E0012010BD002084F83C00204600F0FB
:1032D0001FF8022084F83D00211D206801F018FA33
:1032E000012084F8460084F83E0084F83F0084F80A
:1032F000400084F8410084F8420084F8430084F8D8
:10330000440084F8450084F83D00002010BD000012
:1033100008B500680649884208D10648016841F0AE
:1033200002010160006800F00200009008BD00008A
:10333000000400404038024090F83D10012901D0BF
:1033400001207047022180F83D100168CA6842F0F0
:103350000102CA6000680E4988420ED0B0F1804F69
:103360000BD00C49884208D00B49884205D00B4944
:10337000884202D00A49884204D1816801F00701DD
:10338000062903D0016841F0010101600020704767
:10339000000001400004004000080040000C004014
:1033A0000040014070B5044690F83C00002501281B
:1033B00017D0012684F83C60022084F83D00206884
:1033C000826822F0770222F47F42826008685028E7
:1033D00038D00DDC20284FD005DC90B3102811D157
:1033E0004AE0022070BD302846D040280AD13BE098
:1033F00060282FD070280DD0B0F5805F03D0B0F5D5
:10340000005F12D0012584F83D60002084F83C0064
:10341000284670BDCB68D1E90121206801F04CFA43
:103420002068816841F0770109E0CB68D1E901218A
:10343000206801F041FA2068816841F48041816090
:10344000E1E719E0CA684968206801F0E9FA50210B
:10345000206806E0CA684968206801F0F2FA602135
:10346000206801F033FACEE7CA684968206801F0A5
:10347000D7FA40212068F4E7226801461046F0E7B9
:10348000704770472DE9F04104460068C668056939
:103490004FF00007A90713D5B10711D5F91E016137
:1034A00001202077206880698007204602D0FFF73E
:1034B000E8FF04E000F0BAF8204600F081F9277731
:1034C000680716D5700714D521686FF004000861ED
:1034D000022020772068806910F4407F204602D0C7
:1034E000FFF7CFFF04E000F0A1F8204600F068F9F4
:1034F0002777280715D5300713D521686FF0080006
:103500000861042020772068C0698007204602D027
:10351000FFF7B7FF04E000F089F8204600F050F90B
:103520002777E80616D5F00614D521686FF010004D
:103530000861082020772068C06910F4407F204689
:1035400002D0FFF79EFF04E000F070F8204600F084
:1035500037F92777E80708D0F00706D021686FF021
:1035600001000861204600F091FA280608D53006CF
:1035700006D521686FF0800008612046FFF759FEEC
:10358000680608D5700606D521686FF0400008610E
:10359000204600F085FAA8060AD5B00608D52168AD
:1035A0006FF0200008612046BDE8F041FFF742BE01
:1035B000BDE8F08170B586B0044614216846FDF779
:1035C0004FFA164E25680023154A02210324154898
:1035D000B5420DD1156845F002051560126801ADC0
:1035E000009185E81A0002F00202CDE9041210E011
:1035F0000D4EB54210D1156845F0020515601268F0
:1036000001AD02F002020592B215009285E81A009F
:1036100004916946FFF70AF806B070BD0004004047
:10362000303802400004024000080040704770B586
:10363000044690F83C0000260D4601280FD00120DA
:1036400084F83C006AB1042A1DD0082A2FD00C2A25
:103650003FD00126002084F83C00304670BD022097
:1036600070BD206801F03AF92068816941F00801D5
:1036700081612068816921F004018161206881698C
:103680002A69114311E0206801F050F9206881692E
:1036900041F4006181612068816921F48061816168
:1036A000206881692A6941EA02218161D2E72068A4
:1036B00001F068F92068C16941F00801C161206822
:1036C000C16921F00401C1612068C1692A691143FF
:1036D00011E0206801F082F92068C16941F40061BD
:1036E000C1612068C16921F48061C1612068C1693C
:1036F0002A6941EA0221C161ACE710B5040003D098
:1037000094F83D0010B107E0012010BD002084F8BE
:103710003C00204600F01EF8022084F83D00211DE8
:10372000206800F0F5FF012084F8460084F83E0090
:1037300084F83F0084F8400084F8410084F8420097
:1037400084F8430084F8440084F8450084F83D0080
:10375000002010BD38B5054600681549884225D1BE
:10376000144900200A6842F004020A600968134CF8
:1037700001F004010091104921604FF08061616007
:103780004021C4E9021009012161890061618900B9
:10379000C4E906104FF44031C4E908102046FEF792
:1037A00091FE08B1FEF7BBFDEC62A56338BD0000D9
:1037B0000008004040380240B86002403009002054
:1037C0007047704710B50446022249B104290ED053
:1037D000082913D094F84100012816D0012010BD0B
:1037E00094F83E000128F9D184F83E200FE094F8C7
:1037F0003F000128F2D184F83F2008E094F840000F
:103800000128EBD184F8402001E084F84120012216
:10381000206800F0CFFF12492068884203D1426C33
:1038200042F400424264206888420ED0B0F1804FDA
:103830000BD00C49884208D00B49884205D00B496F
:10384000884202D00A49884204D1816801F0070108
:10385000062903D0016841F001010160002010BD7C
:10386000000001400004004000080040000C00403F
:10387000004001402DE9F04117460D0004464FF08D
:1038800000060CD0042D11D0082D16D094F841005C
:10389000022819D094F84100012818D07CE094F84F
:1038A0003E00022810D094F83E00F5E794F83F005F
:1038B000022809D094F83F00EEE794F8400002286F
:1038C00002D094F84000E7E70220BDE8F081002F25
:1038D00062D0002B60D04949494ADFF828C1022054
:1038E0004DB1042D18D0082D27D084F841000C2D9F
:1038F00044D001267FE084F83E00606AC163606ABC
:1039000039460264606AC0F84CC02268606A34328A
:10391000FEF742FE88BB21E084F83F00A06AC16345
:10392000A06A39460264A06AC0F84CC02268A06A46
:103930003832FEF731FE00BB15E084F84000E06A43
:10394000C163E06A39460264E06AC0F84CC022688C
:10395000E06A3C32FEF720FE78B909E02068C168D1
:1039600041F400711EE02068C16841F4806119E0F3
:103970002068C16841F4006114E00DE0206BC16370
:10398000206B39460264206BC0F84CC02268206B63
:103990004032FEF701FE08B1012096E72068C168B9
:1039A00041F48051C16001222946206800F002FFE5
:1039B00015492068884203D1426C42F400424264B7
:1039C000206888420ED0B0F1804F0BD00F4988425A
:1039D00008D00F49884205D00E49884202D00E49CE
:1039E000884204D1816801F00701062903D00168EB
:1039F00041F001010160304667E70000CF47000851
:103A00002D480008654800080000014000040040FF
:103A100000080040000C00400040014030B5044662
:103A20000D460068002200F0C5FE174B41F211114F
:103A300020688A10984209D1036A0B4206D1036AB2
:103A4000134203D1436C23F4004343642068036AA8
:103A50000B4206D1016A114203D1016821F0010134
:103A6000016001203DB1042D08D0082D09D084F853
:103A70004100002030BD84F83E00FAE784F83F00A2
:103A8000F7E784F84000F4E70000014000680349CC
:103A9000884201D1FEF7CEBE7047000000480140C9
:103AA000704770B5040004D094F84100002510B1AF
:103AB00006E0012070BD84F84050204600F024F854
:103AC000242084F841002068C16821F40051C160BD
:103AD000204600F0C9FF2068016921F4904101618E
:103AE0002068416921F02A0141612068C16841F4E0
:103AF0000051C1606564202084F8410084F84200D0
:103B00006563002070BD000010B586B00446142126
:103B10006846FCF7A5FF14492068884221D1134864
:103B20000021026842F010020260006800F01000FC
:103B300005900E481438026842F0010202600068E5
:103B400000F0010005904FF4C06000900220CDE924
:103B50000101032003900720049069460448FEF702
:103B600065FD06B010BD0000001001404438024061
:103B7000000002401A4C4FF480464FF496754FF403
:103B8000FA6731462046FEF741FE2846FEF73CFD27
:103B900031462046FEF73AFE2846FEF735FD31460F
:103BA0002046FEF733FE2846FEF72EFD314620461E
:103BB000FEF72CFE2846FEF727FD31462046FEF78D
:103BC00025FE2846FEF720FD31462046FEF71EFE64
:103BD0002846FEF719FD3846FEF716FDD1E700002E
:103BE000000402402DE9F041283087B228323531F7
:103BF000353395B28EB29CB22A2000F0AFF8380A65
:103C000000F0BAF8F8B200F0B7F8280A00F0B4F8FB
:103C1000E8B200F0B1F82B2000F0A0F8300A00F074
:103C2000ABF8F0B200F0A8F8200A00F0A5F8E0B276
:103C300000F0A2F8BDE8F0412C2000F08FB80000A1
:103C400070B5040AC5B200218623EF220846FFF7AB
:103C5000C9FF0F4900204FF4A27200BF01F81040C5
:103C600001EB4003401C80B25D709042F6D301220C
:103C700040210848FEF7D2FD00244FF42275294662
:103C8000034800F04DF8641CA4B2642CF7D370BD57
:103C9000C41D0120000002402DE9F041141AA3EBDD
:103CA000010C641C0CF1010C002504FB0CF46400F5
:103CB0004FF42278069F2E46444502D9A4F522757A
:103CC0004446FFF78FFF002013490CE037F8162019
:103CD00001EB4003120A01F8102017F81620401CCF
:103CE0005A7080B2761CB0EB540FEFD30122402102
:103CF0000A48FEF793FDA1B2074800F011F8002D25
:103D000007D0454502D9A5F52275DCE72C460025EC
:103D1000D9E7BDE8F0810000C41D01200000024089
:103D200070B5094C0D460646002210212046FEF7CC
:103D300075FD2946304600F009F82046BDE8704080
:103D400001221021FEF76ABD000002400A4601462A
:103D5000FF230148FFF7BAB9F007002001B50022A0
:103D600040210448FEF75AFD01216846FFF7D8FFBD
:103D700008BD00000000024001B5012240210448B6
:103D8000FEF74CFD01216846FFF7CAFF08BD0000A1
:103D9000000002408AB0DFF85C90174C174E4FF4D9
:103DA0007A774FF480480025384624F01DFD4146BF
:103DB0004846FEF72BFDA078401CC0B2A0703C28FE
:103DC0000AD1A5706078401CC0B260703C2803D155
:103DD00065702078401C2070A0780090637822786D
:103DE00007A101A8FCF7B0FB01A9F06A16F094FC4A
:103DF000DAE700000004024004000020BC020020BA
:103E00002530326448253032644D25303264530009
:103E10000C4821F0CBFC0B480BF025F8094E0A4C5E
:103E2000002500BF1EF0AAF9207828B10549706A64
:103E3000343116F071FC25701EF0A0F90A2024F030
:103E4000D3FCEFE7BC02002000000020094808B5C1
:103E5000016841F4001101600068002200F40010C4
:103E6000009011462F20FEF777FDBDE808402F2077
:103E7000FEF764BD303802402DE9F04786B01421CA
:103E80006846FCF7EDFD3E480024016841F08001E2
:103E90000160016801F080010591016841F00401B1
:103EA0000160016801F004010591016841F0010120
:103EB0000160016801F001010591016841F0020112
:103EC00001600068DFF8BC9000F00200059000225D
:103ED00013214846FEF7A2FC2B4F4FF4A975002290
:103EE00029463846FEF79AFCDFF8A0A0002244F2EB
:103EF00030015046FEF792FC03264FF01108CDE941
:103F00000068CDE9024669464846FEF78FFB0095FA
:103F10000125CDE90154694638460394FEF786FB36
:103F200010200090CDE90154694648460394FEF7FD
:103F30007DFB20204FF48817CDE9000769460294E5
:103F40004846FEF773FB0095CDE90174694650467B
:103F5000FEF76CFBA8030090CDE90154694650467A
:103F60000394FEF763FB3020CDE90008CDE902465B
:103F700069465046FEF75AFB06B0BDE8F0870000E0
:103F800030380240000802400000024000040240B5
:103F9000104810B50E4901604FF482714160002154
:103FA00002228160C0E90312012242615202C0E98B
:103FB00006210162416281620A21C162FEF7C0FFEF
:103FC000002803D0BDE81040FEF7A9B910BD0000DD
:103FD00000300140F00700200F4810B50D49016086
:103FE0004FF48271416000218160C1604FF4007222
:103FF0000161C0E90512C1610162416281620A2169
:10400000C162FEF79DFF002803D0BDE81040FEF717
:1040100086B910BD003800404808002010B58EB0A9
:1040200000240794089409940A940B941C21684670
:104030000C94FCF715FD1E481C4901606321C0E982
:10404000011440F2E731C0E903148461FFF732F94B
:1040500008B1FEF764F94FF48050079007A914489F
:10406000FFF7A0F908B1FEF75AF91148FFF745FB31
:1040700008B1FEF754F90B940BA90D480C94FFF707
:10408000DBF808B1FEF74BF96020CDE9000402949B
:104090000C22694606480494FFF7C9FA08B1FEF7F6
:1040A0003EF90348FFF786FA0EB010BD0004004049
:1040B000A008002010B58AB0002407941C2168468F
:1040C0000894FCF7CDFC15481349C0E900147D2184
:1040D000C0E9024104618461FFF70FFB08B1FEF7FC
:1040E0001EF9079407A90D480894FFF7A5F808B131
:1040F000FEF715F96020CDE9000402940822694614
:1041000006480494FFF793FA08B1FEF708F903484C
:10411000FFF750FA0AB010BD00080040E808002080
:104120000C4810B50A4901604FF4E13141600021AB
:1041300081600C22C160C0E904128161C161FFF796
:10414000B0FC002803D0BDE81040FEF7E8B810BD71
:10415000001001409009002040F6B83024F044FBE4
:1041600026A00DF029FA2AA00DF026FA642024F0EA
:104170003BFB2BA00DF020FA642024F035FB2CA093
:104180000DF01AFA642024F02FFB1CA00DF014FA95
:104190004FF47A74204624F027FB2BA00DF00CFA84
:1041A000C82024F021FB2A48FDF7F2FF24F05AFA38
:1041B000032000F066F824F075FA26A00DF0FCF953
:1041C000204624F011FB24F04DFA032000F048F8BB
:1041D00024F068FA1FA00DF0EFF9204624F004FB4C
:1041E00024F040FA032000F043F824F05BFA19A011
:1041F0000DF0E2F9204624F0F7FAD7E73D3D3D3DCA
:104200003D3D3D3D3D3D3D3D3D3D3D3D3D0D0A007E
:1042100053797374656D205374617274210D0A00B3
:104220004C56474C2056382E342E300D0A000000D4
:104230004672656552544F53205632303232313215
:104240002E30310D0A00000048454C4C4F210A0029
:1042500004EF0308524544210A000000FEE7FEE790
:1042600010B5FF2100F092FCBDE8104000F084BCC6
:1042700010B54FF47F0100F089FCBDE8104000F05C
:104280007BBC10B54FF47F4100F080FCBDE81040CE
:1042900000F072BCF8B515460E460B460092044677
:1042A0000122022100F02CF8A0B91348134900683C
:1042B000B0FBF1F04FF47A71484300906068B0F5BC
:1042C000827F0DD13346002280212046009500F0E8
:1042D00017F870B1606D40F0200060650320F8BDF4
:1042E000009830B1401E009020688068C0430006EE
:1042F000F6D50020F8BD00002800002000366E0131
:104300002DE9F8431E46914688460446089DFEF76F
:104310008BFA401B351AFEF787FA074625480068D6
:10432000C0F3CB30684338E0701C37D0FEF77CFA1E
:10433000C01BA84203D215B1009860B32CE02068DE
:10434000416821F0E00141606068B0F5827F0BD1E7
:10435000A068B0F5004F02D0B0F5806F04D120689E
:10436000016821F040010160A06AB0F5005F09D149
:104370002068016821F4005101602068016841F45F
:1043800000510160012084F85100002084F85000A1
:104390000320BDE8F8830025401E00902068816856
:1043A00038EA010004D000214945BDD10020F0E7E2
:1043B0000121F9E72800002070B57B4C0022022182
:1043C0002046FEF72BFA794D002210212846FEF7F1
:1043D00025FA0C20FEF718F9012210212846FEF7D5
:1043E0001DFA0C20FEF710F91120FFF7B7FC0C2086
:1043F000FEF70AF93A20FFF7B1FC0520FFF7BCFCF5
:10440000C520FFF7ABFC1A20FFF7B6FC3620FFF7FC
:10441000A5FC7020FFF7B0FCB220FFF79FFC052041
:10442000FFF7AAFC0520FFF7A7FC0020FFF7A4FC7C
:104430003320FFF7A1FC3320FFF79EFCB720FFF7E6
:104440008DFC0520FFF798FCBB20FFF787FC3F2081
:10445000FFF792FCC020FFF781FC2C20FFF78CFCBB
:10446000C220FFF77BFC0120FFF786FCC320FFF78B
:1044700075FC0F20FFF780FCC420FFF76FFC2020A5
:10448000FFF77AFCC620FFF769FC0120FFF774FCF8
:10449000D020FFF763FCA420FFF76EFCA120FFF7FC
:1044A0006BFCE820FFF75AFC0320FFF765FCE920CE
:1044B000FFF754FC0920FFF75FFC0920FFF75CFCC5
:1044C0000820FFF759FCE020FFF748FCD020FFF759
:1044D00053FC0520FFF750FC0920FFF74DFC092095
:1044E000FFF74AFC0820FFF747FC1420FFF744FCC5
:1044F0002820FFF741FC3320FFF73EFC3F20FFF769
:104500003BFC0720FFF738FC1320FFF735FC142095
:10451000FFF732FC2820FFF72FFC3020FFF72CFCA0
:10452000E120FFF71BFCD020FFF726FC0520FFF75A
:1045300023FC0920FFF720FC0920FFF71DFC0820C1
:10454000FFF71AFC0320FFF717FC2420FFF714FCE9
:104550003220FFF711FC3220FFF70EFC3B20FFF763
:104560000BFC1420FFF708FC1320FFF705FC2820A4
:10457000FFF702FC2F20FFF7FFFB2120FFF7EEFBE8
:104580002920FFF7EBFB00218623EF220846FFF7E7
:1045900029FB4FF6FF70FFF753FB2046BDE8704044
:1045A00001220221FEF73AB9000002400008024051
:1045B00000280CD000EE100A9FED051AF8EE400A14
:1045C00081EE200ABCEEC00A10EE100A80B27047DD
:1045D0000024744910B524F01FFD012803D0BDE864
:1045E000104024F073BB10BD30B593B03021684645
:1045F000FCF736FA14210CA8FCF732FA1C48002507
:10460000016841F080510160006800F08050119015
:104610001848016841F4404101600068022400F438
:104620004040119001200090000401908001CDE9EC
:1046300006400C2008906020CDE9090404200B906E
:104640006846FEF7C7FA08B172B6FEE70CA90F205C
:1046500081E831004FF48050CDE90F0503210CA80B
:10466000FEF7ACF9002801D072B6FEE713B030BDFA
:1046700040380240007000400248016841F4700177
:104680000160704788ED00E00148FEF7FBBE0000C6
:10469000D809002030B59BB005461C2112A8FCF7B4
:1046A000DFF919480024016841F002010160006847
:1046B00000F002001990154800906320CDE9010434
:1046C000681ECDE9030468460694FFF716F808B1A2
:1046D000FDF725FE602012906808CDE913040C2236
:1046E00012A968461694FEF7A2FF08B1FDF717FE5F
:1046F0000C216846FFF792F90098416C41F40041A3
:1047000041641BB030BD000040380240000400404E
:10471000F0B50268204B214C9F03214D214E984259
:1047200007D0B84205D0A04203D0A84201D0B04281
:1047300004D122F0700C4A6842EA0C02984210D070
:10474000B8420ED0A0420CD0A8420AD0B04208D045
:10475000154CA04205D0154CA04202D0144CA042EA
:1047600003D122F44074CA6822434C6922F08002CB
:10477000224302608A68C2620A688262984201D15A
:1047800009690163012141610169C90703D0016918
:1047900021F001010161F0BD000001400004004072
:1047A00000080040000C004000400140004401406F
:1047B0000048014010B501F01F030121046A99402F
:1047C0008C430462016A9A401143016210BD10B526
:1047D000846B0121626A824205D12177C069F8B9F0
:1047E00084F83E101CE0A26A824206D1022222779F
:1047F000C069A8B984F83F1012E0E26A824206D18B
:1048000004222277C06958B984F8401008E0226B6E
:10481000824205D108222277C06908B984F8411084
:104820002046FEF7CDFF0020207710BD10B5846B29
:10483000616A814201D101200DE0A16A814201D16A
:10484000022008E0E16A814201D1042003E0216BEB
:10485000814201D1082020772046FEF7B2FF0020D8
:10486000207710BD10B5846B0121626A824203D1AA
:10487000217784F83E1019E0A26A824204D1022016
:10488000207784F83F1011E0E26A824204D10420CC
:10489000207784F8401009E0226B824204D108207E
:1048A000207784F8411001E084F83D102046FEF79F
:1048B000E7FD0020207710BD10B5846842EA03228E
:1048C00024F47F440A432243826010BD826822F0B0
:1048D00070020A4342F007018160704730B5036AF5
:1048E000026A22F0010202624268846924F07305C0
:1048F0000C682C4323F002058B682B430A4DA84219
:104900000BD123F00805CB6822F440722B434D698C
:1049100023F0040315438A692A434260846149688D
:104920004163036230BD00000000014030B5026AFF
:10493000036A23F010030362436884690D6824F45A
:10494000E64444EA05248D6822F0200242EA05127A
:104950000B4DA8420ED1CD6822F0800242EA05122A
:104960004D6923F4406343EA85038D6922F04002D8
:1049700043EA85034360846149688163026230BD14
:104980000000014030B5036A026A22F480720262BC
:104990004268C46923F4007324F073050C682C4347
:1049A0008D6843EA05230C4DA8420ED1CD6823F44F
:1049B000006343EA05234D6922F4405242EA05129E
:1049C0008D6923F4806342EA05124260C46149683C
:1049D000C163036230BD00000000014030B5046ACD
:1049E000026A22F4805202624268C3690D6823F4AD
:1049F000E64343EA05238D6824F4005444EA053471
:104A0000064DA84204D14D6922F4804242EA851243
:104A10004260C36149680164046230BD0000014026
:104A200010B5036A046A24F001040462846924F066
:104A3000F00444EA021423F00A020A438461026289
:104A400010BD10B5036A046A24F01004046284697E
:104A500023F0A00324F4704444EA023243EA011133
:104A60008261016210BD000070B5044600680169F2
:104A7000E26821F44051114301612169A068E269B3
:104A800008436169114308432168CA6849F20C630D
:104A90009A430243CA6020684169A26921F44071C7
:104AA0001143416131492068884202D0304988422F
:104AB00002D1FEF74DF801E0FEF73AF8E269002373
:104AC000192164253226B2F5004F626828D0A0FB78
:104AD0000101930F9200FBF7A5FC0146B0FBF5F036
:104AE0006FF01802504301EB800006EB0010B0FBA2
:104AF000F5F000F0F002B1FBF5F002EB0012B1FBB3
:104B0000F5F06FF01803584301EB800006EB00103E
:104B1000B0FBF5F000F00F0021681044886070BD14
:104B2000A0FB010192185B41FBF77CFC0146B0FB46
:104B3000F5F00201B1FBF5F06FF01803584301EBFB
:104B4000800006EBC000B0FBF5F000F0F80002EBCF
:104B50004002B1FBF5F0584301EB800006EBC000CA
:104B6000B0FBF5F000F00700D6E7000000100140B0
:104B700000140140FEE700007A23024A082102489F
:104B8000FEF778BE88210120E8080020F0B5002358
:104B90000C4D14E0002203EB430400BF01FA02F6BF
:104BA000360201D5462600E0232602EBC407521C3C
:104BB000D2B245F82760182AF0D35B1CDBB28342DF
:104BC000E8D3F0BD8821012003B40198410000988A
:104BD00050EAC12018BF04204A0D18BF40F0010060
:104BE00040F2FF72B2EB515F08BF40F002000128B3
:104BF00008BF052002B070470907090E002804DB32
:104C000000F1E02080F80014704700F00F0000F180
:104C1000E02080F8141D704770B5044600256FF041
:104C20002F0608E02068411C2160007805EB850113
:104C300006EB410145182068007800F004F80028D0
:104C4000F0D1284670BD3038092801D801207047BE
:104C50000020704730380A2801D201207047002018
:104C60007047000010B54421074800F09DFC002269
:104C70001E2106481DF050FA054CA06001F064FDAD
:104C80000020207010BD0000F85B0020FD670008C8
:104C90000C0200202DE9F0470E46814617461146CA
:104CA000304600F01CF94FF0FF3A00287DD000227A
:104CB0003946304600F0BFF800284FF0000075D1AB
:104CC000B6F90480B6F900305246A8EB0301491C3E
:104CD0000AFA81F10FFA81FAB6F906C0B6F90210A4
:104CE000ACEB010C0CF1010C02FA8CF2B7F802C02B
:104CF00012B2ACEB010C0FFA8CFCBCF1000F0EDD14
:104D000063F30F0468F30F0501EB0C0061F31F441C
:104D100060F31F45C9F800400120C9F80450B7F9F5
:104D200006107388CB1AD21A12B2002A13DDB6F914
:104D3000063099420FDA338863F30F04B38861F3C6
:104D40001F4463F30F05114461F31F4509EBC001D4
:104D5000401C0C604D60B7F90220B6F902108A427F
:104D600000DD1146B7F90630B6F90620934200DAA5
:104D70001A463B88B6F900C0521AA3EB0C031BB2CB
:104D800012B2002B10DD002A0EDD634463F30F0521
:104D90008B1863F31F456CF30F0409EBC00361F339
:104DA0001F441C605D60401C01E01AE017E0B7F989
:104DB000043036889F1BAAEB070636B2002E0EDDA4
:104DC00063F30F0461F31F44334463F30F0511448D
:104DD00061F31F4509EBC001401C0C604D60BDE84C
:104DE000F0875046FBE770B5B1F90030B2F90040EA
:104DF000A34200DC23460380B1F90250B2F902401D
:104E0000A54200DD2C464480B1F90460B2F904509B
:104E1000AE4200DA35468580B1F90610B2F90620B7
:104E2000914200DB1146C1800120AB4201DC8C4283
:104E300000DD002070BDF8B50D460446B0F9000055
:104E4000B1F900101646884247DBB4F90210B5F9F3
:104E50000220914241DBB4F90410B5F904209142DB
:104E60003BDCB4F90610B5F90620914235DC96B367
:104E7000ADF800006088ADF8020032466946284669
:104E800000F099F8002827D0A088ADF800006088CD
:104E9000ADF8020032466946284600F08CF800283A
:104EA0001AD02088ADF80000E088ADF80200324644
:104EB0006946284600F07FF800280DD0A088ADF89C
:104EC0000000E088ADF8020032466946284600F04E
:104ED00072F8002800D00120F8BD0020F8BDB0F91C
:104EE0000020B1F904309A4213DCB0F90420B1F982
:104EF00000309A420DDBB0F90220B1F906309A4237
:104F000007DCB0F90600B1F90210884201DB01208C
:104F1000704700207047F8B50D460446B0F904000C
:104F2000B1F900101646884243DBB4F90600B5F922
:104F3000021088423DDBB4F90000B5F90410884244
:104F400037DCB4F90210B5F90620914231DC76B3B2
:104F5000ADF800006088ADF8020032466946284688
:104F600000F029F818BBA088ADF800006088ADF803
:104F7000020032466946284600F01DF8B8B920887C
:104F8000ADF80000E088ADF80200324669462846D8
:104F900000F011F858B9A088ADF80000E088ADF82D
:104FA000020032466946284600F005F808B10020A4
:104FB000F8BD0120F8BD2DE9FC4114460E46B1F9BB
:104FC0000020B0F9001005468A423ADBB5F904002A
:104FD000824236DCB6F90270B5F90220974230DB26
:104FE000B5F906309F422CDC002C75DD401A9A1A68
:104FF000401C521C00B212B200EBD07002EBD27215
:1050000040105210904200DB1046844200DD0446FE
:10501000ADF80010288800222044ADF8040068880C
:10502000ADF80200688831462044ADF806006846B5
:10503000FFF7C1FF40B1BDF804002044ADF8040003
:105040003FE00020BDE8FC81E8880022001BADF8AD
:105050000200E888ADF8060031466846FFF7ABFF6E
:1050600028B1BDF804002044ADF8040011E0A88880
:105070000022001BADF80000A888ADF804003146FE
:105080006846FFF798FF50B1BDF80000001BADF86F
:105090000000BDF80200001BADF8020016E06888B1
:1050A000ADF80200688800222044ADF806003146C1
:1050B0006846FFF780FF70B1BDF80000001BADF837
:1050C0000000BDF806002044ADF8060031466846F1
:1050D0001AF0DCFBB6E7FFE70120B3E710B5B1F942
:1050E0000040B2F900309C4200DA23460380B1F957
:1050F0000240B2F902309C4200DA23464380B1F903
:105100000440B2F904309C4200DD23468380B1F9AB
:105110000610B2F90620914200DC1146C18010BD94
:10512000F8B507461CF0A6FF0025374C064600954B
:1051300037B1F868606038461DF0BCF8606802E07E
:105140000FF0DEFC606000691AF09CFA606840694C
:1051500008B11AF097FA6068C0691AF093FA6068AB
:10516000006A1AF08FFA6068016991B11AF022FCA6
:105170001FF06CFB1FF092F86068B0F85011D9B3C3
:105180000068017CC9071DD0C0684068D0B1002705
:1051900013E0A0F85051F8BDC11991F8301151B980
:1051A00000F5AC7000F057FA616801EBC7010A6BBB
:1051B0000260496B41607F1CBFB26068B0F850115B
:1051C000B942E9D860684FF48071303015F0EEFED6
:1051D0006068202100F5987015F0E8FE6068A0F87E
:1051E000505130461CF040FF009060680068436AF0
:1051F00013B122680099984715F056FD00F032F877
:10520000BDE8F84000F002B8D400002070B50A4DA7
:10521000002400BFC4EBC40655F8260008B115F001
:10522000B7FD05EB86001C2115F0C0FE641CE4B23E
:10523000042CEFD370BD0000D45C002008494968FD
:105240000AE04A68824202D00A68824203D10A7E9A
:1052500042F001020A7649690029F2D17047000044
:10526000A8000020704700000421014800F09CB90C
:10527000EC5B00202021014800F096B9045C00207E
:105280002DE9FF410446DDE90A671D004FF00000EB
:1052900002D1B6F5807F2BD0039001900290ADF83B
:1052A0000C100090ADF80410ADF80A20ADF80E20F7
:1052B0003B463246294668461AF048FA3B46324693
:1052C000294601A81AF042FA3B463246294602A86E
:1052D0001AF03CFA3B463246294603A81AF036FA41
:1052E000BDF90000BDF90430984209DA054608E02E
:1052F0002080491E6080A180521EE280BDE8FF81AF
:105300001D46BDF90820BDF90C108A4201DA164687
:1053100000E00E46B54203DA984206DB184604E088
:105320008A4201DA104600E00846801E2080BDF95E
:105330000030BDF90420934201DD1D4600E0154612
:10534000BDF90800BDF90C10884201DD064600E0F9
:105350000E46B54205DD934201DD194604E01146D3
:1053600002E0884200DD0146891CA180BDF90230BF
:10537000BDF90620934201DA1D4600E01546BDF94D
:105380000A00BDF90E10884201DA064600E00E461A
:10539000B54205DA934201DA194604E0114602E00B
:1053A000884200DA0146891E6180BDF90230BDF9EC
:1053B0000620934201DD1D4600E01546BDF90A00B6
:1053C000BDF90E10884201DD064600E00E46B542EA
:1053D00005DD934201DD194604E0114602E08842F2
:1053E00000DD0146891CE18088E700002DE9F041DD
:1053F00015460E460746114C1CF03CFE80462B46D7
:1054000032463946204613F011FD20B10020A0623B
:10541000E06950B110E02C21204615F0C7FD4FF097
:105420000040A0620020BDE8F08140461CF01CFE58
:10543000E06108B90120E0612046F4E7285C002023
:1054400010B51421074800F0AFF813F0B5FC40B1D7
:105450000549016005494160054981600549C16010
:1054600010BDFEE7105C00208D870108098B010844
:10547000D98C0108598701087FB50E46040003D175
:105480000FF03EFB04002CD00FF0AEFB002828D01C
:1054900094F82800400724D4002506B3ADF8005046
:1054A000ADF8025020460FF043FB401EADF804005B
:1054B00020460FF083FB401EADF806006A463146D9
:1054C00002A8FFF790FC00280BD02068017C890718
:1054D00008D5DDE90001C4E90C01012029E0A4F8A8
:1054E00050517FBD82690AB102A9904700260AE0A7
:1054F00004EBC601002202A83031FFF79CFC002813
:10550000EFD1761CB6B2B4F85001B042F0D880B2F8
:10551000202804D204EBC00002A9303004E0A4F833
:10552000505104F1300069460DF03DF8B4F85001D7
:10553000401CA4F8500160680028D2D01CF0C6FEC0
:105540007FBD70B5054600F012F804460CE0214618
:10555000284600F01EF806462146284600F0A2F82C
:10556000204615F015FC3446002CF0D170BD002803
:1055700000D04068704700B503460022FFF7F7FFF0
:1055800003E01846521C00F004F80100F9D110465F
:1055900000BD0068091D40587047006840587047BA
:1055A000002800D08068704700224260C91C21F0AA
:1055B000030182600160704770B5044600680830DE
:1055C00015F05AFB050013D00146002220461DF0BD
:1055D0008BFE2946204662681DF080FE616819B185
:1055E0002A4620461DF080FE6560A06800B9A560CF
:1055F000284670BD2DE9F0410C4606000AD04CB19A
:10560000FFF7B5FFA04208D13046FFF7D5FF051ED2
:1056100001D01EE00020BDE8F0813068083015F0B0
:105620002BFB051EF7D030682A460759304639460D
:105630001DF054FE3A46294630461DF055FE2A46D6
:10564000214630461DF050FE2246294630461DF0C8
:1056500045FE2846DFE770B504460068083015F0BF
:105660000BFB050013D00146002220461DF036FE3C
:1056700029462046A2681DF037FEA16819B12A46C6
:1056800020461DF02BFEA560606800B965602846C5
:1056900070BD28B1416809B9806808B10020704721
:1056A0000120704770B504000DD0FFF760FF0022A5
:1056B0008842204608D1FFF76CFF6060011E01D0D0
:1056C00000221EE0A26070BDFFF76AFF88422068DA
:1056D00008440AD10168A16029B12046BDE87040A4
:1056E00000221DF0FBBD626070BD05682046FFF71B
:1056F00050FF06460246294620461DF0EFFD2A4689
:1057000031462046BDE870401DF0EEBD10B50446A0
:10571000006882680AB12146904720680068002826
:1057200001D02060F5E710BD8068002801D0B0F9F5
:10573000160070478068002801D0807E800970477D
:1057400070B5164605460C4651EA06001AD02846A2
:1057500016F092F9A86801233246018A2144018299
:10576000A868418A314441822146284618F00AFD42
:1057700000220B21284612F0ADFA012803D1284659
:1057800018F059FC012070BD77B581B00E460500B8
:1057900017D0622217F080FF040012D0206880B179
:1057A00028463146632217F077FF10F0FF0208D039
:1057B00023682046039998470090BDF80000ADF893
:1057C0000C00039804B070BD2DE9F047074692B075
:1057D000408C1A9E40F00800788490463A8499469E
:1057E0008A463289384617F057FF0546A7F82090B9
:1057F00032895146384617F04FFF0446788CA5424F
:1058000020F00800788403D12904B1EB044F68D05C
:10581000A7F8208032895146384617F03DFF0546EB
:105820008046A7F82090514638460AF0FDFF31899E
:1058300000682A461BF06AFB30890B2823D147F603
:10584000FF794D4501D04C451DD1384618F0EBF895
:1058500000EBD0704510384616F0C3FF00EBD07057
:105860004010C84506D1691C431C994200DA00E08B
:10587000194688464C4506D1691C421C914201DA02
:105880006C1C00E014461948FFF796FE05002BD06B
:105890002F60C5E903843089A8806846C5F808A050
:1058A0000CF0F4F81248FF21CDE9005011480290A5
:1058B0001148039000200890CDE9090130880B9031
:1058C00070889DF8421040420C90F06807900020CC
:1058D00060F300018DF842103069069068460CF0C4
:1058E00049F912B0BDE8F087FEE700001C5C00201B
:1058F00001800208E981020845810208142101485B
:10590000FFF752BE1C5C00202DE9F84F00259046A1
:10591000894606462C460427E6E000BFF06807EB00
:10592000C401405881017CD480B230EA090112D010
:105930005FF0000230EA08000FD00020824270D0F1
:10594000F0686A46102150F8340082461BF040F897
:10595000002871D103E00122ECE70120EEE76A465E
:10596000112150461BF034F8002865D16A461221F7
:1059700050461BF02DF800285ED16A461321504690
:105980001BF026F8002857D16A46152150461BF017
:105990001FF8002850D16A46142150461BF018F811
:1059A000F0BB6A460A2150461BF012F8C0BB6A469B
:1059B0006B2150461BF00CF890BB6A466C21504698
:1059C0001BF006F860BB6A46012150461BF000F848
:1059D00030BB6A46042150461AF0FAFF00BB6A4603
:1059E000022150461AF0F4FFD0B96A46032150460E
:1059F0001AF0EEFFA0B96A46052150461AF0E8FFFA
:105A000070B96A46062150461AF0E2FF40B96A466C
:105A1000322150461AF0DCFF10B96A466E2101E0CF
:105A20000AE060E050461AF0D3FF28B96A466D21BB
:105A300050461AF0CDFF10B10320BDE8F88F6A463A
:105A4000692150461AF0C4FFF0BB6A466A215046ED
:105A50001AF0BEFFC0BB6A466E2150461AF0B8FF6E
:105A600090BB6A466D2150461AF0B2FF60BB6A4691
:105A7000372150461AF0ACFF30BB6A4638215046F9
:105A80001AF0A6FF00BB6A46352150461AF0A0FF67
:105A9000D0B96A46402150461AF09AFFA0B96A462A
:105AA000452150461AF094FF70B96A46412150468C
:105AB0001AF08EFF40B96A46422150461AF088FF1C
:105AC00010B96A46432100E009E050461AF080FF11
:105AD00028B96A46492150461AF07AFF08B10225D2
