:100133000000E43F2820282581084210020208021B
:10014300E83F04020707840A4412346204020002EF
:1001530088208824882488248824BF248824882409
:10016300882488248824B8248724422440202020FB
:10017300800080004001200210040808F417836007
:100183008000FC1F8000880890089004FF7F000017
:1001930080008200840F44082004F03F2722242299
:1001A300E43F0405840C8454444424780A00F17F1A
:1001B300F80F0808F80F0808F80F0000FC3F0400C8
:1001C300F41F0400FC7F94101409120652183160C6
:1001D300800080008000FC1F841084108410FC1FAA
:1001E300841084108410FC1F845080408040007F62
:1001F3000000FE1F00080004000280018000FF7F52
:10020300800080008000800080008000A00040000B
:10049A00E4FDD3EF9400EE940040080DEF1F70F2D4
:0304AA001E80EFC2
:0104AD00222C
:10045A00E4FDFCC3ED9FEC9E5015E4FBFA0BBB00D8
:0F046A00010ABA03F8BB84F50DBD00010C80E454
:010479002260
:10047A00E4FE53B0FEEF20E70553B0FD800343B01E
:0F048A0002EF25E0FF43B0010EBE08E653B0FEBF
:010499002240
:10039A007F2A1203CEE4FF12044D7F3412044DE487
:1003AA00FF12044D7FBA12044D7F2B1203CEE4FFD5
:1003BA0012044D7F2812044D7F0112044D7F17123B
:0403CA00044D7F2C33
:0D03CE0053B0F753B0EF12047A43B0102281
:100434001203CE7FD012044D7F0512044D7F0912A2
:09044400044D7F0912044D7F08EC
:0D044D0043B00853B0EF12047A43B0102200
:10040A0012039AE4FDFCE4FBFA7FFF12044D7FFF1E
:10041A0012044D0BBB00010AEB64874A70EB0DBD59
:09042A0000010CED64F04C70DDE2
:0104330022A6
:0403DB008E088F09F0
:1003DF0012039AE4FDFCE4FBFAE508FF12044DAFAB
:1003EF000912044D0BBB00010AEB64874A70EA0D3A
:0A03FF00BD00010CED64F04C70DC51
:0104090022D0
:1000030043B00153B0FB7F647E0012045A43B00433
:1000130012045A7F111203CE7F787E0012045A7F96
:100023003A1203CE7F0512044D7FC51203CE7F1A09
:1000330012044D7F361203CEE4FF12044D7FB21239
:1000430003CE7F0512044D7F0512044DE4FF120415
:100053004D7F3312044D7F3312044D7FB71203CE0D
:100063007F0512044D7FBB1203CE7F3F12044D7FE9
:10007300C01203CE7F2C12044D7FC21203CE7F0128
:1000830012044D7FC31203CE7F0F12044D7FC4129F
:1000930003CE7F2012044D7FC61203CE7F011204CC
:1000A3004D7FD01203CE7FA412044D7FA112044DC5
:1000B3007FE81203CE7F0312044D7FE91203CE12B1
:1000C30004417FE01204347F1412044D7F2812048C
:1000D3004D7F3312044D7F3F12044D7F0712044DB1
:1000E3007F1312044D7F1412044D7F2812044D7F99
:1000F3003012044D7FE11204347F0312044D7F2438
:1001030012044D7F3212044D7F3212044D7F3B1295
:10011300044D7F1412044D7F1312044D7F281204E3
:100123004D7F2F12044D7F201203CE7F290203CE71
:0402EC008E088F09E0
:1002F000E4FBFAF97F2A1203CEE508FF12044DAFA2
:100300000912044D740F2509F509E43508F508FFB5
:1003100012044DAF0912044D7F2B1203CEAF04120D
:10032000044DAF0512044D740F2DFDE43CFCFF128B
:10033000044DAF051203C9E4F511F512E510C433FD
:1003400054E02433F582E43401F583E58229F58213
:10035000E43583F583E493FAE4FBEA30E017AF0F6A
:10036000AE0EAD0DAC0C78081204AE12044DAF0FFA
:1003700012044D800A7FFF12044D7FFF12044DEAE4
:10038000C313FA0BBB08D3090512E512700205115D
:09039000C39420E511940040A380
:010399002241
:0404CD0075A0FF22F5
:100213001204CD53B0FE1200037F007EF81203DBFD
:100223007F0A7E0012045A7FE07E071203DB7F14ED
:100233007E0012045A7F1F1203DB7F147E00120418
:100243005A12040AE4750F1FF50EF50DF50CF5109F
:100253007DA0FC7F14FE1202ECE4750FE0750E071F
:10026300F50DF50C7510017DA0FC7F24FE1202EC48
:10027300E4F50F750EF8F50DF50C7510027DA0FC75
:100283007F3CFE1202ECE4750F1FF50EF50DF50C25
:100293007510037DA0FC7F4CFE1202ECE4750FE0A9
:1002A300750E07F50DF50C7510047DA0FC7F5CFE43
:1002B3001202ECE4750F1FF50EF50DF50C75100524
:1002C3007DA0FC7F76FE1202ECE4F50F750EF8F5C7
:1002D3000DF50C7510067DA0FC7F86FE1202EC7FE7
:0902E3000A7E0012045A02021CFA
:030000000204C136
:0C04C100787FE4F6D8FD75811502021367
:1004AE00E8600FECC313FCED13FDEE13FEEF13FF2C
:0304BE00D8F12250
:00000001FF
