:020000040800F2
:100000003818012071020008E72200084F1E00087E
:10001000E52200082F070008812E000800000000DC
:10002000000000000000000000000000B101000816
:10003000E1070008000000000D020008D9270008B1
:100040008B0200088B0200088B0200088B0200085C
:100050008B0200088B0200088B0200088B0200084C
:100060008B0200088B0200088B0200088B0200083C
:100070008B0200088B0200088B0200088B0200082C
:100080008B020008310700088B0200080000000006
:100090000000000000000000000000008B020008CB
:1000A0008B0200088B020008A52800088B020008BC
:1000B0008B0200088B0200088B0200088B020008EC
:1000C0008B0200088B0200088B0200088B020008DC
:1000D0008B0200088B0200088B0200080000000061
:1000E0008B0200088B0200088B0200080000000051
:1000F0000000000000000000000000008B0200086B
:10010000000000008B0200088B0200088B02000830
:1001100000000000000000000000000000000000DF
:100120008B0200088B0200088B0200088B0200087B
:100130008B0200080000000000000000000000002A
:100140000000000000000000000000008B0200081A
:100150008B0200088B0200088B0200088B0200084B
:100160008B0200088B020008000000000000000065
:10017000000000000000000000000000000000007F
:10018000000000008B0200080000000000000000DA
:100190008B0200088B020008DFF810D000F01AF97B
:1001A0000048004741120208AFF3008038180120D0
:1001B0002C4B19680868B0E8F04F80F30988BFF34A
:1001C0006F8F4FF0000080F311887047000000002F
:1001D00008480068006880F308884FF0000080F34A
:1001E000148862B661B6BFF34F8FBFF36F8F00DF25
:1001F00000BF00BF08ED00E0DFF80C00016841F42B
:1002000070010160704700BF88ED00E0EFF30980E6
:10021000BFF36F8F134B1A681EF0100F08BF20ED4D
:10022000108A20E9F04F106009B44FF0500080F3BD
:100230001188BFF34F8FBFF36F8F26F041FD4FF052
:10024000000080F3118809BC19680868B0E8F04F15
:100250001EF0100F08BFB0EC108A80F30988BFF3BE
:100260006F8F704724000020EFF305807047000077
:100270000648804706480047FEE7FEE7FEE7FEE740
:10028000FEE7FEE7FEE7FEE7FEE7FEE7952800084B
:10029000990100082DE9F05F0546002092469B4633
:1002A00088460646814640241BE02846414647468C
:1002B000224600F07FF853465A46C01A914110D3A7
:1002C00011461846224600F066F82D1A67EB010821
:1002D0004F4622460120002100F05DF817EB00098F
:1002E0004E41201EA4F10104DFDC484631462A4677
:1002F0004346BDE8F09F10B5431A934209D28318D4
:10030000881803E010F8011D03F8011D521EF9D2F0
:1003100010BD40EA01039B0703D009E008C9121F82
:1003200008C0042AFAD203E011F8013B00F8013BAF
:10033000521EF9D210BDD2B201E000F8012B491EC5
:10034000FBD270470022F6E710B513460A46044672
:100350001946FFF7F0FF204610BD421C10F8011BA4
:100360000029FBD1801A704710B5002200E0521C12
:10037000835C8C5CA34201D1002BF8D1D8B2E1B2EE
:10038000401A10BD034611F8012B00F8012B002A7A
:10039000F9D118467047202A04DB203A00FA02F10E
:1003A000002070479140C2F1200320FA03F3194363
:1003B00090407047202A04DB203A21FA02F0002105
:1003C000704721FA02F3D040C2F120029140084365
:1003D00019467047064C074D06E0E06840F00103FF
:1003E00094E8070098471034AC42F6D3FFF7D8FEE4
:1003F000E4D1030804D2030870B58C1810F8015B2F
:1004000015F0070301D110F8013B2A1106D110F8AD
:10041000012B03E010F8016B01F8016B5B1EF9D1B1
:100420002B0705D40023521E0DD401F8013BFAE737
:1004300010F8013BCB1A921C03E013F8015B01F8A2
:10044000015B521EF9D5A142D8D3002070BD10B572
:10045000044640682269008881B2204690474228BD
:1004600010D0606863694222008881B220469847B4
:1004700060682269008881B220469047422801D0F6
:10048000012010BD002010BD10B5054C2168096881
:10049000FFF76AFF08B1002010BD206810BD000002
:1004A0000C0300208068016908472DE9F0410446EB
:1004B00080680D461E46816990468847A068A02145
:1004C000026B9047A068C16A884760680068B0F511
:1004D000006F06D9A068290A026B9047A068C16A1C
:1004E0008847A068E9B2026B9047A068C16A884754
:1004F000A068C1698847A068A121026B9047A068E5
:10050000C16A88470025771E0BE0BD4201D001215A
:1005100000E00021A068426B904708F805006D1CC0
:10052000ADB2B542F1D3A068016ABDE8F041084719
:1005300070B5044680680D4681698847A068A0218F
:10054000026B9047A068C16A884760680068B0F590
:10055000006F06D9A068290A026B9047A068C16A9B
:100560008847A068E9B2026B9047A068C16A8847D3
:10057000A068C1698847A068A121026B9047A06864
:10058000C16A8847A0680021426B90470546A06871
:10059000816A8847A068016A8847284670BD2DE9AE
:1005A000F05F044640680D469946B0F806808088A2
:1005B000B1FBF8F1934681426ED2B5FBF8F108FB2E
:1005C0001150B5FBF8F1281A08FB11511FFA80FAF7
:1005D000A8EB010086B23EE08847A068A021026B2C
:1005E0009047A068C16A884760680068B0F5006FEE
:1005F00007D9A0684FEA1A21026B9047A068C16A28
:100600008847A0680AF0FF01026B9047A068C16AA2
:100610008847002709E0A0681BF80710026B904785
:10062000A068C16A88477F1CBFB2B742F3D3A068F5
:10063000016A8847A068816C42F210708847A9EB74
:1006400006001FFA80F9A81985B2B3440AEB080026
:100650001FFA80FA4646A068B1458169BCD8884730
:10066000A068A021026B9047A068C16A88476068B3
:100670000068B0F5006F06D9A068290A026B9047A0
:10068000A068C16A8847A068E9B2026B9047A06879
:10069000C16A884700250AE015E0A0681BF805102C
:1006A000026B9047A068C16A88476D1CADB24D458A
:1006B000F3D3A068016A8847A068816CBDE8F05F49
:1006C00042F210700847BDE8F09F70B5044680689C
:1006D0000D46164681698847A068A021026B9047A5
:1006E000A068C16A884760680068B0F5006F06D9E5
:1006F000A068290A026B9047A068C16A8847A06871
:10070000E9B2026B9047A068C16A8847A068314689
:10071000026B9047A068C16A8847A068016A884751
:10072000A068816CBDE8704042F210700847FEE797
:10073000014800F06FB80000A010002001681823E5
:10074000CAB2103AB2FBF3F2054B6FF30901032A68
:100750009B5CC36500D9091D816508467047000090
:10076000B072020810B5014600208B698A6A4FF00A
:10077000C07453B1B3F5005F15D072B1012A0CD02B
:10078000022A0AD0032A09D104E01AB1012A06D0AC
:10079000022A03D1C96AC90100D5012010BDC96A66
:1007A000A142FAD010BD002AF7D0012AF2D0022AC5
:1007B000F3D0032AF3D010BD30B50468256825F4C2
:1007C00080252560046863608368402B036803D03C
:1007D00099600068C26030BD9A600068C16030BD39
:1007E000704772B6FEE7000070B5094D064600245A
:1007F00055F8240001683046FFF7B6FD20B1641CAF
:10080000032CF5D3002070BD55F8240070BD000006
:10081000580300202DE9F84304464FF00009CDF8B5
:10082000009063484FF41651A56D0068B0FBF1F7D6
:100830002E6894F85C10082000FA01F131420FD0C4
:1008400021680A6852070BD50A6822F004020A6080
:1008500094F85C108840A860606D40F0010060650D
:1008600094F85C104FF0010808FA01F0304208D00B
:1008700021684969090604D5A860606D40F002004E
:10088000606594F85C1004208840304208D02168EC
:100890000968890704D5A860606D40F004006065B0
:1008A00094F85C1010208840304218D02168096804
:1008B000090714D5A86020680168490304D50068B9
:1008C000000308D5A16C07E00168C90503D40168DD
:1008D00021F008010160216C09B12046884794F895
:1008E0005C1020208840304231D021680968C90658
:1008F0002DD5A86094F8350005282068016806D039
:10090000490347D5006800031DD4616C1CE021F049
:10091000160101602068416921F080014161206C6D
:1009200008B9A06C20B12068016821F008010160BD
:1009300094F85C103F208840A86084F8358084F8E3
:100940003490216D1FE0E16B09B120468847606D4E
:1009500000282BD0606DC00714D0052084F8350026
:100960002068016821F0010101600098401C00909E
:10097000B84203D820680068C007F6D184F83580F3
:1009800084F83490E16C002910D001B02046BDE815
:10099000F04308470168C905D5D4016821F010016A
:1009A000016084F8358084F83490CCE7BDE8F883A2
:1009B000200000202DE9F041044600F0B1F9064680
:1009C0005CB1022084F83500002584F8345020689A
:1009D000016821F0010101600DE00120BDE8F08116
:1009E00000F09EF9801B052805D9202060650320B2
:1009F00084F83500F2E720680068C007F0D122686B
:100A0000116820480140D4E901031843D4E90336B2
:100A10003343184363691843A3691843E3691843D0
:100A2000236A18430843616A042903D1D4E90B13EC
:100A300019430843106020684069666A20F0070186
:100A400030460E43012704280CD1A06A0643E06A11
:100A500040B12046FFF786FE20B14020606584F853
:100A60003570BAE7206846612046FFF767FE94F8C4
:100A70005C203F2191408160656584F835700020DD
:100A8000ACE700003F8010F02DE9F0410446866D90
:100A900090F83400002501280DD0012084F834009E
:100AA00094F835700020012F07D084F83400022517
:100AB0002846BDE8F0810220FBE7022784F8357064
:100AC00060652046FFF778FE94F85C103F20884070
:100AD000B0602068016841F016010160206C20B10F
:100AE0002068016841F0080101602068016841F058
:100AF00001010160DCE7000070B5044600F010F968
:100B00000546601C02D004480078044400F008F94F
:100B1000401BA042FAD370BD140000202DE9F84F0D
:100B2000DFF8B8A10022012403254FF00F090AF1D4
:100B3000040BAAF1040E00BF0B6804FA02F633405E
:100B4000B34273D10F7907F00307012F01D0022FB1
:100B500016D187684FEA420805FA08FC27EA0C0715
:100B6000D1F80CC00CFA08FC4CEA070CC0F808C01D
:100B70004768B7430E79C6F3001696403E43466079
:100B80000E79F643B6070DD0C768560005FA06FC85
:100B900027EA0C07D1F808C00CFA06FC4CEA070C4F
:100BA000C0F80CC00E7906F00306022E10D1D6084C
:100BB00000EB8608D8F8206057074FEAD76C09FA8F
:100BC0000CF7BE430F6907FA0CF73743C8F82070DB
:100BD00006684FEA420C05FA0CF7BE430F7907F09E
:100BE000030707FA0CF7374307604E6816F4403FD7
:100BF0006DD03B4E376847F480473760366822F047
:100C0000030706F480460096364E07EB060CDCF828
:100C1000086897073F0F09FA07F826EA0806DFF881
:100C2000C880404503D14FF000081EE04FE0DFF8D8
:100C3000BC80404502D14FF0010816E0DFF8B080DB
:100C4000404502D14FF002080FE0DFF8A880404590
:100C500002D14FF0030808E0DFF89C80404502D144
:100C60004FF0040801E04FF0070808FA07F848EAD7
:100C70000608CCF80888DAF800605746D1F804C0B6
:100C80009E435FEACC2C00D51E433E60DBF800603B
:100C90005F46D1F804C09E435FEA8C2C00D51E430A
:100CA0003E60DEF800607746D1F804C09E435FEAFC
:100CB0008C3C00D51E433E60084F083F3E68D1F88B
:100CC00004C09E435FEACC3C00D51E433E60521CEC
:100CD000102AFFF431AFBDE8F88F0000083C014056
:100CE000443802400030014000000240000402404D
:100CF00000080240000C0240001002400069084059
:100D000000D001207047426921EA02030A4043EA09
:100D10000241816170470AB1816170470904FBE7B4
:100D20000148806870470000140000200248816874
:100D30000278114481607047140000200B4810B500
:100D4000016841F400710160016841F48061016053
:100D5000016841F480710160032000F099F80F20D0
:100D600000F006F800F04AF8002010BD003C0240F8
:100D700030B505461C4887B00024016841F4802145
:100D80000160006806A900F48020009001A800F02E
:100D90002BF900F059F91549154AB0FBF1F1154846
:100DA000491E026040F2E732C0E90324C0E90114A1
:100DB000846100F0C9FC040012D10E4800F0F2FC7E
:100DC00004000DD11A2000F035F8102D07D20022B2
:100DD00029461A2000F03CF80748056000E001248D
:100DE00007B0204630BD00004438024040420F00AA
:100DF0000048014048110020180000200C4882B033
:100E0000016841F480410160006800F48040009076
:100E10000748001F016841F080510160006800220E
:100E200000F0805000900F21901E02B000F010B82A
:100E300044380240002809DB00F01F0201219140E4
:100E40004009800000F1E020C0F800117047000068
:100E5000F0B40E4B1B680C46C3F30223C3F1070525
:100E6000042D00D90425191D072901D2002300E013
:100E7000DB1E012606FA05F1491E214099409E40DD
:100E8000761E16403143F0BC02F00CB80CED00E0C9
:100E9000064900F0070208684FF6FF03184040EAD1
:100EA0000220034A10430860704700000CED00E088
:100EB0000000FA052DE9F0470E46050065D0DFF881
:100EC0001481D8F80000F7B200F00700B04207D252
:100ED00088F80070D8F8000000F00700B04254D144
:100EE00028683D4C810712D5400703D5206840F49F
:100EF000E05020602878000703D5206840F4604067
:100F000020602068A96820F0F0000843206028785D
:100F1000C0072DD0304968680839012812D002284E
:100F200013D0032811D00968890700292DDA216818
:100F300021F0030101432160FFF7F2FE814641F2F7
:100F4000883A0EE009688903EFE709688901ECE750
:100F5000FFF7E6FEA0EB0901514502D90320BDE8E9
:100F6000F0872068696800F00C00B0EB810FEFD1CA
:100F7000D8F80010404601F00701B14207D90770C8
:100F8000006800F00700B04201D00120E7E72878B0
:100F9000400705D52068E96820F4E0500843206048
:100FA0002878000706D52068296920F4604040EAC7
:100FB000C100206000F058F82168084AC1F303110D
:100FC000515CC8400649086006480068FFF7D0FE3B
:100FD0000020C4E7003C024008380240B872020812
:100FE00020000020180000200F2202600C4A136825
:100FF00003F003034360136803F0F0038360136896
:1010000003F4E053C36012684FF4E05303EAD202E2
:1010100002610448006800F00700086070470000A3
:1010200008380240003C024004480549006809684D
:10103000044AC1F38221515CC8407047200000205F
:1010400008380240C8720208044805490068096867
:10105000044AC1F34231515CC8407047200000206F
:1010600008380240C8720208154810B5006810F030
:101070000C02144813D01449042A0FD0082A0ED1A8
:101080000F4C241F2268236802F03F025B0207D541
:101090002068C0F38810A0FB010106E0084610BDDF
:1010A0002168C1F38811A1FB00010023FFF7F2F8CA
:1010B0002168C1F30141491C4900B0FBF1F010BDAA
:1010C000083802400024F40040787D012DE9F84FF3
:1010D00004006ED02078DFF84C93C007A9F1040516
:1010E0004AD009F104000168C1F38101012908D047
:1010F0000068C0F3810002280AD1D9F8000040023C
:1011000006D52868800337D560680028E1D033E031
:101110006068B0F5803F10D0B0F5A02F286810D0DF
:1011200020F480302860286820F4802028606068DF
:10113000A8B1FFF7F5FD06460DE0286840F48030C1
:10114000F4E740F480202860F7E700BFFFF7E8FDF0
:10115000801B642873D828688003F7D50CE0FFF75C
:10116000DFFD064605E000BFFFF7DAFD801B6428BF
:10117000F0D828688003F7D42078DFF8AC828007A5
:101180004FF0000A3ED5A748001D016811F00C0F72
:1011900008D00068C0F3810002280BD1D9F8000004
:1011A000400207D42868800716D5E068012800D1DE
:1011B00012E033E1E068B8B10120C8F80000FFF7A1
:1011C000AFFD064605E000BFFFF7AAFD801B022821
:1011D000C0D828688007F7D52868216920F0F80072
:1011E00040EAC10028600DE0C8F800A0FFF798FDB4
:1011F000064604E0FFF794FD801B02281FD82868EC
:101200008007F7D42078000722D5864F8748616988
:10121000703771B101210160FFF782FD064604E0DD
:10122000FFF77EFD801B022809D838688007F7D5B4
:101230000EE0C0F800A0FFF773FD064605E082E06F
:10124000FFF76EFD801B02287DD838688007F7D431
:101250002078400768D5DFF8CCB100270BF13C0BB4
:10126000DBF80000C0000BD4DBF8001041F0805127
:10127000CBF80010DBF80000012700F08050009050
:101280006B4E3068C00510D4306840F48070306018
:10129000FFF746FD009005E0FFF742FD0099401A78
:1012A000022850D83068C005F6D55E4EA0686C366E
:1012B00001280FD00528306810D020F001003060E0
:1012C000306820F004003060A068B8B1FFF728FD56
:1012D00000900FE0306840F00100F4E740F00400B7
:1012E0003060F7E7FFF71CFD0099411A41F28830A2
:1012F000814266D830688007F4D50EE0FFF710FD14
:10130000009007E0FFF70CFD0099411A41F2883088
:10131000814256D830688007F4D42FB1DBF8001032
:1013200021F08051CBF80010A069C8B33D49091DD8
:101330000968C1F3810102294AD00228504607D02A
:10134000C8F8600000E03CE0FFF7EAFC04463BE040
:101350004746C8F86000FFF7E3FC064605E000BF1B
:10136000FFF7DEFC801B02282BD828688001F7D409
:10137000D4E907010843A16A2E4A490802EB01415A
:10138000626A41EA8211084394F82C1040EA016134
:10139000C9F8001001203866FFF7C2FC044606E0D9
:1013A0003EE000BFFFF7BCFC001B022809D82868FC
:1013B0008001F7D534E000BFFFF7B2FC001B022824
:1013C00002D90320BDE8F88F28688001F4D427E013
:1013D0000128F7D0D9F80000E26900F480019142B9
:1013E0001CD1226A00F03F01914217D147F6C0712B
:1013F000626A0140B1EB821F10D1A26A4FF0FF3345
:1014000000F4403103EB5202B1EB024F06D194F8E5
:101410002C1000F07060B0EB016F01D00120D1E71B
:101420000020CFE70438024000004742800E4742C8
:10143000007000400000FFFF70B5040009D0606A32
:10144000002540B125616561A56294F8510040B165
:101450000CE0012070BD6068B0F5827FF4D0E561DA
:10146000F2E784F85050204600F044F8022084F857
:1014700051002068016821F040010160A0882189A5
:1014800000F4827001F404410843A18901F4006171
:101490000843217C01F002010843217D01F0010194
:1014A0000843218B01F400710843217F01F03801CA
:1014B000084394F8201001F080010843218D01F4C5
:1014C0000051084321680860A069042101EA104026
:1014D00094F8241001F01001084321684860206846
:1014E000C16921F40061C1616565012084F8510082
:1014F000002070BD10B586B0044614216846FEF782
:1015000021FF14492068884221D113480021026834
:1015100042F480420260006800F4804005900E486A
:101520001038026842F002020260006800F0020017
:1015300005904FF4204000900220CDE901010320E6
:1015400003900520049069460448FFF7E7FA06B0C7
:1015500010BD000000380040403802400004024046
:101560002DE9F84F984616468A460446FFF7D8FB01
:10157000814694F8510001281ED1BAF1000F73D0B2
:10158000002E71D094F85000012815D0012784F85E
:101590005070032084F8510000256565C4F830A020
:1015A000A686E686A563A587E58765642564A068A9
:1015B000B0F5004F03D00CE00220BDE8F88F2068A2
:1015C000016821F0400101602068016841F4804118
:1015D000016020680168490603D4016841F04001B8
:1015E0000160E068B0F5006F606803D048B3012E79
:1015F00027D047E008B1012E1FD1206B2168008859
:10160000C86006E020688168890709D5216B0988D0
:10161000C160206B801C2063E08E401EE0860CE0E1
:10162000FFF77EFBA0EB0901414503D3B8F1FF3F73
:1016300003D035E0B8F1000F32D0E08E0028E1D1C0
:1016400023E0206B21680078087306E02068816839
:1016500089070AD5216B09780173206B401C206330
:10166000E08E401EE0860DE02BE0FFF759FBA0EB7B
:101670000901414503D3B8F1FF3F03D010E0B8F1B1
:10168000000F0DD0E08E0028E0D14A4641462046AA
:1016900000F032FE08B120206065A06830B109E09A
:1016A00084F8517084F85050032086E72068C168A0
:1016B0008068009084F8517004F8505F60680028DA
:1016C000F3D0012079E770477047000070B590F8BB
:1016D0003C20012A2CD0012480F83C40022280F8D2
:1016E0003D2003685A689D6822F070060A683243FC
:1016F0005A60104B02689A420ED0B2F1804F0BD064
:101700000D4B9A4208D00D4B9A4205D00C4B9A4291
:1017100002D00C4B9A4204D1496825F0800319434A
:10172000916080F83D40002180F83C10084670BD73
:10173000022070BD0000014000040040000800408D
:10174000000C00400040014010B5040003D094F8A4
:101750003D0010B107E0012010BD002084F83C00DE
:10176000204600F01EF8022084F83D00211D20686C
:1017700001F09EF8012084F8460084F83E0084F8C9
:101780003F0084F8400084F8410084F8420084F867
:10179000430084F8440084F8450084F83D000020AC
:1017A00010BD704790F83D10012901D0012070470D
:1017B000022180F83D100168CA6842F00102CA6047
:1017C00000680E4988420ED0B0F1804F0BD00C4912
:1017D000884208D00B49884205D00B49884202D084
:1017E0000A49884204D1816801F00701062903D023
:1017F000016841F0010101600020704700000140D4
:101800000004004000080040000C0040004001407F
:1018100070472DE9F04104460068C66805694FF03D
:101820000007A90713D5B10711D5F91E01610120E1
:101830002077206880698007204602D0FFF7E8FF04
:1018400004E000F0A7F8204600F06CF9277768075D
:1018500016D5700714D521686FF0040008610220C6
:1018600020772068806910F4407F204602D0FFF77F
:10187000CFFF04E000F08EF8204600F053F9277700
:10188000280715D5300713D521686FF008000861C7
:10189000042020772068C0698007204602D0FFF727
:1018A000B7FF04E000F076F8204600F03BF9277718
:1018B000E80616D5F00614D521686FF0100008610F
:1018C000082020772068C06910F4407F204602D0AD
:1018D000FFF79EFF04E000F05DF8204600F022F9DB
:1018E0002777E80708D0F00706D021686FF00100DD
:1018F0000861204600F018F9280608D5300606D5FC
:1019000021686FF0800008612046FFF7DCFE680662
:1019100008D5700606D521686FF0400008612046A2
:1019200000F00CF9A8060AD5B00608D521686FF0BA
:10193000200008612046BDE8F041FFF7C5BEBDE8C4
:10194000F081000010B586B0044614216846FEF709
:10195000F9FC2068B0F1804F15D10C4800210268D5
:1019600042F001020260006800F0010005900220D0
:101970000090CDE901010320039001200490694605
:101980000348FFF7CBF806B010BD00003038024026
:1019900000000240704770B5044690F83C000026F5
:1019A0000D4601280FD0012084F83C006AB1042ABA
:1019B0001DD0082A2FD00C2A3FD00126002084F801
:1019C0003C00304670BD022070BD206800F0C2FFB0
:1019D0002068816941F0080181612068816921F0F6
:1019E00004018161206881692A69114311E020683E
:1019F00000F0D8FF2068816941F4006181612068AE
:101A0000816921F480618161206881692A6941EAE4
:101A100002218161D2E7206800F0F0FF2068C169EF
:101A200041F00801C1612068C16921F00401C16170
:101A30002068C1692A69114311E0206801F00AF8A1
:101A40002068C16941F40061C1612068C16921F465
:101A50008061C1612068C1692A6941EA0221C161CE
:101A6000ACE710B5040003D094F83D0010B107E0D6
:101A7000012010BD002084F83C00204600F01EF834
:101A8000022084F83D00211D206800F011FF012094
:101A900084F8460084F83E0084F83F0084F8400053
:101AA00084F8410084F8420084F8430084F844003C
:101AB00084F8450084F83D00002010BD38B5054687
:101AC0000068B0F1804F25D1134900200A6842F028
:101AD00001020A600968124C01F0010100910F49EE
:101AE00021604FF0C061C4E901104FF48061C4E986
:101AF0000301890061618900A1618911C4E90710AE
:101B000060622046FEF756FF08B1FEF76AFEAC623F
:101B10002C63A56338BD000040380240A06002403D
:101B2000A01000207047000000680349884201D1DE
:101B3000FFF7FCB87047000000480140704770474D
:101B4000704770B5040004D094F84100002510B12E
:101B500006E0012070BD84F84050204600F024F8D3
:101B6000242084F841002068C16821F40051C1603C
:101B7000204601F063F82068016921F49041016179
:101B80002068416921F02A0141612068C16841F45F
:101B90000051C1606564202084F8410084F842004F
:101BA0006563002070BD000010B586B004461421A6
:101BB0006846FEF7C7FB14492068884221D11348C4
:101BC0000021026842F010020260006800F010007C
:101BD00005900E481438026842F001020260006865
:101BE00000F0010005904FF4C06000900220CDE9A4
:101BF0000101032003900720049069460448FEF782
:101C00008DFF06B010BD00000010014044380240B6
:101C1000000002402DE9F84F044690F842009A4631
:101C200016460D46202802D00220BDE8F88FB5B137
:101C3000AEB100206064222184F842102063FFF7D7
:101C40006FF8A6858146E685A0684FF48058202766
:101C5000404501D1206920B12E46002529E0012010
:101C6000E3E7002625E04B46002220212046CDF860
:101C700000A001F0CCF818B184F842700320D4E73A
:101C800026B1A06840451AD038B108E02068406805
:101C9000C0F3080025F8020B08E0206978B120683D
:101CA000406800F07F0000BF06F8010BE08D401E89
:101CB000E085E08D0028D6D184F84270B5E7206831
:101CC0004068F1E790F84230202B01D002207047A5
:101CD00021B11AB10023036301F036B80120704727
:101CE00090F84230202B01D00220704721B11AB168
:101CF0000023036301F070B80120704770477047FC
:101D00002DE9F843044690F84100984616460D46E2
:101D1000202802D00220BDE8F88385B17EB10020E2
:101D20006064212084F84100FEF7FAFFA684814612
:101D3000E684A0682027B0F5805F02D003E0012090
:101D4000E9E7206910B12E4600250EE000260CE0E0
:101D50008021204601F05BF8A8B9C6B116F8010B46
:101D600021684860E08C401EE084E08C4B464FF0D8
:101D70000002CDF800800028EAD14FF04001204653
:101D800001F045F840B184F841700320C3E735F80D
:101D9000020BC0F30800E3E784F841700020BAE7C3
:101DA00070B5044690F84100202801D0022070BD93
:101DB00049B342B32162A284E284002060642123FB
:101DC00084F84130A56B114BEB63A56B104B2B6472
:101DD000A56B104BEB64A36B1865256813462A1D91
:101DE000A06BFEF751FE21686FF04000086020688C
:101DF000143050E8001F41F0800140E80012002A32
:101E0000F5D1002070BD012070BD0000872B0008B7
:101E1000C92B0008992A000890F84130202B01D0E6
:101E20000220704779B172B101628284C2840021BC
:101E30004164212180F841100068C16841F08001AF
:101E4000C160002070470120704770477047FEE76F
:101E5000C1898068FEF752BF012907D0002909D146
:101E6000818940685FF00002FEF755BF81894068B4
:101E70000122F9E770470000012907D0002909D1A4
:101E8000C18980685FF00002FEF745BFC1898068A4
:101E90000122F9E7704700002DE9F04117460E4690
:101EA0008046FEF75AFA85B23046FEF756FA84B2FB
:101EB0002819B84202D3781B401E84B27019621CE4
:101EC0003146FEF718FA2A4641463046FEF713FA25
:101ED000291900207054024901200870BDE8F081E2
:101EE000000000202DE9F041283087B2283234313B
:101EF000343395B28EB29CB22A2000F0ABF8380A87
:101F000000F0B6F8F8B200F0B3F8280A00F0B0F824
:101F1000E8B200F0ADF82B2000F09CF8300A00F099
:101F2000A7F8F0B200F0A4F8200A00F0A1F8E0B29F
:101F300000F09EF8BDE8F0412C2000F08BB80000C6
:101F400070B5040AC5B200218623EF220846FFF7C8
:101F5000C9FF0F4900204FF4A27200BF01F81040E2
:101F600001EB4003401C80B25D709042F6D3012229
:101F700091030848FEF7CFFE00244FF4227529464E
:101F8000034800F04DF8641CA4B2642CF7D370BD74
:101F9000F4100120000402402DE9F041141AA3EBD3
:101FA000010C641C0CF1010C002504FB0CF4640012
:101FB0004FF42278069F2E46444502D9A4F5227597
:101FC0004446FFF78FFF002013490CE037F8162036
:101FD00001EB4003120A01F8102017F81620401CEC
:101FE0005A7080B2761CB0EB540FEFD301229103EC
:101FF0000A48FEF790FEA1B2074800F011F8002D44
:1020000007D0454502D9A5F52275DCE72C46002509
:10201000D9E7BDE8F0810000F4100120000402407F
:102020002DE9F0410A4D0E4607464FF48054002238
:1020300021462846FEF76FFE3146384600F054F937
:1020400021462846BDE8F0410122FEF764BE0000AB
:102050000004024001B500224FF480410348FEF71E
:102060005AFE01216846FFF7DBFF08BD000402406D
:1020700001B5012291030448FEF74DFE0121684697
:10208000FFF7CEFF08BD000000040240094808B574
:10209000016841F4001101600068002200F40010A2
:1020A000009005211120FEF7D3FEBDE80840112065
:1020B000FEF7C0BE3038024010B59CB015F0C4FE2B
:1020C0001BF0F0FF1C2216496846FEF714F90021A8
:1020D00068461FF0D6FD134C11491C2260601C316C
:1020E00007A8FEF708F9002107A81FF0CAFD0C4950
:1020F000A0601C2238310EA8FEF7FDF800210EA8C2
:102100001FF0BFFD0649E0601C22543115A8FEF700
:10211000F2F8002115A81FF0B4FD20611CB010BD1D
:1021200040720208000000202DE9F04186B0142121
:102130006846FEF707F92D480024016841F0800148
:102140000160016801F080010591016841F004011E
:102150000160016801F004010591016841F001018D
:102160000160016801F001010591016841F002017F
:10217000016000681E4F00F00200059000224E2111
:102180003846FEF7C8FDDFF86C8045F210260022C5
:1021900031464046FEF7BFFD02201125CDE900057E
:1021A0000320CDE9024069463846FEF7B7FC04201B
:1021B0000090CDE90154694638460394FEF7AEFC21
:1021C000482000900125CDE9015469463846039422
:1021D000FEF7A4FC0096CDE90154694640460394FD
:1021E000FEF79CFC06B0BDE8F081000030380240EC
:1021F0000008024000040240104810B50E4901607A
:102200004FF482714160002102228160C0E9031213
:10221000012242615202C0E90621016241628162EB
:102220000A21C162FFF708F9002803D0BDE8104079
:10223000FEF7D7BA10BD00000038004000100020A3
:1022400010B58AB0002407941C2168460894FEF754
:1022500079F815484FF08041C0E900147D21C0E9AC
:10226000024104618461FFF7FCFB08B1FEF7B9FA93
:10227000079407A90C480894FFF728FA08B1FEF75D
:10228000B0FA6020CDE900040294042269460648B1
:102290000494FFF780FB08B1FEF7A3FA0248FFF7AA
:1022A00051FB0AB010BD0000581000200C4810B5BA
:1022B0000A4901604FF4E1314160002181600C2244
:1022C000C160C0E904128161C161FFF73AFC0028D6
:1022D00003D0BDE81040FEF784BA10BD00100140E5
:1022E00000110020FEE7FEE70A460146FF230148F1
:1022F000FFF736B900100020F8B515460E460B461C
:10230000009204460122022100F02CF8A0B91348E3
:1023100013490068B0FBF1F04FF47A714843009024
:102320006068B0F5827F0DD13346002280212046BF
:10233000009500F017F870B1606D40F02000606506
:102340000320F8BD009830B1401E009020688068DE
:10235000C0430006F6D50020F8BD00002000002094
:1023600000366E012DE9F8431E4691468846044624
:10237000089DFEF7D5FC401B351AFEF7D1FC074639
:1023800025480068C0F3CB30684338E0701C37D074
:10239000FEF7C6FCC01BA84203D215B1009860B37B
:1023A0002CE02068416821F0E00141606068B0F5F0
:1023B000827F0BD1A068B0F5004F02D0B0F5806FDE
:1023C00004D12068016821F040010160A06AB0F5E5
:1023D000005F09D12068016821F400510160206884
:1023E000016841F400510160012084F8510000208F
:1023F00084F850000320BDE8F8830025401E0090BB
:102400002068816838EA010004D000214945BDD127
:102410000020F0E70121F9E72000002070B57B4C97
:10242000012210212046FEF776FC794D0022402142
:102430002846FEF770FC0C20FEF75EFB01224021CF
:102440002846FEF768FC0C20FEF756FB1120FFF72C
:1024500001FE0C20FEF750FB3A20FFF7FBFD0520A4
:10246000FFF706FEC520FFF7F5FD1A20FFF700FE77
:102470003620FFF7EFFDA020FFF7FAFDB220FFF7AF
:10248000E9FD0520FFF7F4FD0520FFF7F1FD002031
:10249000FFF7EEFD3320FFF7EBFD3320FFF7E8FDFC
:1024A000B720FFF7D7FD0520FFF7E2FDBB20FFF7C0
:1024B000D1FD3F20FFF7DCFDC020FFF7CBFD2C2036
:1024C000FFF7D6FDC220FFF7C5FD0120FFF7D0FDC5
:1024D000C320FFF7BFFD0F20FFF7CAFDC420FFF7A1
:1024E000B9FD2020FFF7C4FDC620FFF7B3FD012092
:1024F000FFF7BEFDD020FFF7ADFDA420FFF7B8FD2C
:10250000A120FFF7B5FDE820FFF7A4FD0320FFF7AA
:10251000AFFDE920FFF79EFD0920FFF7A9FD092087
:10252000FFF7A6FD0820FFF7A3FDE020FFF792FDCF
:10253000D020FFF79DFD0520FFF79AFD0920FFF74A
:1025400097FD0920FFF794FD0820FFF791FD142067
:10255000FFF78EFD2820FFF78BFD3320FFF788FD66
:102560003F20FFF785FD0720FFF782FD1320FFF7CF
:102570007FFD1420FFF77CFD2820FFF779FD302038
:10258000FFF776FDE120FFF765FDD020FFF770FD36
:102590000520FFF76DFD0920FFF76AFD0920FFF711
:1025A00067FD0820FFF764FD0320FFF761FD24208D
:1025B000FFF75EFD3220FFF75BFD3220FFF758FD8D
:1025C0003B20FFF755FD1420FFF752FD1320FFF7C6
:1025D0004FFD2820FFF74CFD2F20FFF749FD21205C
:1025E000FFF738FD2920FFF735FD00218623EF2274
:1025F0000846FFF777FC4FF6FF70FFF7A1FC204677
:10260000BDE8704000221021FEF785BB00040240A7
:102610000008024070B5D0E90456049C2E6005699C
:1026200069600021082A01D0092A02D0026991605C
:1026300003E005694FF48052AA60012C01D0022CFE
:1026400002D00269D16003E004694FF40052E260F5
:10265000452B06D04E2B01D04F2B05D002691161BE
:1026600006E04FF4806201E04FF4C06203691A6132
:1026700003690C225A61026991610269D1610069A2
:10268000FFF75FFA002070BD134600690122FFF7D3
:10269000C1BA00690122FFF715BB00690122FFF7EB
:1026A0001FBB92B20069FFF72BBB92B20069FFF724
:1026B00077BB92B20069FFF7AFBB0000064821F07C
:1026C0001BFB05480AF09DFD1EF048F91EF046F977
:1026D000012024F091FAF9E77803002001201FF08F
:1026E000C4FAFBE74FF4E1601FF0BFFA0A4D0BA1FB
:1026F000686A16F001FC0D4C00264FF47A772078BA
:1027000028B10549686A343116F0F6FB2670384660
:102710001FF0ABFAF3E7000078030020496E6974FC
:1027200069616C697A696E672E2E2E0000000020A8
:1027300040F6B83420461FF098FA4FF420652A4638
:10274000124913A0FFF7A8FB20461FF08EFA2A4675
:102750000E4913A0FFF7A0FB20461FF086FA2A4679
:102760000A4913A0FFF798FB20461FF07EFA2A467D
:10277000064913A0FFF790FB164C08212046FEF7F0
:10278000C2FAC8201FF071FAF7E70000AC0300207E
:10279000746573743132333132333132330A0000AD
:1027A00074657374313132333132333132330A006C
:1027B00074657374323132333132330A00000000F1
:1027C0007465737433313233313233333333330A14
:1027D000000000000008024010B5502080F311886E
:1027E000BFF34F8FBFF36F8F24F02EFC18B1044955
:1027F0004FF080500860002080F3118810BD000069
:1028000004ED00E030B593B030216846FDF79AFD45
:1028100014210CA8FDF796FD1C480024016841F026
:1028200080510160006800F08050119018480168E4
:1028300041F4404101600068022500F440401190DD
:102840000120039010200490009506950820CDE902
:1028500007406420CDE9090504200B906846FEF787
:1028600035FC08B172B6FEE70F20CDE90C054FF438
:102870008050CDE90E4003210CA81094FEF71AFBFE
:10288000002801D072B6FEE713B030BD40380240D8
:10289000007000400248016841F470010160704717
:1028A00088ED00E00148FEF7B4BF000048110020A9
:1028B000F0B50268204B214C9F03214D214E9842D8
:1028C00007D0B84205D0A04203D0A84201D0B04200
:1028D00004D122F0700C4A6842EA0C02984210D0EF
:1028E000B8420ED0A0420CD0A8420AD0B04208D0C4
:1028F000154CA04205D0154CA04202D0144CA04269
:1029000003D122F44074CA6822434C6922F0800249
:10291000224302608A68C2620A688262984201D1D8
:1029200009690163012141610169C90703D0016996
:1029300021F001010161F0BD0000014000040040F0
:1029400000080040000C00400040014000440140ED
:102950000048014030B5036A026A22F001020262B7
:102960004268846924F073050C682C4323F0020547
:102970008B682B430A4DA8420BD123F00805CB6886
:1029800022F440722B434D6923F0040315438A69F6
:102990002A434260846149684163036230BD00009C
:1029A0000000014030B5026A036A23F0100303629D
:1029B000436884690D6824F4E64444EA05248D687C
:1029C00022F0200242EA05120B4DA8420ED1CD683A
:1029D00022F0800242EA05124D6923F4406343EA83
:1029E00085038D6922F0400243EA850343608461D8
:1029F00049688163026230BD0000014030B5036A5E
:102A0000026A22F4807202624268C46923F400738D
:102A100024F073050C682C438D6843EA05230C4DA4
:102A2000A8420ED1CD6823F4006343EA05234D6923
:102A300022F4405242EA05128D6923F4806342EA8F
:102A400005124260C4614968C163036230BD000081
:102A50000000014030B5046A026A22F4805202622A
:102A60004268C3690D6823F4E64343EA05238D6891
:102A700024F4005444EA0534064DA84204D14D69BB
:102A800022F4804242EA85124260C36149680164CF
:102A9000046230BD0000014070B5846B206840695D
:102AA00094F84110C0F3C0100025212904D118B1B9
:102AB000E584204600F0B4F82068406994F842109C
:102AC000C0F38010222904D118B1E585204600F01A
:102AD00080F8606C40F0100060642046FFF730F82A
:102AE00070BD10B50146806B096809684FF000029F
:102AF000C9052ED4C28501680C3151E8003F23F48A
:102B0000807341E80034002CF5D10168143151E89C
:102B1000003F23F0010341E80034002CF5D10168A7
:102B2000143151E8003F23F0400341E80034002C09
:102B3000F5D1202180F84210016B012909D10168EB
:102B40000C3151E8003F23F0100341E80034002C21
:102B5000F5D14263016B012902D0FFF7CFF810BD18
:102B6000818DFEF7ECFF10BD10B5806B0121416334
:102B7000016B012902D0FFF7C2F810BD818D490811
:102B8000FEF7DDFF10BD10B50146806B09680968CE
:102B9000C90516D40021C1840168143151E8002F01
:102BA00022F0800241E80023002BF5D101680C31AE
:102BB00051E8002F42F0400241E80023002BF5D1FC
:102BC00010BDFFF742F910BD10B5806BFFF73EF95D
:102BD00010BD01680C3151E8002F22F4907241E8D9
:102BE0000023002BF5D10168143151E8002F22F0A9
:102BF000010241E80023002BF5D1016B012909D125
:102C000001680C3151E8002F22F0100241E8002346
:102C1000002BF5D1202180F842100021016370477C
:102C200001680C3151E8002F22F0C00241E8002376
:102C3000002BF5D1202180F84110704770B5044673
:102C400000680169E26821F4405111430161216982
:102C5000A068E26908436169114308432168CA68B2
:102C600049F20C639A430243CA6020684169A26931
:102C700021F440711143416131492068884202D0FA
:102C80003049884202D1FEF7DFF901E0FEF7CCF9C6
:102C9000E2690023192164253226B2F5004F6268EB
:102CA00028D0A0FB0101930F9200FDF7F3FA014633
:102CB000B0FBF5F06FF01802504301EB800006EB1B
:102CC0000010B0FBF5F000F0F002B1FBF5F002EB04
:102CD0000012B1FBF5F06FF01803584301EB8000D0
:102CE00006EB0010B0FBF5F000F00F002168104477
:102CF000886070BDA0FB010192185B41FDF7CAFA24
:102D00000146B0FBF5F00201B1FBF5F06FF01803DE
:102D1000584301EB800006EBC000B0FBF5F000F07B
:102D2000F80002EB4002B1FBF5F0584301EB8000E4
:102D300006EBC000B0FBF5F000F00700D6E700009E
:102D4000001001400014014038B5816204468285BC
:102D5000002013466064222284F84220E56B1B4A5F
:102D6000EA63E56B1A4A2A64E56B1A4AEA64E26B85
:102D700010650A462168E06B091DFDF785FE206895
:102D8000016840680090206948B120680C3050E824
:102D9000001F41F4807140E80012002AF5D120683C
:102DA000143050E8001F41F0010140E80012002AF1
:102DB000F5D12068143050E8001F41F0400140E890
:102DC0000012002AF5D1002038BD0000E32A0008D7
:102DD000692B0008992A000881628285C28500213A
:102DE0004164222180F84210016921B10168CA685A
:102DF00042F48072CA6001684A6942F001024A6185
:102E00000068C16841F02001C160002070472DE9D1
:102E1000F843984617460D460446089E24E0701C69
:102E200022D0FDF77DFFA0EB0800B0421AD8CEB14A
:102E30002068C168490717D5802D15D0402D13D0C3
:102E40000168C94309070FD4016800254068009054
:102E50002046FFF7BEFE0820606484F84050012041
:102E6000BDE8F8830320FBE72068006835EA00002E
:102E700004D00020B842D2D00020F1E70120F9E7C9
:102E8000FEE700000FB4054B10B503A9044A0298F1
:102E900001F025FA10BC5DF814FB0000F5DD000818
:102EA000740300200907090E002804DB00F1E0206C
:102EB00080F80014704700F00F0000F1E02080F867
:102EC000141D704702E008C8121F08C1002AFAD179
:102ED00070477047002001E001C1121F002AFBD19A
:102EE000704770B5044600256FF02F0608E0206893
:102EF000411C2160007805EB850106EB4101451876
:102F00002068007800F004F80028F0D1284670BD51
:102F10003038092801D80120704700207047000090
:102F200010B54421074800F09DFC00221E210648F0
:102F30001DF0E2FC054CA06001F0CEFD00202070E9
:102F400010BD0000FC3B00208D4B0008F00100206C
:102F50002DE9F0470E46814617461146304600F0EF
:102F60001CF94FF0FF3A00287DD000223946304648
:102F700000F0BFF800284FF0000075D1B6F90480CA
:102F8000B6F900305246A8EB0301491C0AFA81F158
:102F90000FFA81FAB6F906C0B6F90210ACEB010CD3
:102FA0000CF1010C02FA8CF2B7F802C012B2ACEBD1
:102FB000010C0FFA8CFCBCF1000F0EDD63F30F0463
:102FC00068F30F0501EB0C0061F31F4460F31F452C
:102FD000C9F800400120C9F80450B7F906107388F9
:102FE000CB1AD21A12B2002A13DDB6F90630994272
:102FF0000FDA338863F30F04B38861F31F4463F37C
:103000000F05114461F31F4509EBC001401C0C6022
:103010004D60B7F90220B6F902108A4200DD114670
:10302000B7F90630B6F90620934200DA1A463B8813
:10303000B6F900C0521AA3EB0C031BB212B2002B5C
:1030400010DD002A0EDD634463F30F058B1863F374
:103050001F456CF30F0409EBC00361F31F441C60B0
:103060005D60401C01E01AE017E0B7F904303688D3
:103070009F1BAAEB070636B2002E0EDD63F30F048A
:1030800061F31F44334463F30F05114461F31F459B
:1030900009EBC001401C0C604D60BDE8F087504654
:1030A000FBE770B5B1F90030B2F90040A34200DC93
:1030B00023460380B1F90250B2F90240A54200DD77
:1030C0002C464480B1F90460B2F90450AE4200DAF3
:1030D00035468580B1F90610B2F90620914200DB31
:1030E0001146C1800120AB4201DC8C4200DD002092
:1030F00070BDF8B50D460446B0F90000B1F90010F6
:103100001646884247DBB4F90210B5F90220914215
:1031100041DBB4F90410B5F9042091423BDCB4F969
:103120000610B5F90620914235DC96B3ADF80000E3
:103130006088ADF8020032466946284600F099F8EA
:10314000002827D0A088ADF800006088ADF8020004
:1031500032466946284600F08CF800281AD02088AC
:10316000ADF80000E088ADF8020032466946284616
:1031700000F07FF800280DD0A088ADF80000E088AE
:10318000ADF8020032466946284600F072F8002881
:1031900000D00120F8BD0020F8BDB0F90020B1F941
:1031A00004309A4213DCB0F90420B1F900309A429D
:1031B0000DDBB0F90220B1F906309A4207DCB0F914
:1031C0000600B1F90210884201DB0120704700209F
:1031D0007047F8B50D460446B0F90400B1F9001087
:1031E0001646884243DBB4F90600B5F9021088425E
:1031F0003DDBB4F90000B5F90410884237DCB4F9BE
:103200000210B5F90620914231DC76B3ADF800002A
:103210006088ADF8020032466946284600F029F879
:1032200018BBA088ADF800006088ADF802003246F7
:103230006946284600F01DF8B8B92088ADF80000AE
:10324000E088ADF8020032466946284600F011F8E1
:1032500058B9A088ADF80000E088ADF80200324609
:103260006946284600F005F808B10020F8BD0120A5
:10327000F8BD2DE9FC4114460E46B1F90020B0F925
:10328000001005468A423ADBB5F90400824236DC7A
:10329000B6F90270B5F90220974230DBB5F9063075
:1032A0009F422CDC002C75DD401A9A1A401C521CDF
:1032B00000B212B200EBD07002EBD272401052108A
:1032C000904200DB1046844200DD0446ADF8001059
:1032D000288800222044ADF804006888ADF8020078
:1032E000688831462044ADF806006846FFF7C1FF04
:1032F00040B1BDF804002044ADF804003FE00020D8
:10330000BDE8FC81E8880022001BADF80200E888D7
:10331000ADF8060031466846FFF7ABFF28B1BDF8AF
:1033200004002044ADF8040011E0A8880022001B2E
:10333000ADF80000A888ADF8040031466846FFF7F4
:1033400098FF50B1BDF80000001BADF80000BDF8BB
:103350000200001BADF8020016E06888ADF802001C
:10336000688800222044ADF8060031466846FFF721
:1033700080FF70B1BDF80000001BADF80000BDF883
:1033800006002044ADF80600314668461AF06EFE8D
:10339000B6E7FFE70120B3E710B5B1F90040B2F995
:1033A00000309C4200DA23460380B1F90240B2F9B2
:1033B00002309C4200DA23464380B1F90440B2F95E
:1033C00004309C4200DD23468380B1F90610B2F937
:1033D0000620914200DC1146C18010BDF8B50746B9
:1033E0001DF038FA0025374C0646009537B1F868CD
:1033F000606038461DF04EFB606802E00FF070FF21
:10340000606000691AF02EFD6068406908B11AF02A
:1034100029FD6068C0691AF025FD6068006A1AF02D
:1034200021FD6068016991B11AF0B4FE1FF0BAFC89
:103430001FF0E0F96068B0F85011D9B30068017C62
:10344000C9071DD0C0684068D0B1002713E0A0F8BC
:103450005051F8BDC11991F8301151B900F5AC7057
:1034600000F057FA616801EBC7010A6B0260496B13
:1034700041607F1CBFB26068B0F85011B942E9D812
:1034800060684FF48071303016F080F96068202158
:1034900000F5987016F07AF96068A0F8505130463F
:1034A0001DF0D2F9009060680068436A13B1226889
:1034B0000099984715F0E8FF00F032F8BDE8F840B1
:1034C00000F002B8B800002070B50A4D002400BF1B
:1034D000C4EBC40655F8260008B116F049F805EB10
:1034E00086001C2116F052F9641CE4B2042CEFD3C0
:1034F00070BD0000D83C0020084949680AE04A68CD
:10350000824202D00A68824203D10A7E42F001025E
:103510000A7649690029F2D1704700008C0000202A
:10352000704700000421014800F09CB9F03B0020E6
:103530002021014800F096B9083C00202DE9FF4108
:103540000446DDE90A671D004FF0000002D1B6F520
:10355000807F2BD0039001900290ADF80C1000906A
:10356000ADF80410ADF80A20ADF80E203B46324607
:10357000294668461AF0DAFC3B463246294601A83D
:103580001AF0D4FC3B463246294602A81AF0CEFC7B
:103590003B463246294603A81AF0C8FCBDF9000094
:1035A000BDF90430984209DA054608E02080491E3A
:1035B0006080A180521EE280BDE8FF811D46BDF9FA
:1035C0000820BDF90C108A4201DA164600E00E46CA
:1035D000B54203DA984206DB184604E08A4201DA73
:1035E000104600E00846801E2080BDF90030BDF97D
:1035F0000420934201DD1D4600E01546BDF9080098
:10360000BDF90C10884201DD064600E00E46B542C9
:1036100005DD934201DD194604E0114602E08842CF
:1036200000DD0146891CA180BDF90230BDF90620EC
:10363000934201DA1D4600E01546BDF90A00BDF9C6
:103640000E10884201DA064600E00E46B54205DA61
:10365000934201DA194604E0114602E0884200DA9A
:103660000146891E6180BDF90230BDF906209342F2
:1036700001DD1D4600E01546BDF90A00BDF90E103A
:10368000884201DD064600E00E46B54205DD934264
:1036900001DD194604E0114602E0884200DD0146E2
:1036A000891CE18088E700002DE9F04115460E46AF
:1036B0000746114C1DF0CEF880462B46324639465F
:1036C000204613F0A3FF20B10020A062E06950B1B2
:1036D00010E02C21204616F059F84FF00040A0626F
:1036E0000020BDE8F08140461DF0AEF8E06108B969
:1036F0000120E0612046F4E72C3C002010B51421A5
:10370000074800F0AFF813F047FF40B105490160EA
:1037100005494160054981600549C16010BDFEE76A
:10372000143C00206D6F0108E9720108B9740108AA
:10373000396F01087FB50E46040003D10FF0D0FDAC
:1037400004002CD00FF040FE002828D094F8280068
:10375000400724D4002506B3ADF80050ADF8025060
:1037600020460FF0D5FD401EADF8040020460FF0B6
:1037700015FE401EADF806006A46314602A8FFF766
:1037800090FC00280BD02068017C890708D5DDE972
:103790000001C4E90C01012029E0A4F850517FBDCB
:1037A00082690AB102A9904700260AE004EBC6012B
:1037B000002202A83031FFF79CFC0028EFD1761CD4
:1037C000B6B2B4F85001B042F0D880B2202804D28A
:1037D00004EBC00002A9303004E0A4F8505104F119
:1037E000300069460DF0CFFAB4F85001401CA4F83F
:1037F000500160680028D2D01DF058F97FBD70B527
:10380000054600F012F804460CE02146284600F078
:103810001EF806462146284600F0A2F8204615F07C
:10382000A7FE3446002CF0D170BD002800D04068BF
:10383000704700B503460022FFF7F7FF03E0184684
:10384000521C00F004F80100F9D1104600BD0068D8
:10385000091D40587047006840587047002800D044
:103860008068704700224260C91C21F00301826019
:103870000160704770B504460068083015F0ECFD33
:10388000050013D00146002220461EF051F92946BA
:10389000204662681EF046F9616819B12A46204642
:1038A0001EF046F96560A06800B9A560284670BDA5
:1038B0002DE9F0410C4606000AD04CB1FFF7B5FFE8
:1038C000A04208D13046FFF7D5FF051E01D01EE00B
:1038D0000020BDE8F0813068083015F0BDFD051E00
:1038E000F7D030682A460759304639461EF01AF993
:1038F0003A46294630461EF01BF92A4621463046F4
:103900001EF016F92246294630461EF00BF92846CD
:10391000DFE770B504460068083015F09DFD05002E
:1039200013D00146002220461EF0FCF8294620460E
:10393000A2681EF0FDF8A16819B12A4620461EF0C3
:10394000F1F8A560606800B96560284670BD28B1CF
:10395000416809B9806808B10020704701207047AC
:1039600070B504000DD0FFF760FF002288422046AA
:1039700008D1FFF76CFF6060011E01D000221EE03D
:10398000A26070BDFFF76AFF8842206808440AD130
:103990000168A16029B12046BDE8704000221EF0F8
:1039A000C1B8626070BD05682046FFF750FF06464B
:1039B0000246294620461EF0B5F82A4631462046E2
:1039C000BDE870401EF0B4B810B5044600688268C7
:1039D0000AB12146904720680068002801D0206085
:1039E000F5E710BD8068002801D0B0F916007047D7
:1039F0008068002801D0807E8009704770B5164627
:103A000005460C4651EA06001AD0284616F024FC5A
:103A1000A86801233246018A21440182A868418AAC
:103A2000314441822146284618F09CFF00220B2198
:103A3000284612F03FFD012803D1284618F0EBFE7E
:103A4000012070BD77B581B00E46050017D0622207
:103A500018F012FA040012D0206880B128463146CE
:103A6000632218F009FA10F0FF0208D023682046FC
:103A7000039998470090BDF80000ADF80C0003983A
:103A800004B070BD2DE9F047074692B0408C1A9EF5
:103A900040F00800788490463A8499468A463289F4
:103AA000384618F0E9F90546A7F8209032895146C2
:103AB000384618F0E1F90446788CA54220F0080059
:103AC000788403D12904B1EB044F68D0A7F8208093
:103AD00032895146384618F0CFF905468046A7F896
:103AE0002090514638460BF05BF8318900682A4631
:103AF0001BF0FCFD30890B2823D147F6FF794D459B
:103B000001D04C451DD1384618F07DFB00EBD0703C
:103B10004510384617F055FA00EBD0704010C845F4
:103B200006D1691C431C994200DA00E01946884618
:103B30004C4506D1691C421C914201DA6C1C00E024
:103B400014461948FFF796FE05002BD02F60C5E9F3
:103B500003843089A8806846C5F808A00CF086FB6D
:103B60001248FF21CDE900501148029011480390FE
:103B700000200890CDE9090130880B9070889DF8ED
:103B8000421040420C90F0680790002060F3000162
:103B90008DF842103069069068460CF0DBFB12B0DD
:103BA000BDE8F087FEE70000203C00209164020899
:103BB00079660208D565020814210148FFF752BE54
:103BC000203C00202DE9F84F002590468946064606
:103BD0002C460427E6E000BFF06807EBC40140581C
:103BE00081017CD480B230EA090112D05FF000027A
:103BF00030EA08000FD00020824270D0F0686A4698
:103C0000102150F8340082461BF0D2FA002871D1FE
:103C100003E00122ECE70120EEE76A46112150465D
:103C20001BF0C6FA002865D16A46122150461BF0E7
:103C3000BFFA00285ED16A46132150461BF0B8FA3D
:103C4000002857D16A46152150461BF0B1FA0028CA
:103C500050D16A46142150461BF0AAFAF0BB6A46BE
:103C60000A2150461BF0A4FAC0BB6A466B2150469D
:103C70001BF09EFA90BB6A466C2150461BF098FAE6
:103C800060BB6A46012150461BF092FA30BB6A467F
:103C9000042150461BF08CFA00BB6A4602215046B4
:103CA0001BF086FAD0B96A46032150461BF080FA11
:103CB000A0B96A46052150461BF07AFA70B96A46E7
:103CC000062150461BF074FA40B96A46322150462C
:103CD0001BF06EFA10B96A466E2101E00AE060E05E
:103CE00050461BF065FA28B96A466D2150461BF014
:103CF0005FFA10B10320BDE8F88F6A46692150468B
:103D00001BF056FAF0BB6A466A2150461BF050FA87
:103D1000C0BB6A466E2150461BF04AFA90BB6A4609
:103D20006D2150461BF044FA60BB6A46372150466D
:103D30001BF03EFA30BB6A46382150461BF038FA79
:103D400000BB6A46352150461BF032FAD0B96A46AC
:103D5000402150461BF02CFAA0B96A464521504636
:103D60001BF026FA70B96A46412150461BF020FA32
:103D700040B96A46422150461BF01AFA10B96A4609
:103D8000432100E009E050461BF012FA28B96A46C8
:103D9000492150461BF00CFA08B1022501E005B993
:103DA0000125641C708CC0F30510A0423FF614AFCF
:103DB0002846A0E70148406870470000B80000208E
:103DC0007047C0F30410072800D90720704700008F
:103DD000A0F57F41FF3905D0002804D0712803D217
:103DE00008490AE01F2070470749713880B2096806
:103DF00029B1064A5268904201D2085C70470020FF
:103E0000704700006CB202081C0200203002002043
:103E100010B518210348FFF725FD0349012008705C
:103E200010BD0000CC3B0020380200202DE9F041FD
:103E300090460C46050015D0FCF78FFA0A4F06464F
:103E40002146BA68284690470446BA682819414670
:103E500090470146701A03E06218AA5C2A55641C58
:103E6000A042F9D2BDE8F0814C0200202DE9F041DA
:103E7000094D90460E466A681C460746194690470B
:103E8000306020B120686A68384400219047C8F843
:103E90000000BDE8F08100004C0200202DE9F04F49
:103EA00087B08A46DDE910581F4693460446002134
:103EB00005B129805CB12078002809D0BAF1000F43
:103EC00005D0002618F0060F15D0002004E00020D1
:103ED00007B0BDE8F08F401C215C0A2904D00D29F1
:103EE00002D00029F7D100E0401C002DF0D04FF0A7
:103EF000FF312980ECE75FEA887001D541F6FF7752
:103F0000894608468DF81410049127E00498CDF8EE
:103F1000189068B34FF0000C05AA06ABCDF80CC0A2
:103F2000CDF80080CDE9013220443B465A46514647
:103F30001CF000FF06997A1A314417B20EB288B10C
:103F400004990144049120780A280BD00D2809D047
:103F5000605C0A280FD00D280DD00846205C08B1FF
:103F6000002FD3DC049848B105B12E800498AFE748
:103F70004FF0010CD0E7481C0490F3E7064A04A96F
:103F8000204652689047002DF0D00146002250464E
:103F900012F0A4FB06B2E8E74C0200202DE9F04144
:103FA0001746884606001ED0002F1CD0FCF7D5F916
:103FB00004463846FCF7D1F9050014D00B4A2C44CE
:103FC0004146926830469047411903E0621BB25C5B
:103FD0003255641EA142F9D930442A463946BDE81B
:103FE000F04115F095BBBDE8F08100004C020020C7
:103FF00000230278232902D0012A0DD00FE02AB134
:104000000021012A04D0022A04D008E0012101E0A5
:10401000017004E0017001E0202902D0012318465C
:1040200070470221F6E72DE9F0410E468046024630
:104030000021334608461DF0BBF804460027401C0B
:1040400015F00AFA050008D02F5533464246611C88
:104050001DF0AEF82846BDE8F081FEE72DE9F047F7
:104060001E4614460D468246DDF8209015E000BF3E
:104070004FEA540808FB0657394650464A469047CF
:10408000002808DD44F30000C0EB540407EB0605EC
:10409000A4F1010401E005DA4446002CE8D12046F1
:1040A000BDE8F0873846FBE72DE9FC5F9B460CAB8B
:1040B0008A468146DDE9116093E81210DDE90F5769
:1040C0005FEA80784FF030031AD45EB15FEAC078BF
:1040D00008D000F00C0858EA0C0803D0761E01E066
:1040E0000B55641CBC4204D2202CF9D301E00B55C3
:1040F000641C5FEAC07803D0B44201D2202CF6D30E
:104100005FEAC06825D55FEA40580AD44CB1BC428A
:1041100001D0B44205D1641E03D0102D03D1641E1A
:1041200004E0102D02D0022D0AD00EE0850603D443
:10413000202C1ED2782506E0202C1AD2582502E029
:10414000202C16D262250D55641C202C11D20B5543
:10415000641C202C0DD2BCF1000F01D02D2306E0F1
:10416000430701D52B2302E0030702D520230B557B
:10417000641CCDE900BAC846154681468B46AA465E
:10418000800714D1274607E02A46DDE900316D1C7F
:104190002020C446E0477F1CB742F5D307E02A46FB
:1041A0006D1C641EDDE900311BF80400C047002CC3
:1041B000F5D15FEA897006D409E02A46DDE90031CD
:1041C0006D1C2020C047A5EB0A00B042F5D328465D
:1041D000BDE8FC9F2DE9F04F8FB099468B46DDE995
:1041E0001818DDE91C63DDE91A479246864600226D
:1041F00009B923F01003580507AD00D5C9B1B1FBCB
:10420000F4F004FB1010C0B20A2801D2303009E0EB
:104210005FEA836C02D54FF0410C01E04FF0610C76
:1042200060440A38B1FBF4F1A854521C09B1202AA9
:10423000E5D3CDF80880CDE90563CDE90052CDE99D
:1042400003474B46524659467046FFF72DFF0FB0C5
:10425000BDE8F08F2DE9FF4F8FB01CACDDE9239551
:1042600094E8030820AC94E8C004002450EA01025A
:1042700001D125F010056A050DF11C0802D550EAA0
:10428000010217D032463B46FCF704F8D2B20A2AA4
:1042900001D2303206E0AB0601D5412300E06123B4
:1042A0001A440A3A08F80420641C50EA010201D0BA
:1042B000202CE7D3CDE90084CDF808B0CDE90595F1
:1042C000CDE9036A0FAF97E80F00FFF7EDFE13B0DB
:1042D000BDE8F08F9A4200D28854704770472DE9AC
:1042E000F84F9946924688460546002706E025285D
:1042F0000AD051464A4690476D1C7F1C28780028FA
:10430000F5D13846BDE8F88F002315F8011F18468F
:104310002E2915D115F8011F04232A290DD06FF07D
:104320002F022978A1F13004092C09D800EB800074
:1043300002EB400008446D1CF3E758F8040B6D1CB9
:104340002A78002ADDD0632A07D0732A0FD01046BE
:1043500051464A4690477F1C2AE018F8042B8DF8F6
:10436000002000218DF801106E46012103E058F86D
:10437000046B4FF0FF315A074FF0000401D409E0FD
:10438000641C84420BDA8C42FADB325D002AF7D1DE
:1043900005E0641C8C42FCDB305D0028F9D1274429
:1043A00004E016F8010B51464A469047641EF8D2C5
:1043B0006D1CA3E72DE9FF4F89B005460A9800243C
:1043C0009246002800D1FE4D8FE1252804D02246D8
:1043D000641C53460A990BE2491C4FF0000808463A
:1043E0000C9101782B2919D004DC202919D023291C
:1043F00004D119E02D290ED0302909D00026C8B2E9
:10440000FEF786FDB0B10CA8FEF76BFD06461FE077
:1044100048F001010AE048F0020107E048F0040119
:1044200004E048F0080101E048F01001401C884613
:104430000C90D6E70C9908782A2809D1169840C81C
:104440001690002E02DA48F002087642491C0C91C0
:104450000C984FF0000B01782E2919D1401C0C90BC
:1044600048F480680078FEF753FD20B10CA8FEF7F1
:1044700038FD83460CE00C9A10782A2808D116984B
:1044800002C81690002900DC0021521C8B460C92B9
:104490000C9801786C290AD004DC68290FD06A29AD
:1044A00019D128E0742929D07A2914D126E0401C9A
:1044B0000C90017848F480786C291CD00BE0401CEB
:1044C0000C90017848F08008682904D148F0400138
:1044D000401C88460C9002460078692822D015DCE2
:1044E00062281FD00DDC252871D050281AD05828FA
:1044F0007FF46DAF16E048F40071E9E748F480718D
:10450000E6E7632878D06428F2D10BE0732874D0F2
:1045100004DC6F2806D07028EAD103E0752801D0AA
:104520007828E5D178280DD058280BD070280BD0EA
:10453000502809D06F2816D0622816D00A2128F0FA
:10454000100016E0102107E05078102148F4887818
:10455000562804D1521C0C921078582807D0107895
:10456000502804D006E0082109E0022107E048F0C5
:10457000200080461078692803D0642801D028F0F4
:104580000C085FEA485001D528F001081078692826
:104590001ED064281CD0562864D05FEA885072D59B
:1045A000169804ABC01D002283E806080292CDE9EC
:1045B000076820F007005346F0E80212CDE9001228
:1045C0001690224628460A99FFF744FE89E00AE140
:1045D0005FEA885024D5169804AFC01D20F0070369
:1045E000F3E802021693002387E80A08CDE907687A
:1045F000002A03DA012102E080E0A6E00021002386
:10460000029119461B1A914101DA114603E000217B
:10461000404261EB020153462246CDE90001D1E759
:104620005FEAC85004D5169804C80FE0524215E05E
:104630005FEA486003D5169810F8042B06E05FEA9D
:104640000860F0D5169830F8042B12B21690CDE918
:10465000021BCDE90468D00F002AE7DDCDE9002078
:1046600053461EE01698AAEB040202C8169048684A
:10467000006800900A980B6801192846FFF79AFE17
:1046800004442FE0FFE75FEAC8500CD5CDE9021BD8
:10469000CDE9046816980021534604C8CDE90021ED
:1046A0001690224619E05FEA486003D5169810F884
:1046B000042B08E05FEA0860169803D530F8042B55
:1046C00092B200E004C816900020CDE90020CDE9A8
:1046D000021BCDE904685346224628460A99FFF793
:1046E00079FD04460C98401C0C900C990878002821
:1046F0007FF46BAE54457DD222467DE001275FEA10
:10470000887006D509E02246641C534620200A9989
:10471000A84738467F1CB042F5D316992246641C40
:1047200011F8040B169153460A99A8475FEA88705E
:1047300006D4D7E72246641C534620200A99A8478E
:1047400038467F1CB042F5D3CCE7169850F8049B4E
:1047500016904B46BBF1000001D0014601E04FF03E
:10476000FF31484600E0401C02780AB1491EFAD2E7
:10477000C71A5FEA485003D558465F4500D307463D
:104780005FEA887006D512E02246641C534620205A
:104790000A99A84738467F1CB042F5D307E000BF0E
:1047A000224609F10109641C53460A99A84799F861
:1047B000000040B15FEA4851F2D5BBF1010B01E0C6
:1047C000DD420008ECD25FEA887006D48AE7224610
:1047D000641C534620200A99A84738467F1CB042E3
:1047E000F5D37FE706E02246641C534625200A994C
:1047F000A84777E7AAF10102534600200A99A84783
:104800000DB02046BDE8F08F10B502004FF000005B
:104810000CD04B1E194200D0FEE70A44521E9A43A8
:10482000B2F5803F02D20C2A01D9104610BD0C20EF
:1048300010BD08444A1E401E9043114200D0FEE7BE
:10484000704700002DE9F0410F4601210025044684
:1048500041862E460BE01B49FBF786FD10B16D1C0F
:10486000ADB202E0608E401C6086761CB6B257F88E
:10487000260010B101780029EDD1208EA8421ED06B
:10488000A06A002610B114F073FEA662E06A10B1AF
:1048900014F06EFEE662E80014F0DEFDA06238B1AE
:1048A000680014F0D9FDE06218B1A16A11B102E00C
:1048B000FEE7FEE70025690014F068FF2586BDE8E5
:1048C000F0810000141801082DE9F84F8146407A64
:1048D0000F4600F00700022819D010468046974284
:1048E00000DD3A46164603202A4C2B4A00EB4600D0
:1048F00020F00305A06811681035411A636805EBC4
:10490000010C9C4505D2416821F0004124E0084695
:10491000E4E79D4219D892464FF0FF3B4819616881
:10492000884210D9002269461C48CDF800B00BF02F
:10493000FDF8002269461A480BF0F8F8A168DAF889
:104940000000091AEAE7A068DDE7284614F084FDB4
:10495000C0B1416841F0004188EA6702416089EADC
:1049600002010160416801F04041491C31F0804181
:1049700041608681A0F80E8005D500F110018160AC
:10498000BDE8F88FFEE7A16801F1100229448260BA
:10499000A160F5E7C000002018020020E1D7000860
:1049A0008DFB000870B586B000224A4C8DF80820B7
:1049B0008DF80C208DF81020E2888A4201D0FF2269
:1049C000A270E18090F83C20142302F003024FF41F
:1049D000B475012A24D0022A5ED0A578AA4211D04B
:1049E00010F8265F05EB051505EB4505B5FBF3F55E
:1049F0002570407800EB001000EB4000B0FBF3F0B6
:104A00006070A27004AA03A8CDE9000201EB410086
:104A10004FF6FF7101EA400002AB627821781BE09B
:104A2000A678B24210D0868C06EB46067602B6FB1C
:104A3000F5F5A58090F8270000EB001000EB400092
:104A4000B0FBF3F06070A27004AA03A8CDE90002E5
:104A5000C9B202AB62783AE008F0D4FB9DF81010BE
:104A60009DF80C00CB08BDF800109DF8082063F3FA
:104A70000401ADF800108108BDF8000061F34A1090
:104A8000D10880B261F3CF20ADF8000080B2009071
:104A9000BDF8000006B070BDA678B24210D0868C7A
:104AA00006EB46067602B6FBF5F5A58090F82600E3
:104AB00000EB001000EB4000B0FBF3F02070A270A0
:104AC00004AA03A8CDE90002CAB2217802ABA088EB
:104AD000C2E700006C01002010B5084C01202070D6
:104AE0000748FEF7A2FE0028A06803D0BDE81040EA
:104AF0001BF0DCBFBDE810401BF0CCBFF001002074
:104B0000FC3B002010B5044690F84200A16B8207E0
:104B100009D4B4F840204AB1A2F57F43FF3B1BD033
:104B2000521EA4F84020B4F84020AAB909B1820767
:104B300012D521461448FEF713FFFFF7CDFFE168B9
:104B400009B120468847216909B120468847204697
:104B5000BDE8104014F00CBDE26B52422263002904
:104B600011D0820702D4626B524222634210521C5F
:104B700062F3410084F84200A26A206A2262A062C5
:104B8000E06AE162A06310BDFC3B002070B5304DCF
:104B900068681BF059FE0646687880F0010068706E
:104BA00047E00020287094F842006978C0F3800242
:104BB0008A4242D061F3820084F84200216B8A1954
:104BC000030719D4002917DC002A15DBC00709D117
:104BD000616939B120468847216A01442162A16A8E
:104BE0000844A062A16809B12046884794F84200B1
:104BF00040F0080084F84200206B8019206316D42E
:104C0000E16A884200DD2163E16920468847014668
:104C1000606A884204D0616262680AB12068904785
:104C2000D4E90B01814202DB2046FFF76BFF2878B5
:104C300018B10848FEF7F9FD03E021460548FEF7E4
:104C400006FE0400ADD11BF005FE686070BD0000DB
:104C5000F0010020FC3B002070B5044640680D4682
:104C600008B1FFF7F9FF2268002A04D02946204640
:104C7000BDE87040104770BD89B20BF0E9BF89B242
:104C80000CF022B82DE9FF4F99B09846DDE926B126
:104C90002D9816468A464FF00009042811D00528A1
:104CA00011D0062812D0142870D101270225002423
:104CB00018FB06F00E901A98401E0D90701E06907C
:104CC00051E10027F2E701270325F0E7012702253C
:104CD000FFF770F80068D0F83890E8E7289860434C
:104CE0000BEB2022299860430AEB202110124FEA97
:104CF000212E7DD41A9B98427ADABEF1000F77DB21
:104D0000B64575DAD2B2CBB2802A05DAC2F17F029B
:104D10004FF0FF31520003E001215200A2F58072F2
:104D20000992802B05DAC3F17F034FF0FF325B005D
:104D300003E001225B00A3F580730A930EFB080CCD
:104D4000199B0CFB053307934318119372D4DDF8BC
:104D500034C063456EDC1EEB02036BD4DDF818C073
:104D6000634567DCDDF81CC011FB05C1CDE915C149
:104D700012FB08F101FB05C10C91D7B32D99052950
:104D800005D014290BD0062955D066E0EFE0159820
:104D9000807807900C9881781698807810E0199A9E
:104DA0000E990EFB08FC02EB41010A180EFB0811DC
:104DB0001CF802000790119803FB08F3085C995C4B
:104DC000079A91420AD00A9A11FB02F20A99C1F598
:104DD0008073079911FB0321C1F30721079A9042C1
:104DE0000DD0099A10FB02F20998C0F5807301E01A
:104DF0002FE035E0079810FB0320C0F3072008449C
:104E00002C994008085527D015980178407801EB77
:104E10000020ADF80C000C980178407801EB0020E0
:104E2000ADF8100016980178407801EB0020ADF83D
:104E3000080023E04CE0159801881FFA89F08142B0
:104E400007D00C990988814203D0169909888142BC
:104E500003D12C990020085583E0FF210846CEE7B6
:104E600015980088ADF80C0016980088ADF8080079
:104E70000888ADF810002C98FF210155BDF80C00F2
:104E8000BDF81010884209D1BDF80810884205D13C
:104E90002B98BDF80C1000EB440017E00A98C2B242
:104EA000DDE903100DF0F0FD04900998C2B2DDE9D0
:104EB00002010DF0E9FD7F22029004990DF0E4FD5E
:104EC00000902B98BDF8001000EB4400018048E0F2
:104ED000079B93F800C05B780CEB0323DDF8ACC0B4
:104EE0009BB22CF81430DDF8B4C0BCF1050F06D02D
:104EF000BCF1060F06D0BCF1140F09D10AE0079BE4
:104F00009B780FE01FFA89FC634501D1002309E07B
:104F1000FF2307E0199B0EFB083C0E9B00EB4303AD
:104F20001CF8033008B9002905DBDDF834C0604502
:104F300003D1002901DD09980AE0BEF1000F01D17B
:104F4000002A04DB06998E4508D1002A06DD0A985E
:104F5000C0F1FF0010FB03F0010A00E000212C98D3
:104F60000155641C24B22A988442FFF6B7AE1DB0E6
:104F7000BDE8F08F10B5818F92B00446A9B16846A4
:104F80000BF074F90B480121CDE90040A08F0B9084
:104F900000200890CDE909010748079007480390D1
:104FA00068460BF0D7F912B010BD12B0BDE8104042
:104FB0001DF058B9DD2202082B030108DF22020888
:104FC00010B50446406882080AD0496821F0030100
:104FD000091D08446060204600F042F8204610BDDC
:104FE000FEE74068103120F00300884201D3012021
:104FF0007047002070472DE9FC47054648680C467D
:1050000020F0030001AA69461CF034FCDDE90070C1
:1050100005EBC71101EB80098046D9F83C0060B16F
:1050200064B1C4E9020504F10806C46030460421F5
:10503000FFF7FFFB864202D0FEE7FEE7FEE7C9F876
:105040003C400120296900FA07F21143296105EB70
:10505000870100FA08F04A6902434A61BDE8FC870B
:1050600010B5044600F087F8046010BD2DE9FC4738
:1050700006464FF000000D0000900746019042D018
:105080000C46E9460DF10408802907D3084621F0B3
:10509000F7F9411F01208840401E0444424649461A
:1050A00020461CF0E7FB009C0A2C2CDA06EB84005F
:1050B000019A40694FF0FF3101FA02F210400CD121
:1050C000641C3069A14008401DD021F0D1F904468C
:1050D000009006EB8000406978B121F0C9F90346E1
:1050E00006EBC411019001EB8000C76B5FB17868DB
:1050F00020F00300A84201D2FEE7FEE73946304621
:10510000009A1DF09DFF3846BDE8FC8710B50446A7
:10511000FFF7A6FF416841F002014160606840F07E
:105120000100606010BD10B5044600F024F841682D
:1051300021F002014160606820F00100606010BD54
:1051400070B506460D46084600F015F8040010D06C
:105150002079C0070BD0686880080BD02146304604
:1051600000F03CF821462846FFF72AFF054628466E
:1051700070BDFEE7FEE7426800F1080122F003007F
:10518000001F0844910800D1FEE7704770B506463D
:105190000C004FF000001ED0F2B120791546C00778
:1051A0001BD011462046FFF71CFF78B12946204648
:1051B00000F025F805462046FFF752FF68682946AB
:1051C00040F0020068603046FFF715FF2046FFF709
:1051D000AAFF04F1080070BDFEE7FEE77CB50546B6
:1051E00048680C4620F0030001AA69461CF042FB07
:1051F000DDE90023214628461DF022FF7CBD2DE974
:10520000F0410D46044600F10801281F0E186068A1
:1052100006F1080720F00300401BA0F104083846FF
:105220000421FFF706FB874200D0FEE7606820F00C
:10523000030108EB0500001D814200D0FEE7307934
:1052400000F0030040EA0800706020F003000C2822
:1052500000D2FEE7207900F003002843606030466A
:10526000FFF754FF3046BDE8F08138B5044612F030
:105270001FFD054612F051FD0028204605D0218F64
:10528000E18617F0C8FA012038BD10F0D1FE0028E1
:1052900020461ED010F098FD218FE08E81420CD068
:1052A0002087E08E00906A461C21204611F002F90A
:1052B0000128E9D1204617F0AEFA284612F039FD50
:1052C0000428E0D1204615F077FE002111F0A4FD5E
:1052D000D9E710F009FFD6E770B511F0E7F80546F9
:1052E00015F0B0FE044628460CF05CFB0146204653
:1052F000BDE8704000221AF0D5BD00002DE9F04F46
:105300000D4687B00446002115F08AFD60B329469A
:10531000204600F061FA2946204600F06FF800218F
:10532000204616F0A7FC05900021204616F04AFD05
:1053300004900021204616F06EFB012800D00020CA
:1053400080460021204616F08DFE074600212046AB
:1053500016F0DCFB42F2D17906464F450BD1608C4A
:10536000000508D4012707E007B02846BDE8F04F44
:105370001C2114F00BBA0027204615F0CFFDDFF8F2
:1053800078A0834620460021BAF8042016F074FD68
:10539000D5F810C0AB682968CDF800C0CDF80C80F6
:1053A000CDE90131C2B239465846059B09F06AFC85
:1053B00028834E4504D1608C400501D4012600E0CD
:1053C0000026204615F090FD074620460021BAF839
:1053D000082016F051FDC2B2686900246B68E968C4
:1053E0008DE81B0031463846049B09F04BFC68836E
:1053F00007B0BDE8F08F0000E00000202DE9F34F7A
:1054000081B00C46019808F0C1FE0646019815F0DF
:1054100085FD8246304600F0EDFF2061400014F02B
:1054200049F820602069400014F044F8002541F656
:105430009A79A0603AE036F91510DFF820814945E5
:1054400033D10027DFF818B11FE03946019815F075
:10545000E7FC5946009016F026FFA8B9009808F01E
:10546000A7FE012810D1009808F098FEA8420BD1A1
:10547000009816F0C8FE4146404501DA084602E0B1
:10548000009816F0C0FE80467F1C019815F0DAFCEB
:10549000B842DAD8B8F1000F03DBA16821F8158013
:1054A00003E0A168002021F815006D1C2069A842C6
:1054B000C1D800252F46284641F69B784B4615E07B
:1054C00036F91010414504DB0D44A5F5F8559B3D18
:1054D0000BE0994204D1A16831F81010394403E07F
:1054E000A26822F8101039440FB2401C2169814291
:1054F000E6D80021019816F0BDFB2169C1F1010237
:1055000000FB02A0C01B00B2002800DA002000222D
:105510004FF0FF331146C44611E000BF36F9117059
:1055200067450BDBA7F5F8579B3F3AB210FB02F338
:10553000B3FBF5F3A76827F811300B46491C276920
:105540008F42EBD8002B07DBA91A4143B1FBF5F1E1
:10555000401AA16821F81300BDE8FE8F01E0FFFFAB
:10556000010006002DE9F14F00221146009818F0C5
:10557000E3F80021009816F087FA0446002100980D
:1055800016F02CFC20440FFA80F90021009816F048
:1055900029FB20440FFA80F8009816F0E9F900EB97
:1055A000090101EB0800DFF898A006B25446009804
:1055B00015F048FC074600252AE00098214980683C
:1055C000006850F82500834616F06DFEF8B958467D
:1055D00017F07AF940BB0021584616F0EDF918B3E0
:1055E000012821D002281FD003281DD000215846B1
:1055F00016F050FD58B9BBF81A10BBF81600081A7F
:10560000401C00B24844A04200DB044624B26D1C9A
:10561000BD42D2D3544504D004EB080000B2B042DE
:1056200000DC3046BDE8F88F0098BBF91A10B0F9DD
:105630001600081A411CA142E8DB0C46E6E7000010
:1056400001E0FFFF010004002DE9F84F0022804631
:10565000114618F05BF80021404616F015FA044692
:105660000021404616F066FB20440FFA80FA002124
:10567000404616F017FB20440FFA80F9404616F01A
:1056800085F900EB090101EB0A00DFF844B105B22E
:105690005C46404615F0D6FB07460021404616F012
:1056A000A8F901284FF0000644D078E0D8F80800A7
:1056B0004849006850F82600009016F0F4FDC0BB81
:1056C000009817F001F950B10098B8F91810B0F926
:1056D0001400091A481CA0422ADB4C1C28E00021B7
:1056E000009816F069F958B1032809D0062807D0A8
:1056F000082805D00021009816F0C6FC58B118E023
:105700000098B8F91810B0F91400081A411CA14209
:105710000EDB0C460CE00098143000900BF0ADFB53
:105720005044A04204DB00980BF0A7FB00EB0A04F6
:1057300024B2761CBE42B9D35C453BD004EB0900D1
:1057400033E000BFD8F808002249006850F826006E
:10575000009016F0A8FD08BB009817F0B5F860BBE4
:105760000021009816F028F938B3012825D0042824
:1057700023D0072821D00021009816F08BFC68B9AF
:105780000098143000900BF078FB4844A04204DBF2
:1057900000980BF072FB00EB090424B2761CBE42A9
:1057A000D0D35C4506D004EB0A0000B2584501D0C6
:1057B000A84200DC2846BDE8F88F0098B0F9181020
:1057C000B8F91400091A481CA042E6DB4C1CE4E7B7
:1057D00001E0FFFF010004002DE9F84F0C4683466D
:1057E00009F0DAF8064600F005FE6061400013F0AB
:1057F00061FE60606069400013F05CFE002541F6C8
:105800009A79E0603AE036F91500DFF828814845DA
:1058100033D10027DFF820A11FE03946584615F0A4
:10582000FFFA5146009016F03EFDA8B9009809F025
:105830003BF9012810D1009809F02CF9A8420BD1AE
:10584000009815F0BEFB4146404501DA084602E0EB
:10585000009815F0B6FB80467F1C584615F0F2FA0A
:10586000B842DAD8B8F1000F03DBE16821F81580FF
:1058700003E0E168002021F815006D1C6069A84272
:10588000C1D800252F46284641F69B784B4615E0A7
:1058900036F91010414504DB0D44A5F5F8559B3D44
:1058A0000BE0994204D1E16831F81010394403E06B
:1058B000E26822F8101039440FB2401C616981423D
:1058C000E6D80021584616F07DFA8146584615F074
:1058D0000BFB01466069C0F1010209FB0210C01B0D
:1058E00000B2002800DA002000224FF0FF331146FA
:1058F000C44610E036F9117067450BDBA7F5F85781
:105900009B3F3AB210FB02F3B3FBF5F3E76827F8CD
:1059100011300B46491C67698F42EBD8002B07DB1F
:10592000A91A4143B1FBF5F1401AE16821F81300CF
:10593000BDE8F88F01E0FFFF010006001CB50B88F1
:1059400004892344ADF800304B8844892344ADF8E2
:1059500002308B8804892344ADF80430C988438918
:105960001944ADF806104369694698471CBD08B54F
:10597000C0680121009140690023C822092118F064
:1059800035FE08BD2DE9FF4F89B0C8781A9CC007C5
:105990000D46002801D0F84800E0F848069001D0F4
:1059A000F74800E0F748049001D1F54800E0F548D9
:1059B0004FF010034FF00C0E4FF0080BCDF8140011
:1059C0006188A2884FF0000AA1EB0201504609B29B
:1059D0005246D4F810C00FE002EB8207E66803EBF2
:1059E000870816F808805FEAC87809D00BEB8707AC
:1059F000F65B891B09B2521C9445EDD8002254E095
:105A00000EEB8707F65B304400B2F4E7E66802EB82
:105A1000820703EB870CB146CDF820C016F80C6066
:105A2000F60741D1002872D091FBF0F80EEB870603
:105A3000079639F8066006FB08F60FFA86FCCDF8E3
:105A400000C04FF0060C0CEB870C042639F90C80D3
:105A500006EB8706DDF800C039F90660E04500DC9A
:105A6000C446664504DC009EC446B04500DC66467C
:105A7000DDF800C00196664506D0DDF820C04FF085
:105A80000108C24649F80C80D4F80C80019E0BEB4B
:105A9000870728F80760D4F80CC0079F3CF8077008
:105AA000C01B891B00B209B2521C26699642ADD8B0
:105AB000BAF1000F84D10021099815F0A6FF012842
:105AC00026D000270020ADF80800ADF80C0003A98F
:105AD00002A8CDE900012089B4F9022003B2287898
