:020000040800F2
:100000008049002071020008E72100082F1E000827
:10001000E52100080F070008912C000800000000EF
:10002000000000000000000000000000B101000816
:10003000C1070008000000000D020008E9250008C3
:100040008B0200088B0200088B0200088B0200085C
:100050008B0200088B0200088B0200088B0200084C
:100060008B0200088B0200088B0200088B0200083C
:100070008B0200088B0200088B0200088B0200082C
:100080008B020008110700088B0200080000000026
:100090000000000000000000000000008B020008CB
:1000A0008B0200088B020008B52600088B020008AE
:1000B0008B0200088B0200088B0200088B020008EC
:1000C0008B0200088B0200088B0200088B020008DC
:1000D0008B0200088B0200088B0200080000000061
:1000E0008B0200088B0200088B0200080000000051
:1000F0000000000000000000000000008B0200086B
:10010000000000008B0200088B0200088B02000830
:1001100000000000000000000000000000000000DF
:100120008B0200088B0200088B0200088B0200087B
:100130008B0200080000000000000000000000002A
:100140000000000000000000000000008B0200081A
:100150008B0200088B0200088B0200088B0200084B
:100160008B0200088B020008000000000000000065
:10017000000000000000000000000000000000007F
:10018000000000008B0200080000000000000000DA
:100190008B0200088B020008DFF810D000F00AF98B
:1001A00000480047FD320008AFF30080804900207E
:1001B0002C4B19680868B0E8F04F80F30988BFF34A
:1001C0006F8F4FF0000080F311887047000000002F
:1001D00008480068006880F308884FF0000080F34A
:1001E000148862B661B6BFF34F8FBFF36F8F00DF25
:1001F00000BF00BF08ED00E0DFF80C00016841F42B
:1002000070010160704700BF88ED00E0EFF30980E6
:10021000BFF36F8F134B1A681EF0100F08BF20ED4D
:10022000108A20E9F04F106009B44FF0500080F3BD
:100230001188BFF34F8FBFF36F8F03F043FC4FF074
:10024000000080F3118809BC19680868B0E8F04F15
:100250001EF0100F08BFB0EC108A80F30988BFF3BE
:100260006F8F704720000020EFF30580704700007B
:100270000648804706480047FEE7FEE7FEE7FEE740
:10028000FEE7FEE7FEE7FEE7FEE7FEE7A52600083D
:10029000990100082DE9F05F0546002092469B4633
:1002A00088460646814640241BE02846414647468C
:1002B000224600F06FF853465A46C01A914110D3B7
:1002C00011461846224600F056F82D1A67EB010831
:1002D0004F4622460120002100F04DF817EB00099F
:1002E0004E41201EA4F10104DFDC484631462A4677
:1002F0004346BDE8F09F10B5431A934209D28318D4
:10030000881803E010F8011D03F8011D521EF9D2F0
:1003100010BD40EA01039B0703D009E008C9121F82
:1003200008C0042AFAD203E011F8013B00F8013BAF
:10033000521EF9D210BDD2B201E000F8012B491EC5
:10034000FBD270470022F6E710B513460A46044672
:100350001946FFF7F0FF204610BD10B5002200E05F
:10036000521C835C8C5CA34201D1002BF8D1D8B223
:10037000E1B2401A10BD202A04DB203A00FA02F153
:10038000002070479140C2F1200320FA03F3194383
:1003900090407047202A04DB203A21FA02F0002125
:1003A000704721FA02F3D040C2F120029140084385
:1003B00019467047064C074D06E0E06840F001031F
:1003C00094E8070098471034AC42F6D3FFF7E8FEF4
:1003D000603F0008803F000870B58C1810F8015B82
:1003E00015F0070301D110F8013B2A1106D110F8CE
:1003F000012B03E010F8016B01F8016B5B1EF9D1D2
:100400002B0705D40023521E0DD401F8013BFAE757
:1004100010F8013BCB1A921C03E013F8015B01F8C2
:10042000015B521EF9D5A142D8D3002070BD10B592
:10043000044640682269008881B2204690474228DD
:1004400010D0606863694222008881B220469847D4
:1004500060682269008881B220469047422801D016
:10046000012010BD002010BD10B5054C21680968A1
:10047000FFF773FF08B1002010BD206810BD000019
:100480000C0100208068016908472DE9F04104460D
:1004900080680D461E46816990468847A068A02165
:1004A000026B9047A068C16A884760680068B0F531
:1004B000006F06D9A068290A026B9047A068C16A3C
:1004C0008847A068E9B2026B9047A068C16A884774
:1004D000A068C1698847A068A121026B9047A06805
:1004E000C16A88470025771E0BE0BD4201D001217B
:1004F00000E00021A068426B904708F805006D1CE1
:10050000ADB2B542F1D3A068016ABDE8F041084739
:1005100070B5044680680D4681698847A068A021AF
:10052000026B9047A068C16A884760680068B0F5B0
:10053000006F06D9A068290A026B9047A068C16ABB
:100540008847A068E9B2026B9047A068C16A8847F3
:10055000A068C1698847A068A121026B9047A06884
:10056000C16A8847A0680021426B90470546A06891
:10057000816A8847A068016A8847284670BD2DE9CE
:10058000F05F044640680D469946B0F806808088C2
:10059000B1FBF8F1934681426ED2B5FBF8F108FB4E
:1005A0001150B5FBF8F1281A08FB11511FFA80FA17
:1005B000A8EB010086B23EE08847A068A021026B4C
:1005C0009047A068C16A884760680068B0F5006F0E
:1005D00007D9A0684FEA1A21026B9047A068C16A48
:1005E0008847A0680AF0FF01026B9047A068C16AC3
:1005F0008847002709E0A0681BF80710026B9047A6
:10060000A068C16A88477F1CBFB2B742F3D3A06815
:10061000016A8847A068816C42F210708847A9EB94
:1006200006001FFA80F9A81985B2B3440AEB080046
:100630001FFA80FA4646A068B1458169BCD8884750
:10064000A068A021026B9047A068C16A88476068D3
:100650000068B0F5006F06D9A068290A026B9047C0
:10066000A068C16A8847A068E9B2026B9047A06899
:10067000C16A884700250AE015E0A0681BF805104C
:10068000026B9047A068C16A88476D1CADB24D45AA
:10069000F3D3A068016A8847A068816CBDE8F05F69
:1006A00042F210700847BDE8F09F70B504468068BC
:1006B0000D46164681698847A068A021026B9047C5
:1006C000A068C16A884760680068B0F5006F06D905
:1006D000A068290A026B9047A068C16A8847A06891
:1006E000E9B2026B9047A068C16A8847A0683146AA
:1006F000026B9047A068C16A8847A068016A884772
:10070000A068816CBDE8704042F210700847FEE7B7
:10071000014800F06FB800005C0400200168182355
:10072000CAB2103AB2FBF3F2054B6FF30901032A88
:100730009B5CC36500D9091D8165084670470000B0
:10074000C43E000810B5014600208B698A6A4FF04C
:10075000C07453B1B3F5005F15D072B1012A0CD04B
:10076000022A0AD0032A09D104E01AB1012A06D0CC
:10077000022A03D1C96AC90100D5012010BDC96A86
:10078000A142FAD010BD002AF7D0012AF2D0022AE5
:10079000F3D0032AF3D010BD30B50468256825F4E2
:1007A00080252560046863608368402B036803D05C
:1007B00099600068C26030BD9A600068C16030BD59
:1007C000704772B6FEE7000070B5094D064600247A
:1007D00055F8240001683046FFF7BFFD20B1641CC6
:1007E000032CF5D3002070BD55F8240070BD000027
:1007F000580100202DE9F84304464FF00009CDF8D8
:10080000009063484FF41651A56D0068B0FBF1F7F6
:100810002E6894F85C10082000FA01F131420FD0E4
:1008200021680A6852070BD50A6822F004020A60A0
:1008300094F85C108840A860606D40F0010060652D
:1008400094F85C104FF0010808FA01F0304208D02B
:1008500021684969090604D5A860606D40F002006E
:10086000606594F85C1004208840304208D021680C
:100870000968890704D5A860606D40F004006065D0
:1008800094F85C1010208840304218D02168096824
:10089000090714D5A86020680168490304D50068D9
:1008A000000308D5A16C07E00168C90503D40168FD
:1008B00021F008010160216C09B12046884794F8B5
:1008C0005C1020208840304231D021680968C90678
:1008D0002DD5A86094F8350005282068016806D059
:1008E000490347D5006800031DD4616C1CE021F06A
:1008F000160101602068416921F080014161206C8E
:1009000008B9A06C20B12068016821F008010160DD
:1009100094F85C103F208840A86084F8358084F803
:100920003490216D1FE0E16B09B120468847606D6E
:1009300000282BD0606DC00714D0052084F8350046
:100940002068016821F0010101600098401C0090BE
:10095000B84203D820680068C007F6D184F8358013
:1009600084F83490E16C002910D001B02046BDE835
:10097000F04308470168C905D5D4016821F010018A
:10098000016084F8358084F83490CCE7BDE8F883C2
:100990001C0000202DE9F041044600F0B1F90646A4
:1009A0005CB1022084F83500002584F834502068BA
:1009B000016821F0010101600DE00120BDE8F08136
:1009C00000F09EF9801B052805D9202060650320D2
:1009D00084F83500F2E720680068C007F0D122688B
:1009E000116820480140D4E901031843D4E90336D3
:1009F0003343184363691843A3691843E3691843F1
:100A0000236A18430843616A042903D1D4E90B130C
:100A100019430843106020684069666A20F00701A6
:100A200030460E43012704280CD1A06A0643E06A31
:100A300040B12046FFF786FE20B14020606584F873
:100A40003570BAE7206846612046FFF767FE94F8E4
:100A50005C203F2191408160656584F835700020FD
:100A6000ACE700003F8010F02DE9F0410446866DB0
:100A700090F83400002501280DD0012084F83400BE
:100A800094F835700020012F07D084F83400022537
:100A90002846BDE8F0810220FBE7022784F8357084
:100AA00060652046FFF778FE94F85C103F20884090
:100AB000B0602068016841F016010160206C20B12F
:100AC0002068016841F0080101602068016841F078
:100AD00001010160DCE7000070B5044600F010F988
:100AE0000546601C02D004480078044400F008F970
:100AF000401BA042FAD370BD100000202DE9F84F32
:100B0000DFF8B8A10022012403254FF00F090AF1F4
:100B1000040BAAF1040E00BF0B6804FA02F633407E
:100B2000B34273D10F7907F00307012F01D0022FD1
:100B300016D187684FEA420805FA08FC27EA0C0735
:100B4000D1F80CC00CFA08FC4CEA070CC0F808C03D
:100B50004768B7430E79C6F3001696403E43466099
:100B60000E79F643B6070DD0C768560005FA06FCA5
:100B700027EA0C07D1F808C00CFA06FC4CEA070C6F
:100B8000C0F80CC00E7906F00306022E10D1D6086C
:100B900000EB8608D8F8206057074FEAD76C09FAAF
:100BA0000CF7BE430F6907FA0CF73743C8F82070FB
:100BB00006684FEA420C05FA0CF7BE430F7907F0BE
:100BC000030707FA0CF7374307604E6816F4403FF7
:100BD0006DD03B4E376847F480473760366822F067
:100BE000030706F480460096364E07EB060CDCF849
:100BF000086897073F0F09FA07F826EA0806DFF8A2
:100C0000C880404503D14FF000081EE04FE0DFF8F8
:100C1000BC80404502D14FF0010816E0DFF8B080FB
:100C2000404502D14FF002080FE0DFF8A8804045B0
:100C300002D14FF0030808E0DFF89C80404502D164
:100C40004FF0040801E04FF0070808FA07F848EAF7
:100C50000608CCF80888DAF800605746D1F804C0D6
:100C60009E435FEACC2C00D51E433E60DBF800605B
:100C70005F46D1F804C09E435FEA8C2C00D51E432A
:100C80003E60DEF800607746D1F804C09E435FEA1C
:100C90008C3C00D51E433E60084F083F3E68D1F8AB
:100CA00004C09E435FEACC3C00D51E433E60521C0C
:100CB000102AFFF431AFBDE8F88F0000083C014076
:100CC000443802400030014000000240000402406D
:100CD00000080240000C0240001002400069084079
:100CE00000D001207047426921EA02030A4043EA2A
:100CF0000241816170470AB1816170470904FBE7D5
:100D00000148806870470000100000200248816898
:100D10000278114481607047100000200B4810B524
:100D2000016841F400710160016841F48061016073
:100D3000016841F480710160032000F099F80F20F0
:100D400000F006F800F04AF8002010BD003C024018
:100D500030B505461C4887B00024016841F4802165
:100D60000160006806A900F48020009001A800F04E
:100D70002BF900F059F91549154AB0FBF1F1154866
:100D8000491E026040F2E732C0E90324C0E90114C1
:100D9000846100F0C9FC040012D10E4800F0F2FC9E
:100DA00004000DD11A2000F035F8102D07D20022D2
:100DB00029461A2000F03CF80748056000E00124AD
:100DC00007B0204630BD00004438024040420F00CA
:100DD0000048014004050020140000200C4882B0A7
:100DE000016841F480410160006800F48040009097
:100DF0000748001F016841F080510160006800222F
:100E000000F0805000900F21901E02B000F010B84A
:100E100044380240002809DB00F01F020121914004
:100E20004009800000F1E020C0F800117047000088
:100E3000F0B40E4B1B680C46C3F30223C3F1070545
:100E4000042D00D90425191D072901D2002300E033
:100E5000DB1E012606FA05F1491E214099409E40FD
:100E6000761E16403143F0BC01F024BF0CED00E0CB
:100E7000064900F0070208684FF6FF03184040EAF1
:100E80000220034A10430860704700000CED00E0A8
:100E90000000FA052DE9F0470E46050065D0DFF8A1
:100EA0001481D8F80000F7B200F00700B04207D272
:100EB00088F80070D8F8000000F00700B04254D164
:100EC00028683D4C810712D5400703D5206840F4BF
:100ED000E05020602878000703D5206840F4604087
:100EE00020602068A96820F0F0000843206028787E
:100EF000C0072DD0304968680839012812D002286F
:100F000013D0032811D00968890700292DDA216838
:100F100021F0030101432160FFF7F2FE814641F217
:100F2000883A0EE009688903EFE709688901ECE770
:100F3000FFF7E6FEA0EB0901514502D90320BDE809
:100F4000F0872068696800F00C00B0EB810FEFD1EA
:100F5000D8F80010404601F00701B14207D90770E8
:100F6000006800F00700B04201D00120E7E72878D0
:100F7000400705D52068E96820F4E0500843206068
:100F80002878000706D52068296920F4604040EAE7
:100F9000C100206000F058F82168084AC1F303112D
:100FA000515CC8400649086006480068FFF7D0FE5B
:100FB0000020C4E7003C024008380240CC3E000854
:100FC0001C000020140000200F2202600C4A13684D
:100FD00003F003034360136803F0F00383601368B6
:100FE00003F4E053C36012684FF4E05303EAD20203
:100FF00002610448006800F00700086070470000C4
:1010000008380240003C024004480549006809686D
:10101000044AC1F38221515CC84070471C00002083
:1010200008380240DC3E00080448054900680968A9
:10103000044AC1F34231515CC84070471C00002093
:1010400008380240DC3E0008154810B5006810F072
:101050000C02144813D01449042A0FD0082A0ED1C8
:101060000F4C241F2268236802F03F025B0207D561
:101070002068C0F38810A0FB010106E0084610BDFF
:101080002168C1F38811A1FB00010023FFF702F9D9
:101090002168C1F30141491C4900B0FBF1F010BDCA
:1010A000083802400024F40040787D012DE9F84F13
:1010B00004006ED02078DFF84C93C007A9F1040536
:1010C0004AD009F104000168C1F38101012908D067
:1010D0000068C0F3810002280AD1D9F8000040025C
:1010E00006D52868800337D560680028E1D033E052
:1010F0006068B0F5803F10D0B0F5A02F286810D000
:1011000020F480302860286820F4802028606068FF
:10111000A8B1FFF7F5FD06460DE0286840F48030E1
:10112000F4E740F480202860F7E700BFFFF7E8FD10
:10113000801B642873D828688003F7D50CE0FFF77C
:10114000DFFD064605E000BFFFF7DAFD801B6428DF
:10115000F0D828688003F7D42078DFF8AC828007C5
:101160004FF0000A3ED5A748001D016811F00C0F92
:1011700008D00068C0F3810002280BD1D9F8000024
:10118000400207D42868800716D5E068012800D1FE
:1011900012E033E1E068B8B10120C8F80000FFF7C1
:1011A000AFFD064605E000BFFFF7AAFD801B022841
:1011B000C0D828688007F7D52868216920F0F80092
:1011C00040EAC10028600DE0C8F800A0FFF798FDD4
:1011D000064604E0FFF794FD801B02281FD828680C
:1011E0008007F7D42078000722D5864F87486169A9
:1011F000703771B101210160FFF782FD064604E0FE
:10120000FFF77EFD801B022809D838688007F7D5D4
:101210000EE0C0F800A0FFF773FD064605E082E08F
:10122000FFF76EFD801B02287DD838688007F7D451
:101230002078400768D5DFF8CCB100270BF13C0BD4
:10124000DBF80000C0000BD4DBF8001041F0805147
:10125000CBF80010DBF80000012700F08050009070
:101260006B4E3068C00510D4306840F48070306038
:10127000FFF746FD009005E0FFF742FD0099401A98
:10128000022850D83068C005F6D55E4EA0686C368E
:1012900001280FD00528306810D020F00100306000
:1012A000306820F004003060A068B8B1FFF728FD76
:1012B00000900FE0306840F00100F4E740F00400D7
:1012C0003060F7E7FFF71CFD0099411A41F28830C2
:1012D000814266D830688007F4D50EE0FFF710FD34
:1012E000009007E0FFF70CFD0099411A41F28830A9
:1012F000814256D830688007F4D42FB1DBF8001053
:1013000021F08051CBF80010A069C8B33D49091DF8
:101310000968C1F3810102294AD00228504607D04A
:10132000C8F8600000E03CE0FFF7EAFC04463BE060
:101330004746C8F86000FFF7E3FC064605E000BF3B
:10134000FFF7DEFC801B02282BD828688001F7D429
:10135000D4E907010843A16A2E4A490802EB01417A
:10136000626A41EA8211084394F82C1040EA016154
:10137000C9F8001001203866FFF7C2FC044606E0F9
:101380003EE000BFFFF7BCFC001B022809D828681C
:101390008001F7D534E000BFFFF7B2FC001B022844
:1013A00002D90320BDE8F88F28688001F4D427E033
:1013B0000128F7D0D9F80000E26900F480019142D9
:1013C0001CD1226A00F03F01914217D147F6C0714B
:1013D000626A0140B1EB821F10D1A26A4FF0FF3365
:1013E00000F4403103EB5202B1EB024F06D194F806
:1013F0002C1000F07060B0EB016F01D00120D1E73C
:101400000020CFE70438024000004742800E4742E8
:10141000007000400000FFFF70B5040009D0606A52
:10142000002540B125616561A56294F8510040B185
:101430000CE0012070BD6068B0F5827FF4D0E561FA
:10144000F2E784F85050204600F044F8022084F877
:1014500051002068016821F040010160A0882189C5
:1014600000F4827001F404410843A18901F4006191
:101470000843217C01F002010843217D01F00101B4
:101480000843218B01F400710843217F01F03801EA
:10149000084394F8201001F080010843218D01F4E5
:1014A0000051084321680860A069042101EA104046
:1014B00094F8241001F01001084321684860206866
:1014C000C16921F40061C1616565012084F85100A2
:1014D000002070BD10B586B0044614216846FEF7A2
:1014E00031FF14492068884221D113480021026845
:1014F00042F480420260006800F4804005900E488B
:101500001038026842F002020260006800F0020037
:1015100005904FF4204000900220CDE90101032006
:1015200003900520049069460448FFF7E7FA06B0E7
:1015300010BD000000380040403802400004024066
:101540002DE9F84F984616468A460446FFF7D8FB21
:10155000814694F8510001281ED1BAF1000F73D0D2
:10156000002E71D094F85000012815D0012784F87E
:101570005070032084F8510000256565C4F830A040
:10158000A686E686A563A587E58765642564A068C9
:10159000B0F5004F03D00CE00220BDE8F88F2068C2
:1015A000016821F0400101602068016841F4804138
:1015B000016020680168490603D4016841F04001D8
:1015C0000160E068B0F5006F606803D048B3012E99
:1015D00027D047E008B1012E1FD1206B2168008879
:1015E000C86006E020688168890709D5216B0988F1
:1015F000C160206B801C2063E08E401EE0860CE002
:10160000FFF77EFBA0EB0901414503D3B8F1FF3F93
:1016100003D035E0B8F1000F32D0E08E0028E1D1E0
:1016200023E0206B21680078087306E02068816859
:1016300089070AD5216B09780173206B401C206350
:10164000E08E401EE0860DE02BE0FFF759FBA0EB9B
:101650000901414503D3B8F1FF3F03D010E0B8F1D1
:10166000000F0DD0E08E0028E0D14A4641462046CA
:1016700000F0C2FD08B120206065A06830B109E02B
:1016800084F8517084F85050032086E72068C168C0
:101690008068009084F8517004F8505F60680028FA
:1016A000F3D0012079E770477047000070B590F8DB
:1016B0003C20012A2CD0012480F83C40022280F8F2
:1016C0003D2003685A689D6822F070060A6832431C
:1016D0005A60104B02689A420ED0B2F1804F0BD084
:1016E0000D4B9A4208D00D4B9A4205D00C4B9A42B2
:1016F00002D00C4B9A4204D1496825F0800319436B
:10170000916080F83D40002180F83C10084670BD93
:10171000022070BD000001400004004000080040AD
:10172000000C00400040014010B5040003D094F8C4
:101730003D0010B107E0012010BD002084F83C00FE
:10174000204600F01EF8022084F83D00211D20688C
:1017500000F0B6FF012084F8460084F83E0084F8CB
:101760003F0084F8400084F8410084F8420084F887
:10177000430084F8440084F8450084F83D000020CC
:1017800010BD704790F83D10012901D0012070472D
:10179000022180F83D100168CA6842F00102CA6067
:1017A00000680E4988420ED0B0F1804F0BD00C4932
:1017B000884208D00B49884205D00B49884202D0A4
:1017C0000A49884204D1816801F00701062903D043
:1017D000016841F0010101600020704700000140F4
:1017E0000004004000080040000C004000400140A0
:1017F00070472DE9F04104460068C66805694FF05E
:101800000007A90713D5B10711D5F91E0161012001
:101810002077206880698007204602D0FFF7E8FF24
:1018200004E000F0A7F8204600F06CF9277768077D
:1018300016D5700714D521686FF0040008610220E6
:1018400020772068806910F4407F204602D0FFF79F
:10185000CFFF04E000F08EF8204600F053F9277720
:10186000280715D5300713D521686FF008000861E7
:10187000042020772068C0698007204602D0FFF747
:10188000B7FF04E000F076F8204600F03BF9277738
:10189000E80616D5F00614D521686FF0100008612F
:1018A000082020772068C06910F4407F204602D0CD
:1018B000FFF79EFF04E000F05DF8204600F022F9FB
:1018C0002777E80708D0F00706D021686FF00100FD
:1018D0000861204600F018F9280608D5300606D51C
:1018E00021686FF0800008612046FFF7DCFE680683
:1018F00008D5700606D521686FF0400008612046C3
:1019000000F00CF9A8060AD5B00608D521686FF0DA
:10191000200008612046BDE8F041FFF7C5BEBDE8E4
:10192000F081000010B586B0044614216846FEF729
:1019300009FD2068B0F1804F15D10C4800210268E4
:1019400042F001020260006800F0010005900220F0
:101950000090CDE901010320039001200490694625
:101960000348FFF7CBF806B010BD00003038024046
:1019700000000240704770B5044690F83C00002615
:101980000D4601280FD0012084F83C006AB1042ADA
:101990001DD0082A2FD00C2A3FD00126002084F821
:1019A0003C00304670BD022070BD206800F0DAFEB9
:1019B0002068816941F0080181612068816921F016
:1019C00004018161206881692A69114311E020685E
:1019D00000F0F0FE2068816941F4006181612068B7
:1019E000816921F480618161206881692A6941EA05
:1019F00002218161D2E7206800F008FF2068C169F8
:101A000041F00801C1612068C16921F00401C16190
:101A10002068C1692A69114311E0206800F022FFA3
:101A20002068C16941F40061C1612068C16921F485
:101A30008061C1612068C1692A6941EA0221C161EE
:101A4000ACE710B5040003D094F83D0010B107E0F6
:101A5000012010BD002084F83C00204600F01EF854
:101A6000022084F83D00211D206800F029FE01209D
:101A700084F8460084F83E0084F83F0084F8400073
:101A800084F8410084F8420084F8430084F844005C
:101A900084F8450084F83D00002010BD38B50546A7
:101AA0000068B0F1804F25D1134900200A6842F048
:101AB00001020A600968124C01F0010100910F490E
:101AC00021604FF0C061C4E901104FF48061C4E9A6
:101AD0000301890061618900A1618911C4E90710CE
:101AE00060622046FEF756FF08B1FEF76AFEAC6260
:101AF0002C63A56338BD000040380240A06002405E
:101B00005C0400207047000000680349884201D14E
:101B1000FFF7FCB87047000000480140704770476D
:101B2000704770B5040004D094F84100002510B14E
:101B300006E0012070BD84F84050204600F024F8F3
:101B4000242084F841002068C16821F40051C1605C
:101B5000204600F07BFF2068016921F4904101617B
:101B60002068416921F02A0141612068C16841F47F
:101B70000051C1606564202084F8410084F842006F
:101B80006563002070BD000010B586B004461421C6
:101B90006846FEF7D7FB14492068884221D11348D4
:101BA0000021026842F010020260006800F010009C
:101BB00005900E481438026842F001020260006885
:101BC00000F0010005904FF4C06000900220CDE9C4
:101BD0000101032003900720049069460448FEF7A2
:101BE0008DFF06B010BD00000010014044380240D7
:101BF000000002402DE9F84F044690F842009A4652
:101C000016460D46202802D00220BDE8F88FB5B157
:101C1000AEB100206064222184F842102063FFF7F7
:101C20006FF8A6858146E685A0684FF48058202786
:101C3000404501D1206920B12E46002529E0012030
:101C4000E3E7002625E04B46002220212046CDF880
:101C500000A000F0E4FF18B184F842700320D4E73C
:101C600026B1A06840451AD038B108E02068406825
:101C7000C0F3080025F8020B08E0206978B120685D
:101C8000406800F07F0000BF06F8010BE08D401EA9
:101C9000E085E08D0028D6D184F84270B5E7206851
:101CA0004068F1E790F84230202B01D002207047C5
:101CB00021B11AB10023036300F04EBF0120704729
:101CC00090F84230202B01D00220704721B11AB188
:101CD0000023036300F088BF0120704770477047FE
:101CE0002DE9F843044690F84100984616460D4603
:101CF000202802D00220BDE8F88385B17EB1002003
:101D00006064212084F84100FEF7FAFFA684814632
:101D1000E684A0682027B0F5805F02D003E00120B0
:101D2000E9E7206910B12E4600250EE000260CE000
:101D30008021204600F073FFA8B9C6B116F8010B48
:101D400021684860E08C401EE084E08C4B464FF0F8
:101D50000002CDF800800028EAD14FF04001204673
:101D600000F05DFF40B184F841700320C3E735F80F
:101D7000020BC0F30800E3E784F841700020BAE7E3
:101D800070B5044690F84100202801D0022070BDB3
:101D900049B342B32162A284E2840020606421231B
:101DA00084F84130A56B114BEB63A56B104B2B6492
:101DB000A56B104BEB64A36B1865256813462A1DB1
:101DC000A06BFEF751FE21686FF0400008602068AC
:101DD000143050E8001F41F0800140E80012002A52
:101DE000F5D1002070BD012070BD000097290008CA
:101DF000D9290008A928000890F84130202B01D0EB
:101E00000220704779B172B101628284C2840021DC
:101E10004164212180F841100068C16841F08001CF
:101E2000C160002070470120704770477047FEE78F
:101E3000C1898068FEF752BF012907D0002909D166
:101E4000818940685FF00002FEF755BF81894068D4
:101E50000122F9E770470000012907D0002909D1C4
:101E6000C18980685FF00002FEF745BFC1898068C4
:101E70000122F9E770472DE9F041283087B2283276
:101E80003431343395B28EB29CB22A2000F066F819
:101E9000380A00F071F8F8B200F06EF8280A00F085
:101EA0006BF8E8B200F068F82B2000F057F8300A21
:101EB00000F062F8F0B200F05FF8200A00F05CF881
:101EC000E0B200F059F8BDE8F0412C2000F046B82F
:101ED00070B5040AC5B200218623EF220846FFF739
:101EE000CAFF0F4900204FF4A27200BF01F8104052
:101EF00001EB4003401C80B25D709042F6D301229A
:101F000091030848FEF7F7FE00244FF42275294696
:101F1000034800F009F8641CA4B2642CF7D370BD28
:101F20003C420020000402402DE9F0410A4D0E46DB
:101F300007464FF48054002221462846FEF7DBFE78
:101F40003146384600F050F921462846BDE8F041B8
:101F50000122FEF7D0BE00000004024001B50022BD
:101F60004FF480410348FEF7C6FE01216846FFF7A3
:101F7000DBFF08BD0004024001B5012291030448C3
:101F8000FEF7B9FE01216846FFF7CEFF08BD00004D
:101F900000040240094808B5016841F400110160DD
:101FA0000068002200F40010009005211120FEF7C7
:101FB0003FFFBDE808401120FEF72CBF303802403B
:101FC00010B59CB01C2216496846FEF794F9002112
:101FD000684601F0F7F9134C11491C2220601C31AE
:101FE00007A8FEF788F9002107A801F0EBF90C49D2
:101FF00060601C2238310EA8FEF77DF900210EA882
:1020000001F0E0F90649A0601C22543115A8FEF742
:1020100072F9002115A801F0D5F9E0601CB010BDDF
:10202000543E0008000000202DE9F04186B0142144
:102030006846FEF787F92D480024016841F08001C9
:102040000160016801F080010591016841F004011F
:102050000160016801F004010591016841F001018E
:102060000160016801F001010591016841F0020180
:10207000016000681E4F00F00200059000224E2112
:102080003846FEF738FEDFF86C8045F21026002255
:1020900031464046FEF72FFE02201125CDE900050E
:1020A0000320CDE9024069463846FEF727FD0420AB
:1020B0000090CDE90154694638460394FEF71EFDB1
:1020C000482000900125CDE9015469463846039423
:1020D000FEF714FD0096CDE901546946404603948D
:1020E000FEF70CFD06B0BDE8F0810000303802407C
:1020F0000008024000040240104810B50E4901607B
:102100004FF482714160002102228160C0E9031214
:10211000012242615202C0E90621016241628162EC
:102120000A21C162FFF778F9002803D0BDE810400A
:10213000FEF747BB10BD000000380040BC03002084
:1021400010B58AB0002407941C2168460894FEF755
:10215000F9F815484FF08041C0E900147D21C0E92D
:10216000024104618461FFF76CFC08B1FEF729FBB2
:10217000079407A90C480894FFF798FA08B1FEF7EE
:1021800020FB6020CDE90004029404226946064841
:102190000494FFF7F0FB08B1FEF713FB0248FFF7CA
:1021A000C1FB0AB010BD0000140400200C4810B59B
:1021B0000A4901604FF4E1314160002181600C2245
:1021C000C160C0E904128161C161FFF7AAFC002867
:1021D00003D0BDE81040FEF7F4BA10BD0010014076
:1021E000BC040020FEE7FEE70A460146FF23014843
:1021F000FFF7A6B9BC030020F8B515460E460B46FE
:10220000009204460122022100F02CF8A0B91348E4
:1022100013490068B0FBF1F04FF47A714843009025
:102220006068B0F5827F0DD13346002280212046C0
:10223000009500F017F870B1606D40F02000606507
:102240000320F8BD009830B1401E009020688068DF
:10225000C0430006F6D50020F8BD00001C00002099
:1022600000366E012DE9F8431E4691468846044625
:10227000089DFEF745FD401B351AFEF741FD074658
:1022800025480068C0F3CB30684338E0701C37D075
:10229000FEF736FDC01BA84203D215B1009860B30B
:1022A0002CE02068416821F0E00141606068B0F5F1
:1022B000827F0BD1A068B0F5004F02D0B0F5806FDF
:1022C00004D12068016821F040010160A06AB0F5E6
:1022D000005F09D12068016821F400510160206885
:1022E000016841F400510160012084F85100002090
:1022F00084F850000320BDE8F8830025401E0090BC
:102300002068816838EA010004D000214945BDD128
:102310000020F0E70121F9E71C00002070B57B4C9C
:10232000012210212046FEF7E6FC794D00224021D3
:102330002846FEF7E0FC0C20FEF7CEFB01224021F0
:102340002846FEF7D8FC0C20FEF7C6FB1120FFF74D
:1023500005FE0C20FEF7C0FB3A20FFF7FFFD05202D
:10236000FFF70AFEC520FFF7F9FD1A20FFF704FE6C
:102370003620FFF7F3FDA020FFF7FEFDB220FFF7A8
:10238000EDFD0520FFF7F8FD0520FFF7F5FD002026
:10239000FFF7F2FD3320FFF7EFFD3320FFF7ECFDF1
:1023A000B720FFF7DBFD0520FFF7E6FDBB20FFF7B9
:1023B000D5FD3F20FFF7E0FDC020FFF7CFFD2C202B
:1023C000FFF7DAFDC220FFF7C9FD0120FFF7D4FDBA
:1023D000C320FFF7C3FD0F20FFF7CEFDC420FFF79A
:1023E000BDFD2020FFF7C8FDC620FFF7B7FD012087
:1023F000FFF7C2FDD020FFF7B1FDA420FFF7BCFD21
:10240000A120FFF7B9FDE820FFF7A8FD0320FFF7A3
:10241000B3FDE920FFF7A2FD0920FFF7ADFD09207C
:10242000FFF7AAFD0820FFF7A7FDE020FFF796FDC4
:10243000D020FFF7A1FD0520FFF79EFD0920FFF743
:102440009BFD0920FFF798FD0820FFF795FD14205C
:10245000FFF792FD2820FFF78FFD3320FFF78CFD5B
:102460003F20FFF789FD0720FFF786FD1320FFF7C8
:1024700083FD1420FFF780FD2820FFF77DFD30202D
:10248000FFF77AFDE120FFF769FDD020FFF774FD2B
:102490000520FFF771FD0920FFF76EFD0920FFF70A
:1024A0006BFD0820FFF768FD0320FFF765FD242082
:1024B000FFF762FD3220FFF75FFD3220FFF75CFD82
:1024C0003B20FFF759FD1420FFF756FD1320FFF7BF
:1024D00053FD2820FFF750FD2F20FFF74DFD212051
:1024E000FFF73CFD2920FFF739FD00218623EF226D
:1024F0000846FFF7C0FC4FF6FF70FFF7E9FC2046E7
:10250000BDE8704000221021FEF7F5BB0004024038
:102510000008024070B5D0E90456049C2E6005699D
:1025200069600021082A01D0092A02D0026991605D
:1025300003E005694FF48052AA60012C01D0022CFF
:1025400002D00269D16003E004694FF40052E260F6
:10255000452B06D04E2B01D04F2B05D002691161BF
:1025600006E04FF4806201E04FF4C06203691A6133
:1025700003690C225A61026991610269D1610069A3
:10258000FFF7CFFA002070BD134600690122FFF764
:1025900031BB00690122FFF785BB00690122FFF70B
:1025A0008FBB92B20069FFF79BBB92B20069FFF745
:1025B000E7BB92B20069FFF71FBC012000F0F6FEF6
:1025C000FBE7012000F0F2FEFBE7FEE7054C0821E7
:1025D0002046FEF788FB6420FEF77EFA012000F01B
:1025E000E5FEF4E70008024010B5502080F31188A2
:1025F000BFF34F8FBFF36F8F01F064FB18B1044935
:102600004FF080500860002080F3118810BD00005A
:1026100004ED00E030B593B030216846FDF792FE3E
:1026200014210CA8FDF78EFE1C480024016841F01F
:1026300080510160006800F08050119018480168D6
:1026400041F4404101600068022500F440401190CF
:102650000120039010200490009506950820CDE9F4
:1026600007406420CDE9090504200B906846FEF779
:102670001DFD08B172B6FEE70F20CDE90C054FF441
:102680008050CDE90E4003210CA81094FEF702FC07
:10269000002801D072B6FEE713B030BD40380240CA
:1026A000007000400248016841F470010160704709
:1026B00088ED00E00148FFF79CB800000405002009
:1026C000F0B50268204B214C9F03214D214E9842CA
:1026D00007D0B84205D0A04203D0A84201D0B042F2
:1026E00004D122F0700C4A6842EA0C02984210D0E1
:1026F000B8420ED0A0420CD0A8420AD0B04208D0B6
:10270000154CA04205D0154CA04202D0144CA0425A
:1027100003D122F44074CA6822434C6922F080023B
:10272000224302608A68C2620A688262984201D1CA
:1027300009690163012141610169C90703D0016988
:1027400021F001010161F0BD0000014000040040E2
:1027500000080040000C00400040014000440140DF
:102760000048014030B5036A026A22F001020262A9
:102770004268846924F073050C682C4323F0020539
:102780008B682B430A4DA8420BD123F00805CB6878
:1027900022F440722B434D6923F0040315438A69E8
:1027A0002A434260846149684163036230BD00008E
:1027B0000000014030B5026A036A23F0100303628F
:1027C000436884690D6824F4E64444EA05248D686E
:1027D00022F0200242EA05120B4DA8420ED1CD682C
:1027E00022F0800242EA05124D6923F4406343EA75
:1027F00085038D6922F0400243EA850343608461CA
:1028000049688163026230BD0000014030B5036A4F
:10281000026A22F4807202624268C46923F400737F
:1028200024F073050C682C438D6843EA05230C4D96
:10283000A8420ED1CD6823F4006343EA05234D6915
:1028400022F4405242EA05128D6923F4806342EA81
:1028500005124260C4614968C163036230BD000073
:102860000000014030B5046A026A22F4805202621C
:102870004268C3690D6823F4E64343EA05238D6883
:1028800024F4005444EA0534064DA84204D14D69AD
:1028900022F4804242EA85124260C36149680164C1
:1028A000046230BD0000014070B5846B206840694F
:1028B00094F84110C0F3C0100025212904D118B1AB
:1028C000E584204600F0B4F82068406994F842108E
:1028D000C0F38010222904D118B1E585204600F00C
:1028E00080F8606C40F0100060642046FFF718F933
:1028F00070BD10B50146806B096809684FF0000291
:10290000C9052ED4C28501680C3151E8003F23F47B
:10291000807341E80034002CF5D10168143151E88E
:10292000003F23F0010341E80034002CF5D1016899
:10293000143151E8003F23F0400341E80034002CFB
:10294000F5D1202180F84210016B012909D10168DD
:102950000C3151E8003F23F0100341E80034002C13
:10296000F5D14263016B012902D0FFF7B7F910BD21
:10297000818DFFF7D4F810BD10B5806B0121416344
:10298000016B012902D0FFF7AAF910BD818D49081A
:10299000FFF7C5F810BD10B50146806B09680968DE
:1029A000C90516D40021C1840168143151E8002FF3
:1029B00022F0800241E80023002BF5D101680C31A0
:1029C00051E8002F42F0400241E80023002BF5D1EE
:1029D00010BDFFF72AFA10BD10B5806BFFF726FA7D
:1029E00010BD01680C3151E8002F22F4907241E8CB
:1029F0000023002BF5D10168143151E8002F22F09B
:102A0000010241E80023002BF5D1016B012909D116
:102A100001680C3151E8002F22F0100241E8002338
:102A2000002BF5D1202180F842100021016370476E
:102A300001680C3151E8002F22F0C00241E8002368
:102A4000002BF5D1202180F84110704770B5044665
:102A500000680169E26821F4405111430161216974
:102A6000A068E26908436169114308432168CA68A4
:102A700049F20C639A430243CA6020684169A26923
:102A800021F440711143416131492068884202D0EC
:102A90003049884202D1FEF7C7FA01E0FEF7B4FAE6
:102AA000E2690023192164253226B2F5004F6268DD
:102AB00028D0A0FB0101930F9200FDF7EBFB01462C
:102AC000B0FBF5F06FF01802504301EB800006EB0D
:102AD0000010B0FBF5F000F0F002B1FBF5F002EBF6
:102AE0000012B1FBF5F06FF01803584301EB8000C2
:102AF00006EB0010B0FBF5F000F00F002168104469
:102B0000886070BDA0FB010192185B41FDF7C2FB1C
:102B10000146B0FBF5F00201B1FBF5F06FF01803D0
:102B2000584301EB800006EBC000B0FBF5F000F06D
:102B3000F80002EB4002B1FBF5F0584301EB8000D6
:102B400006EBC000B0FBF5F000F00700D6E7000090
:102B5000001001400014014038B5816204468285AE
:102B6000002013466064222284F84220E56B1B4A51
:102B7000EA63E56B1A4A2A64E56B1A4AEA64E26B77
:102B800010650A462168E06B091DFDF76DFF20689E
:102B9000016840680090206948B120680C3050E816
:102BA000001F41F4807140E80012002AF5D120682E
:102BB000143050E8001F41F0010140E80012002AE3
:102BC000F5D12068143050E8001F41F0400140E882
:102BD0000012002AF5D1002038BD0000F3280008BB
:102BE00079290008A928000881628285C285002110
:102BF0004164222180F84210016921B10168CA684C
:102C000042F48072CA6001684A6942F001024A6176
:102C10000068C16841F02001C160002070472DE9C3
:102C2000F843984617460D460446089E24E0701C5B
:102C300022D0FEF765F8A0EB0800B0421AD8CEB15A
:102C40002068C168490717D5802D15D0402D13D0B5
:102C50000168C94309070FD4016800254068009046
:102C60002046FFF7BEFE0820606484F84050012033
:102C7000BDE8F8830320FBE72068006835EA000020
:102C800004D00020B842D2D00020F1E70120F9E7BB
:102C9000FEE700000FB4054B10B503A9044A0298E3
:102CA00000F027F810BC5DF814FB0000D92D0008D7
:102CB000640100200907090E002804DB00F1E02070
:102CC00080F80014704700F00F0000F1E02080F859
:102CD000141D704702E008C8121F08C1002AFAD16B
:102CE00070477047002001E001C1121F002AFBD18C
:102CF00070472DE9F84F99469246884605460027C9
:102D000006E025280AD051464A4690476D1C7F1C94
:102D100028780028F5D13846BDE8F88F002315F84B
:102D2000011F18462E2915D115F8011F04232A2941
:102D30000DD06FF02F022978A1F13004092C09D8A9
:102D400000EB800002EB400008446D1CF3E758F8EC
:102D5000040B6D1C2A78002ADDD0632A07D0732A61
:102D60000FD0104651464A4690477F1C2AE018F87B
:102D7000042B8DF8002000218DF801106E460121F2
:102D800003E058F8046B4FF0FF315A074FF000048E
:102D900001D409E0641C84420BDA8C42FADB325D18
:102DA000002AF7D105E0641C8C42FCDB305D002872
:102DB000F9D1274404E016F8010B51464A469047E2
:102DC000641EF8D26D1CA3E7A8214843800800BF09
:102DD000401EFCD27047000013B54FF6FF7301226E
:102DE00069460248FEF77CFF00981CBDBC04002029
:102DF0002DE9F0411D4617460C468046069E00F020
:102E000022FA2146404600F0FEF9404600F04CFA16
:102E10003946404600F0F7F9404600F045FA404692
:102E200000F0D5F9641CE1B2404600F0ECF94046F0
:102E300000F03AFA002406E00121404600F09AF939
:102E40003055641CE4B2AC42F6D3404600F07AF947
:102E50004046BDE8F04100F012BA70B516460C4687
:102E6000054600F0F0F92146284600F0CCF9284646
:102E700000F01AFA3146284600F0C5F9284600F05D
:102E800013FA284600F0A3F9641CE1B2284600F0CA
:102E9000BAF9284600F008FA0021284600F06AF93D
:102EA0000446284600F04EF9284600F0E8F920468E
:102EB00070BD2DE9F0411D4617460C468046069E22
:102EC00000F0C1F92146404600F09DF9404600F06F
:102ED000EBF93946404600F096F9404600F0E4F937
:102EE000002408E0315D404600F08DF9404600F0D6
:102EF000DBF9641CE4B2AC42F4D34046BDE8F041D7
:102F000000F0BDB92DE9F0411E4617460C460546B6
:102F100000F099F92146284600F075F9284600F09E
:102F2000C3F93946284600F06EF9284600F0BCF98E
:102F30003146284600F067F9284600F0B5F92846E2
:102F4000BDE8F04100F09BB910B504460021FEF742
:102F500083FFA16C0120884701212046FEF76CFF0A
:102F6000A16C0120884700212046FEF765FFA16C77
:102F70000120884701212046FEF76EFFA16CBDE8C5
:102F80001040012008470000214A4368214993422C
:102F900002D08368934203D10A6822F001020A60DA
:102FA0001D4A4368934202D08368934203D10A6862
:102FB00022F002020A60194A4368934202D08368F1
:102FC000934203D10A6822F004020A60144A43685B
:102FD000934202D08368934203D10A6822F0080228
:102FE0000A60104A4368934202D08368934203D137
:102FF0000A6822F010020A600B4A4368934202D02A
:103000008068904203D1086820F080000860704713
:103010000000024030380240000402400008024034
:10302000000C024000100240001C0240F0B50446B3
:103030003D4942683D48002587B08A4202D0A268D7
:103040008A4207D1016841F001010160016801F085
:1030500001010591364962688A4202D0A2688A421B
:1030600007D1016841F002010160016801F002012D
:103070000591304962688A4202D0A2688A4207D12B
:10308000016841F004010160016801F0040105914B
:10309000294962688A4202D0A2688A4207D101683F
:1030A00041F008010160016801F008010591234920
:1030B00062688A4202D0A2688A4207D1016841F060
:1030C00010010160016801F0100105911C4962685E
:1030D0008A4202D0A2688A4207D1016841F0800189
:1030E0000160006800F080000590A0891126032788
:1030F000CDE90006CDE9025769466068FDF7FEFCA0
:10310000E089CDE90006CDE902576946A068FDF7E0
:10311000F5FC01212046FEF78FFE01212046FEF737
:103120009BFE07B0F0BD00000000024030380240B6
:103130000004024000080240000C0240001002405F
:10314000001C024010B504460121FEF785FEA16C6B
:103150000120884701212046FEF76EFEA16C012068
:10316000884700212046FEF767FEA16CBDE81040AD
:10317000012008472DE9F0410F46064600240121B1
:10318000FEF76AFE002501213046FEF755FEB16CC0
:10319000012088476006040E3046FEF749FE08B15C
:1031A000641CE4B200213046FEF746FEB16C0120FB
:1031B00088476D1CEDB2082DE5D3304617B1FFF7F7
:1031C000C3FE01E0FFF7BEFF2046BDE8F08110B569
:1031D00004460121FEF740FE01212046FEF72CFEA9
:1031E000A16C0320884700212046FEF735FEA16C24
:1031F0000320884700212046FEF71EFEA16CBDE893
:1032000010400120084770B50D4606460024E90924
:103210003046FEF721FE6806050EB16C0120884796
:1032200001213046FEF708FEB16C012088470021DD
:103230003046FEF701FEB16C01208847641CE4B201
:10324000082CE4D370BD10B504460121FEF704FE3E
:1032500001212046FEF7F0FDA16C012088470021E6
:103260002046FEF7F9FDA16C012088470021204689
:10327000FEF7E2FDA16CBDE810400120084710B543
:1032800004460021FEF7E8FD01212046FEF7D4FDAB
:10329000A16C0120884701212046FEF7DDFDA16CCD
:1032A000BDE810400120084770B5002405462646B9
:1032B0000121FEF7D1FDA96C012088470121284694
:1032C000FEF7BAFDA96C0120884708E0641CE4B24F
:1032D000FA2C04D92846FFF7D2FF012604E028463D
:1032E000FEF7A6FD0028F1D100212846FEF7A4FD37
:1032F000A96C01208847304670BD000008B5FDF775
:103300000DFDFFF787F9FEF78FFEFEF743FEFEF790
:10331000F3FEFEF715FFFEF749FF1048FEF732FAFD
:103320000FA0FDF751FA012100914E2344680822B5
:103330004FF4E131A04710A0FDF796F8016A8847E5
:103340006420FDF7C9FBFEF7E9FF0DA0FFF7A2FC23
:10335000FEF736FE00F031F8FEE70000140400200E
:1033600053544D33325F426172655F48414C5F5543
:10337000415254315F495400415432344330320099
:103380005B696E666F5D496E697420446F6E652E71
:1033900052756E6E696E672E2E2E2E0D0A0000007D
:1033A00001460020842900D0C81C704710B500B920
:1033B000012000F023FB002010BD10B500F044FBFD
:1033C000002010BD7FB50D4604464169B0F90800E4
:1033D00081B1A16971B1FFF7E3FFD4E905128DE86E
:1033E0000700D4E900102B46226900F040FC03904E
:1033F00004B070BDFFF7D4FF03A9CDE90001208A16
:103400002B4682B2D4E9001000F004FC012801D060
:103410000020EDE70398EBE72DE9F041184C0F464B
:103420000546E6682068001D00F020FA38B92068DB
:1034300090F82C1001208840216981432161681C8B
:1034400007D137B12168BDE8F0410E48091D00F0F1
:1034500051BA20683544B5424560216805D2A06B59
:10346000BDE8F041091D00F02DBA606B091D00F0A8
:1034700029FAA06A854200D2A562BDE8F081000069
:1034800020000020280600202DE9F041054600F02C
:103490003DFA2E4CA068401CA06020682C4F10B153
:1034A000606940B32DE02560A068012829D100267D
:1034B00006EB860007EB800000F0F6F9761C072E7D
:1034C000F6D323488C3000F0EFF92148A03000F00B
:1034D000EBF91F48B43000F0E7F91D48C83000F0A0
:1034E000E3F91B48DC3000F0DFF919488C306063E9
:1034F0001430A06305E02068E96AC06A884200D8F9
:103500002560606A401C6062E96A01202269884087
:103510001043206101EB810007EB8000291D00F0C2
:10352000E9F900F013FA606900280CD02068E96A14
:10353000C06A884207D207494FF080500860BFF345
:103540004F8FBFF36F8FBDE8F08100002000002097
:103550004C05002004ED00E010B5044690F8510041
:1035600058B101280CD002280FD0502080F31188C8
:10357000BFF34F8FBFF36F8FFEE7206B00F0FAF9B8
:103580002046BDE8104000F0F5B910BD10484FF4DA
:103590007051420706D0C01D0D4920F00700411AA6
:1035A000C1F570510B4A00230144C2E900030839F8
:1035B000183A21F0070111604B600B600B1AC0E94B
:1035C000001393604FF0004053605061704700005B
:1035D0003C06002074000020144E154CA6F1C807CC
:1035E0004FF08058DFF84C9012E000BF00F08EF9E9
:1035F000F068C568281D00F039F9A068401EA06079
:103600006068401E606000F0A1F92846FFF7A4FF43
:1036100060680028EAD138680128F9D9C9F8008023
:10362000BFF34F8FBFF36F8FF2E700001406002047
:103630002000002004ED00E02DE9F0479A46DDE986
:10364000098481466FF00303206B03EB8202104470
:10365000089E20F00707780707D0502080F31188D4
:10366000BFF34F8FBFF36F8FFEE7002561B10020DE
:1036700023180A5C83F834200A5C12B1401C10281D
:10368000F6D384F8435001E084F83450072E00D379
:103690000626E662C4E91165201D00F010F904F168
:1036A000180000F00CF92461C6F107006462A06103
:1036B000E56484F8505052464946384600F0C0F858
:1036C0002060B8F1000F01D0C8F80040BDE8F087D5
:1036D00030B5114900E011460A688242FBD34B68BD
:1036E0005C18844203D14068184448600846436827
:1036F0001C18944209D1084C183C2468A24209D0F5
:1037000052681A4442600A6812680260814200D01E
:10371000086030BD0460F9E7740000200648416B82
:10372000096829B1416BC968C968496881627047F5
:103730004FF0FF31FAE70000200000200848406801
:10374000401C4FF0500080F3118804D0BFF34F8F1E
:10375000BFF36F8FFEE7BFF34F8FBFF36F8FFEE7AF
:103760007C0000202DE9F0410546002700F0A2F979
:10377000324E306808B9FFF709FF706905424ED133
:10378000C5B3083568070ED005F00700C0F1080082
:103790000544680707D0502080F31188BFF34F8F8E
:1037A000BFF36F8FFEE72DB37068854237D823488B
:1037B000183001460C6801E020460C466168A942B9
:1037C00002D221680029F7D131688C4227D00768DE
:1037D0002168016060680837411B10290FD9601902
:1037E000420708D0502080F31188BFF34F8FBFF3FA
:1037F0006F8FFEE713E041606560FFF769FF616866
:103800007068401A7060B268904200D2B06070690F
:1038100001430020C4E90001F068401CF06000F0A2
:10382000B7FA780707D0502080F31188BFF34F8F85
:10383000BFF36F8FFEE73846BDE8F0815C000020E3
:1038400010B5031F4FF080741C601B1F21F0010195
:103850001960191F044B0B6014390A60091F6FF0BF
:10386000020244380A6010BD3D370008D0E9013239
:1038700001699A60D0E901235A604A68824201D105
:1038800082684A60002202610868401E0860086879
:1038900070470000034B036003F154000860802070
:1038A000106070476801002000F108014FF0FF32FE
:1038B000C0E90112C160016100210160704700216F
:1038C0000161704730B50B685A1C02D000F1080244
:1038D00002E0026904E02246546825689D42FAD954
:1038E00053684B6099608A60516008610168491CA7
:1038F000016030BD42684A6093688B60936859608C
:10390000916008610168491C01607047502080F394
:103910001188BFF34F8FBFF36F8F0A494868401C6F
:10392000486001280CD10848006810F0FF0F07D04C
:10393000502080F31188BFF34F8FBFF36F8FFEE7E6
:10394000704700007C00002004ED00E00849486852
:1039500028B1401E486001D180F311887047502083
:1039600080F31188BFF34F8FBFF36F8FFEE7000026
:103970007C00002070B500282AD0164DA0F1080464
:1039800060686969084207D1502080F31188BFF34D
:103990004F8FBFF36F8FFEE722683AB1502080F35C
:1039A0001188BFF34F8FBFF36F8FFEE788436060CE
:1039B00000F080F860686968084468602046FFF796
:1039C00087FE2869401C2861BDE8704000F0E0B91E
:1039D00070BD00005C0000204FF0E020002101617C
:1039E000816105494FF47A720968B1FBF2F1491E11
:1039F00041610721016170471C00002010B50200E1
:103A000014D00F48006B38B1502080F31188BFF3F9
:103A10004F8FBFF36F8FFEE700F04CF80021104688
:103A2000FFF7FAFC00F0B4F9002807D105494FF080
:103A300080500860BFF34F8FBFF36F8F10BD000041
:103A40002000002004ED00E010B586B000240394AF
:103A500005AA04A903A80494FFF71CFFDDE90301EC
:103A60000094CDE9011000230EA11048059A00F042
:103A7000FEF80F490028C86211D0502080F3118849
:103A8000BFF34F8FBFF36F8F4FF0FF30886201207D
:103A90004861CC6006B0BDE8104000F041B806B007
:103AA00010BD000049444C4500000000D935000815
:103AB000200000200248016B491C01637047000090
:103AC000200000201448016B11B10121C161704731
:103AD0000021C1610169B1FA81F1C1F11F0101EB5E
:103AE00081020E4951F822306BB101EB820101F1E4
:103AF00008034A6852684A609A4201D152684A6093
:103B0000D16801607047502080F31188BFF34F8F58
:103B1000BFF36F8FFEE70000200000204C0500205F
:103B20001CB537480168374A914207D1502080F3CD
:103B30001188BFF34F8FBFF36F8FFEE700683149E5
:103B4000491E884207D1502080F31188BFF34F8F60
:103B5000BFF36F8FFEE72C4908780190FF200870B3
:103B600008788DF800009DF800009DF8002000F016
:103B7000F000904207D0502080F31188BFF34F8FA0
:103B8000BFF36F8FFEE79DF80000204C00F050005F
:103B900020700720A06005E09DF8002052008DF8FD
:103BA0000020401E9DF800201206F5D4A0600328D6
:103BB00007D0502080F31188BFF34F8FBFF36F8F72
:103BC000FEE74FF44070A060019808700C48203068
:103BD000016841F470010160016841F070410160C9
:103BE000FFF7FAFE00206060FCF706FB084801685A
:103BF00041F040410160FCF7EBFA00201CBD0000E1
:103C000000ED00E071C20F4100E400E07C00002004
:103C100034EF00E02DE9FF5F8346DDE90E8799462A
:103C200016468A469000FFF79DFD05001CD05420E3
:103C3000FFF798FD040014D00020256384F851009C
:103C4000CDE90240CDE900874B4632465146584601
:103C5000FFF7F2FC2046FFF717FC012004B0BDE897
:103C6000F09F2846FFF786FE4FF0FF30F6E7F0B5ED
:103C700085B0DDE90B640A9DA6B1DCB1542700973D
:103C80002663022684F85160002604AFCDE902467F
:103C9000CDE90057FFF7D0FC2046FFF7F5FB04986D
:103CA00005B0F0BD502080F31188BFF34F8FBFF3F4
:103CB0006F8FFEE7502080F31188BFF34F8FBFF363
:103CC0006F8FFEE72DE9F0412F4C0026206B28B1C5
:103CD000A069401CA0613046BDE8F081E5686D1C1C
:103CE000E56013D1606B006838B1502080F3118813
:103CF000BFF34F8FBFF36F8FFEE7606BA16B616304
:103D0000A063206A401C2062FFF708FDA06ADFF86C
:103D10007C80854209D3606B0068A0B1606BC0688D
:103D2000C7687868854211D2A0622068C06A00EB3B
:103D3000800158F82100012800D90126E0690028F7
:103D4000C9D00126C7E74FF0FF30EDE7381DFFF778
:103D50008DFDB86A18B107F11800FFF787FDF96A01
:103D60000120226988401043206101EB810108EBAA
:103D70008100391DFFF7BEFDF86A2168C96A8842D3
:103D8000C9D30126C7E70000200000204C05002011
:103D90002DE9F0472C4D00242746286B38B1FFF75A
:103DA000B5FD286B401E2863286B40B146E05020CB
:103DB00080F31188BFF34F8FBFF36F8FFEE7A968C1
:103DC000224E0120D1B3A6F1B40980463068E8B193
:103DD000F068C46804F11800FFF748FD201DFFF7E4
:103DE00045FDE06A2A6908FA00F11143296100EBF8
:103DF000800109EB8100211DFFF77CFDE06A296845
:103E0000C96A8842E2D3C5F81C80DFE70CB1FFF72E
:103E100085FCAC6944B14646FFF754FF00B1EE6142
:103E2000641EF9D10020A861E86938B1084901276A
:103E300038070860BFF34F8FBFF36F8FFFF786FD22
:103E40003846BDE8F0870000200000200006002072
:103E500004ED00E0F43E0008BB250008000000006F
:103E600000000000800000000000000000000000D2
:103E7000E43E0008CB250008FDFF00000000000024
:103E8000800000000000000000000000E83E000884
:103E9000CD250008FDFF00000000000080000000AC
:103EA0000000000000000000EC3E0008C3250008F0
:103EB000FDFF000000000000800000000000000086
:103EC000000000000006101600061016000000009A
:103ED00000000000010203040607080900000000BA
:103EE000010203044C4344004C45440045455052F4
:103EF0004F4D000064656661756C745461736B00AE
:103F0000415432344336345F4949430041543234DA
:103F10004330320053544D33325F426172655F4823
:103F2000414C5F55415254310000000053544D3311
:103F3000325F426172655F48414C5F554152543176
:103F40005F49540053544D33325F426172655F489C
:103F5000414C5F55415254315F444D4100000000D7
:103F6000803F00080000002068010000D80300081E
:103F7000284000086801002018480000E42C0008D0
:103F8000011032018210036124F41AAA0151123F78
:103F900012082C0802400412041202132D301408D7
:103FA000892F140847321408CF311B087F081A499B
:103FB000101A450C1AA90C1A07041A750C1A0514C4
:103FC000135B2E1B08B30413F12D1B08C904512ADF
:103FD00020CD122032A01A0C5C1AD8121A880413B1
:103FE0008504140811051C08AB065419081A8B1017
:103FF0001A2F04411AE4201A142C1315251B08A3A8
:10400000041A89041BBC044A5D1001402C181AB321
:10401000049A9B185A44181AAB049A931813100167
:084020001B2028041A40044192
:040000050800019955
:00000001FF
