:020000040800F2
:1000000060470020F9020008EB160008C114000840
:10001000E916000853050008ED1A0008000000006A
:10002000000000000000000000000000390200088D
:10003000550500080000000095020008211700087F
:100040001303000813030008130300081303000838
:100050001303000813030008130300081303000828
:100060001303000813030008130300081303000818
:100070001303000813030008130300081303000808
:100080001303000813030008130300080000000016
:100090000000000000000000000000001303000842
:1000A0001303000813030008ED17000813030008EA
:1000B00013030008130300081303000813030008C8
:1000C00013030008130300081303000813030008B8
:1000D00013030008130300081303000800000000C6
:1000E00013030008130300081303000800000000B6
:1000F00000000000000000000000000013030008E2
:100100000000000013030008130300081303000895
:1001100000000000000000000000000000000000DF
:100120001303000813030008130300081303000857
:1001300013030008000000000000000000000000A1
:100140000000000000000000000000001303000891
:100150001303000813030008130300081303000827
:100160001303000813030008000000000000000053
:10017000000000000000000000000000000000007F
:100180000000000013030008000000000000000051
:10019000130300081303000800F002F800F03CF815
:1001A0000AA090E8000C82448344AAF10107DA45D2
:1001B00001D100F031F8AFF2090EBAE80F0013F0E8
:1001C000010F18BFFB1A43F001031847C8240000B1
:1001D000E8240000103A24BF78C878C1FAD8520742
:1001E00024BF30C830C144BF04680C6070470000B1
:1001F0000023002400250026103A28BF78C1FBD830
:10020000520728BF30C148BF0B6070471FB502F0CE
:10021000E9F91FBD10B510BD00F061F91146FFF7F7
:10022000F5FF01F074FC00F07FF903B4FFF7F2FF73
:1002300003BC00F087F900002C4B19680868B0E88F
:10024000F04F80F30988BFF36F8F4FF0000080F309
:10025000118870470000000008480068006880F3BB
:1002600008884FF0000080F3148862B661B6BFF3CF
:100270004F8FBFF36F8F00DF00BF00BF08ED00E0BE
:10028000DFF80C00016841F470010160704700BFA5
:1002900088ED00E0EFF30980BFF36F8F134B1A680E
:1002A0001EF0100F08BF20ED108A20E9F04F1060FB
:1002B00009B44FF0500080F31188BFF34F8FBFF3A4
:1002C0006F8F01F0C7FF4FF0000080F3118809BC69
:1002D00019680868B0E8F04F1EF0100F08BFB0ECC6
:1002E000108A80F30988BFF36F8F704720000020C9
:1002F000EFF3058070470000094880470948004730
:10030000FEE7FEE7FEE7FEE7FEE7FEE7FEE7FEE7C5
:10031000FEE7FEE704480549054A064B7047000022
:10032000DD170008990100086041002060470020A7
:10033000604300206043002053EA020C00F0698013
:100340002DE9F04B4FF00006002B1FBFB3FA83F5E9
:1003500003FA05F424FA05F65E4012BF1643B2FA1A
:1003600082F502FA05F4C5F120051EBF22FA05FC4C
:1003700044EA0C04203556EA044C4FEA144418BFF2
:10038000641C4FF000084FF00009904271EB030C21
:1003900039D3002919BFB1FA81F701FA07F6B0FA8B
:1003A00080F700FA07F6C7F120071EBF20FA07FC06
:1003B00046EA0C062037B6FBF4FCA7EB0507103F16
:1003C00007F01F0BCBF120060CFA0BFB2CFA06F6FC
:1003D00044BFB3460026202FA4BF5E464FF0000B5B
:1003E0005BEA060C08BF4FF0010B19EB0B09ABFBE6
:1003F000027C48EB0608C01B06FB02CC0BFB03CCBF
:1004000071EB0C01C1E70B46024641464846BDE888
:10041000F08B13B54FF000004FF00001AFF30080F8
:10042000BDE81C40704710B5203AC0F00B80B1E821
:100430001850203AA0E81850B1E81850A0E8185019
:10044000BFF4F5AF5FEA027C24BFB1E81850A0E822
:10045000185044BF18C918C0BDE810405FEA827C3C
:1004600024BF51F8043B40F8043B08BF7047D20753
:1004700028BF31F8023B48BF11F8012B28BF20F8F4
:10048000023B48BF00F8012B70474FF0000200B557
:10049000134694469646203922BFA0E80C50A0E8A7
:1004A0000C50B1F12001BFF4F7AF090728BFA0E855
:1004B0000C5048BF0CC05DF804EB890028BF40F821
:1004C000042B08BF704748BF20F8022B11F0804F63
:1004D00018BF00F8012B704770477047704775468A
:1004E00000F02CF8AE4605006946534620F00700A0
:1004F000854618B020B5FFF70DFFBDE820404FF04E
:1005000000064FF000074FF000084FF0000B21F0FD
:100510000701AC46ACE8C009ACE8C009ACE8C009CA
:10052000ACE8C0098D46704710B50446AFF30080B3
:100530002046BDE81040FFF778BE00000048704735
:10054000FC40002001491820ABBEFEE72600020057
:100550007047FEE7704772B6FEE7000070B50446CC
:1005600000F00CF90546601C02D0044800780444F1
:1005700000F004F9401BA042FAD370BD1000002027
:100580002DE9F84FDFF8B8A10022012403254FF030
:100590000F090AF1040BAAF1040E00BF0B6804FA5C
:1005A00002F63340B34273D10F7907F00307012FEE
:1005B00001D0022F16D187684FEA420805FA08FCDD
:1005C00027EA0C07D1F80CC00CFA08FC4CEA070C1F
:1005D000C0F808C04768B7430E79C6F300169640C6
:1005E0003E4346600E79F643B6070DD0C768560005
:1005F00005FA06FC27EA0C07D1F808C00CFA06FC3D
:100600004CEA070CC0F80CC00E7906F00306022E67
:1006100010D1D60800EB8608D8F8206057074FEABB
:10062000D76C09FA0CF7BE430F6907FA0CF737438A
:10063000C8F8207006684FEA420C05FA0CF7BE4372
:100640000F7907F0030707FA0CF7374307604E6886
:1006500016F4403F6DD03B4E376847F48047376013
:10066000366822F0030706F480460096364E07EB04
:10067000060CDCF8086897073F0F09FA07F826EA26
:100680000806DFF8C880404503D14FF000081EE09F
:100690004FE0DFF8BC80404502D14FF0010816E082
:1006A000DFF8B080404502D14FF002080FE0DFF8DC
:1006B000A880404502D14FF0030808E0DFF89C8095
:1006C000404502D14FF0040801E04FF0070808FA56
:1006D00007F848EA0608CCF80888DAF800605746B8
:1006E000D1F804C09E435FEACC2C00D51E433E6087
:1006F000DBF800605F46D1F804C09E435FEA8C2CB3
:1007000000D51E433E60DEF800607746D1F804C095
:100710009E435FEA8C3C00D51E433E60084F083F75
:100720003E68D1F804C09E435FEACC3C00D51E432E
:100730003E60521C102AFFF431AFBDE8F88F000074
:10074000083C0140443802400030014000000240B3
:100750000004024000080240000C02400010024069
:10076000426921EA02030A4043EA0241816170477B
:100770000AB1816170470904FBE700000148806805
:100780007047000010000020024881680278114480
:1007900081607047100000200B4810B5016841F4DB
:1007A00000710160016841F480610160016841F4F9
:1007B00080710160032000F099F80F2000F006F826
:1007C00000F04AF8002010BD003C024030B505465C
:1007D0001C4887B00024016841F480210160006852
:1007E00006A900F48020009001A800F02BF900F089
:1007F00059F91549154AB0FBF1F11548491E026037
:1008000040F2E732C0E90324C0E90114846100F03A
:1008100015FC040012D10E4800F03EFC04000DD17E
:100820001A2000F035F8102D07D2002229461A2090
:1008300000F03CF80748056000E0012407B02046BE
:1008400030BD00004438024040420F0000480140E3
:10085000C4030020140000200C4882B0016841F459
:1008600080410160006800F4804000900748001F4C
:10087000016841F0805101600068002200F0805062
:1008800000900F21901E02B000F010B844380240D2
:10089000002809DB00F01F0201219140400980007F
:1008A00000F1E020C0F8001170470000F0B40E4BDA
:1008B0001B680C46C3F30223C3F10705042D00D9BE
:1008C0000425191D072901D2002300E0DB1E0126A3
:1008D00006FA05F1491E214099409E40761E1640B9
:1008E0003143F0BC01F003B90CED00E0064900F023
:1008F000070208684FF6FF03184040EA0220034A47
:1009000010430860704700000CED00E00000FA059D
:100910002DE9F0470E46050065D0DFF81481D8F8C0
:100920000000F7B200F00700B04207D288F800706C
:10093000D8F8000000F00700B04254D128683D4CC0
:10094000810712D5400703D5206840F4E0502060AD
:100950002878000703D5206840F4604020602068B4
:10096000A96820F0F000084320602878C0072DD047
:10097000304968680839012812D0022813D00328AA
:1009800011D00968890700292DDA216821F00301B7
:1009900001432160FFF7F2FE814641F2883A0EE002
:1009A00009688903EFE709688901ECE7FFF7E6FECC
:1009B000A0EB0901514502D90320BDE8F08720686A
:1009C000696800F00C00B0EB810FEFD1D8F800108F
:1009D000404601F00701B14207D90770006800F0F6
:1009E0000700B04201D00120E7E72878400705D58D
:1009F0002068E96820F4E050084320602878000768
:100A000006D52068296920F4604040EAC1002060D2
:100A100000F058F82168084AC1F30311515CC8403E
:100A20000649086006480068FFF7D0FE0020C4E7CA
:100A3000003C024008380240602600081C000020EC
:100A4000140000200F2202600C4A136803F0030315
:100A50004360136803F0F0038360136803F4E0530A
:100A6000C36012684FF4E05303EAD2020261044803
:100A7000006800F007000860704700000838024076
:100A8000003C02400448054900680968044AC1F373
:100A90008221515CC84070471C0000200838024089
:100AA000702600080448054900680968044AC1F333
:100AB0004231515CC84070471C0000200838024099
:100AC00070260008154810B5006810F00C02144894
:100AD00013D01449042A0FD0082A0ED10F4C241F1A
:100AE0002268236802F03F025B0207D52068C0F34A
:100AF0008810A0FB010106E0084610BD2168C1F383
:100B00008811A1FB00010023FFF716FC2168C1F347
:100B10000141491C4900B0FBF1F010BD083802400A
:100B20000024F40040787D012DE9F84F04006ED0D8
:100B30002078DFF84C93C007A9F104054AD009F1E9
:100B400004000168C1F38101012908D00068C0F3E5
:100B5000810002280AD1D9F80000400206D5286891
:100B6000800337D560680028E1D033E06068B0F5D5
:100B7000803F10D0B0F5A02F286810D020F480302E
:100B80002860286820F4802028606068A8B1FFF7FA
:100B9000F5FD06460DE0286840F48030F4E740F4A7
:100BA00080202860F7E700BFFFF7E8FD801B64287E
:100BB00073D828688003F7D50CE0FFF7DFFD064601
:100BC00005E000BFFFF7DAFD801B6428F0D8286835
:100BD0008003F7D42078DFF8AC8280074FF0000A5A
:100BE0003ED5A748001D016811F00C0F08D0006821
:100BF000C0F3810002280BD1D9F80000400207D4CD
:100C00002868800716D5E068012800D112E033E19A
:100C1000E068B8B10120C8F80000FFF7AFFD064654
:100C200005E000BFFFF7AAFD801B0228C0D8286896
:100C30008007F7D52868216920F0F80040EAC10054
:100C400028600DE0C8F800A0FFF798FD064604E014
:100C5000FFF794FD801B02281FD828688007F7D46F
:100C60002078000722D5864F87486169703771B1B7
:100C700001210160FFF782FD064604E0FFF77EFDDB
:100C8000801B022809D838688007F7D50EE0C0F825
:100C900000A0FFF773FD064605E082E0FFF76EFD5A
:100CA000801B02287DD838688007F7D42078400759
:100CB00068D5DFF8CCB100270BF13C0BDBF8000066
:100CC000C0000BD4DBF8001041F08051CBF80010CD
:100CD000DBF80000012700F0805000906B4E306878
:100CE000C00510D4306840F480703060FFF746FDD6
:100CF000009005E0FFF742FD0099401A022850D805
:100D00003068C005F6D55E4EA0686C3601280FD05D
:100D10000528306810D020F001003060306820F0E5
:100D200004003060A068B8B1FFF728FD00900FE024
:100D3000306840F00100F4E740F004003060F7E76D
:100D4000FFF71CFD0099411A41F28830814266D8B4
:100D500030688007F4D50EE0FFF710FD009007E043
:100D6000FFF70CFD0099411A41F28830814256D8B4
:100D700030688007F4D42FB1DBF8001021F08051E7
:100D8000CBF80010A069C8B33D49091D0968C1F33B
:100D9000810102294AD00228504607D0C8F86000D5
:100DA00000E03CE0FFF7EAFC04463BE04746C8F8B9
:100DB0006000FFF7E3FC064605E000BFFFF7DEFC3E
:100DC000801B02282BD828688001F7D4D4E90701BA
:100DD0000843A16A2E4A490802EB0141626A41EACE
:100DE0008211084394F82C1040EA0161C9F8001000
:100DF00001203866FFF7C2FC044606E03EE000BF73
:100E0000FFF7BCFC001B022809D828688001F7D531
:100E100034E000BFFFF7B2FC001B022802D9032018
:100E2000BDE8F88F28688001F4D427E00128F7D0C6
:100E3000D9F80000E26900F4800191421CD1226AD5
:100E400000F03F01914217D147F6C071626A01403C
:100E5000B1EB821F10D1A26A4FF0FF3300F4403192
:100E600003EB5202B1EB024F06D194F82C1000F0C4
:100E70007060B0EB016F01D00120D1E70020CFE717
:100E80000438024000004742800E47420070004094
:100E90000000FFFF70B5040009D0606A002540B172
:100EA00025616561A56294F8510040B10CE0012014
:100EB00070BD6068B0F5827FF4D0E561F2E784F838
:100EC0005050204600F044F8022084F85100206879
:100ED000016821F040010160A088218900F482703E
:100EE00001F404410843A18901F400610843217C15
:100EF00001F002010843217D01F001010843218B2B
:100F000001F400710843217F01F03801084394F88F
:100F1000201001F080010843218D01F400510843A5
:100F200021680860A069042101EA104094F82410A7
:100F300001F010010843216848602068C16921F46C
:100F40000061C1616565012084F85100002070BD19
:100F500010B586B0044614216846FFF796FA144986
:100F60002068884221D113480021026842F480425F
:100F70000260006800F4804005900E481038026856
:100F800042F002020260006800F0020005904FF497
:100F9000204000900220CDE90101032003900520AC
:100FA000049069460448FFF7EBFA06B010BD000054
:100FB000003800404038024000040240704770474B
:100FC00070B590F83C20012A2CD0012480F83C40D8
:100FD000022280F83D2003685A689D6822F070065E
:100FE0000A6832435A60104B02689A420ED0B2F13E
:100FF000804F0BD00D4B9A4208D00D4B9A4205D032
:101000000C4B9A4202D00C4B9A4204D1496825F00D
:1010100080031943916080F83D40002180F83C1026
:10102000084670BD022070BD000001400004004071
:1010300000080040000C00400040014010B50400D2
:1010400003D094F83D0010B107E0012010BD00204E
:1010500084F83C00204600F01EF8022084F83D0091
:10106000211D206800F0C8FB012084F8460084F8A8
:101070003E0084F83F0084F8400084F8410084F882
:10108000420084F8430084F8440084F8450084F862
:101090003D00002010BD704790F83D10012901D09F
:1010A00001207047022180F83D100168CA6842F0B3
:1010B0000102CA6000680E4988420ED0B0F1804F2C
:1010C0000BD00C49884208D00B49884205D00B4907
:1010D000884202D00A49884204D1816801F00701A0
:1010E000062903D0016841F001010160002070472A
:1010F000000001400004004000080040000C0040D7
:101100000040014070472DE9F04104460068C66880
:1011100005694FF00007A90713D5B10711D5F91ECE
:10112000016101202077206880698007204602D075
:10113000FFF7E8FF04E000F0A7F8204600F04AF9C6
:101140002777680716D5700714D521686FF004005B
:101150000861022020772068806910F4407F2046D3
:1011600002D0FFF7CFFF04E000F08EF8204600F039
:1011700031F92777280715D5300713D521686FF087
:1011800008000861042020772068C0698007204695
:1011900002D0FFF7B7FF04E000F076F8204600F039
:1011A00019F92777E80616D5F00614D521686FF0EF
:1011B00010000861082020772068C06910F4407F83
:1011C000204602D0FFF79EFF04E000F05DF82046C5
:1011D00000F000F92777E80708D0F00706D021686B
:1011E0006FF001000861204600F0F6F8280608D5E7
:1011F000300606D521686FF0800008612046FFF7B1
:10120000DDFE680608D5700606D521686FF040003F
:101210000861204600F0EAF8A8060AD5B00608D50D
:1012200021686FF0200008612046BDE8F041FFF71B
:10123000C6BEBDE8F081000010B586B0044614219A
:101240006846FFF722F92068B0F1804F15D10C48AD
:101250000021026842F001020260006800F0010013
:10126000059002200090CDE90101032003900120A8
:10127000049069460348FFF783F906B010BD0000EB
:101280003038024000000240704770B5044690F8C4
:101290003C0000260D4601280FD0012084F83C00B8
:1012A0006AB1042A1DD0082A2FD00C2A3FD001266B
:1012B000002084F83C00304670BD022070BD2068DC
:1012C00000F0ECFA2068816941F008018161206832
:1012D000816921F004018161206881692A691143D3
:1012E00011E0206800F002FB2068816941F4006190
:1012F00081612068816921F4806181612068816950
:101300002A6941EA02218161D2E7206800F01AFBD4
:101310002068C16941F00801C1612068C16921F0FC
:101320000401C1612068C1692A69114311E0206884
:1013300000F034FB2068C16941F40061C16120689C
:10134000C16921F48061C1612068C1692A6941EAEB
:101350000221C161ACE710B5040003D094F83D0050
:1013600010B107E0012010BD002084F83C002046A9
:1013700000F01EF8022084F83D00211D206800F0D6
:101380003BFA012084F8460084F83E0084F83F00D0
:1013900084F8400084F8410084F8420084F8430057
:1013A00084F8440084F8450084F83D00002010BD16
:1013B00008B50068B0F1804F08D10548016841F0D8
:1013C00001010160006800F00100009008BD00000C
:1013D000403802407047000000680349884201D14C
:1013E000FFF7D2B97047000000480140704770B560
:1013F000040004D094F84100002510B106E001205B
:1014000070BD84F84050204600F024F8242084F871
:1014100041002068C16821F40051C160204600F0FD
:10142000DFFA2068016921F4904101612068416977
:1014300021F02A0141612068C16841F40051C16076
:101440006564202084F8410084F842006563002030
:1014500070BD000010B586B0044614216846FFF741
:1014600014F814492068884221D1134800210268E9
:1014700042F010020260006800F0100005900E4873
:101480001438026842F001020260006800F00100B6
:1014900005904FF4C06000900220CDE901010320C7
:1014A00003900720049069460448FFF769F806B0E6
:1014B00010BD00000010014044380240000002400E
:1014C000FEE7000010B59CB01C2216496846FEF7E6
:1014D000AAFF0021684600F03DFB134C11491C2275
:1014E00020601C3107A8FEF79EFF002107A800F02E
:1014F00031FB0C4960601C2238310EA8FEF793FFC7
:1015000000210EA800F026FB0649A0601C225431E1
:1015100015A8FEF788FF002115A800F01BFBE0606E
:101520001CB010BDF0250008000000202DE9F0419E
:1015300086B014216846FEF7A8FF2D4800240168F4
:1015400041F080010160016801F0800105910168AE
:1015500041F004010160016801F004010591016896
:1015600041F001010160016801F00101059101688C
:1015700041F00201016000681E4F00F0020005907A
:1015800000224E213846FFF7F3F8DFF86C8045F271
:101590001026002231464046FFF7EAF802201125C6
:1015A000CDE900050320CDE9024069463846FEF743
:1015B000E7FF04200090CDE90154694638460394C2
:1015C000FEF7DEFF482000900125CDE90154694671
:1015D00038460394FEF7D4FF0096CDE901546946DE
:1015E00040460394FEF7CCFF06B0BDE8F081000052
:1015F0003038024000080240000402400F4810B595
:101600000D4901604FF48271416000218160C16029
:101610004FF400720161C0E90512C16101624162CB
:1016200081620A21C162FFF735FC002803D0BDE8C2
:101630001040FEF790BF10BD00380040DC020020D3
:1016400010B58AB0002407941C2168460894FEF760
:101650001CFF16484FF08041016041F61F41C0E970
:10166000011442F20F71C0E903148461FFF773FEA5
:1016700008B1FEF770FF079407A90C480894FFF71C
:101680009FFC08B1FEF767FF6020CDE900040294DB
:101690000422694605480494FFF7F7FD08B1FEF7F8
:1016A0005AFF0248FFF7C8FD0AB010BD34030020FE
:1016B0000C4810B50A4901604FF4E1314160002146
:1016C00081600C22C160C0E904128161C161FFF731
:1016D0008EFE002803D0BDE81040FEF73CBF10BDD1
:1016E000001001407C030020FEE7FEE7012000F02F
:1016F00025FAFBE7012000F021FAFBE7012000F0CA
:101700001DFAFBE7054C08212046FFF729F8642065
:10171000FEF724FF012000F011FAF4E70008024070
:1017200010B5502080F31188BFF34F8FBFF36F8F38
:1017300000F090FE18B104494FF08050086000207E
:1017400080F3118810BD000004ED00E030B593B0C7
:1017500030216846FEF799FE14210CA8FEF795FE8D
:101760001C480024016841F080510160006800F0CD
:10177000805011901848016841F4404101600068B0
:10178000022500F4404011900120039010200490A5
:10179000009506950820CDE907406420CDE90905AC
:1017A00004200B906846FFF7BFF908B172B6FEE758
:1017B0000F20CDE90C054FF48050CDE90E400321F8
:1017C0000CA81094FFF7A4F8002801D072B6FEE729
:1017D00013B030BD4038024000700040024801683C
:1017E00041F470010160704788ED00E00148FFF7A7
:1017F0008ABC0000C4030020F0B50268204B214CD5
:101800009F03214D214E984207D0B84205D0A042F7
:1018100003D0A84201D0B04204D122F0700C4A6833
:1018200042EA0C02984210D0B8420ED0A0420CD02E
:10183000A8420AD0B04208D0154CA04205D0154CA1
:10184000A04202D0144CA04203D122F44074CA68D2
:1018500022434C6922F08002224302608A68C262FD
:101860000A688262984201D10969016301214161DC
:101870000169C90703D0016921F001010161F0BDCF
:10188000000001400004004000080040000C00403F
:1018900000400140004401400048014030B5036A67
:1018A000026A22F0010202624268846924F0730530
:1018B0000C682C4323F002058B682B430A4DA84289
:1018C0000BD123F00805CB6822F440722B434D69FD
:1018D00023F0040315438A692A43426084614968FE
:1018E0004163036230BD00000000014030B5026A70
:1018F000036A23F010030362436884690D6824F4CB
:10190000E64444EA05248D6822F0200242EA0512EA
:101910000B4DA8420ED1CD6822F0800242EA05129A
:101920004D6923F4406343EA85038D6922F0400248
:1019300043EA85034360846149688163026230BD84
:101940000000014030B5036A026A22F4807202622C
:101950004268C46923F4007324F073050C682C43B7
:101960008D6843EA05230C4DA8420ED1CD6823F4BF
:10197000006343EA05234D6922F4405242EA05120E
:101980008D6923F4806342EA05124260C4614968AC
:10199000C163036230BD00000000014030B5046A3D
:1019A000026A22F4805202624268C3690D6823F41D
:1019B000E64343EA05238D6824F4005444EA0534E1
:1019C000064DA84204D14D6922F4804242EA8512B4
:1019D0004260C36149680164046230BD0000014097
:1019E00070B5044600680169E26821F44051114372
:1019F00001612169A068E2690843616911430843F4
:101A00002168CA6849F20C639A430243CA6020689D
:101A10004169A26921F44071114341613149206853
:101A2000884202D03049884202D1FFF73BF801E0FA
:101A3000FFF728F8E2690023192164253226B2F560
:101A4000004F626828D0A0FB0101930F9200FEF7BF
:101A500073FC0146B0FBF5F06FF01802504301EB48
:101A6000800006EB0010B0FBF5F000F0F002B1FBD7
:101A7000F5F002EB0012B1FBF5F06FF018035843DC
:101A800001EB800006EB0010B0FBF5F000F00F005A
:101A900021681044886070BDA0FB010192185B4171
:101AA000FEF74AFC0146B0FBF5F00201B1FBF5F090
:101AB0006FF01803584301EB800006EBC000B0FB49
:101AC000F5F000F0F80002EB4002B1FBF5F05843EE
:101AD00001EB800006EBC000B0FBF5F000F0070062
:101AE000D6E700000010014000140140FEE709079E
:101AF000090E002804DB00F1E02080F80014704794
:101B000000F00F0000F1E02080F8141D7047FEF790
:101B100043FEFFF71BFEFFF709FDFFF76FFDFFF721
:101B20008FFDFFF7C5FDFFF7CDFC00F00EF8FEE7D7
:101B300001460020842900D0C81C704710B500B9A8
:101B4000012000F023FB002010BD10B500F044FB85
:101B5000002010BD7FB50D4604464169B0F908006C
:101B600081B1A16971B1FFF7E3FFD4E905128DE8F6
:101B70000700D4E900102B46226900F040FC0390D6
:101B800004B070BDFFF7D4FF03A9CDE90001208A9E
:101B90002B4682B2D4E9001000F004FC012801D0E9
:101BA0000020EDE70398EBE72DE9F041184C0F46D4
:101BB0000546E6682068001D00F020FA38B9206864
:101BC00090F82C1001208840216981432161681C14
:101BD00007D137B12168BDE8F0410E48091D00F07A
:101BE00051BA20683544B5424560216805D2A06BE2
:101BF000BDE8F041091D00F02DBA606B091D00F031
:101C000029FAA06A854200D2A562BDE8F0810000F1
:101C100020000020E80400202DE9F041054600F0F6
:101C20003DFA2E4CA068401CA06020682C4F10B1DB
:101C3000606940B32DE02560A068012829D1002605
:101C400006EB860007EB800000F0F6F9761C072E05
:101C5000F6D323488C3000F0EFF92148A03000F093
:101C6000EBF91F48B43000F0E7F91D48C83000F028
:101C7000E3F91B48DC3000F0DFF919488C30606371
:101C80001430A06305E02068E96AC06A884200D881
:101C90002560606A401C6062E96A01202269884010
:101CA0001043206101EB810007EB8000291D00F04B
:101CB000E9F900F013FA606900280CD02068E96A9D
:101CC000C06A884207D207494FF080500860BFF3CE
:101CD0004F8FBFF36F8FBDE8F08100002000002020
:101CE0000C04002004ED00E010B5044690F851000B
:101CF00058B101280CD002280FD0502080F3118851
:101D0000BFF34F8FBFF36F8FFEE7206B00F0FAF940
:101D10002046BDE8104000F0F5B910BD10484FF462
:101D20007051420706D0C01D0D4920F00700411A2E
:101D3000C1F570510B4A00230144C2E90003083980
:101D4000183A21F0070111604B600B600B1AC0E9D3
:101D5000001393604FF000405360506170470000E3
:101D6000FC04002074000020144E154CA6F1C80796
:101D70004FF08058DFF84C9012E000BF00F08EF971
:101D8000F068C568281D00F039F9A068401EA06001
:101D90006068401E606000F0A1F92846FFF7A4FFCC
:101DA00060680028EAD138680128F9D9C9F80080AC
:101DB000BFF34F8FBFF36F8FF2E70000D404002012
:101DC0002000002004ED00E02DE9F0479A46DDE90F
:101DD000098481466FF00303206B03EB82021044F9
:101DE000089E20F00707780707D0502080F311885D
:101DF000BFF34F8FBFF36F8FFEE7002561B1002067
:101E000023180A5C83F834200A5C12B1401C1028A5
:101E1000F6D384F8435001E084F83450072E00D301
:101E20000626E662C4E91165201D00F010F904F1F0
:101E3000180000F00CF92461C6F107006462A0618B
:101E4000E56484F8505052464946384600F0C0F8E0
:101E50002060B8F1000F01D0C8F80040BDE8F0875D
:101E600030B5114900E011460A688242FBD34B6845
:101E70005C18844203D140681844486008464368AF
:101E80001C18944209D1084C183C2468A24209D07D
:101E900052681A4442600A6812680260814200D0A7
:101EA000086030BD0460F9E7740000200648416B0B
:101EB000096829B1416BC968C9684968816270477E
:101EC0004FF0FF31FAE7000020000020084840688A
:101ED000401C4FF0500080F3118804D0BFF34F8FA7
:101EE000BFF36F8FFEE7BFF34F8FBFF36F8FFEE738
:101EF0007C0000202DE9F0410546002700F0A2F902
:101F0000324E306808B9FFF709FF706905424ED1BB
:101F1000C5B3083568070ED005F00700C0F108000A
:101F20000544680707D0502080F31188BFF34F8F16
:101F3000BFF36F8FFEE72DB37068854237D8234813
:101F4000183001460C6801E020460C466168A94241
:101F500002D221680029F7D131688C4227D0076866
:101F60002168016060680837411B10290FD960198A
:101F7000420708D0502080F31188BFF34F8FBFF382
:101F80006F8FFEE713E041606560FFF769FF6168EE
:101F90007068401A7060B268904200D2B060706998
:101FA00001430020C4E90001F068401CF06000F02B
:101FB000B7FA780707D0502080F31188BFF34F8F0E
:101FC000BFF36F8FFEE73846BDE8F0815C0000206C
:101FD00010B5031F4FF080741C601B1F21F001011E
:101FE0001960191F044B0B6014390A60091F6FF048
:101FF000020244380A6010BDCD1E0008D0E901324B
:1020000001699A60D0E901235A604A68824201D18D
:1020100082684A60002202610868401E0860086801
:1020200070470000034B036003F1540008608020F8
:10203000106070478800002000F108014FF0FF3267
:10204000C0E90112C16001610021016070470021F7
:102050000161704730B50B685A1C02D000F10802CC
:1020600002E0026904E02246546825689D42FAD9DC
:1020700053684B6099608A60516008610168491C2F
:10208000016030BD42684A6093688B609368596014
:10209000916008610168491C01607047502080F31D
:1020A0001188BFF34F8FBFF36F8F0A494868401CF8
:1020B000486001280CD10848006810F0FF0F07D0D5
:1020C000502080F31188BFF34F8FBFF36F8FFEE76F
:1020D000704700007C00002004ED00E008494868DB
:1020E00028B1401E486001D180F31188704750200C
:1020F00080F31188BFF34F8FBFF36F8FFEE70000AF
:102100007C00002070B500282AD0164DA0F10804EC
:1021100060686969084207D1502080F31188BFF3D5
:102120004F8FBFF36F8FFEE722683AB1502080F3E4
:102130001188BFF34F8FBFF36F8FFEE78843606056
:1021400000F080F860686968084468602046FFF71E
:1021500087FE2869401C2861BDE8704000F0E0B9A6
:1021600070BD00005C0000204FF0E0200021016104
:10217000816105494FF47A720968B1FBF2F1491E99
:1021800041610721016170471C00002010B5020069
:1021900014D00F48006B38B1502080F31188BFF382
:1021A0004F8FBFF36F8FFEE700F04CF80021104611
:1021B000FFF7FAFC00F0B4F9002807D105494FF009
:1021C00080500860BFF34F8FBFF36F8F10BD0000CA
:1021D0002000002004ED00E010B586B00024039438
:1021E00005AA04A903A80494FFF71CFFDDE9030175
:1021F0000094CDE9011000230EA11048059A00F0CB
:10220000FEF80F490028C86211D0502080F31188D1
:10221000BFF34F8FBFF36F8F4FF0FF308862012005
:102220004861CC6006B0BDE8104000F041B806B08F
:1022300010BD000049444C4500000000691D000825
:10224000200000200248016B491C01637047000018
:10225000200000201448016B11B10121C1617047B9
:102260000021C1610169B1FA81F1C1F11F0101EBE6
:1022700081020E4951F822306BB101EB820101F16C
:1022800008034A6852684A609A4201D152684A601B
:10229000D16801607047502080F31188BFF34F8FE1
:1022A000BFF36F8FFEE70000200000200C04002029
:1022B0001CB537480168374A914207D1502080F356
:1022C0001188BFF34F8FBFF36F8FFEE7006831496E
:1022D000491E884207D1502080F31188BFF34F8FE9
:1022E000BFF36F8FFEE72C4908780190FF2008703C
:1022F00008788DF800009DF800009DF8002000F09F
:10230000F000904207D0502080F31188BFF34F8F28
:10231000BFF36F8FFEE79DF80000204C00F05000E7
:1023200020700720A06005E09DF8002052008DF885
:102330000020401E9DF800201206F5D4A06003285E
:1023400007D0502080F31188BFF34F8FBFF36F8FFA
:10235000FEE74FF44070A060019808700C482030F0
:10236000016841F470010160016841F07041016051
:10237000FFF7FAFE00206060FDF782FF0848016861
:1023800041F040410160FDF767FF00201CBD0000E7
:1023900000ED00E071C20F4100E400E07C0000208D
:1023A00034EF00E02DE9FF5F8346DDE90E879946B3
:1023B00016468A469000FFF79DFD05001CD054206C
:1023C000FFF798FD040014D00020256384F8510025
:1023D000CDE90240CDE900874B463246514658468A
:1023E000FFF7F2FC2046FFF717FC012004B0BDE820
:1023F000F09F2846FFF786FE4FF0FF30F6E7F0B576
:1024000085B0DDE90B640A9DA6B1DCB154270097C5
:102410002663022684F85160002604AFCDE9024607
:10242000CDE90057FFF7D0FC2046FFF7F5FB0498F5
:1024300005B0F0BD502080F31188BFF34F8FBFF37C
:102440006F8FFEE7502080F31188BFF34F8FBFF3EB
:102450006F8FFEE72DE9F0412F4C0026206B28B14D
:10246000A069401CA0613046BDE8F081E5686D1CA4
:10247000E56013D1606B006838B1502080F311889B
:10248000BFF34F8FBFF36F8FFEE7606BA16B61638C
:10249000A063206A401C2062FFF708FDA06ADFF8F5
:1024A0007C80854209D3606B0068A0B1606BC06816
:1024B000C7687868854211D2A0622068C06A00EBC4
:1024C000800158F82100012800D90126E069002880
:1024D000C9D00126C7E74FF0FF30EDE7381DFFF701
:1024E0008DFDB86A18B107F11800FFF787FDF96A8A
:1024F0000120226988401043206101EB810108EB33
:102500008100391DFFF7BEFDF86A2168C96A88425B
:10251000C9D30126C7E70000200000200C040020DA
:102520002DE9F0472C4D00242746286B38B1FFF7E2
:10253000B5FD286B401E2863286B40B146E0502053
:1025400080F31188BFF34F8FBFF36F8FFEE7A96849
:10255000224E0120D1B3A6F1B40980463068E8B11B
:10256000F068C46804F11800FFF748FD201DFFF76C
:1025700045FDE06A2A6908FA00F11143296100EB80
:10258000800109EB8100211DFFF77CFDE06A2968CD
:10259000C96A8842E2D3C5F81C80DFE70CB1FFF7B7
:1025A00085FCAC6944B14646FFF754FF00B1EE61CB
:1025B000641EF9D10020A861E86938B108490127F3
:1025C00038070860BFF34F8FBFF36F8FFFF786FDAB
:1025D0003846BDE8F087000020000020C00400203D
:1025E00004ED00E04FF04070E1EE100A704700008B
:1025F00088260008ED16000800000000000000001A
:1026000080000000000000000000000078260008A4
:10261000FD160008FDFF0000000000008000000023
:1026200000000000000000007C26000805170008DC
:10263000FDFF00000000000080000000000000001E
:102640000000000080260008F5160008FDFF0000CD
:1026500000000000800000000000000000000000FA
:102660000000000000000000010203040607080942
:1026700000000000010203044C4344004C454400A8
:10268000454550524F4D000064656661756C745449
:1026900061736B00B4260008000000208800000071
:1026A000D40100083C27000888000020D84600001C
:1026B000F001000800000000000000000000000021
:1026C00000000000010000001000000000000000F9
:1026D0000024F400000000000000000000000000E2
:1026E00000000000000000000000000000000000EA
:1026F00000000000000000000000000000000000DA
:1027000000000000000000000000000000000000C9
:1027100000000000000000000000000000000000B9
:1027200000000000000000000000000000000000A9
:0C27300000000000AAAAAAAA00000000F5
:040000050800019955
:00000001FF
