:020000040800F2
:10000000A809002089020008894A0008F3160008A0
:10001000874A0008D1090008CD5000080000000000
:100020000000000000000000000000008D4A0008F1
:10003000D3090008000000008B4A0008254B000887
:10004000A3020008A3020008A3020008A3020008FC
:10005000A3020008A3020008A3020008A3020008EC
:10006000A3020008A3020008A3020008A3020008DC
:10007000A3020008A3020008A3020008A3020008CC
:10008000A3020008A3020008A3020008A3020008BC
:10009000A3020008A3020008A3020008A3020008AC
:1000A000A3020008A3020008A3020008A30200089C
:1000B000A3020008A30200087D4B0008A302000869
:1000C000A3020008A3020008A3020008A30200087C
:1000D000A3020008A1500008A3020008A302000820
:1000E000A3020008A3020008A3020008A30200085C
:1000F000A3020008A3020008A3020008A30200084C
:10010000A3020008A3020008A3020008A30200083B
:10011000A3020008A3020008A3020008A30200082B
:10012000A3020008A3020008A3020008A30200081B
:10013000A3020008A3020008A3020008A30200080B
:10014000A3020008A3020008A3020008A3020008FB
:10015000A3020008A3020008A3020008A3020008EB
:10016000A3020008A3020008A3020008A3020008DB
:10017000A3020008A3020008A30200080000000078
:10018000A3020008A302000800F002F800F06DF8D6
:100190000AA090E8000C82448344AAF10107DA45E2
:1001A00001D100F062F8AFF2090EBAE80F0013F0C7
:1001B000010F18BFFB1A43F00103184798EF000026
:1001C000B8EF00000A444FF0000C10F8013B13F0A8
:1001D000070408BF10F8014B1D1108BF10F8015BA0
:1001E000641E05D010F8016B641E01F8016BF9D193
:1001F00013F0080F1EBF10F8014BAD1C0C1B09D1EA
:100200006D1E58BF01F801CBFAD505E014F8016B5B
:1002100001F8016B6D1EF9D59142D6D370470000ED
:100220000023002400250026103A28BF78C1FBD8FF
:10023000520728BF30C148BF0B607047642900F0E7
:100240003B81752900F03881782900F0718163299C
:1002500000F00483732900F00983002070471FB564
:1002600009F097FC1FBD10B510BD00F083FB1146CF
:10027000FFF7F5FF06F00EFC00F0A1FB03B4FFF75B
:10028000F2FF03BC05F01FFC0948804709480047FE
:10029000FEE7FEE7FEE7FEE7FEE7FEE7FEE7FEE736
:1002A000FEE7FEE704480549054A064B7047000093
:1002B000294B000889010008A8030020A809002094
:1002C000A8050020A8050020704753EA020C00F0A2
:1002D00069802DE9F04B4FF00006002B1FBFB3FAE9
:1002E00083F503FA05F424FA05F65E4012BF1643BF
:1002F000B2FA82F502FA05F4C5F120051EBF22FA12
:1003000005FC44EA0C04203556EA044C4FEA144438
:1003100018BF641C4FF000084FF00009904271EBC9
:10032000030C39D3002919BFB1FA81F701FA07F696
:10033000B0FA80F700FA07F6C7F120071EBF20FACF
:1003400007FC46EA0C062037B6FBF4FCA7EB0507D2
:10035000103F07F01F0BCBF120060CFA0BFB2CFA19
:1003600006F644BFB3460026202FA4BF5E464FF0DA
:10037000000B5BEA060C08BF4FF0010B19EB0B09F1
:10038000ABFB027C48EB0608C01B06FB02CC0BFB58
:1003900003CC71EB0C01C1E70B46024641464846CF
:1003A000BDE8F08B13B54FF000004FF00001AFF344
:1003B0000080BDE81C40704710B54C1084EA53041F
:1003C00004D54042C1F1000138BF491E1B4204D58B
:1003D0005242C3F1000338BF5B1EFFF776FF14F0F3
:1003E000804F04D04042C1F1000138BF491E14F0D3
:1003F000004F04D05242C3F1000338BF5B1E10BD52
:100400000FB4044910B503AA029800F033FA10BCE7
:100410005DF814FB1800002070B50446856900687B
:10042000C10601D5302600E02026C00707D070BDE8
:10043000D4E9012130469047206A401C20626D1E9D
:10044000F6D570BD70B5044685690078C00707D140
:1004500070BDD4E9012120209047206A401C206211
:100460006D1EF6D570BD70B50C460546012A05D047
:100470002878800600D5EA69002302E0012305E020
:100480005B1C934202D2E05C0028F9D1A869E6180F
:10049000C01AA861286A184428622846FFF7BCFFE2
:1004A00004E0D5E9012114F8010B9047B442F8D3D8
:1004B0002846FFF7C7FF70BD2DE9F041064600242E
:1004C00010687529314616A510D0AFF300800028BA
:1004D00002DA404213A507E031688A0701D512A568
:1004E00002E0490704D511A5012401E0AFF3008023
:1004F00000210A2206F1240709E0B0FBF2FCB0FB60
:10050000F2F302FB1C00303078541846491C0028D6
:10051000F3D123462A463046BDE8F04100F03BB90E
:10052000000000002D0000002B0000002000000053
:1005300070B504460D4621461068AFF3008021884F
:10054000090502D50F4A7A4402E00E4A7A440E3277
:10055000002104F1240305E000F00F060009965D78
:100560005E54491C0028F7D120780023000704D5E9
:10057000702D02D009B1022311322046BDE870402F
:1005800000F009B9FCE900002DE9F05F8946044656
:100590004FF0000ADFF874B1FB44C0F820A02046F9
:1005A000E1688847002874D0252806D0D4E90121C5
:1005B0009047206A401C2062F1E700265F462046F3
:1005C000E16888472028054607DB312D05D27819D8
:1005D00010F8200C08B10643F1E7B00701D526F06A
:1005E0000406C4F81CA00027C4F818A02A2D09D0BE
:1005F000284605F061FA38B304EB8708303DC8F8A7
:10060000185019E059F8041B204604EB8702916149
:10061000E1688847012F054618D1E069002820DAF3
:1006200026F020061DE0D8F8180000EB800005EB4E
:1006300040003038C8F818002046E1688847054671
:1006400005F03AFA0028EED1012F0AD02E2D08D15C
:100650002046E16888477F1C0546022F46F02006A9
:10066000C4DBA069002803DA404246F00106A0611D
:10067000F00701D026F010066C2D0BD0682D09D0A4
:100680004C2D39D06A2D35D0742D35D07A2D33D0FC
:1006900016E038E0E1682F4620468847B842054614
:1006A00009D16C2F26D04FF48060E16806432046C4
:1006B0008847054604E06C2F1AD04FF4807006433B
:1006C0000DB3A5F14100192802D8203546F4006683
:1006D0004A462946204626604E46FFF7AFFD80B1C8
:1006E00001280BD0F61D26F0070000F1080956E797
:1006F0004020E4E78020D8E70020D6E706F104098F
:100700004DE7284652E7206ABDE8F09FD2E9000095
:1007100040EA010310B59B070FD1042A0DD310C87E
:1007200008C9121F9C42F8D020BA19BA884201D9D0
:10073000012010BD4FF0FF3010BD1AB1D30703D018
:10074000521C07E0002010BD10F8013B11F8014BCE
:100750001B1B07D110F8013B11F8014B1B1B01D1EA
:10076000921EF1D1184610BD02F0FF0343EA0322A6
:1007700042EA024200F092B87047704770477047F3
:1007800010B500F0ABF8006810BD10B5044600F0DD
:10079000A5F8046010BD2DE9F0470D469946924634
:1007A000044600F124080168880604D5E06921F0B8
:1007B0001001216000E00120A84201DD471B00E09C
:1007C0000027A1697A1902EB0900081AA0612078B4
:1007D000C00602D42046FFF71FFE002608E0D4E939
:1007E00001211AF806009047206A401C761C2062FE
:1007F0004E45F4DB2078C0060AD52046FFF70CFEF4
:1008000006E0D4E9012130209047206A401C206294
:10081000381EA7F10107F4DC07E0D4E9012118F83C
:1008200005009047206A401C2062281EA5F10105A2
:10083000F3DC2046FFF706FE2078000602D50220F2
:10084000BDE8F0870120FBE710B5436913B1AFF3B2
:10085000008001E0FFF707FE012010BD127800F1D3
:1008600024010A7000224A700122EDE711684FF05E
:10087000FF32E9E7074B70B50D467B4400F037F8CF
:100880000446284600F046F810B14FF0FF3070BD26
:10089000204670BDFB5C00004FF000020429C0F050
:1008A000128010F0030C00F03B80CCF1040CBCF182
:1008B000020F18BF00F8012BA8BF20F8022BA1EBF4
:1008C0000C0100F02DB85FEAC17C24BF00F8012BB9
:1008D00000F8012B48BF00F8012B70470048704713
:1008E0004803002001694A1C02610878704700B57E
:1008F0008FB0CDE901310021059105497944CDE959
:10090000031011466846FFF73FFE0FB000BD000020
:10091000E5FFFFFF007B00F0800070474FF0000212
:1009200000B5134694469646203922BFA0E80C50E5
:10093000A0E80C50B1F12001BFF4F7AF090728BFC0
:10094000A0E80C5048BF0CC05DF804EB890028BF3C
:1009500040F8042B08BF704748BF20F8022B11F065
:10096000804F18BF00F8012B704700000048704707
:10097000480300207546FFF7F9FFAE4605006946BB
:10098000534620F00700854618B020B5FFF78AFCD3
:10099000BDE820404FF000064FF000074FF0000880
:1009A0004FF0000B21F00701AC46ACE8C009ACE801
:1009B000C009ACE8C009ACE8C0098D46704710B565
:1009C0000446AFF300802046BDE81040FFF756BC58
:1009D000FEE7704770B5B3F5804F05D06FF07041FA
:1009E00040F82210002070BD50F82230084C2340FF
:1009F000D1E9004544EA05148D688E892D0245EA47
:100A0000064589692C430C431C4340F82240E9E722
:100A10000000F0CFF0B50C6850F82450114A154092
:100A2000D1E90123D1E903671A433E4332434E69BA
:100A300032438E693243CE6932430E6A32434E6A84
:100A400032438E6A3243CE6A3243CE6B096B3243F5
:100A50000A432A43082B01D142F0400240F82420E7
:100A60000020F0BD8000F0FF30B500EB820042684E
:100A7000D1E9003443EA04138C688D89240244EAE6
:100A8000054423430C8A084D02F0404205EB045410
:100A900023430C7D6D0105EB0464896923430B43FB
:100AA00013434360002030BD0000F0FF90F8351084
:100AB000022903D08021416501207047052180F87B
:100AC00035100068016821F00101016000207047C5
:100AD0002DE9F84FDFF88C91002209F1040A0AF1A0
:100AE000040B4FF00F080BF1040E01260B68964023
:100AF0003340B34271D14C68022C01D0122C11D179
:100B0000D40800EB84073D6A5407E40E08FA04FC9D
:100B100025EA0C05D1F810C00CFA04FC4CEA050CCF
:100B2000C7F820C007685400032591F804C0A54009
:100B30000CF0030CAF430CFA04FC4CEA070CC0F8B1
:100B400000C04F68012F05D0022F03D0112F01D014
:100B5000122F11D18768D1F80CC0AF430CFA04FCF6
:100B60004CEA070CC0F808C04768B7430E79C6F3D3
:100B7000001696403E434660C668AE438D68A54069
:100B80003543C5604C68E40065D5374C256845F4AD
:100B900080452560246822F0030504F48044009415
:100BA000324C2E19D6F808789407250F08FA05F468
:100BB000A7432F4CA04201D1002424E02D4CA04299
:100BC00001D101241FE02C4CA04201D102241AE0E3
:100BD0002A4CA04202D1032415E03CE0284CA0425C
:100BE00001D104240FE0274CA04201D105240AE0E2
:100BF000254CA04201D1062405E0244CA04201D19D
:100C0000072400E00824AC403C43C6F80848D9F863
:100C100000404D464E689C43F60300D51C432C60B3
:100C2000DAF8004055464E689C43B60300D51C4395
:100C30002C60DBF800405D464E689C43F60200D510
:100C40001C432C60DEF8004075464E689C43B6029B
:100C500000D51C432C60521C102AFFF446AFBDE89F
:100C6000F88F0000003C0140443802400030014051
:100C7000000002400004024000080240000C024054
:100C8000001002400014024000180240001C024004
:100C90000069084000D0012070470AB181617047A7
:100CA0000904FBE701480068000C7047002004E0DD
:100CB00001488068704700000400002002488168F5
:100CC000027811448160704704000020094810B583
:100CD000016841F400710160016841F480610160C4
:100CE000052000F057F80F2000F006F800F024F877
:100CF000002010BD003C024070B50D4D04464FF47D
:100D00007A712878B1FBF0F00A490968B1FBF0F07C
:100D100000F058FB48B9102C07D200222146501E83
:100D200000F018F800206C6070BD012070BD00005C
:100D300004000020000000207047002809DB00F0BC
:100D40001F02012191404009800000F1E020C0F81D
:100D500000117047F0B40E4B1B68C3F30223C3F1BC
:100D60000704042C00D904241D1D072D01D20023E3
:100D700000E0DB1E012606FA04F56D1E0D409D40C5
:100D80009E40761E164045EA0601F0BC04F0B7B955
:100D90000CED00E0064A00F0070110684FF6FF0373
:100DA000184040EA012003490843106070470000E2
:100DB0000CED00E00000FA052DE9F0470D460400B7
:100DC00065D0DFF81491D9F80000EFB200F00F0001
:100DD000A84207D289F80070D9F8000000F00F008F
:100DE000A84254D120683D4E810712D5400703D553
:100DF000306840F4E05030602078000703D5306858
:100E000040F4604030603068A16820F0F000084392
:100E100030602078C0072DD030496068083901283B
:100E200012D0022813D0032811D00968890700299D
:100E30002DDA316821F0030101433160FFF738FFFB
:100E4000804641F2883A0EE009688903EFE70968B5
:100E50008901ECE7FFF72CFFA0EB0801514502D90F
:100E60000320BDE8F0873068616800F00C00B0EB4B
:100E7000810FEFD1D9F80010484601F00F01A942C7
:100E800007D90770006800F00F00A84201D00120C8
:100E9000E7E72078400705D53068E16820F4E050A6
:100EA000084330602078000706D53068216920F4B7
:100EB000604040EAC100306000F036F83168084A0E
:100EC000C1F30311515CC840064908600F20FFF7C9
:100ED00013FF0020C5E70000003C02400838024034
:100EE000A69B000800000020044805490068096826
:100EF000044AC1F38221515CC840704700000020C1
:100F000008380240B69B0008044805490068096893
:100F1000044AC1F34231515CC840704700000020D0
:100F200008380240B69B0008154810B5006810F05C
:100F30000C01144813D0431004290FD008290ED1F6
:100F40000F4C241F216801F03F022168490207D598
:100F50002068C0F38810A0FB030106E0184610BD0E
:100F60002168C1F38811A1FB00010023FFF7ADF94F
:100F70002168C1F30141491C4900B0FBF1F010BDEB
:100F8000083802400024F4002DE9F84F040073D023
:100F90002078BD4DC00748D0BB4808300168C1F378
:100FA0008101012908D00068C0F3810002280AD11C
:100FB000281D0068400206D52868800335D5606882
:100FC0000028E4D031E06068B0F5803F10D0B0F583
:100FD000A02F286810D020F480302860286820F4E2
:100FE000802028606068A0B1FFF762FE06460CE032
:100FF000286840F48030F4E740F480202860F7E768
:10100000FFF756FE801B642872D828688003F7D546
:101010000BE0FFF74DFE064604E0FFF749FE801B9C
:101020006428F1D828688003F7D42078DFF85C9230
:1010300080074FF0000A3ED593480830016811F050
:101040000C0F09D00068C0F3810002280BD18E4834
:10105000001D0068400206D42868800715D5E068A6
:10106000012809D111E0E068B8B10120C9F80000F9
:10107000FFF71EFE064605E003E1FFF719FE801BA1
:101080000228C1D828688007F7D52868216920F090
:10109000F80040EAC10028600DE0C9F800A0FFF7A1
:1010A00007FE064604E0FFF703FE801B02281FD858
:1010B00028688007F7D42078000722D5724F74493A
:1010C0006069743770B101200860FFF7F1FD0646D2
:1010D00004E0FFF7EDFD801B022809D8386880077F
:1010E000F7D50EE0C1F800A0FFF7E2FD064605E0E7
:1010F00081E0FFF7DDFD801B02287CD8386880077F
:10110000F7D42078400769D5DFF87CB14FF00008AC
:101110000BF1400BDBF80000C0000CD4DBF8001032
:1011200041F08051CBF80010DBF800004FF00108CF
:1011300000F080500090574F3868C0050FD43868D1
:1011400040F480703860FFF7B3FD064604E0FFF717
:10115000AFFD801B02284ED83868C005F7D54A4F2E
:10116000A068703701280FD00528386810D020F00B
:1011700001003860386820F004003860A068B0B121
:10118000FFF796FD06460EE0386840F00100F4E7F0
:1011900040F004003860F7E7FFF78AFD811B41F259
:1011A0008830814265D838688007F5D50DE0FFF7B3
:1011B0007FFD064606E0FFF77BFD811B41F288308C
:1011C000814256D838688007F5D4B8F1000F05D0B1
:1011D000DBF8001021F08051CBF80010A069C8B3F3
:1011E000294908310968C1F38101022949D002283F
:1011F000504607D000E03CE0C9F86000FFF758FD1A
:10120000044639E04F46C9F86000FFF751FD064635
:1012100004E0FFF74DFD801B02282AD828688001D2
:10122000F7D4D4E907010843A16A1B4A490802EB35
:101230000141626A41EA8211084394F82C1040EAA5
:1012400001611148001D016001203866FFF730FD83
:10125000044605E013E0FFF72BFD001B022808D829
:1012600028688001F7D50AE0FFF722FD001B02285D
:1012700002D90320BDE8F88F28688001F4D400204B
:10128000F8E70120F6E7000000380240000047427E
:10129000800E4742007000400000FFFF70B5154609
:1012A0000E46040003D094F8490010B107E0012075
:1012B00070BD002084F84800204600F01BF804F1BF
:1012C00008012068FFF7A6FB3146A2682068FFF7F7
:1012D000CBFBD4E901022946236BFFF77BFBA16816
:1012E000206850F8212042F0010240F8212000201F
:1012F00070BD0000284810B5016886B041F00101BA
:101300000160006800F0010005902348083801687A
:1013100041F008010160016801F0080105910168D0
:1013200041F010010160016801F0100105910168B0
:1013300041F020010160016801F020010591016880
:1013400041F0400101600068694600F040000590EE
:101350004CF2337000900220019001200290032093
:1013600003900C2004900D48FFF7B2FB4FF68070FD
:10137000009069460A48FFF7ABFB4FF4805469467A
:1013800008480094FFF7A4FB694607480094FFF75C
:101390009FFB06B010BD000038380240000C024030
:1013A0000010024000140240001802404FF0E021FB
:1013B0000428086903D020F004000861704740F059
:1013C0000400FAE710B5401EB0F1807F01D3012080
:1013D00010BD4FF0E02460610F21601703F08FFE15
:1013E0000020A06107202061002010BD10B504007E
:1013F00003D094F83D0010B107E0012010BD00209B
:1014000084F83C00204600F00CF8022084F83D00EF
:10141000211D206803F0CCFB012084F83D00002052
:1014200010BD70470168CA6842F00102CA600068D6
:10143000816801F00701062903D0016841F001012C
:10144000016000207047704710F8391F407808434A
:101450007047000070B5026804461068D16853698F
:1014600010F00F0F50D003F0010501F490763543D2
:101470005DD0C20705D0CA0503D5E26B42F0010278
:10148000E263420705D5DA0703D0E26B42F00202BD
:10149000E263820705D5DA0703D0E26B42F004026B
:1014A000E263020705D5DA0703D0E26B42F00802D7
:1014B000E263E26B002A33D0800604D5880602D5A9
:1014C000204603F019FC20684069E16BC0F38010EE
:1014D000090700D428B3204603F000FC20684169C6
:1014E00049061AD5416921F040014161606BA0B104
:1014F0001B490165606BFFF7D9FA002810D0606BBB
:10150000016DBDE870400847830610D58B060ED5E7
:101510002046BDE8704003F0EFBB2046FFF793FF85
:1015200070BD2046FFF78FFF0020E06370BD03060B
:1015300006D50B0604D52046BDE8704003F07EBDFD
:101540004006F3D54806F1D5D168204621F0400188
:10155000D160202184F8391000F0CAF870BD000075
:10156000CD4C000870B5040004D094F83900002573
:1015700010B106E0012070BD84F83850204600F01C
:1015800023F8242084F839002068C16821F4005130
:10159000C160204603F0FCFB2068016921F4904102
:1015A00001612068416921F02A0141612068C16818
:1015B00041F40051C160E563202084F8390084F8CB
:1015C0003A00002070BD000010B500681A4986B0CE
:1015D00088422FD11948016841F00101016000687B
:1015E00000F00100059015481430016841F0100129
:1015F00001600068012100F0100005904FF40070B8
:1016000000900220CDE90101039007200C4C0490CA
:1016100069462046FFF75CFA21150091694620468D
:10162000FFF756FA2520FFF788FB032211462520F5
:10163000FFF790FB06B010BD0010014030380240AB
:101640000000024090F83A30202B22D1F9B1F2B1DB
:1016500090F83830012B1CD081628285C285002130
:10166000C163222280F83A2080F838100168CA68E5
:1016700042F48072CA6001684A6942F001024A611C
:101680000068C16841F02001C1600020704701205E
:10169000704702207047000030B500681149884249
:1016A0000CD1114A5088010408D411464404097829
:1016B0004FF0000306D50A2901D0538030BD40F415
:1016C00000400DE00D2909D0C0F30D04074D401C6A
:1016D00080B229555080C728EFD830BD40F48040F3
:1016E000508030BD00100140140000209001002007
:1016F0007047FEE770B50D4C0025C4F8A0520C48A9
:10170000016821F440210160016841F480210160F9
:10171000C4F8A452022004F5287404F03DFA012014
:101720002060022004F038FA256070BD008040423D
:10173000000402400E4810B5016886B041F0020175
:1017400001600068012400F0020005904FF4407031
:10175000CDE900040220CDE9024069460548FFF7C3
:10176000B7F90548C0F8A442C0F8A04206B010BDC1
:1017700030380240000402400080404270B50D4CF9
:101780000026C4F8A0620C48016821F440210160E1
:10179000016841F4802101600125C4F8A4520220AF
:1017A00004F5287404F0F8F92560022004F0F4F937
:1017B000266070BD00804042000402402DE9F047E1
:1017C000814616480024016821F440210160016827
:1017D0000160134E254627464FF00108C6F8A07257
:1017E000022004F0D9F9C6F8A0826006040ED6F8EB
:1017F000240208B1641CE4B2012004F0CDF96D1C90
:10180000EDB2082DEAD3B9F1000F04D0FFF772FF53
:101810002046BDE8F087FFF7B1FFF9E7000402407A
:10182000008040422DE9F04105461448016821F44A
:1018300040210160016841F480210160104E0027C1
:10184000C6F8A0723C464FF00108E809C6F8A402A9
:101850006806050E022004F09FF9C6F8A082022057
:1018600004F09AF9C6F8A072022004F095F9641CFD
:10187000E4B2082CE9D3BDE8F08100000004024086
:101880000080404270B50D48016821F4402101609C
:10189000016841F480210160094C0120C4F8A402D0
:1018A000C4F8A002042004F5287404F075F900259A
:1018B0006560042004F070F9256070BD00040240EA
:1018C000008040420E4810B5016821F440210160BB
:1018D000016841F4802101600A4C0020C4F8A00294
:1018E000C4F8A402042004F5287404F055F901207A
:1018F00020606060BDE81040042004F04DB9000095
:10190000000402400080404270B512480024016883
:1019100021F440210160016801600F4D0126C5F8E6
:10192000A462304604F038F9C5F8A062012004F042
:1019300033F907E0641CE4B2FA2C03D9FFF7C2FFC5
:10194000012070BDD5F824020028F3D1C5F8A0020B
:1019500070BD0000000402400080404270B5144891
:1019600086B00025016841F001010160016801F0C5
:1019700001010591016841F0100101600068032434
:1019800000F01000059002200126CDE90204CDE907
:10199000006569460748FFF79BF81C2003948DE813
:1019A000610069460448FFF793F806B070BD000077
:1019B0003038024000000240001002402DE9F041A2
:1019C00001262E4C2E4F2F4D01281DD02078A0B17E
:1019D00010212846FFF75CF9C0B108212846FFF71F
:1019E00057F998B104212846FFF752F970B1012147
:1019F0003846FFF74DF9012808D010212846FFF797
:101A000047F9012826D037E02670E1E70A2004F0E4
:101A1000B5F80020207010212846FFF739F980B171
:101A200008212846FFF734F970B104212846FFF752
:101A30002FF958B101213846FFF72AF9012807D0BC
:101A40001AE00120BDE8F0810220FBE70320F9E75E
:101A50000420F7E708212846FFF71AF901280BD1DF
:101A600004212846FFF714F9012805D10121384641
:101A7000FFF70EF900B926700020E3E724000020EC
:101A8000000002400010024070B506460A480024DB
:101A90000188458820464D43214602F0E7FC02F0CC
:101AA00049FEB1B24FF0D84002E0A0F88010641CAB
:101AB000AC42FAD370BD0000E80200202DE9F04FDF
:101AC0002B4B2C27194698712B2589884FF4305AB7
:101AD0004FF4285B4FF4487441F6631E2A264FF0FA
:101AE000F00845F210594FF4A07C4FF4F072C8B1E1
:101AF000A3F800C0A3F80280494533D1A3F808A099
:101B0000A3F80AB0280298811C805A80A1F5A6404B
:101B1000103802D11A80A3F802C0BDE8F04F0020AF
:101B200002F0D4BBA3F80080A3F802C0494507D156
:101B3000A3F808A0A3F80AB04FF42C50988104E051
:101B400071451F8104D15D819E811A805C8001E016
:101B50005E819D81A1F5A6401038DED1A3F800C0BA
:101B60005A80DAE71F815E8171459D81CCD0CDE737
:101B7000E80200202DE9F041314D90460C46024626
:101B8000060AA9882846270A4089A1F5AA43103BDE
:101B90000FD0A1F5C853633B24D002F0BEFD304600
:101BA00002F0AFFDD0B202F0ACFDA88902F0B5FDA5
:101BB00036E002F0B2FD304602F0A3FD6889401C19
:101BC00080B202F0AAFDD0B202F09BFDA88902F01B
:101BD000A4FD384602F095FDA889401C80B202F0B1
:101BE0009CFD20E0A97919B92988891A491E8AB271
:101BF00002F093FD160A304602F083FDD0B202F0E7
:101C000080FD304602F07DFDD0B202F07AFDA88959
:101C100002F083FD384602F074FDE0B202F071FD7F
:101C2000384602F06EFDE0B202F06BFD4FF0D84195
:101C3000288921F87E0FA1F80280BDE8F08100001C
:101C4000E80200202DE9F0431F468146A2EB09007F
:101C5000079B401C0C4686B29DB24FF0D84810E05E
:101C60002146484602F002FC02F064FD0020414695
:101C700003E0A1F88050401C80B2B042F9D3641C4C
:101C8000A4B2BC42ECD9BDE8F08300002DE9F04FCE
:101C9000FF4895B00024016841F00201016000682E
:101CA0000EA900F0020013904FF400400E900120A6
:101CB0000F90109003201190F648FEF709FFF648A8
:101CC000F6494FF02049C0E900910621C0E902140D
:101CD0001021C0E9044184610902C461C0E90941DD
:101CE0008900C0E90B4189014463C0E90E410F201E
:101CF000CDE907043C2009900920CDE90004082023
:101D00000D94029003946A4607A90694E248FFF7EF
:101D1000C5FA322003F032FFD32002F0FEFC02F0BD
:101D2000A3FADD4E5036B08002F09EFA314688802C
:101D300002F09AFA4FF6FF7B31460BEA00208880CA
:101D400002F092FA314645F21037898845F2105573
:101D50000843314641F663188880A0F5134147F2E5
:101D6000897441397CD0042002F0D7FC02F07CFA5F
:101D7000B08002F079FAB08002F076FA0BEA002027
:101D80005A46B08002F070FAB1880843A0F50541C8
:101D9000B080523960D0A04262D0D42002F0BDFCA5
:101DA00002F062FAB08002F05FFAB08002F05CFAF2
:101DB00002EA00209246B08002F056FAB188084349
:101DC000B080B8424CD055214FF4704002F0BCFCBA
:101DD000AA214FF2010002F0B7FC52214FF202009B
:101DE00002F0B2FC08214FF2030002F0ADFC012129
:101DF0004FF2040002F0A8FC4FF4454002F08DFCC5
:101E000002F032FA0AEA0020B0804CF2015002F0EF
:101E100084FC02F029FAB1880843B080052003F061
:101E2000ADFEB088B0F5004F7ED0A84218D0A120FA
:101E300002F073FC02F018FAB08002F015FA0AEA18
:101E40000020B08002F010FAB1880843A0F5AE413E
:101E5000B080613902D003E0B48001E0A6F80480CC
:101E6000B1888FA0FEF7CCFAB08849F2413A5045CC
:101E70007ED1CF2002F051FC002002F042FCC120B4
:101E800002F03FFC302002F03CFCED2002F045FC6B
:101E9000642002F036FC032002F033FC122002F032
:101EA00030FC812002F02DFCE82002F036FC852079
:101EB00002F027FC102002F024FC7A2002F021FC22
:101EC000CB2002F02AFC392002F01BFC2C2002F06F
:101ED00018FC002002F015FC342002F012FC022055
:101EE00002F00FFCF72002F018FC202002F009FCA1
:101EF000EA2002F012FC002002F003FC002002F0B5
:101F000000FCC02002F009FC1B2002F0FAFBC120FB
:101F100002F003FC012002F0F4FBC52002F0FDFBFF
:101F2000302002F0EEFB00E0CBE0302002F0E9FBD5
:101F3000C72002F0F2FBB72002F0E3FB362002F0EC
:101F4000ECFB482002F0DDFB3A2002F0E6FB5520D6
:101F500002F0D7FBB12002F0E0FB002002F0D1FB41
:101F60001A2002F0CEFBB62002F0D7FB0A2000E0D8
:101F7000A9E002F0C6FBA22002F0C3FBF22002F0AF
:101F8000CCFB002002F0BDFB262002F0C6FB0120A6
:101F900002F0B7FBE02002F0C0FB0F2002F0B1FB23
:101FA0002A2002F0AEFB282002F0ABFB082002F052
:101FB000A8FB0E2002F0A5FB082002F0A2FB542093
:101FC00002F09FFBA92002F09CFB432002F099FB4A
:101FD0000A2002F096FB0F2002F093FB002002F093
:101FE00090FB002002F08DFB002002F08AFB002015
:101FF00002F087FBE12002F090FB002002F081FB61
:10200000152002F07EFB172002F07BFB072002F078
:1020100078FB112002F075FB062002F072FB2B20EA
:1020200002F06FFB562002F06CFB3C2002F069FBD3
:10203000052002F066FB102002F063FB0F2002F087
:1020400060FB3F2002F05DFB3F2002F05AFB0F20B7
:1020500002F057FB2B2002F060FB002002F051FB46
:10206000002002F04EFB012002F04BFB3F2002F06B
:1020700048FB2A2002F051FB002002F042FB002026
:1020800002F03FFB002002F03CFBEF2010E00000DC
:10209000303802400004024098020020040100A0F1
:1020A000204C43442049443A25780D0A00000000A2
:1020B00002F027FB112002F030FB782003F05EFDD8
:1020C000D4E0B580CCE6A0427ED1112002F025FB01
:1020D000782003F053FD362002F01FFB002002F0B1
:1020E00010FB3A2002F019FB052002F00AFBB22097
:1020F00002F013FB0C2002F004FB0C2002F001FBA9
:10210000002002F0FEFA332002F0FBFA332002F046
:10211000F8FAB72002F001FB352002F0F2FABB20FA
:1021200002F0FBFA322002F0ECFAC02002F0F5FADD
:102130000C2002F0E6FAC22002F0EFFA012002F0D1
:10214000E0FAC32002F0E9FA102002F0DAFAC42023
:1021500002F0E3FA202002F0D4FAC62002F0DDFA01
:102160000F2002F0CEFAD02002F0D7FAA42002F01D
:10217000C8FAA12002F0C5FAE02002F0CEFAD02081
:1021800002F0BFFA002002F0BCFA022002F0B9FA15
:10219000072002F0B6FA0A2002F0B3FA282002F073
:1021A000B0FA322002F0ADFA442002F0AAFA42203E
:1021B00002F0A7FA062002F0A4FA0E2002F0A1FA1B
:1021C000122002F09EFA00E053E0142002F099FA87
:1021D000172002F096FAE12002F09FFAD02002F0D8
:1021E00090FA002002F08DFA022002F08AFA07200D
:1021F00002F087FA0A2002F084FA282002F081FA1D
:10220000312002F07EFA542002F07BFA472002F0DF
:1022100078FA0E2002F075FA1C2002F072FA1720EC
:1022200002F06FFA1B2002F06CFA1E2002F069FA2D
:102230002A2002F072FA002002F063FA002002F075
:1022400060FA002002F05DFAEF2002F05AFA2B202B
:1022500002F063FA002002F054FA002002F051FA72
:10226000012002F04EFA3F2002F04BFA292001F043
:10227000FEBEB8427ED1ED2002F04FFA012002F0FE
:1022800040FAFE2002F03DFAEE2002F046FADE208F
:1022900002F037FA212002F034FAF12002F03DFA80
:1022A000012002F02EFADF2002F037FA102002F0AF
:1022B00028FAC42002F031FA8F2002F022FAC62058
:1022C00002F02BFA002002F01CFAE22002F019FAC8
:1022D000E22002F016FAE22002F013FABF2002F028
:1022E0001CFAAA2002F00DFAB02002F016FA0D2016
:1022F00002F007FA002002F004FA0D2002F001FAC1
:10230000002002F0FEF9112002F0FBF9002002F09B
:10231000F8F9192002F0F5F9002002F0F2F9212075
:1023200002F0EFF9002002F0ECF92D2002F0E9F9BB
:10233000002002F0E6F93D2002F0E3F9002002F06F
:10234000E0F95D2002F0DDF9002002F0DAF95D200D
:1023500002F0D7F9002002F0D4F9B12002F0DDF943
:10236000802002F0CEF9002002F0CBF98B2002F0A1
:10237000C8F900E0FDE3002002F0C3F9962002F066
:10238000C0F9002002F0BDF9B22002F0C6F9002029
:1023900002F0B7F9002002F0B4F9022002F0B1F91E
:1023A000002002F0AEF9032002F0ABF9002002F0A9
:1023B000A8F9B32002F0B1F9002002F0A2F9002040
:1023C00002F09FF9002002F09CF9002002F099F938
:1023D000002002F096F9002002F093F9002002F0AC
:1023E00090F9002002F08DF9002002F08AF9002017
:1023F00002F087F9002002F084F9002002F081F950
:10240000002002F07EF9002002F07BF9002002F0AB
:1024100078F9002002F075F9002002F072F900202E
:1024200002F06FF9002002F06CF9002002F069F967
:10243000002002F066F9002002F063F9002002F0AB
:1024400060F9002002F05DF9B42002F066F98B20FB
:1024500002F057F9002002F054F9962002F051F9E9
:10246000002002F04EF9A12002F04BF9002002F00A
:1024700048F9B52002F051F9022002F042F900209B
:1024800002F03FF9032002F03CF9002002F039F994
:10249000042002F036F9002002F033F9B62002F0F1
:1024A0003CF9002002F02DF9002002F02AF9B720B3
:1024B00002F033F9002002F024F9002002F021F9A3
:1024C0003F2002F01EF9002002F01BF95E2002F00E
:1024D00018F9002002F015F9642002F012F900202A
:1024E00002F00FF98C2002F00CF9002002F009F93B
:1024F000AC2002F006F9002002F003F9DC2002F023
:1025000000F9002002F0FDF8702002F0FAF8002037
:1025100002F0F7F8902002F0F4F8002002F0F1F851
:10252000EB2002F0EEF8002002F0EBF8DC2002F0E5
:10253000E8F8002002F0E5F8B82002F0EEF80020FC
:1025400002F0DFF8002002F0DCF8002002F0D9F8F9
:10255000002002F0D6F8002002F0D3F8002002F0AC
:10256000D0F8002002F0CDF8002002F0CAF8BA201E
:1025700002F0D3F8242002F0C4F8002002F0C1F8E1
:10258000002002F0BEF8002002F0BBF8C12002F0EB
:10259000C4F8202002F0B5F8002002F0B2F8542070
:1025A00002F0AFF8002002F0ACF8FF2002F0A9F82A
:1025B000002002F0A6F8C22002F0AFF80A2002F0D4
:1025C000A0F8002002F09DF8042002F09AF8002004
:1025D00002F097F8C32002F0A0F83C2002F091F836
:1025E000002002F08EF83A2002F08BF8002002F072
:1025F00088F8392002F085F8002002F082F83720B0
:1026000002F07FF8002002F07CF83C2002F079F81C
:10261000002002F076F8362002F073F8002002F075
:1026200070F8322002F06DF8002002F06AF82F20D6
:1026300002F067F8002002F064F82C2002F061F844
:10264000002002F05EF8292002F05BF8002002F082
:1026500058F8262002F055F8002002F052F8242005
:1026600002F04FF8002002F04CF8242002F049F864
:10267000002002F046F8232002F043F8002002F088
:1026800040F83C2002F03DF8002002F03AF83620F5
:1026900002F037F8002002F034F8322002F031F86E
:1026A000002002F02EF82F2002F02BF8002002F07C
:1026B00028F82C2002F025F8002002F022F829202A
:1026C00002F01FF8002002F01CF8262002F019F892
:1026D000002002F016F8242002F013F8002002F087
:1026E00010F8242002F00DF8002002F00AF8232050
:1026F00002F007F8002002F004F8C42002F00DF800
:10270000622001F0FEFF002001F0FBFF052001F038
:10271000F8FF002001F0F5FF842001F0F2FF002017
:1027200001F0EFFFF02001F0ECFF002001F0E9FFE5
:10273000182001F0E6FF002001F0E3FFA42001F0E3
:10274000E0FF002001F0DDFF182001F0DAFF00209B
:1027500001F0D7FF502001F0D4FF002001F0D1FF9D
:102760000C2001F0CEFF002001F0CBFF172001F07C
:10277000C8FF002001F0C5FF952001F0C2FF002036
:1027800001F0BFFFF32001F0BCFF002001F0B9FF12
:10279000E62001F0B6FF002001F0B3FFC52001F0F4
:1027A000BCFF322001F0ADFF002001F0AAFF442061
:1027B00001F0A7FF002001F0A4FF652001F0A1FFB8
:1027C000002001F09EFF762001F09BFF002001F029
:1027D00098FF882001F095FF002001F092FFC620AD
:1027E00001F09BFF202001F08CFF002001F089FF09
:1027F000172001F086FF002001F083FF012001F087
:1028000080FF002001F07DFFC72001F086FF00203F
:1028100001F077FF002001F074FF002001F071FF4C
:10282000002001F06EFFC82001F077FF002001F0CA
:1028300068FF002001F065FF002001F062FF00202A
:1028400001F05FFFC92001F068FF002001F059FF8F
:10285000002001F056FF002001F053FF002001F09E
:1028600050FF002001F04DFF002001F04AFF002042
:1028700001F047FF002001F044FF002001F041FF7C
:10288000002001F03EFF002001F03BFF002001F09E
:1028900038FF002001F035FF002001F032FF00205A
:1028A00001F02FFF002001F02CFFE02001F035FFA8
:1028B000162001F026FF002001F023FF1C2001F06C
:1028C00020FF002001F01DFF212001F01AFF002051
:1028D00001F017FF362001F014FF002001F011FF76
:1028E000462001F00EFF002001F00BFF522001F006
:1028F00008FF002001F005FF642001F002FF002026
:1029000001F0FFFE7A2001F0FCFE002001F0F9FE4C
:102910008B2001F0F6FE002001F0F3FE992001F07B
:10292000F0FE002001F0EDFEA82001F0EAFE0020FC
:1029300001F0E7FEB92001F0E4FE002001F0E1FE25
:10294000C42001F0DEFE002001F0DBFECA2001F011
:10295000D8FE002001F0D5FED22001F0D2FE0020EA
:1029600001F0CFFED92001F0CCFE002001F0C9FE1D
:10297000E02001F0C6FE002001F0C3FEF32001F0CC
:10298000C0FE002001F0BDFEE12001F0C6FE1620D1
:1029900001F0B7FE002001F0B4FE1C2001F0B1FEF2
:1029A000002001F0AEFE222001F0ABFE002001F07D
:1029B000A8FE362001F0A5FE002001F0A2FE452071
:1029C00001F09FFE002001F09CFE522001F099FED4
:1029D000002001F096FE642001F093FE002001F03B
:1029E00090FE7A2001F08DFE002001F08AFE8B20FF
:1029F00001F087FE002001F084FE992001F081FEA5
:102A0000002001F07EFEA82001F07BFE002001F0F6
:102A100078FEB92001F075FE002001F072FEC4209E
:102A200001F06FFE002001F06CFECA2001F069FE8B
:102A3000002001F066FED22001F063FE002001F0CC
:102A400060FED82001F05DFE002001F05AFEE0207B
:102A500001F057FE002001F054FEF32001F051FE7A
:102A6000002001F04EFEE22001F057FE052001F0AB
:102A700048FE002001F045FE0B2001F042FE002040
:102A800001F03FFE1B2001F03CFE002001F039FE6A
:102A9000342001F036FE002001F033FE442001F026
:102AA00030FE002001F02DFE4F2001F02AFE002014
:102AB00001F027FE612001F024FE002001F021FE3C
:102AC000792001F01EFE002001F01BFE882001F09D
:102AD00018FE002001F015FE972001F012FE0020E4
:102AE00001F00FFEA62001F00CFE002001F009FE0F
:102AF000B72001F006FE002001F003FEC22001F025
:102B000000FE002001F0FDFDC72001F0FAFD0020CD
:102B100001F0F7FDD12001F0F4FD002001F0F1FDFE
:102B2000D62001F0EEFD002001F0EBFDDD2001F0EC
:102B3000E8FD002001F0E5FDF32001F0E2FD0020BA
:102B400001F0DFFDE32001F0E8FD052001F0D9FDF3
:102B5000002001F0D6FD0A2001F0D3FD002001F095
:102B6000D0FD1C2001F0CDFD002001F0CAFD332076
:102B700000E0FAE201F0C5FD002001F0C2FD4420B2
:102B800001F0BFFD002001F0BCFD502001F0B9FDB7
:102B9000002001F0B6FD622001F0B3FD002001F03D
:102BA000B0FD782001F0ADFD002001F0AAFD8820E5
:102BB00001F0A7FD002001F0A4FD972001F0A1FD88
:102BC000002001F09EFDA62001F09BFD002001F0F9
:102BD00098FDB72001F095FD002001F092FDC22084
:102BE00001F08FFD002001F08CFDC72001F089FD70
:102BF000002001F086FDD12001F083FD002001F0CE
:102C000080FDD52001F07DFD002001F07AFDDD2062
:102C100001F077FD002001F074FDF32001F071FD5B
:102C2000002001F06EFDE42001F077FD012001F0AD
:102C300068FD002001F065FD012001F062FD00202B
:102C400001F05FFD022001F05CFD002001F059FD64
:102C50002A2001F056FD002001F053FD3C2001F038
:102C600050FD002001F04DFD4B2001F04AFD0020F9
:102C700001F047FD5D2001F044FD002001F041FD21
:102C8000742001F03EFD002001F03BFD842001F0A6
:102C900038FD002001F035FD932001F032FD0020C9
:102CA00001F02FFDA22001F02CFD002001F029FDF4
:102CB000B32001F026FD002001F023FDBE2001F02D
:102CC00020FD002001F01DFDC42001F01AFD0020B0
:102CD00001F017FDCD2001F014FD002001F011FDE1
:102CE000D32001F00EFD002001F00BFDDD2001F0EE
:102CF00008FD002001F005FDF32001F002FD002099
:102D000001F0FFFCE52001F008FD002001F0F9FCD6
:102D1000002001F0F6FC002001F0F3FC002001F09F
:102D2000F0FC022001F0EDFC002001F0EAFC29207B
:102D300001F0E7FC002001F0E4FC3C2001F0E1FCA4
:102D4000002001F0DEFC4B2001F0DBFC002001F054
:102D5000D8FC5D2001F0D5FC002001F0D2FC7420ED
:102D600001F0CFFC002001F0CCFC842001F0C9FC74
:102D7000002001F0C6FC932001F0C3FC002001F00C
:102D8000C0FCA22001F0BDFC002001F0BAFCB32081
:102D900001F0B7FC002001F0B4FCBE2001F0B1FC52
:102DA000002001F0AEFCC42001F0ABFC002001F0DB
:102DB000A8FCCD2001F0A5FC002001F0A2FCD3204E
:102DC00001F09FFC002001F09CFCDC2001F099FC4C
:102DD000002001F096FCF32001F093FC002001F0AC
:102DE00090FCE62001F099FC112001F08AFC002003
:102DF00001F087FC342001F084FC002001F081FC0C
:102E0000562001F07EFC002001F07BFC762001F0D2
:102E100078FC002001F075FC772001F072FC0020A6
:102E200001F06FFC662001F06CFC002001F069FCF1
:102E3000882001F066FC002001F063FC992001F07D
:102E400060FC002001F05DFCBB2001F05AFC00207A
:102E500001F057FC992001F054FC002001F051FCD6
:102E6000662001F04EFC002001F04BFC552001F0E3
:102E700048FC002001F045FC552001F042FC0020F8
:102E800001F03FFC452001F03CFC002001F039FC42
:102E9000432001F036FC002001F033FC442001F017
:102EA00030FC002001F02DFCE72001F036FC322040
:102EB00001F027FC002001F024FC552001F021FC4A
:102EC000002001F01EFC762001F01BFC002001F028
:102ED00018FC662001F015FC002001F012FC6720B0
:102EE00001F00FFC002001F00CFC672001F009FC50
:102EF000002001F006FC872001F003FC002001F017
:102F000000FC992001F0FDFB002001F0FAFBBB2042
:102F100001F0F7FB002001F0F4FB992001F0F1FB38
:102F2000002001F0EEFB772001F0EBFB002001F028
:102F3000E8FB442001F0E5FB002001F0E2FB562015
:102F400001F0DFFB002001F0DCFB232001F0D9FBC6
:102F5000002001F0D6FB332001F0D3FB002001F06C
:102F6000D0FB452001F0CDFB002001F0CAFBE8209A
:102F700001F0D3FB002001F0C4FB002001F0C1FBF5
:102F8000992001F0BEFB002001F0BBFB872001F07F
:102F9000B8FB002001F0B5FB882001F0B2FB002057
:102FA00001F0AFFB772001F0ACFB002001F0A9FBA2
:102FB000662001F0A6FB002001F0A3FB882001F0B1
:102FC000A0FB002001F09DFBAA2001F09AFB00204D
:102FD00001F097FBBB2001F094FB002001F091FB76
:102FE000992001F08EFB002001F08BFB662001F0A0
:102FF00088FB002001F085FB552001F082FB0020BA
:1030000001F07FFB552001F07CFB002001F079FBF3
:10301000442001F076FB002001F073FB442001F016
:1030200070FB002001F06DFB552001F06AFB0020D1
:1030300001F067FBE92001F070FBAA2001F061FBC1
:10304000002001F05EFB002001F05BFB002001F09E
:1030500058FB002001F061FBAA2001F052FBCF20B9
:1030600001F05BFB002001F04CFB002001F049FB6C
:10307000002001F046FB002001F043FB002001F09E
:1030800040FB002001F03DFB002001F03AFB002056
:1030900001F037FB002001F034FB002001F031FB90
:1030A000002001F02EFB002001F02BFB002001F09E
:1030B00028FB002001F025FB002001F022FB00206E
:1030C00001F01FFB002001F01CFBF02001F025FBAC
:1030D000002001F016FB502001F013FB002001F04E
:1030E00010FB002001F00DFB002001F00AFBF32093
:1030F00001F013FB002001F004FBF92001F00DFBAF
:10310000062001F0FEFA102001F0FBFA292001F060
:10311000F8FA002001F0F5FA3A2001F0FEFA552005
:1031200001F0EFFA112001F0F8FA642002F026FD18
:10313000292001F0F2FA352001F0EFFA002001F029
:10314000E0FA512001F0E9FAFF2001F0DAFA532009
:1031500001F0E3FA2C2001F0D4FA552001F0DDFA59
:10316000822001F0CEFA2C20FDE3A8427ED1552129
:103170004FF4704001F0E8FAAA214FF2010001F08B
:10318000E3FA52214FF2020001F0DEFA08214FF279
:10319000030001F0D9FA4FF204030121184601F0AF
:1031A000D3FA0D214FF4304001F0CEFA0D214BF24D
:1031B000010001F0C9FA0D214BF2020001F0C4FA3E
:1031C00034214FF4364001F0BFFA34214BF2016054
:1031D00001F0BAFA34214BF2026001F0B5FA0D2188
:1031E0004FF4314001F0B0FA0D214BF2011001F023
:1031F000ABFA0D214BF2021001F0A6FA34214FF484
:10320000374001F0A1FA34214BF2017001F09CFA31
:1032100034214BF2027001F097FA00214FF4324052
:1032200001F092FA00214BF2012001F08DFA002109
:103230004BF2022001F088FA24214FF4384001F0CB
:1032400083FA24214BF6010001F07EFA24214BF68B
:10325000020001F079FA01214FF43F4001F074FAC5
:103260000F214FF4334001F06FFA00E0FEE30F212D
:103270004BF2013001F068FA0F214BF2023001F0FD
:1032800063FA34214FF4394001F05EFA34214BF6F1
:10329000011001F059FA34214BF6021001F054FAF2
:1032A00008214FF4354001F04FFA08214BF201504C
:1032B00001F04AFA08214BF2025001F045FA0321CD
:1032C0004FF4424001F040FA24214FF43A4001F01B
:1032D0003BFA24214BF6012001F036FA24214BF66B
:1032E000022001F031FA00214FF43C4001F02CFAA9
:1032F00078214BF6014001F027FA00214BF60240FD
:1033000001F022FA00214FF43D4001F01DFA78212E
:103310004BF6015001F018FA00214BF6025001F073
:1033200013FA00214FF43E4001F00EFA64214BF6EF
:10333000016001F009FA00214FF4514001F004FA54
:1033400033214DF2011001F0FFF900214DF202107E
:1033500001F0FAF934214DF2031001F0F5F90021E2
:103360004DF2041001F0F0F93A214DF2051001F090
:10337000EBF900214DF2061001F0E6F94A214DF279
:10338000071001F0E1F900214DF2081001F0DCF91D
:103390005C214DF2091001F0D7F900214DF20A101D
:1033A00001F0D2F981214DF20B1001F0CDF900218D
:1033B0004DF20C1001F0C8F9A6214DF20D1001F0EC
:1033C000C3F900214DF20E1001F0BEF9E5214DF2D6
:1033D0000F1001F0B9F901214DF2101001F0B4F90C
:1033E00013214DF2111001F0AFF901214DF212102D
:1033F00001F0AAF954214DF2131001F0A5F90121B1
:103400004DF2141001F0A0F982214DF2151001F0D7
:103410009BF901214DF2161001F096F9CA214DF2E7
:10342000171001F091F902214DF2181001F08CF9FA
:1034300000214DF2191001F087F902214DF21A1006
:1034400001F082F901214DF21B1001F07DF90221FA
:103450004DF21C1001F078F934214DF21D1001F0ED
:1034600073F902214DF21E1001F06EF967214DF241
:103470001F1001F069F902214DF2201001F064F9EA
:1034800084214DF2211001F05FF902214DF222104A
:1034900001F05AF9A4214DF2231001F055F902214F
:1034A0004DF2241001F050F9B7214DF2251001F032
:1034B0004BF902214DF2261001F046F9CF214DF2D1
:1034C000271001F041F902214DF2281001F03CF9DA
:1034D000DE214DF2291001F037F902214DF22A10B8
:1034E00001F032F9F2214DF22B1001F02DF90221F9
:1034F0004DF22C1001F028F9FE214DF22D1001F0B3
:1035000023F903214DF22E1001F01EF910214DF286
:103510002F1001F019F903214DF2301001F014F9C8
:1035200033214DF2311001F00FF903214DF2321029
:1035300001F00AF96D214DF2331001F005F9002177
:103540004FF4524001F000F933214DF2012001F017
:10355000FBF800214DF2022001F0F6F834214DF283
:10356000032001F0F1F800214DF2042001F0ECF805
:103570003A214DF2052001F0E7F800214DF2062036
:1035800001F0E2F84A214DF2072001F0DDF80021B8
:103590004DF2082001F0D8F85C214DF2092001F02D
:1035A000D3F800214DF20A2001F0CEF881214DF22E
:1035B0000B2001F0C9F800214DF20C2001F0C4F8F5
:1035C000A6214DF20D2001F0BFF800214DF20E2092
:1035D00001F0BAF8E5214DF20F2001F0B5F8012114
:1035E0004DF2102001F0B0F813214DF2112001F03E
:1035F000ABF801214DF2122001F0A6F854214DF252
:10360000132001F0A1F801214DF2142001F09CF8E3
:1036100082214DF2152001F097F801214DF216207C
:1036200001F092F8CA214DF2172001F08DF8022125
:103630004DF2182001F088F800214DF2192001F018
:1036400083F802214DF21A2001F07EF801214DF29B
:103650001B2001F079F802214DF21C2001F074F8D2
:1036600034214DF21D2001F06FF802214DF21E2091
:1036700001F06AF867214DF21F2001F065F8022180
:103680004DF2202001F060F884214DF2212001F05C
:103690005BF802214DF2222001F056F8A4214DF2F0
:1036A000232001F051F802214DF2242001F04CF8C2
:1036B000B7214DF2252001F047F802214DF22620D6
:1036C00001F042F8CF214DF2272001F03DF8022110
:1036D0004DF2282001F038F8DE214DF2292001F0CA
:1036E00033F802214DF22A2001F02EF8F2214DF29A
:1036F0002B2001F029F802214DF22C2001F024F8B2
:10370000FE214DF22D2001F01FF803214DF22E2055
:1037100001F01AF810214DF22F2001F015F80321C5
:103720004DF2302001F010F833214DF2312001F03C
:103730000BF803214DF2322001F006F86D214DF215
:10374000332001F001F800214FF4534000F0FCFF5A
:1037500033214DF2013000F0F7FF00214DF202302D
:1037600000F0F2FF34214DF2033000F0EDFF0021B4
:103770004DF2043000F0E8FF3A214DF2053000F040
:10378000E3FF00214DF2063000F0DEFF4A214DF24A
:10379000073000F0D9FF00214DF2083000F0D4FFCF
:1037A0005C214DF2093000F0CFFF00214DF20A30CC
:1037B00000F0CAFF81214DF20B3000F0C5FF00215F
:1037C0004DF20C3000F0C0FFA6214DF20D3000F09C
:1037D000BBFF00214DF20E3000F0B6FFE5214DF2A7
:1037E0000F3000F0B1FF01214DF2103000F0ACFFBE
:1037F00013214DF2113000F0A7FF01214DF21230DC
:1038000000F0A2FF54214DF2133000F09DFF012182
:103810004DF2143000F098FF82214DF2153000F087
:1038200093FF01214DF2163000F08EFFCA214DF2B8
:10383000173000F089FF02214DF2183000F084FFAC
:1038400000214DF2193000F07FFF02214DF21A30B5
:1038500000F07AFF01214DF21B3000F075FF0221CC
:103860004DF21C3000F070FF34214DF21D3000F09D
:103870006BFF02214DF21E3000F066FF67214DF212
:103880001F3000F061FF02214DF2203000F05CFF9C
:1038900084214DF2213000F057FF02214DF22230F9
:1038A00000F052FFA4214DF2233000F04DFF022121
:1038B0004DF2243000F048FFB7214DF2253000F0E2
:1038C00043FF02214DF2263000F03EFFCF214DF2A2
:1038D000273000F039FF02214DF2283000F034FF8C
:1038E000DE214DF2293000F02FFF02214DF22A3067
:1038F00000F02AFFF2214DF22B3000F025FF0221CB
:103900004DF22C3000F020FFFE214DF22D3000F062
:103910001BFF03214DF22E3000F016FF10214DF257
:103920002F3000F011FF03214DF2303000F00CFF7A
:1039300033214DF2313000F007FF03214DF23230D8
:1039400000F002FF6D214DF2333000F0FDFE00214A
:103950004FF4544000F0F8FE33214DF2014000F0E6
:10396000F3FE002100E082E34DF2024000F0ECFEA5
:1039700034214DF2034000F0E7FE00214DF20440F7
:1039800000F0E2FE3A214DF2054000F0DDFE00219C
:103990004DF2064000F0D8FE4A214DF2074000F0FB
:1039A000D3FE00214DF2084000F0CEFE5C214DF226
:1039B000094000F0C9FE00214DF20A4000F0C4FEAB
:1039C00081214DF20B4000F0BFFE00214DF20C4072
:1039D00000F0BAFEA6214DF20D4000F0B5FE002128
:1039E0004DF20E4000F0B0FEE5214DF20F4000F028
:1039F000ABFE01214DF2104000F0A6FE13214DF266
:103A0000114000F0A1FE01214DF2124000F09CFE99
:103A100054214DF2134000F097FE01214DF2144065
:103A200000F092FE82214DF2154000F08DFE012142
:103A30004DF2164000F088FECA214DF2174000F00A
:103A400083FE02214DF2184000F07EFE00214DF26F
:103A5000194000F079FE02214DF21A4000F074FE88
:103A600001214DF21B4000F06FFE00E002E3022155
:103A70004DF21C4000F068FE34214DF21D4000F074
:103A800063FE02214DF21E4000F05EFE67214DF202
:103A90001F4000F059FE02214DF2204000F054FE7C
:103AA00084214DF2214000F04FFE02214DF22240D0
:103AB00000F04AFEA4214DF2234000F045FE022111
:103AC0004DF2244000F040FEB7214DF2254000F0B9
:103AD0003BFE02214DF2264000F036FECF214DF292
:103AE000274000F031FE02214DF2284000F02CFE6C
:103AF000DE214DF2294000F027FE02214DF22A403E
:103B000000F022FEF2214DF22B4000F01DFE0221BA
:103B10004DF22C4000F018FEFE214DF22D4000F039
:103B200013FE03214DF22E4000F00EFE10214DF247
:103B30002F4000F009FE03214DF2304000F004FE5A
:103B400033214DF2314000F0FFFD03214DF23240B0
:103B500000F0FAFD6D214DF2334000F0F5FD00213B
:103B60004FF4554000F0F0FD33214DF2015000F0CC
:103B7000EBFD00214DF2025000F0E6FD34214DF244
:103B8000035000F0E1FD00214DF2045000F0DCFD97
:103B90003A214DF2055000F0D7FD00214DF20650BC
:103BA00000F0D2FD4A214DF2075000F0CDFD00217A
:103BB0004DF2085000F0C8FD5C214DF2095000F0B4
:103BC000C3FD00214DF20A5000F0BEFD81214DF2EF
:103BD0000B5000F0B9FD00214DF20C5000F0B4FD87
:103BE000A6214DF20D5000F0AFFD00214DF20E5018
:103BF00000F0AAFDE5214DF20F5000F0A5FD0121D6
:103C00004DF2105000F0A0FD13214DF2115000F0C4
:103C10009BFD01214DF2125000F096FD54214DF212
:103C2000135000F091FD01214DF2145000F08CFD75
:103C300082214DF2155000F087FD01214DF2165002
:103C400000F082FDCA214DF2175000F07DFD0221E7
:103C50004DF2185000F078FD00214DF2195000F09F
:103C600073FD02214DF21A5000F06EFD01214DF25C
:103C70001B5000F069FD02214DF21C5000F064FD64
:103C800034214DF21D5000F05FFD02214DF21E5017
:103C900000F05AFD67214DF21F5000F055FD022142
:103CA0004DF2205000F050FD84214DF2215000F0E3
:103CB0004BFD02214DF2225000F046FDA4214DF2B1
:103CC000235000F041FD02214DF2245000F03CFD54
:103CD000B7214DF2255000F037FD02214DF226505C
:103CE00000F032FDCF214DF2275000F02DFD0221D2
:103CF0004DF2285000F028FDDE214DF2295000F051
:103D000023FD02214DF22A5000F01EFDF2214DF25A
:103D10002B5000F019FD02214DF22C5000F014FD43
:103D2000FE214DF22D5000F00FFD03214DF22E50DB
:103D300000F00AFD10214DF22F5000F005FD032187
:103D40004DF2305000F000FD33214DF2315000F0C3
:103D5000FBFC03214DF2325000F0F6FC6D214DF2D8
:103D6000335000F0F1FC00214FF4564000F0ECFC21
:103D700033214DF2016000F0E7FC00214DF20260BA
:103D800000F0E2FC34214DF2036000F0DDFC002184
:103D90004DF2046000F0D8FC3A214DF2056000F0CD
:103DA000D3FC00214DF2066000F0CEFC4A214DF21A
:103DB000076000F0C9FC00214DF2086000F0C4FC6F
:103DC0005C214DF2096000F0BFFC00214DF20A6059
:103DD00000F0BAFC81214DF20B6000F0B5FC00212F
:103DE0004DF20C6000F0B0FCA6214DF20D6000F029
:103DF000ABFC00214DF20E6000F0A6FCE5214DF277
:103E00000F6000F0A1FC01214DF2106000F09CFC5D
:103E100013214DF2116000F097FC01214DF2126068
:103E200000F092FC54214DF2136000F08DFC012152
:103E30004DF2146000F088FC82214DF2156000F014
:103E400083FC01214DF2166000F07EFCCA214DF288
:103E5000176000F079FC02214DF2186000F074FC4C
:103E600000214DF2196000F06FFC02214DF21A6042
:103E700000F06AFC01214DF21B6000F065FC02219C
:103E80004DF21C6000F060FC34214DF21D6000F02A
:103E90005BFC02214DF21E6000F056FC67214DF2E2
:103EA0001F6000F051FC02214DF2206000F04CFC3C
:103EB00084214DF2216000F047FC02214DF2226086
:103EC00000F042FCA4214DF2236000F03DFC0221F1
:103ED0004DF2246000F038FCB7214DF2256000F06F
:103EE00033FC02214DF2266000F02EFCCF214DF272
:103EF000276000F029FC02214DF2286000F024FC2C
:103F0000DE214DF2296000F01FFC02214DF22A60F3
:103F100000F01AFCF2214DF22B6000F015FC02219A
:103F20004DF22C6000F010FCFE214DF22D6000F0EF
:103F30000BFC03214DF22E6000F006FC10214DF227
:103F40002F6000F001FC03214DF2306000F0FCFB1B
:103F500033214DF2316000F0F7FB03214DF2326066
:103F600000F0F2FB6D214DF2336000F0EDFB5521C6
:103F70004FF4704000F0E8FBAA214FF2010000F07E
:103F8000E3FB52214FF2020000F0DEFB08214FF26A
:103F9000030000F0D9FB0021184600F0D5FBCC212E
:103FA0004FF4314000F0D0FB00214BF2011000F043
:103FB000CBFB05214FF4364000F0C6FB70214FF4D7
:103FC000374000F0C1FB70214BF2017000F0BCFBE8
:103FD00001214FF4384000F0B7FB03214BF60100FC
:103FE00000F0B2FB03214BF6020000F0ADFB032111
:103FF0004BF6030000F0A8FB02214FF43C4000F018
:10400000A3FB00214BF6014000F09EFB00214BF684
:10401000024000F099FBD0214FF4494000F094FB9E
:1040200002214CF6011000F08FFB50214CF60210DB
:1040300000F08AFB50214CF6031000F085FB502164
:104040004CF6041000F080FB00214FF4545000F0B7
:104050007BFB55214FF4685000F076FB4FF48850FD
:1040600000F05BFB782001F097FD4FF4245000F046
:1040700054FBB9E04045FCD1E22000F04EFB1D208E
:1040800000F03FFB022000F03CFB042000F039FB75
:10409000642001F081FDE02000F03FFB012000F0F2
:1040A00030FB0A2001F06AFDE02000F036FB03201F
:1040B00000F027FB0C2001F061FD012000F02DFB3A
:1040C0000A2001F05BFDE62000F027FB2F2000F026
:1040D00018FBFF2000F015FBFF2000F012FBB020C2
:1040E00000F01BFB202000F00CFB002000F009FB7F
:1040F000032000F006FB40F21F3000F002FB01201D
:1041000000F0FFFA40F2DF1000F0FBFA002000F0B0
:10411000F8FAB42000F001FB042000F0F2FA40F2BB
:104120001F4000F0EEFA002000F0EBFA2E2000F025
:10413000E8FA002000F0E5FA002000F0E2FA0020A2
:1041400000F0DFFA002000F0DCFAB62000F0E5FA1B
:10415000022000F0D6FA4FF4037000F0D2FA0020EB
:1041600000F0CFFA172000F0CCFA152000F0C9FAC1
:10417000002000F0C6FA002000F0C3FAF02000F0A2
:10418000CCFA032000F0BDFA292000F0C6FAD020B6
:1041900000F0C3FA002000F0B4FABE2000F0BDFA2F
:1041A000052000F0AEFAFE2000F0ABFA012000F08E
:1041B000A8FA002000F0A5FA002000F0A2FA0020E2
:1041C00000F09FFAB82000F0A8FA032000F099FA56
:1041D000012000F096FABA2000F09FFA012000F0CA
:1041E00090FA642000F04AF8B088504507D0A04209
:1041F00005D0B84203D0A84201D040451DD1D9F81E
:104200001C21494622F00F02C9F81C21D9F81C21B3
:1042100022F47062C9F81C21D9F81C2142F0030273
:10422000C9F81C21A042D9F81C0102D140F4407009
:1042300001E040F40070C1F81C010020FDF73EFCD5
:1042400004490120C1F8BC025846FDF71DFC15B019
:10425000BDE8F08F008040420346012000E0584353
:10426000491EC9B2FBD2704708B54FF0D840B0F82C
:104270008000ADF80000BDF8000008BD10B5024692
:10428000BE2000F04AFA052000F03BFA104605F087
:104290003BF99FED0C1B53EC112B05F049F905F090
:1042A000EFF880B200F02DFA012000F02AFAFF208A
:1042B00000F027FA002000F024FABDE810400020AA
:1042C00000F01FBA666666666666044070B5664CA6
:1042D00000232146A279898841F66315012A01D07D
:1042E0001AB11BE0A94202D118E0A94216D1082850
:1042F00014D2DFE800F00406080A0C0E10120620A3
:104300000CE007200AE0042008E0052006E0012078
:1043100004E0002002E0032000E00220082812D27E
:10432000DFE800F0110406080A0C0E1080230AE0F2
:10433000402308E0C02306E0202304E0602302E0DD
:10434000A02300E0E02345F21056B14202D14FF421
:10435000585000E03620A1F51342413A03D0A1F5B0
:10436000EE42893A01D143F00803194600F0ECF916
:10437000A288AA420AD098062088618802D588427D
:1043800002D303E0884201D9218060806089B24273
:1043900040D100F0C2F9002000F0B3F96089401C60
:1043A00080B200F0BAF9002000F0ABF96089801CFF
:1043B00080B200F0B2F92088401EC0F30F2000F058
:1043C000A0F96089C01C80B200F0A7F92078401ED7
:1043D000C0B200F096F9A08900F09FF9002000F02B
:1043E00090F9A089401C80B200F097F9002000F0FD
:1043F00088F9A089801C80B200F08FF96088401E87
:10440000C0F30F2000F07DF9A089C01C80B200F03D
:1044100084F921E000F081F9002000F072F9002019
:1044200000F06FF92088401EC0F30F2000F069F9FA
:104430002078401EC0B200F064F9A08900F06DF948
:10444000002000F05EF9002000F05BF96088401E5B
:10445000C0F30F2000F055F9A078BDE87040401E71
:10446000C0B200F04EB90000E8020020F0B53A4DAD
:104470000C460246060AA9882846270A4089A1F563
:10448000C853633B16D0A1F5AA43103B4BD000F0B4
:1044900044F9304600F035F9D0B200F032F9A8897D
:1044A00000F03BF9384600F02CF9E0B2BDE8F040EE
:1044B00000F027B9A97929B300F02FF9304600F0B0
:1044C00020F9D0B200F01DF92888401EC0F30F205B
:1044D00000F017F92878401EC0B200F012F9A88940
:1044E00000F01BF9384600F00CF9E0B200F009F9D1
:1044F0006888401EC0F30F2000F003F9A878401E22
:10450000C0B2D3E72988891A491E8AB200F005F99A
:10451000002000F0F6F8002000F0F3F8100A00F098
:10452000F0F8D0B2D9E700F0F8F8304600F0E9F83A
:104530006889401C80B200F0F0F8D0B200F0E1F8D9
:10454000A88900F0EAF8384600F0DBF8A889401C9A
:1045500080B200F0E2F8A8E7E80200202DE9F84F69
:1045600082461F460E468B46580700D0012000EBBE
:10457000D700790810FB01F0203AC0B202F0FF0921
:104580000025009047E00C2F10D0102F12D0182FCC
:1045900014D0202F42D1224901EBC9104FF000085E
:1045A000445D200610D51F48026811E009EB490060
:1045B0001D4906E01D4901EB0910EFE71C4909EB15
:1045C000C90001EB8000E9E70A9828B9154842685C
:1045D00031465046FDF7CEFA6006040E1548761CAB
:1045E000B6B24088B04219D9A6EB0B00B84209D147
:1045F0000AF101001FFA80FA0E485E460188514513
:104600000CD906E008F1010000F0FF08B8F1080F2E
:10461000C7D36D1CEDB200988542B4D3BDE8F88FC6
:104620007EB300081C000020BE9B000832A00008DA
:1046300022A60008E80200202DE9FF4F81B00027E4
:10464000DDF838B01D46924680463C46B9464FEAF2
:104650005B0627E0281B401EC1B20A20FFF7FCFDC5
:10466000BAFBF0F00A21B0FBF1F201FB120027B90E
:10467000691E8C4201DA48B101273030C2B206FB14
:10468000048080B25B46CDF8009006E006FB048013
:1046900080B25B462022CDF800900299FFF75EFFC2
:1046A000641CE4B2AC42D5D305B0BDE8F08F2DE96F
:1046B000F84F044600F0FF0810190D46DDE90A76B0
:1046C0001FFA80FA58191FFA80F94FF0000B11E019
:1046D000544502D3E819444685B24D450FD23B46B6
:1046E00029462046CDF800B0FFF738FF04EB57000D
:1046F00084B2761C3278A2F120005E28E8D9BDE8A9
:10470000F88F01B5BDF80000ADF80000BDF800005D
:104710004FF0D841A1F8800008BD01B5BDF80000F8
:10472000ADF80000BDF800004FF0D841A1F87E00C0
:1047300008BD000003484FF0D8410089A1F87E0071
:1047400070470000E80200204FF0D84222F87E0FA8
:1047500051807047114810B5016886B041F02001C2
:10476000016000680E4C00F0200005904FF4C0601E
:10477000009001200190029003200390694620469A
:10478000FCF7A6F9012251022046FCF786FA012225
:1047900091022046FCF781FA06B010BD3038024085
:1047A000001402407CB514460D4606466B460622B0
:1047B0003B21682000F0B2F800280BD1BDF80010B2
:1047C00049BA3180BDF8021049BA2980BDF80410F9
:1047D00049BA21807CBD7CB514460D4606466B4621
:1047E00006224321682000F099F800280BD1BDF87B
:1047F000001049BA3180BDF8021049BA2980BDF8CD
:10480000041049BA21807CBD08B56B4602224121C3
:10481000682000F083F8BDF8000040BA00B204F050
:104820005CFE9FED0D1B53EC112B04F095FC9FEDEE
:104830000C1B53EC112B04F0DBFB04F0A7FB00EE88
:10484000100ADFED090A20EE200ABDEEC00A10EEC4
:10485000100A00B208BD00000000000000407540D2
:10486000A4703D0AD74342400000C84210B5FCF78F
:1048700061FF80216B2000F0BFF8642001F07EF919
:1048800000216B2000F0B8F8032000F081F8002030
:1048900000F079F8322000F098F80021382000F07C
:1048A000ABF800216A2000F0A7F80021232000F0D7
:1048B000A3F88021372000F09FF8752000F011F850
:1048C000682801D0012010BD01216B2000F094F870
:1048D00000216C2000F090F8322000F076F80020E3
:1048E00010BD10B50446FCF7CDFFD020FCF79AFFB1
:1048F000FDF70AF82046FCF795FFFDF705F8FCF7F1
:10490000C1FFD120FCF78EFFFCF7FEFF0020FCF773
:1049100055FF0446FCF7D6FF204610BD2DE9F041B7
:104920001C4615460F460646FCF7ACFF7006000E07
:10493000FCF778FFFCF7E8FF20B1FCF7C3FF01208C
:10494000BDE8F0813846FCF76DFFFCF7DDFFFCF7B2
:1049500099FF012000EB4600C0B2FCF763FFFCF7B3
:10496000D3FF08E0012D0CD00120FCF727FF6D1EBE
:1049700004F8010BEDB2002DF4D1FCF7A3FF0020E9
:10498000DEE70020F1E7C006010E1C2000F034B87D
:10499000C006010E1B2000F02FB8BC2801D3012156
:1049A00010E0622801D302210CE02A2801D3032160
:1049B00008E0142801D3042104E00A2801D30521CA
:1049C00000E006211A2000F017B810B504464FF495
:1049D0007A70844201D9044602E0042C00D20424F7
:1049E000B0FBF4F0401EC1B2192000F005F86008D9
:1049F000BDE81040FFF7D1BF70B50C460546FCF787
:104A000041FFD020FCF70EFFFCF77EFF50B928468F
:104A1000FCF708FFFCF778FF2046FCF703FFFCF7E4
:104A200073FF18B1FCF74EFF012070BDFCF74AFF81
:104A3000002070BD2DE9F0411D4616460C46074684
:104A4000FCF720FF7806000EFCF7ECFEFCF75CFF9D
:104A500060B92046FCF7E6FEFCF756FF00240CE0A8
:104A6000285DFCF7DFFEFCF74FFF20B1FCF72AFFC3
:104A70000120BDE8F081641CE4B2B442F0D3FCF73D
:104A800021FF0020F5E7FEE7704770477047000000
:104A900070B5214C92B00025266846F080562660FD
:104AA000246804F0805411941C4C266846F4804617
:104AB000266024680DF1240C04F480441194012430
:104AC000009424040194022406948CE80D006605E9
:104AD000CDE907616846FCF757FA00B1FEE70CA97B
:104AE0000F2081E831004FF4A0500F904FF4805018
:104AF000109005210CA8FCF75FF900B1FEE7FCF768
:104B0000D1F841F20101884204D10548016841F41D
:104B10008071016012B070BD4038024000700040EA
:104B2000003C0240FCF7CAB81048016841F470012B
:104B300001600F48016841F0010101600C4A002149
:104B40000832116002680B4B1A400260031D0A4ACA
:104B50001A60026822F48022026005480C3001606D
:104B600002495806803908607047000088ED00E06F
:104B700000380240FFFFF6FE1030002410B50A4C4A
:104B80002068C068C043C00709D108480069804751
:104B900021680020486221686420C862E0602168C2
:104BA0006FF00100086110BD080300209C00002088
:104BB000F0B50268254D264E264FDFF89CC0274BE6
:104BC0004FF0804EA84209D0704507D0B04205D0C2
:104BD000B84203D0604501D0984203D122F070045E
:104BE0004A682243A8421BD0704519D0B04217D062
:104BF000B84215D0604513D0984211D0184CA0424D
:104C00000ED0184CA0420BD0174CA04208D0174C25
:104C1000A04205D0164CA04202D0164CA04203D1AF
:104C200022F44074CA6822434C6922F08002224375
:104C300002608A68C2620A688262A84201D0984211
:104C400001D10969016301214161F0BD000001400A
:104C50000004004000080040000C00400004014037
:104C6000004001400044014000480140001800405D
:104C7000001C004000200040F8B5064610480D46D4
:104C80000024016841F0040101600068032200F083
:104C90000400009011461E20FCF75CF81E20FCF773
:104CA0004CF8094A07481060C2E90154C2E903649C
:104CB0001046FCF79BFBBDE8F8400348FCF7B2BB8D
:104CC00040380240000800400803002010B5806B07
:104CD0000021C185C184FCF7B6FB10BD0168CA681C
:104CE00022F49072CA6001684A6922F001024A61A6
:104CF000202180F83A10704710B590F83A10222918
:104D000001D0022010BD8168B1F5805F11D001692A
:104D1000002901681FD0496801F07F03816A4A1C9D
:104D200082620B70C18D491E0904090CC18518D01F
:104D30002BE00269816A002A0268526805D0D2B26B
:104D40000A80816A491C8162ECE7C2F308020A808A
:104D5000816A891CF7E74A68816A4B1C83620A7082
:104D6000E0E70168CA6822F02002CA600168CA68E8
:104D700022F48072CA6001684A6922F001024A6125
:104D8000202180F83A10FCF787FC002010BD0000BD
:104D90002DE9F041044600680169E26821F44051C0
:104DA00011430161A1682069E26901436069104310
:104DB00001432068C26849F20C639A430A43C26007
:104DC00020684169A26921F4407111434161E069A1
:104DD0006425B0F5004F974A974920684FF0320894
:104DE0003FD0884201D090427CD1FCF78DF800EB97
:104DF000C00101EB001061688900B0FBF1F6FCF71F
:104E000083F800EBC00101EB001061688900B0FB82
:104E1000F1F0B0FBF5F06FF01801484306EB8001AC
:104E200008EB0110B0FBF5F000F0F006FCF76CF8B1
:104E300000EBC00101EB001061688900B0FBF1F0EC
:104E4000B0FBF5F006EB0016FCF75EF800EBC001D6
:104E500001EB001061688900B0FBF1F7FCF754F832
:104E6000D2E0884201D090423DD1FCF74DF800EBF2
:104E7000C00101EB001061684900B0FBF1F0B0FB2C
:104E8000F5F00601FCF740F800EBC00101EB001063
:104E900061684900B0FBF1F7FCF736F800EBC001A0
:104EA00001EB001061684900B0FBF1F0B0FBF5F0D8
:104EB0006FF01801484307EB800108EBC100B0FB1D
:104EC000F5F000F0F80006EB4006FCF71DF800EBEB
:104ED000C00101EB001061684900B0FBF1F7FCF77D
:104EE00013F83CE055E0FBF7FFFF00EBC00101EBDE
:104EF000001061684900B0FBF1F0B0FBF5F006016D
:104F0000FBF7F2FF00EBC00101EB00106168490004
:104F1000B0FBF1F7FBF7E8FF00EBC00101EB00107D
:104F200061684900B0FBF1F0B0FBF5F06FF01801DB
:104F3000484307EB800108EBC100B0FBF5F000F03F
:104F4000F80006EB4006FBF7CFFF00EBC00101EBDA
:104F5000001061684900B0FBF1F7FBF7C5FF00EBFB
:104F6000C00101EB001061684900B0FBF1F0B0FB3B
:104F7000F5F06FF01801484307EB800108EBC10022
:104F8000B0FBF5F000F00700216830448860BDE810
:104F9000F081FBF7A9FF00EBC00101EB0010616895
:104FA0008900B0FBF1F6FBF79FFF00EBC00101EBBE
:104FB000001061688900B0FBF1F0B0FBF5F06FF014
:104FC0001801484306EB800108EB0110B0FBF5F037
:104FD00000F0F006FBF788FF00EBC00101EB0010CA
:104FE00061688900B0FBF1F0B0FBF5F006EB00164C
:104FF000FBF77AFF00EBC00101EB0010616889004C
:10500000B0FBF1F7FBF770FF00EBC00101EB001004
:1050100061688900B0FBF1F0B0FBF5F06FF01801AA
:10502000484307EB800108EB0110B0FBF5F000F0FE
:105030000F00A9E7001401400010014090F839105A
:10504000212901D0022070478168B1F5805F016A93
:105050000BD04A1C0262026809785160C18C491E5B
:105060000904090CC1840ED017E009880268C1F355
:105070000801516001690029016A02D0491C0162DE
:10508000ECE7891CFBE70168CA6822F08002CA606D
:105090000068C16841F04001C16000207047000015
:1050A00010B50848FCF7D6F90648FCF7CDF92028DA
:1050B000FAD1012204490348FCF7C4FA0028F8D1C8
:1050C00010BD00005802002014000020FEE703B4C9
:1050D00001984100009850EAC12018BF04204A0DF1
:1050E00018BF40F0010040F2FF72B2EB515F08BF01
:1050F00040F00200012808BF052002B070470907F0
:10510000090E002804DB00F1E02080F8001470474D
:1051100000F00F0000F1E02080F8141D704700003F
:1051200070B5C1482DED020B2DED0E8B82B0119D97
:1051300025F000449FEDBEDB9FEDBFEB84423EDBDC
:10514000A4F140511098A1F17F6108430FD0BC48F1
:10515000844202DC28D1109830B39DED100B02B0D0
:10516000BDEC0E8B02B0BDE8704000F071BC9DED4F
:10517000100B53EC1D2B51EC100B04F0D9F99DEDE5
:10518000100B41EC180B53EC1E2B51EC100B04F0E0
:10519000CFF953EC182B03F02BFF41EC100B02B0AE
:1051A000BDEC0E8B02B070BD0120FBF7EEFA02B031
:1051B000BDEC0E8B02B0BDE8704000F05DBCA148B4
:1051C0009FEDA18B844256DA9DED100BB4F1795F0F
:1051D0000ADA51EC100BFFF77AFF042808BF00F041
:1051E0005BFC9DED100BDAE753EC102B51EC100B30
:1051F00004F09EF941EC190B95480621B0EE490ADE
:10520000F0EE690A784400F0A7FB53EC192B51EC3F
:10521000100B04F08DF941EC1A0B8E48B0EE490AE0
:10522000F0EE690A0421784400F096FB53EC192B48
:1052300051EC100B04F07CF953EC182B03F0D8FE62
:1052400041EC100B51EC1A0B53EC102B03F084FFC4
:10525000CDE900019DED000B53EC102B9DED100BE3
:1052600051EC100B04F064F99DED101B53EC112B65
:1052700003F0BEFED2E09DED100B51EC100B01F0DF
:105280006FF953EC182B04F051FA9FED730BCDE935
:10529000000153EC102B9DED000B51EC100B04F0B2
:1052A00047F941EC190B6E480621B0EE490AF0EEC1
:1052B000690A784400F050FB53EC192B51EC100BA9
:1052C00004F036F941EC1B0B6648B0EE490AF0EEEB
:1052D000690A0421784400F03FFB53EC192B51EC90
:1052E000100B04F025F953EC182B03F081FE41EC70
:1052F0001C0B51EC190B02F0E1FD41EC180B5A4864
:105300009FED5BABA04222DC53EC1C2B51EC1B0B42
:1053100003F022FFCDE900019DED000B51EC180BCD
:1053200053EC102B04F004F953EC182B03F060FE3F
:1053300053EC1A2B04F0FCF853EC1D2B04F0CEFABE
:1053400053EC1E2B04F0F2F941EC100B5FE08DEDF5
:10535000008B002000909DED000B51EC180B53ECDE
:10536000102B03F045FE9DED000B41EC1E0B53ECA2
:10537000102B51EC100B04F0DBF853EC192B04F05C
:10538000D5F953EC1E2B03F0E7FE41EC190B53EC5F
:105390001C2B51EC1B0B03F0DFFE41EC1B0B53EC01
:1053A0001A2B51EC190B04F0C3F853EC1D2B04F02D
:1053B000BDF941EC190B53EC1A2B51EC180B04F00E
:1053C000B7F853EC1B2B04F0B3F853EC192B04F093
:1053D00085FA9DED000B41EC180B53EC1A2B51ECA8
:1053E000100B04F0A5F89FED249B53EC192B04F04F
:1053F0009DF941EC100B51EC180B53EC102B04F001
:105400006DFA53EC192B04F091F941EC100B002DBF
:105410003FF7C5AE51EC100B03F0ACFD41EC100BA7
:10542000BDE60000000000000000F03F00000000AA
:10543000075C143326A6913C182D4454FB21F93FF8
:105440000000F07F0000E03F000000000000F03F9F
:10545000789D0000869D0000000000000000E03FF5
:10546000CA9C0000D89C00003333EF3F00000000CE
:105470000000000000000040182D4454FB21E93FCB
:1054800070B59B482DED020B2DED068B079D25F089
:105490000044A04218DC9748844202DC0AD10698F6
:1054A00040B19DED060BBDEC068B02B0BDE870402F
:1054B00000F0CEBA002DCCBF9FED8F0B9FED900B6F
:1054C000BDEC068B02B070BD8F48A04215DD8F4841
:1054D000A042D8BF4FF0FF3458DD9DED060B51ECD4
:1054E000100BFFF7F4FD042808BF00F0D5FA9DED7E
:1054F000060BBDEC068B02B070BD9DED060B51ECAA
:10550000100B01F02DF8CDE9060181489FED828B4B
:10551000A0423CDD8248A0421FDD00249FED82AB0B
:105520009DED060B53EC1A2B51EC100B03F060FDB4
:105530009DED060B41EC190B53EC1A2B51EC100BA3
:1055400003F0F6FF53EC182B04F0C8F953EC192BB9
:1055500003F002FECDE9060149E09DED060B0124B2
:1055600053EC182B51EC100B03F042FD9DED060B94
:1055700041EC190B53EC182B51EC100B04F0AEF965
:1055800053EC192B03F0E8FDCDE906012FE0684844
:10559000A0421FDD02249FED689B9DED060B53EC9E
:1055A000192B51EC100B03F0C3FF53EC182B03F035
:1055B0001FFD9DED060B41EC180B53EC192B51EC24
:1055C000100B04F08BF953EC182B03F0C5FDCDE95B
:1055D00006010CE09DED060B032453EC102B9FED10
:1055E000580B51EC100B03F0B7FDCDE906019DED12
:1055F000060B53EC102B51EC100B03F099FF41EC10
:10560000180B53EC182B03F093FF41EC190B4E4889
:105610000621B0EE490AF0EE690A784400F09CF9E0
:1056200053EC182B51EC100B03F082FF41EC180BDC
:105630004648B0EE490AF0EE690A0521784400F0C8
:105640008BF953EC192B51EC100B03F071FF41EC6B
:10565000100B51EC180B53EC102B002C0EDA03F04E
:10566000C7FC9DED061B53EC112B03F061FF9DED74
:10567000061B53EC112B04F059F835E003F0B8FC8D
:105680009DED061B53EC112B03F052FF41EC100B68
:105690002F48784400EBC40090ED001B51EC100B38
:1056A00053EC112B04F01AF99DED061B53EC112B52
:1056B00004F014F941EC100B2648784400EBC400C8
:1056C00090ED001B51EC100B53EC112B04F02EF855
:1056D00041EC100B002DA2BFBDEC068B02B070BDDB
:1056E00051EC100B03F046FC41EC100B01E70000FD
:1056F000000010440000F07F182D4454FB21F93FB6
:10570000182D4454FB21F9BF0000DC3F0000203E6F
:105710000000F33F00000000000000000000F03F28
:105720000000E63F00000000000000000000004014
:105730000080034000000000000000000000F83F6F
:10574000000000000000F0BF1A9A0000D09900008D
:105750005A9900001299000070B56F4E2DED040BA0
:105760002DED048B82B0DDF824C0DDE907235C4217
:105770002CF000411C4341EAD474069D22F0004005
:10578000B44205D86C422C4340EAD474B4420BD9DD
:105790009DED081B9DED060B02B0BDEC048B04B023
:1057A000BDE8704000F05EB9ACF14054A4F17F64F4
:1057B0001C430BD0022404EAAC7444EAD2740543BF
:1057C0009FED578B9FED582B07D015E09DED060BF5
:1057D00051EC100B00F0C0F942E0002C11BF012C7D
:1057E0009DED060B02B0BDEC048B04BF04B070BD90
:1057F000022C38D0032C3BD00B439FED4D1B9FED6B
:105800004E0B0AD0B14218D1B04209D121F08041EB
:1058100020F08040099107900FE0002A15DA10E08F
:10582000474B7B44002C08BF93ED000B0DD0012C9F
:1058300010D0022C17D0032C1AD0B0421DD1002A50
:1058400003DAB0EE410AF0EE610A02B0BDEC048B5F
:1058500004B070BD93ED000B51EC100B03F08AFB0C
:1058600041EC100BF1E7B0EE480AF0EE680AECE705
:10587000B0EE420AF0EE620AE7E7401A00159FED2B
:10588000329B3C28C8BF8DED000B17DCBCF1000F2C
:10589000BCBF10F13C0F8DED009B0FDB9DED080BA5
:1058A00053EC102B9DED060B51EC100B03F054FC48
:1058B00000F056FE00F050F9CDE90001B4B1012C22
:1058C00010D0022C9FED220B53EC102B9DED000B02
:1058D00051EC100B19D004F001F853EC182B03F025
:1058E000FDFFBDE7019880F0004001909DED000BA9
:1058F00053EC192B51EC100B03F086FD04BF022072
:10590000FAF743FF9DED000B9FE703F0E7FF53EC31
:10591000182B03F00BFFA3E70000F07F000000004E
:10592000182D4454FB210940182D4454FB2109C073
:10593000182D4454FB21F9BF182D4454FB21F93F85
:10594000429800000000000000000000000000007D
:10595000075C143326A6A13C70B504462DED028BDE
:105960004D1E00EBC500B0EE408AF0EE608A90ED6F
:10597000000B35F0060017D053EC182B51EC100B30
:1059800003F0D6FD41EC100B6D1E04EBC50090ED4D
:10599000001B51EC100B53EC112B03F029FB41ECD5
:1059A000100B35F00600E7D1022D36D0042D1CD0A7
:1059B000062D1CBFBDEC028B70BD53EC182B51ECB7
:1059C000100B03F0B5FD94ED0A1B53EC112B03F003
:1059D0000FFB53EC182B03F0ABFD94ED081B53ECBD
:1059E000112B03F005FB41EC100B53EC182B51EC81
:1059F000100B03F09DFD94ED061B53EC112B03F0EF
:105A0000F7FA53EC182B03F093FD94ED040B53ECD1
:105A1000102B03F0EDFA41EC100B53EC182B51EC6A
:105A2000100B03F085FD94ED021B53EC112B03F0DA
:105A3000DFFA53EC182B03F07BFD94ED001B53ECC5
:105A4000112B03F0D5FABDEC028B41EC100B70BDAD
:105A500010B553EC102B51EC100B03F0C9FA41ECCC
:105A6000100B10BD10B553EC112B51EC100B03F0C3
:105A7000BFFA41EC100B10BD9FED050B10B553ECB8
:105A8000102B51EC100B03F067FB41EC100B10BD19
:105A900000000000000000009FED050B10B553EC66
:105AA000102B51EC100B03F043FD41EC100B10BD1B
:105AB000000000000000001030380A2801D2012048
:105AC0007047002070477047FEB506460D4600241B
:105AD000684600F05BFD00229FED1B1A6B4601211A
