:020000040800F2
:10000000B09D01202903000805240008E51E000812
:100010000324000891080008852B00080000000058
:10002000000000000000000000000000690200085D
:100030005109000800000000C5020008E12700087F
:100040004303000843030008430300084303000878
:100050004303000843030008430300084303000868
:100060004303000843030008430300084303000858
:100070004303000843030008430300084303000848
:100080004303000843030008430300084303000838
:100090004303000843030008430300085B0900080A
:1000A000430300081128000805280008430300083E
:1000B0004303000843030008430300084303000808
:1000C0004303000843030008430300080924000811
:1000D00043030008430300084303000843030008E8
:1000E00053090008430300084303000843030008C2
:1000F0004303000843030008430300089508000871
:1001000043030008430300084303000843030008B7
:1001100043030008430300084303000843030008A7
:10012000430300084303000843030008A108000834
:100130004303000800000000000000004303000823
:100140004303000843030008430300084303000877
:100150004303000843030008430300084303000867
:100160004303000843030008430300084303000857
:1001700043030008430300080000000000000000E3
:10018000430300084303000800F002F800F05CF8A5
:100190000AA090E8000C82448344AAF10107DA45E2
:1001A00001D100F051F8AFF2090EBAE80F0013F0D8
:1001B000010F18BFFB1A43F001031847881A040007
:1001C000A81A04000A444FF0000C10F8013B13F089
:1001D000070408BF10F8014B1D1108BF10F8015BA0
:1001E000641E05D010F8016B641E01F8016BF9D193
:1001F00013F0080F1EBF10F8014BAD1C0C1B09D1EA
:100200006D1E58BF01F801CBFAD505E014F8016B5B
:1002100001F8016B6D1EF9D59142D6D370470000ED
:100220000023002400250026103A28BF78C1FBD8FF
:10023000520728BF30C148BF0B6070471FB528F078
:10024000B1F81FBD10B510BD00F053FA1146FFF70D
:10025000F5FF21F035FB00F071FA03B4FFF7F2FF70
:1002600003BC00F079FA00002C4B19680868B0E86C
:10027000F04F80F30988BFF36F8F4FF0000080F3D9
:10028000118870470000000008480068006880F38B
:1002900008884FF0000080F3148862B661B6BFF39F
:1002A0004F8FBFF36F8F00DF00BF00BF08ED00E08E
:1002B000DFF80C00016841F470010160704700BF75
:1002C00088ED00E0EFF30980BFF36F8F134B1A68DE
:1002D0001EF0100F08BF20ED108A20E9F04F1060CB
:1002E00009B44FF0500080F31188BFF34F8FBFF374
:1002F0006F8F27F03BFB4FF0000080F3118809BCA3
:1003000019680868B0E8F04F1EF0100F08BFB0EC95
:10031000108A80F30988BFF36F8F70471C0000209C
:10032000EFF30580704700000948804709480047FF
:10033000FEE7FEE7FEE7FEE7FEE7FEE7FEE7FEE795
:10034000FEE7FEE704480549054A064B70470000F2
:10035000F527000889010008B0870120B09D012021
:10036000B0920120B092012053EA020C00F06980A3
:100370002DE9F04B4FF00006002B1FBFB3FA83F5B9
:1003800003FA05F424FA05F65E4012BF1643B2FAEA
:1003900082F502FA05F4C5F120051EBF22FA05FC1C
:1003A00044EA0C04203556EA044C4FEA144418BFC2
:1003B000641C4FF000084FF00009904271EB030CF1
:1003C00039D3002919BFB1FA81F701FA07F6B0FA5B
:1003D00080F700FA07F6C7F120071EBF20FA07FCD6
:1003E00046EA0C062037B6FBF4FCA7EB0507103FE6
:1003F00007F01F0BCBF120060CFA0BFB2CFA06F6CC
:1004000044BFB3460026202FA4BF5E464FF0000B2A
:100410005BEA060C08BF4FF0010B19EB0B09ABFBB5
:10042000027C48EB0608C01B06FB02CC0BFB03CC8E
:1004300071EB0C01C1E70B46024641464846BDE858
:10044000F08B13B54FF000004FF00001AFF30080C8
:10045000BDE81C40704740EA0103024630B59B07E7
:1004600010D14FF0013400E008C208C91D1B9D43A4
:1004700015EAC41FF8D013F0FF0102F8011B0DD0DC
:100480001B0AF8E711F8013B002B02F8013B05D0ED
:1004900011F8013B002B02F8013BF3D130BD10B540
:1004A000431C02E010F8011B71B18107FAD14FF033
:1004B000013202C88C1A8C4314EAC211F9D0C01A56
:1004C0000A0603D0C01E10BDC01A10BD0A0401D018
:1004D000801E10BD0902FCD0401E10BD032A40F250
:1004E000308010F0030C00F0158011F8013BBCF1D6
:1004F000020F624498BF11F801CB00F8013B38BFEE
:1005000011F8013BA2F1040298BF00F801CB38BFFB
:1005100000F8013B11F0030300F02580083AC0F019
:10052000088051F8043B083A51F804CBA0E80810C1
:10053000F5E7121D5CBF51F8043B40F8043BAFF3F4
:100540000080D20724BF11F8013B11F801CB48BF4E
:1005500011F8012B24BF00F8013B00F801CB48BF84
:1005600000F8012B704710B5203AC0F00B80B1E8BD
:100570001850203AA0E81850B1E81850A0E81850D8
:10058000BFF4F5AF5FEA027C24BFB1E81850A0E8E1
:10059000185044BF18C918C0BDE810405FEA827CFB
:1005A00024BF51F8043B40F8043B08BF7047D20712
:1005B00028BF31F8023B48BF11F8012B28BF20F8B3
:1005C000023B48BF00F8012B704702F0FF0343EAEB
:1005D000032242EA024200F002B84FF0000204296E
:1005E000C0F0128010F0030C00F01B80CCF1040C62
:1005F000BCF1020F18BF00F8012BA8BF20F8022B96
:10060000A1EB0C0100F00DB85FEAC17C24BF00F83B
:10061000012B00F8012B48BF00F8012B70474FF069
:10062000000200B5134694469646203922BFA0E842
:100630000C50A0E80C50B1F12001BFF4F7AF09074E
:1006400028BFA0E80C5048BF0CC05DF804EB89003F
:1006500028BF40F8042B08BF704748BF20F8022B82
:1006600011F0804F18BF00F8012B70474FF0013C8C
:1006700050F8042B51F8043B9A4221D1A2EB0C0311
:10068000934313EACC1317D150F8042B51F8043BD1
:100690009A4215D1A2EB0C03934313EACC130BD16E
:1006A00050F8042B51F8043B9A4209D1A2EB0C03F9
:1006B000934313EACC13DBD04FF00000704700BF28
:1006C000D01A01BAB1FA81F101F0180122FA01F051
:1006D000CB40C1F12001DBB2C0B2C01A2CFA01F349
:1006E000D11A914311EAC311E6D1704770477047A0
:1006F0007047754600F02CF8AE4605006946534633
:1007000020F00700854618B020B5FFF71BFEBDE8B6
:1007100020404FF000064FF000074FF000084FF068
:10072000000B21F00701AC46ACE8C009ACE8C009F9
:10073000ACE8C009ACE8C0098D46704710B5044666
:10074000AFF300802046BDE81040FFF786BD0000F3
:10075000004870475087012001491820ABBEFEE7D2
:100760002600020070470000464910B54A6822F48E
:1007700040324A604A6843681A434A6001684A68DE
:1007800022F480724A6001684A68036942EA0322DF
:100790004A6001684A6822F040724A6001684A680B
:1007A00083681A434A6001688A6822F400628A609A
:1007B00001688A68C3681A438A60816A6FF0706250
:1007C000D14201688A6822F070628A6001688A6892
:1007D0000CD0836A1A438A6001688A6822F040520A
:1007E0008A6001688A68C36A1A4301E022F04052B5
:1007F0008A6001688A6822F002028A6001688A6859
:10080000037E42EA43028A6090F8201000290168C2
:100810004A680FD042F400624A6001684A6822F4D4
:1008200060424A6001684A68174C436A04EB4333EC
:100830001A4301E022F400624A600168CA6A22F4A5
:100840007002CA620168CA6A838B104C04EB0353BE
:100850001A43CA6201688A6822F400728A600168D9
:100860008A6890F8303042EA43228A6001688A68D8
:1008700022F480628A6001688A68406942EA8020C6
:10088000886010BD0023014000E0FFFF0000F0FF82
:10089000FEE70000014800F0C3B90000AC0C0020E6
:1008A000014800F0BDB90000740B00200168182356
:1008B000CAB2103AB2FBF3F2054B6FF30901032AF7
:1008C0009B5CC36500D9091D81650846704700001F
:1008D000AE83020810B5014600208B698A6A4FF08A
:1008E000C07453B1B3F5005F15D072B1012A0CD0BA
:1008F000022A0AD0032A09D104E01AB1012A06D03B
:10090000022A03D1C96AC90100D5012010BDC96AF4
:10091000A142FAD010BD002AF7D0012AF2D0022A53
:10092000F3D0032AF3D010BD30B50468256825F450
:1009300080252560046863608368402B036803D0CA
:1009400099600068C26030BD9A600068C16030BDC7
:1009500070474FF4005000F0F9BA4FF4007000F007
:10096000F5BA72B6FEE7000078B50024009490F85E
:100970003C20012A19D0012280F83C200A68072374
:100980000568092A13D9EE680A3A02EB420293403D
:100990009E43EE600B788A680A3B03EB43039A4060
:1009A0000368DD682A43DA6010E0022078BD2E6912
:1009B00002EB420293409E432E610B788A6803EB60
:1009C00043039A4003681D692A431A614A681F233A
:1009D000072A13D205686E6B521E02EB8202934007
:1009E0009E436E630B790A885B1E92B203EB83030E
:1009F0009A4003685D6B2A435A6327E005680D2A15
:100A000012D22E6BD21F02EB820293409E432E63C2
:100A10000B790A88DB1F92B203EB83039A400368C9
:100A20001D6B2A431A6311E0EE6A0D3A02EB820253
:100A300093409E43EE620B790A880D3B92B203EB22
:100A400083039A400368DD6A2A43DA62164B05681D
:100A5000144A9D4206D10D68122D03D1556845F404
:100A60008005556005689D4218D10B68102B01D098
:100A7000112B13D1536843F4000353600968102904
:100A80000CD10A490A4A0968B1FBF2F101EB810174
:100A9000490000E0491E00910029FBD180F83C404C
:100AA000002078BD002301400020014018000020F4
:100AB00040420F0070B504004FF0000503D0206CD9
:100AC000002610B107E0012070BD204600F01CF8A0
:100AD000666484F83C60206CC00610D4206C20F45E
:100AE000885040F0020020642046FFF73DFE666417
:100AF000206C20F0020040F00100206400E001259D
:100B000084F83C60284670BD10B586B004461421B8
:100B10006846FFF784FD1149206888421CD11048BF
:100B20000021026842F480720260006800F4807064
:100B300005900B481438026842F001020260006818
:100B400000F001000590082000900320CDE901018C
:100B50006946044800F006FA06B010BD00200140C6
:100B600044380240000002402DE9F0410446876D00
:100B700000F0F6FA064694F835000025022806D063
:100B80008020606584F834500120BDE8F081206841
:100B9000016821F0160101602068416921F080019F
:100BA0004161206C08B9A06C20B12068016821F077
:100BB000080101602068016821F0010101600CE07A
:100BC00000F0CEFA801B052807D92020606503209D
:100BD00084F8350084F83450D7E720680068C007EF
:100BE000EED194F85C103F208840B860012084F872
:100BF000350084F834500020C7E790F835100229FA
:100C000003D08021416501207047052180F835100F
:100C10000068016821F001010160002070470000B8
:100C20002DE9F84304464FF00009CDF800906348E1
:100C30004FF41651A56D0068B0FBF1F72E6894F8DB
:100C40005C10082000FA01F131420FD021680A68D7
:100C500052070BD50A6822F004020A6094F85C106F
:100C60008840A860606D40F00100606594F85C10F9
:100C70004FF0010808FA01F0304208D021684969B4
:100C8000090604D5A860606D40F00200606594F824
:100C90005C1004208840304208D021680968890728
:100CA00004D5A860606D40F00400606594F85C10A5
:100CB00010208840304218D021680968090714D5EF
:100CC000A86020680168490304D50068000308D5BE
:100CD000A16C07E00168C90503D4016821F008018F
:100CE0000160216C09B12046884794F85C102020EF
:100CF0008840304231D021680968C9062DD5A860E6
:100D000094F8350005282068016806D0490347D5C6
:100D1000006800031DD4616C1CE021F01601016025
:100D20002068416921F080014161206C08B9A06C04
:100D300020B12068016821F00801016094F85C107E
:100D40003F208840A86084F8358084F83490216D75
:100D50001FE0E16B09B120468847606D00282BD069
:100D6000606DC00714D0052084F835002068016844
:100D700021F0010101600098401C0090B84203D8A6
:100D800020680068C007F6D184F8358084F8349074
:100D9000E16C002910D001B02046BDE8F0430847BF
:100DA0000168C905D5D4016821F01001016084F8FB
:100DB000358084F83490CCE7BDE8F8831800002033
:100DC0002DE9F041044600F0CBF906465CB1022063
:100DD00084F83500002584F834502068016821F03B
:100DE000010101600DE00120BDE8F08100F0B8F9DB
:100DF000801B052805D920206065032084F8350074
:100E0000F2E720680068C007F0D122681168204826
:100E10000140D4E901031843D4E9033633431843AE
:100E200063691843A3691843E3691843236A1843A5
:100E30000843616A042903D1D4E90B131943084319
:100E4000106020684069666A20F0070130460E4352
:100E5000012704280CD1A06A0643E06A40B120466D
:100E6000FFF738FD20B14020606584F83570BAE79F
:100E7000206846612046FFF719FD94F85C203F2169
:100E800091408160656584F835700020ACE7000012
:100E90003F8010F02DE9F0410446866D90F8340053
:100EA000002501280DD0012084F8340094F8357015
:100EB0000020012F07D084F8340002252846BDE821
:100EC000F0810220FBE7022784F835706065204638
:100ED000FFF72AFD94F85C103F208840B06020683E
:100EE000016841F016010160206C20B120680168A2
:100EF00041F0080101602068016841F001010160D2
:100F0000DCE7000070B5044600F02AF90546601CD5
:100F100002D004480078044400F022F9401BA042AB
:100F2000FAD370BD0C000020B0F5007F07D0B0F5FB
:100F3000005F08D104480A21103001F049BC024882
:100F40000A211C38F8E77047600A0020044910B5F0
:100F50000A68024202D00860FFF7E6FF10BD0000F9
:100F6000143C01402DE9F84FDFF8BCA10022012517
:100F700003264FF00F090AF1040BAAF1040E00BF7B
:100F80000B6805FA02F42340A34270D10F7907F0F1
:100F90000307012F01D0022F16D187684FEA4208BC
:100FA00006FA08FC27EA0C07D1F80CC00CFA08FC7A
:100FB0004CEA070CC0F808C04768A7430C79C4F393
:100FC000001494403C4344600C79E443A4070AD0E5
:100FD000C4684FEA420C06FA0CF7BC438F6807FA64
:100FE0000CF72743C7600C7904F00304022C12D1DC
:100FF000D40800EB840CDCF820405707FF0E09FAF8
:1010000007F824EA0804D1F8108008FA07F848EA3B
:101010000408CCF8208004684FEA420C06FA0CF76A
:10102000BC430F7907F0030707FA0CF72743076063
:101030004C6814F4403F70D03C4C276847F480471C
:101040002760246822F0030704F480440094384C9D
:1010500007EB040CDCF8084897074FEA177809FA01
:1010600008F7BC43334FB84202D1002724E054E0D4
:10107000314FB84201D101271EE0304FB84201D1B3
:10108000022719E02E4FB84201D1032714E02D4F5B
:10109000B84201D104270FE02B4FB84201D10527F8
:1010A0000AE02A4FB84201D1062705E0284FB8428E
:1010B00001D1072700E0082707FA08F72743CCF8F3
:1010C0000878DAF800405746D1F804C09C435FEA3C
:1010D000CC2C00D51C433C60DBF800405F46D1F8C7
:1010E00004C09C435FEA8C2C00D51C433C60DEF8B6
:1010F00000407746D1F804C09C435FEA8C3C00D5A1
:101100001C433C60084F083F3C68D1F804C09C4336
:101110005FEACC3C00D51C433C60521C102AFFF413
:101120002FAFBDE8F88F0000083C01404438024072
:10113000003001400000024000040240000802406C
:10114000000C02400010024000140240001802404F
:10115000001C02400AB1816170470904FBE70000EE
:1011600001488068704700000C0000200248816838
:1011700002781144816070470C0000200B4810B5C4
:10118000016841F400710160016841F4806101600F
:10119000016841F480710160032000F095F80F2090
:1011A00000F006F800F04AF8002010BD003C0240B4
:1011B00030B505461C4887B00024016841F4802101
:1011C0000160006806A900F48020009001A800F0EA
:1011D0008DF800F0BBF815494000B0FBF1F115485F
:1011E000134A491E026040F2E732C0E90324C0E915
:1011F0000114846100F0CEFB040012D10D4800F010
:1012000015FC04000DD11A2000F030F8102D07D283
:10121000002229461A2000F037F80748056000E050
:10122000012407B0204630BD4438024040420F0040
:1012300000480140540D0020100000200A4808B565
:10124000016841F480410160006800F48040009032
:101250000548001F016841F080510160006800F0FE
:101260008050009008BD000044380240002809DB8F
:1012700000F01F02012191404009800000F1E020B0
:10128000C0F8001170470000F0B40E4B1B680C460C
:10129000C3F30223C3F10705042D00D90425191D4A
:1012A000072901D2002300E0DB1E012606FA05F122
:1012B000491E214099409E40761E16403143F0BCA5
:1012C00001F061BC0CED00E0064900F0070208687F
:1012D0004FF6FF03184040EA0220034A104308601B
:1012E000704700000CED00E00000FA050F220260DC
:1012F0000C4A136803F003034360136803F0F00320
:101300008360136803F4E053C36012684FF4E05342
:1013100003EAD20202610448006800F00700086096
:101320007047000008380240003C0240044805496C
:1013300000680968044AC1F38221515CC8407047C3
:101340001800002008380240B68302080448054906
:1013500000680968044AC1F34231515CC8407047D3
:101360001800002008380240B683020870B5044611
:10137000806C002538B1FFF7F7FB20B1606D40F0BD
:10138000100060650125E06C38B1FFF7EDFB20B17E
:10139000606D40F01000606501252068416821F013
:1013A00003014160012084F85100284670BD704758
:1013B00038B5016804464A688868C043430606D5C4
:1013C000C30704D1D3435B0601D4216C05E0830736
:1013D00008D4D3431B0605D4616C01B02046BDE898
:1013E00030400847830603D5430601D5C30551D4D1
:1013F000D3439B064ED443060AD494F85130032BB2
:1014000049D0636D43F004036365CB688B68009338
:10141000830609D4636D43F0010363658B68009311
:101420000B6823F040030B60C00506D4606D40F0EC
:1014300008006065206880680090606D002829D0F1
:101440002068416821F0E0014160012084F85100EA
:10145000900701D4D00722D02068416821F0030111
:101460004160114DE06C40B10565E06CFFF7C5FBD4
:1014700018B1606D40F040006065A06C002809D094
:101480000565A06CFFF7B9FB002803D0606D40F044
:101490004000606538BDC8688868009038BD204647
:1014A000FFF785FF38BD00001524000870B5040063
:1014B00009D0606A002540B125616561A56294F894
:1014C000510040B10CE0012070BD6068B0F5827F32
:1014D000F4D0E561F2E784F85050204600F044F87B
:1014E000022084F851002068016821F04001016069
:1014F000A088218900F4827001F404410843A18985
:1015000001F400610843217C01F002010843217DC0
:1015100001F001010843218B01F400710843217F90
:1015200001F03801084394F8201001F080010843CD
:10153000218D01F40051084321680860A06904214D
:1015400001EA104094F8241001F0100108432168CA
:1015500048602068C16921F40061C16165650120AE
:1015600084F85100002070BDF0B587B00546142105
:101570006846FFF754F83E4B296800243D48022690
:101580000327052299423ED13A4914310B6843F4AE
:1015900080530B60096801F480510591016841F0A6
:1015A000010101600068029400F001000590A02094
:1015B000CDE90006CDE9037269462F48FFF7D2FC5A
:1015C0002F4E2E483060780670604020C6E9020435
:1015D0000001C6E90404C001B461C6E90740042063
:1015E00070623046FFF7ECFB08B1FFF7BAF9AE6462
:1015F000002202212320B563FFF746FE2320FFF7D8
:1016000035FE07B0F0BD1F4B9942FAD11949254666
:1016100010310B6843F480430B60096801F480418A
:101620000591016841F004010160016801F00401C5
:101630000591016841F0020101600068029500F027
:10164000020005900C20CDE90006CDE90372144696
:1016500069460D48FFF786FC4FF40050CDE90006BF
:101660000295CDE9037469460848FFF77BFCC8E79B
:10167000003001403038024000000240586402400F
:10168000740B0020003800400008024000040240B3
:101690002DE9F84F984616468A460446FFF760FD46
:1016A000814694F8510001281ED1BAF1000F73D081
:1016B000002E71D094F85000012815D0012784F82D
:1016C0005070032084F8510000256565C4F830A0EF
:1016D000A686E686A563A587E58765642564A06878
:1016E000B0F5004F03D00CE00220BDE8F88F206871
:1016F000016821F0400101602068016841F48041E7
:10170000016020680168490603D4016841F0400186
:101710000160E068B0F5006F606803D048B3012E47
:1017200027D047E008B1012E1FD1206B2168008827
:10173000C86006E020688168890709D5216B09889F
:10174000C160206B801C2063E08E401EE0860CE0B0
:10175000FFF706FDA0EB0901414503D3B8F1FF3FB8
:1017600003D035E0B8F1000F32D0E08E0028E1D18F
:1017700023E0206B21680078087306E02068816808
:1017800089070AD5216B09780173206B401C2063FF
:10179000E08E401EE0860DE02BE0FFF7E1FCA0EBC1
:1017A0000901414503D3B8F1FF3F03D010E0B8F180
:1017B000000F0DD0E08E0028E0D14A464146204679
:1017C00000F078FE08B120206065A06830B109E023
:1017D00084F8517084F85050032086E72068C1686F
:1017E0008068009084F8517004F8505F60680028A9
:1017F000F3D0012079E7000070B5044690F851005D
:1018000001281CD1C9B1C2B194F85000012816D0EA
:10181000012084F85000032084F8510000256565FC
:101820002163A286E286A56365642564A587E587B2
:10183000A068B0F5004F04D00DE0012070BD02207B
:1018400070BD2068016821F04001016020680168D6
:1018500041F480410160A16C17480864A16C1748ED
:10186000C863A16C1648C864A06C0565E38E226845
:10187000216B0C32A06CFFF70DFB30B1606D40F0B6
:101880001000606584F85050D7E720680168490669
:1018900003D4016841F04001016084F85050206891
:1018A000416841F0200141602068416841F0020137
:1018B0004160002070BD000047240008512400084A
:1018C0002524000810B50068084988420CD101227F
:1018D00010210748FFF73EFC064811F089FFBDE8DC
:1018E00010400548FFF742BD10BD00000030014028
:1018F00000000240302F0120C40A002070477047CA
:101900007047000070B590F83C20012A32D00124C5
:1019100080F83C40022280F83D2003685A689D68A8
:1019200022F070060A6832435A60134B02689A42EA
:1019300014D0B2F1804F11D0104B9A420ED0104B00
:101940009A420BD00F4B9A4208D00F4B9A4205D0C7
:101950000E4B9A4202D00E4B9A4204D1496825F0B0
:1019600080031943916080F83D40002180F83C10CD
:10197000084670BD022070BD000001400004004018
:1019800000080040000C00400004014000400140FD
:101990000018004010B5040003D094F83D0010B1C9
:1019A00007E0012010BD002084F83C00204600F034
:1019B0001FF8022084F83D00211D206800F02EFF52
:1019C000012084F8460084F83E0084F83F0084F843
:1019D000400084F8410084F8420084F8430084F811
:1019E000440084F8450084F83D00002010BD00004C
:1019F00008B500680B49884212D10B48016841F4D0
:101A0000003101600068002200F4003000901146AF
:101A10001920FFF739FCBDE808401920FFF726BC64
:101A200008BD0000004401404438024090F83D10D9
:101A3000012901D001207047022180F83D10016882
:101A4000CA6842F00102CA6000681149884214D095
:101A5000B0F1804F11D00F4988420ED00E49884214
:101A60000BD00E49884208D00D49884205D00D4957
:101A7000884202D00C49884204D1816801F00701F4
:101A8000062903D0016841F0010101600020704780
:101A9000000001400004004000080040000C00402D
:101AA00000040140004001400018004070472DE94B
:101AB000F04104460068C66805694FF00007A907B1
:101AC00013D5B10711D5F91E0161012020772068D7
:101AD00080698007204602D0FFF7E8FF04E000F0AD
:101AE000B7F8204600F088F92777680716D5700701
:101AF00014D521686FF00400086102202077206867
:101B0000806910F4407F204602D0FFF7CFFF04E049
:101B100000F09EF8204600F06FF92777280715D5CA
:101B2000300713D521686FF0080008610420207782
:101B30002068C0698007204602D0FFF7B7FF04E0A5
:101B400000F086F8204600F057F92777E80616D50A
:101B5000F00614D521686FF0100008610820207786
:101B60002068C06910F4407F204602D0FFF79EFF36
:101B700004E000F06DF8204600F03EF92777E80712
:101B800008D0F00706D021686FF0010008612046F8
:101B900000F034F9280608D5300606D521686FF024
:101BA000800008612046FFF7AAFE680608D5700687
:101BB00006D521686FF040000861204600F028F942
:101BC000A8060AD5B00608D521686FF02000086184
:101BD0002046BDE8F041FFF793BEBDE8F08100006C
:101BE00030B587B0044614216846FEF718FD246816
:101BF000134D0022134B02211348AC4209D11C683B
:101C000044F002041C601B6803F00203059300917A
:101C10000CE00E4DAC4210D11C6844F002041C6074
:101C20001B6803F002030593AB150093CDE9011285
:101C3000CDE903216946FFF795F907B030BD0000F3
:101C40000004004030380240000402400008004018
:101C5000704770B5044690F83C0000260D460128F8
:101C60000FD0012084F83C006AB1042A1DD0082A54
:101C70002FD00C2A3FD00126002084F83C003046AB
:101C800070BD022070BD206800F034FE20688169BC
:101C900041F0080181612068816921F004018161BE
:101CA000206881692A69114311E0206800F052FE22
:101CB0002068816941F4006181612068816921F4B3
:101CC00080618161206881692A6941EA022181611C
:101CD000D2E7206800F074FE2068C16941F0080175
:101CE000C1612068C16921F00401C1612068C16936
:101CF0002A69114311E0206800F096FE2068C1694E
:101D000041F40061C1612068C16921F48061C16151
:101D10002068C1692A6941EA0221C161ACE710B5B6
:101D2000040003D094F83D0010B107E0012010BD7D
:101D3000002084F83C00204600F01EF8022084F8C1
:101D40003D00211D206800F069FD012084F8460057
:101D500084F83E0084F83F0084F8400084F8410095
:101D600084F8420084F8430084F8440084F8450075
:101D700084F83D00002010BD38B505460068194BB9
:101D800000221949984208D1086840F00200086012
:101D9000086800F00200009038BD144B9842FBD157
:101DA000086840F0040008600868124C00F0040065
:101DB00000900F482060D803C4E901020014C4E970
:101DC0000320800060618000C4E906022262204690
:101DD0006262FEF7F5FF08B1FEF7C3FDEC62A56392
:101DE00038BD0000000400404038024000080040B8
:101DF000B8600240AC0C0020704700000068034946
:101E0000884201D1FFF7B2B9704700000048014095
:101E1000704770B5040004D094F84100002510B15B
:101E200006E0012070BD84F84050204600F024F800
:101E3000242084F841002068C16821F40051C16069
:101E4000204600F019FE2068016921F490410161EB
:101E50002068416921F02A0141612068C16841F48C
:101E60000051C1606564202084F8410084F842007C
:101E70006563002070BD000010B586B004461421D3
:101E80006846FEF7CCFB14492068884221D11348EC
:101E90000021026842F010020260006800F01000A9
:101EA00005900E481438026842F001020260006892
:101EB00000F0010005904FF4C06000900220CDE9D1
:101EC0000101032003900720049069460448FFF7AE
:101ED00049F806B010BD000000100140443802402F
:101EE00000000240FEE72DE9F041283087B2283299
:101EF0003531353395B28EB29CB22A2000F04EF8BF
:101F0000380A00F069F8F8B200F066F8280A00F024
:101F100063F8E8B200F060F82B2000F03FF8300AD8
:101F200000F05AF8F0B200F057F8200A00F054F828
:101F3000E0B200F051F8BDE8F0412C2000F02EB8DE
:101F400070B5040AC5B200218623EF220846FFF7C8
:101F5000CAFF0D4900204FF4A27200BF01F81040E3
:101F600001EB4003401C80B25D709042F6D3002428
:101F70004FF422752946044800F04CF8641CA4B2C2
:101F8000642CF7D370BD0000C88201200122022119
:101F90000148FFF7DFB800000000024031B50C4CEB
:101FA000002210212046FFF7D5F8002240212046CC
:101FB000FFF7D0F84FF0FF33012269460548FFF7DD
:101FC00067FB012210212046FFF7C4F838BD00004E
:101FD00000000240C40A002031B50C4C0022102140
:101FE0002046FFF7B7F8012240212046FFF7B2F85C
:101FF0004FF0FF33012269460548FFF749FB0122F4
:1020000010212046FFF7A6F838BD0000000002406E
:10201000C40A002070B50E4D0C4606460022102161
:102020002846FFF797F8012240212846FFF792F84B
:1020300034B122464FF0FF3331460648FFF728FB04
:102040002846BDE8704001221021FFF783B8000048
:1020500000000240C40A00207FB500241548009407
:10206000019402941249039401604FF48031C0E955
:1020700001140461047680F820400F49C0E90A1475
:102080000125C561C46080F830404561FEF712FD4E
:1020900008B1FEF766FC0320CDE90005694602940D
:1020A0000448FEF761FC002801D0FEF75AFC7FBD12
:1020B000002001407C0A00200100000F114808B5F3
:1020C000016841F400110160016801F40011009100
:1020D000016841F4800101600068002200F4800082
:1020E000009011462F20FFF7CFF82F20FFF7BEF802
:1020F000002211463B20FFF7C7F8BDE808403B200F
:10210000FFF7B4B8303802402DE9F04786B014210B
:102110006846FEF784FA3D480024016841F0040156
:102120000160016801F004010591016841F080013E
:102130000160016801F080010591016841F0010131
:102140000160016801F001010591016841F002019F
:1021500001600068DFF8B88000F0020005900022FE
:1021600013214046FEF7F6FFDFF8A8904FF4A97759
:10217000002239464846FEF7EDFFDFF89CA000221A
:1021800034215046FEF7E6FF4FF400504FF4881616
:10219000CDE90006694602944046FEF7E3FE1320AF
:1021A00000900125CDE90154694640460394FEF7AD
:1021B000D9FE0097CDE90154694648460394FEF7DD
:1021C000D1FE34200090CDE9015469465046039475
:1021D000FEF7C8FE6802CDE9000669460294504643
:1021E000FEF7C0FE002203211720FFF74DF817204D
:1021F000FFF73CF8002203212820FFF745F82820AC
:10220000FFF734F806B0BDE8F08700003038024030
:10221000000802400000024000040240104810B5CF
:102220000E4901604FF482714160002102228160F9
:10223000C0E90312012242615202C0E90621016293
:10224000416281620A21C162FFF730F9002803D0A0
:10225000BDE81040FEF785BB10BD00000030014016
:10226000C40A00200F4810B50D4901604FF4827177
:10227000416000218160C1604FF400720161C0E9DA
:102280000512C1610162416281620A21C162FFF7E8
:102290000DF9002803D0BDE81040FEF762BB10BD69
:1022A000003800401C0B00200B4810B5094940F2D3
:1022B000E732C0E900120021C0E902120161816128
:1022C000FFF768FB002803D0BDE81040FEF749BBCC
:1022D00010BD000000440140640C002010B58AB01D
:1022E000002407941C2168460894FEF798F91648C4
:1022F000144901606321C0E9011440F2E731C0E9EB
:1023000003148461FFF70BFD08B1FEF72AFB079465
:1023100007A90D480894FFF7F5FA08B1FEF721FB6D
:102320006020CDE9000402940C226946064804941A
:10233000FFF78FFC08B1FEF714FB0348FFF750FCD2
:102340000AB010BD00040040D40B002010B58AB0C4
:10235000002407941C2168460894FEF760F915488C
:102360001349C0E900147D21C0E902410461846180
:10237000FFF7D5FC08B1FEF7F4FA079407A90D485A
:102380000894FFF7BFFA08B1FEF7EBFA6020CDE939
:10239000000402940822694606480494FFF759FC99
:1023A00008B1FEF7DEFA0348FFF71AFC0AB010BDC9
:1023B000000800401C0C00200C4810B50A490160C0
:1023C0004FF4E1314160002181600C22C160C0E91D
:1023D00004128161C161FFF71CFD002803D0BDE834
:1023E0001040FEF7BEBA10BD001001400C0D0020D9
:1023F000642025F0ADF911F0DAF800BF1EF0ECFD15
:10240000FCE7FEE7FEE700000148FEF7D1BF000051
:10241000C40A002010B5806B0021C187C186FEF779
:10242000C6FF10BD10B5806B01684A6822F0030238
:102430004A60416D41F010014165012180F8511061
:10244000FEF7B5FF10BD10B5806BFFF757FA10BD52
:1024500038B50546846BFEF783FE0246286800689F
:10246000C00523D42068416821F020014160206824
:10247000416821F0020141606421204600F01AF811
:1024800018B1606D40F020006065A068002118B9A7
:102490002068C26880680090E186012084F85100BD
:1024A000606D18B12046FEF782FF38BD2046FFF769
:1024B00009FA38BDF8B515460E460B46009204469B
:1024C0000122022100F02CF8A0B91348134900683A
:1024D000B0FBF1F04FF47A71484300906068B0F5BA
:1024E000827F0DD13346002280212046009500F0E6
:1024F00017F870B1606D40F0200060650320F8BDF2
:10250000009830B1401E009020688068C0430006EB
:10251000F6D50020F8BD00001800002000366E013E
:102520002DE9F8431E46914688460446089DFEF76D
:1025300017FE401B351AFEF713FE074625480068B4
:10254000C0F3CB30684338E0701C37D0FEF708FE8C
:10255000C01BA84203D215B1009860B32CE02068DC
:10256000416821F0E00141606068B0F5827F0BD1E5
:10257000A068B0F5004F02D0B0F5806F04D120689C
:10258000016821F040010160A06AB0F5005F09D147
:102590002068016821F4005101602068016841F45D
:1025A00000510160012084F85100002084F850009F
:1025B0000320BDE8F8830025401E00902068816854
:1025C00038EA010004D000214945BDD10020F0E7E0
:1025D0000121F9E71800002070B57B4C0022022190
:1025E0002046FEF7B7FD794D002210212846FEF760
:1025F000B1FD0C20FEF786FC012210212846FEF7D3
:10260000A9FD0C20FEF77EFC1120FFF7C7FC0C2073
:10261000FEF778FC3A20FFF7C1FC0520FFF7DCFC51
:10262000C520FFF7BBFC1A20FFF7D6FC3620FFF7CA
:10263000B5FC7020FFF7D0FCB220FFF7AFFC0520FF
:10264000FFF7CAFC0520FFF7C7FC0020FFF7C4FC1A
:102650003320FFF7C1FC3320FFF7BEFCB720FFF7A4
:102660009DFC0520FFF7B8FCBB20FFF797FC3F203F
:10267000FFF7B2FCC020FFF791FC2C20FFF7ACFC69
:10268000C220FFF78BFC0120FFF7A6FCC320FFF759
:1026900085FC0F20FFF7A0FCC420FFF77FFC202063
:1026A000FFF79AFCC620FFF779FC0120FFF794FCA6
:1026B000D020FFF773FCA420FFF78EFCA120FFF7CA
:1026C0008BFCE820FFF76AFC0320FFF785FCE9207C
:1026D000FFF764FC0920FFF77FFC0920FFF77CFC73
:1026E0000820FFF779FCE020FFF758FCD020FFF727
:1026F00073FC0520FFF770FC0920FFF76DFC092033
:10270000FFF76AFC0820FFF767FC1420FFF764FC62
:102710002820FFF761FC3320FFF75EFC3F20FFF726
:102720005BFC0720FFF758FC1320FFF755FC142033
:10273000FFF752FC2820FFF74FFC3020FFF74CFC3E
:10274000E120FFF72BFCD020FFF746FC0520FFF728
:1027500043FC0920FFF740FC0920FFF73DFC08205F
:10276000FFF73AFC0320FFF737FC2420FFF734FC87
:102770003220FFF731FC3220FFF72EFC3B20FFF721
:102780002BFC1420FFF728FC1320FFF725FC282042
:10279000FFF722FC2F20FFF71FFC2120FFF7FEFB95
:1027A0002920FFF7FBFB00218623EF220846FFF7D5
:1027B0009AFB4FF6FF70FFF7C3FB2046BDE8704061
:1027C00001220221FEF7C6BC0000024000080240C0
:1027D00070B50C460546FEF7C3FC2044286070BD6A
:1027E00010B525F0CFFB012803D0BDE8104025F03F
:1027F00023BA10BD0248016841F4700101607047BE
:1028000088ED00E00148FFF752B90000540D0020A8
:102810000148FFF74CB90000640C0020F0B50268D5
:10282000294C2A4D2A4E2B4F2B4B4FF0804CA04267
:1028300009D0604507D0A84205D0B04203D0B842C5
:1028400001D0984204D122F0700E4A6842EA0E028A
:10285000A0421BD0604519D0A84217D0B04215D075
:10286000B84213D0984211D01C4DA8420ED01C4D36
:10287000A8420BD01B4DA84208D01B4DA84205D042
:102880001A4DA84202D01A4DA84203D122F4407535
:10289000CA682A434D6922F080022A4302608A688E
:1028A000C2620A688262A04201D0984201D10969DD
:1028B0000163012141610169C90703D0016921F068
:1028C00001010161F0BD0000000001400004004072
:1028D00000080040000C004000040140004001409E
:1028E000004401400048014000180040001C004026
:1028F00000200040F0B5036A026A22F00102026281
:1029000042688469124E24F073050C682C4323F04E
:1029100002058B682B430D4DA84201D0B04205D172
:1029200023F00807CB683B4323F00403A84201D0FF
:10293000B04205D14D6922F4407215438A692A4399
:1029400042608461496841630362F0BD0000014058
:1029500000040140F0B5026A036A23F01003036229
:10296000436884690D6824F4E64444EA05248D68CC
:1029700022F0200242EA05120F4D104EA84201D06B
:10298000B04206D1CF6822F0800242EA071222F05C
:102990004002A84201D0B04207D14D6923F4406300
:1029A00043EA85038D6943EA85034360846149688E
:1029B00081630262F0BD000000000140000401409C
:1029C000F0B5026A036A23F4807303624368C46942
:1029D00022F4007224F073050C68124E2C438D68AB
:1029E00042EA05220E4DA84201D0B04206D1CF687E
:1029F00022F4006242EA072222F48062A84201D057
:102A0000B04207D14D6923F4405343EA05138D6961
:102A100043EA05134360C4614968C1630262F0BDC3
:102A2000000001400004014030B5046A026A22F44B
:102A3000805202624268C3690D6823F4E64343EAA8
:102A400005238D6824F4005444EA0534084DA84257
:102A500002D0084DA84204D14D6922F4804242EAD6
:102A600085124260C36149680164046230BD0000A0
:102A7000000001400004014070B50446006801698F
:102A8000E26821F44051114301612169A068E269C3
:102A900008436169114308432168CA6849F20C631D
:102AA0009A430243CA6020684169A26921F44071D7
:102AB0001143416131492068884202D0304988423F
:102AC00002D1FEF743FC01E0FEF730FCE26900238F
:102AD000192164253226B2F5004F626828D0A0FB88
:102AE0000101930F9200FDF73FFC0146B0FBF5F0AA
:102AF0006FF01802504301EB800006EB0010B0FBB2
:102B0000F5F000F0F002B1FBF5F002EB0012B1FBC2
:102B1000F5F06FF01803584301EB800006EB00104E
:102B2000B0FBF5F000F00F0021681044886070BD24
:102B3000A0FB010192185B41FDF716FC0146B0FBBA
:102B4000F5F00201B1FBF5F06FF01803584301EB0B
:102B5000800006EBC000B0FBF5F000F0F80002EBDF
:102B60004002B1FBF5F0584301EB800006EBC000DA
:102B7000B0FBF5F000F00700D6E7000000100140C0
:102B800000140140FEE70907090E002804DB00F1EC
:102B9000E02080F80014704700F00F0000F1E02002
:102BA00080F8141D704770B5044600256FF02F069D
:102BB00008E02068411C2160007805EB850106EBE8
:102BC000410145182068007800F004F80028F0D191
:102BD000284670BD3038092801D8012070470020F0
:102BE0007047000010B54421074800F0A5FC002202
:102BF0000A2106481EF0BEF9054CA06001F076FDE2
:102C00000020207010BD0000FC300120A14700080A
:102C1000FC0100202DE9F0470E468146174611467B
:102C2000304600F01CF94FF0FF3A00287DD000221A
:102C30003946304600F0BFF800284FF0000075D14B
:102C4000B6F90480B6F900305246A8EB0301491CDE
:102C50000AFA81F10FFA81FAB6F906C0B6F9021044
:102C6000ACEB010C0CF1010C02FA8CF2B7F802C0CB
:102C700012B2ACEB010C0FFA8CFCBCF1000F0EDDB4
:102C800063F30F0468F30F0501EB0C0061F31F44BD
:102C900060F31F45C9F800400120C9F80450B7F996
:102CA00006107388CB1AD21A12B2002A13DDB6F9B5
:102CB000063099420FDA338863F30F04B38861F367
:102CC0001F4463F30F05114461F31F4509EBC00175
:102CD000401C0C604D60B7F90220B6F902108A4220
:102CE00000DD1146B7F90630B6F90620934200DA46
:102CF0001A463B88B6F900C0521AA3EB0C031BB26C
:102D000012B2002B10DD002A0EDD634463F30F05C1
:102D10008B1863F31F456CF30F0409EBC00361F3D9
:102D20001F441C605D60401C01E01AE017E0B7F929
:102D3000043036889F1BAAEB070636B2002E0EDD44
:102D400063F30F0461F31F44334463F30F0511442D
:102D500061F31F4509EBC001401C0C604D60BDE8EC
:102D6000F0875046FBE770B5B1F90030B2F900408A
:102D7000A34200DC23460380B1F90250B2F90240BD
:102D8000A54200DD2C464480B1F90460B2F904503C
:102D9000AE4200DA35468580B1F90610B2F9062058
:102DA000914200DB1146C1800120AB4201DC8C4224
:102DB00000DD002070BDF8B50D460446B0F90000F6
:102DC000B1F900101646884247DBB4F90210B5F994
:102DD0000220914241DBB4F90410B5F9042091427C
:102DE0003BDCB4F90610B5F90620914235DC96B308
:102DF000ADF800006088ADF802003246694628460A
:102E000000F099F8002827D0A088ADF8000060886D
:102E1000ADF8020032466946284600F08CF80028DA
:102E20001AD02088ADF80000E088ADF802003246E4
:102E30006946284600F07FF800280DD0A088ADF83C
:102E40000000E088ADF8020032466946284600F0EE
:102E500072F8002800D00120F8BD0020F8BDB0F9BC
:102E60000020B1F904309A4213DCB0F90420B1F922
:102E700000309A420DDBB0F90220B1F906309A42D7
:102E800007DCB0F90600B1F90210884201DB01202D
:102E9000704700207047F8B50D460446B0F90400AD
:102EA000B1F900101646884243DBB4F90600B5F9C3
:102EB000021088423DDBB4F90000B5F904108842E5
:102EC00037DCB4F90210B5F90620914231DC76B353
:102ED000ADF800006088ADF8020032466946284629
:102EE00000F029F818BBA088ADF800006088ADF8A4
:102EF000020032466946284600F01DF8B8B920881D
:102F0000ADF80000E088ADF8020032466946284678
:102F100000F011F858B9A088ADF80000E088ADF8CD
:102F2000020032466946284600F005F808B1002044
:102F3000F8BD0120F8BD2DE9FC4114460E46B1F95B
:102F40000020B0F9001005468A423ADBB5F90400CA
:102F5000824236DCB6F90270B5F90220974230DBC6
:102F6000B5F906309F422CDC002C75DD401A9A1A08
:102F7000401C521C00B212B200EBD07002EBD272B5
:102F800040105210904200DB1046844200DD04469F
:102F9000ADF80010288800222044ADF804006888AD
:102FA000ADF80200688831462044ADF80600684656
:102FB000FFF7C1FF40B1BDF804002044ADF80400A4
:102FC0003FE00020BDE8FC81E8880022001BADF84E
:102FD0000200E888ADF8060031466846FFF7ABFF0F
:102FE00028B1BDF804002044ADF8040011E0A88821
:102FF0000022001BADF80000A888ADF8040031469F
:103000006846FFF798FF50B1BDF80000001BADF80F
:103010000000BDF80200001BADF8020016E0688851
:10302000ADF80200688800222044ADF80600314661
:103030006846FFF780FF70B1BDF80000001BADF8D7
:103040000000BDF806002044ADF806003146684691
:103050001BF0C2FAB6E7FFE70120B3E710B5B1F9FC
:103060000040B2F900309C4200DA23460380B1F9F7
:103070000240B2F902309C4200DA23464380B1F9A3
:103080000440B2F904309C4200DD23468380B1F94C
:103090000610B2F90620914200DC1146C18010BD35
:1030A00010B518B910F0AAFB002800D0406810BD78
:1030B000F8B507461DF00BFF0025374C0646009576
:1030C00037B1F868606038461EF022F8606802E0A8
:1030D00010F094FB606000691BF07AF96068406949
:1030E00008B11BF075F96068C0691BF071F9606880
:1030F000006A1BF06DF96068016991B11BF002FB79
:1031000020F0C8FC20F0EEF96068B0F85011D9B397
:103110000068017CC9071DD0C0684068D0B1002795
:1031200013E0A0F85051F8BDC11991F8301151B910
:1031300000F5AC7000F057FA616801EBC7010A6B4B
:103140000260496B41607F1CBFB26068B0F85011EB
:10315000B942E9D860684FF48071303016F0D8FD7C
:103160006068202100F5987016F0D2FD6068A0F824
:10317000505130461DF0A5FE009060680068436A1B
:1031800013B122680099984716F040FC00F032F81D
:10319000BDE8F84000F002B8C400002070B50A4D48
:1031A000002400BFC4EBC40655F8260008B116F091
:1031B000A1FC05EB86001C2116F0AAFD641CE4B2FC
:1031C000042CEFD370BD0000D831012008494968B4
:1031D0000AE04A68824202D00A68824203D10A7E2B
:1031E00042F001020A7649690029F2D170470000D5
:1031F00098000020704700000421014800F09CB9AD
:10320000F03001202021014800F096B9083101205A
:103210002DE9FF410446DDE90A671D004FF000007B
:1032200002D1B6F5807F2BD0039001900290ADF8CB
:103230000C100090ADF80410ADF80A20ADF80E2087
:103240003B463246294668461BF026F93B46324645
:10325000294601A81BF020F93B463246294602A820
:103260001BF01AF93B463246294603A81BF014F915
:10327000BDF90000BDF90430984209DA054608E0BE
:103280002080491E6080A180521EE280BDE8FF813F
:103290001D46BDF90820BDF90C108A4201DA164618
:1032A00000E00E46B54203DA984206DB184604E019
:1032B0008A4201DA104600E00846801E2080BDF9EF
:1032C0000030BDF90420934201DD1D4600E01546A3
:1032D000BDF90800BDF90C10884201DD064600E08A
:1032E0000E46B54205DD934201DD194604E0114664
:1032F00002E0884200DD0146891CA180BDF9023050
:10330000BDF90620934201DA1D4600E01546BDF9DD
:103310000A00BDF90E10884201DA064600E00E46AA
:10332000B54205DA934201DA194604E0114602E09B
:10333000884200DA0146891E6180BDF90230BDF97C
:103340000620934201DD1D4600E01546BDF90A0046
:10335000BDF90E10884201DD064600E00E46B5427A
:1033600005DD934201DD194604E0114602E0884282
:1033700000DD0146891CE18088E700002DE9F0416D
:1033800015460E460746114C1DF0A1FD80462B4602
:1033900032463946204614F0D3FB20B10020A0620B
:1033A000E06950B110E02C21204616F0B1FC4FF03E
:1033B0000040A0620020BDE8F08140461DF081FD84
:1033C000E06108B90120E0612046F4E72C310120DA
:1033D00010B51421074800F0AFF814F077FB40B1A6
:1033E0000549016005494160054981600549C160A1
:1033F00010BDFEE714310120A17401081D780108F9
:10340000ED7901086D7401087FB50E46040003D103
:1034100010F0F4F904002CD010F064FA002828D041
:1034200094F82800400724D4002506B3ADF80050D6
:10343000ADF80250204610F0F9F9401EADF8040036
:10344000204610F039FA401EADF806006A463146B3
:1034500002A8FFF788FC00280BD02068017C8907B0
:1034600008D5DDE90001C4E90C01012029E0A4F838
:1034700050517FBD82690AB102A9904700260AE037
:1034800004EBC601002202A83031FFF794FC0028AB
:10349000EFD1761CB6B2B4F85001B042F0D880B289
:1034A000202804D204EBC00002A9303004E0A4F8C4
:1034B000505104F1300069460DF0E1FEB4F85001BE
:1034C000401CA4F8500160680028D2D01DF02CFEEA
:1034D0007FBD70B5054600F012F804460CE02146A9
:1034E000284600F01EF806462146284600F0A2F8BD
:1034F000204616F0FFFA3446002CF0D170BD0028AB
:1035000000D04068704700B503460022FFF7F7FF80
:1035100003E01846521C00F004F80100F9D11046EF
:1035200000BD0068091D405870470068405870474A
:10353000002800D08068704700224260C91C21F03A
:10354000030182600160704770B50446006808306E
:1035500016F044FA050013D00146002220461EF062
:10356000D7FE2946204662681EF0CCFE616819B17C
:103570002A4620461EF0CCFE6560A06800B9A56012
:10358000284670BD2DE9F0410C4606000AD04CB12A
:10359000FFF7B5FFA04208D13046FFF7D5FF051E63
:1035A00001D01EE00020BDE8F0813068083016F040
:1035B00015FA051EF7D030682A46075930463946B5
:1035C0001EF0A0FE3A46294630461EF0A1FE2A46CD
:1035D000214630461EF09CFE2246294630461EF00B
:1035E00091FE2846DFE770B504460068083016F003
:1035F000F5F9050013D00146002220461EF082FE98
:1036000029462046A2681EF083FEA16819B12A4609
:1036100020461EF077FEA560606800B96560284608
:1036200070BD28B1416809B9806808B100207047B1
:103630000120704770B504000DD0FFF760FF002235
:103640008842204608D1FFF76CFF6060011E01D060
:1036500000221EE0A26070BDFFF76AFF884220686A
:1036600008440AD10168A16029B12046BDE8704034
:1036700000221EF047BE626070BD05682046FFF75D
:1036800050FF06460246294620461EF03BFE2A46CB
:1036900031462046BDE870401EF03ABE10B50446E3
:1036A000006882680AB121469047206800680028B7
:1036B00001D02060F5E710BD8068002801D0B0F986
:1036C000160070478068002801D0807E800970470E
:1036D00070B5164605460C4651EA06001AD0284633
:1036E00017F07CF8A86801233246018A2144018240
:1036F000A868418A314441822146284619F010FCCD
:1037000000220B21284613F06DF9012803D1284629
:1037100019F05FFB012070BD77B581B00E46050042
:1037200017D0622218F086FE040012D0206880B103
:1037300028463146632218F07DFE10F0FF0208D0C3
:1037400023682046039998470090BDF80000ADF823
:103750000C00039804B070BD2DE9F047074692B005
:10376000408C1A9E40F00800788490463A8499462E
:103770008A463289384618F05DFE0546A7F8209043
:1037800032895146384618F055FE0446788CA542D9
:1037900020F00800788403D12904B1EB044F68D0ED
:1037A000A7F8208032895146384618F043FE054676
:1037B0008046A7F82090514638460BF003FC31892B
:1037C00000682A461CF034F930890B2823D147F6CB
:1037D000FF794D4501D04C451DD1384618F0F1FF19
:1037E00000EBD0704510384617F0C9FE00EBD070E2
:1037F0004010C84506D1691C431C994200DA00E01C
:10380000194688464C4506D1691C421C914201DA92
:103810006C1C00E014461948FFF796FE05002BD0FB
:103820002F60C5E903843089A8806846C5F808A0E0
:103830000CF08CFF1248FF21CDE900501148029096
:103840001148039000200890CDE9090130880B90C1
:1038500070889DF8421040420C90F068079000205C
:1038600060F300018DF842103069069068460CF054
:10387000E1FF12B0BDE8F087FEE700002031012033
:10388000A96D0208A56F0208016F02081421014802
:10389000FFF752BE203101202DE9F84F0025904658
:1038A000894606462C460427E6E000BFF06807EB91
:1038B000C401405881017CD480B230EA090112D0A1
:1038C0005FF0000230EA08000FD00020824270D082
:1038D000F0686A46102150F8340082461BF0F6FD6D
:1038E000002871D103E00122ECE70120EEE76A46EF
:1038F000112150461BF0EAFD002865D16A461221CD
:1039000050461BF0E3FD00285ED16A461321504665
:103910001BF0DCFD002857D16A46152150461BF0EC
:10392000D5FD002850D16A46142150461BF0CEFD2B
:10393000F0BB6A460A2150461BF0C8FDC0BB6A4670
:103940006B2150461BF0C2FD90BB6A466C2150466D
:103950001BF0BCFD60BB6A46012150461BF0B6FD62
:1039600030BB6A46042150461BF0B0FD00BB6A46DE
:10397000022150461BF0AAFDD0B96A4603215046E9
:103980001BF0A4FDA0B96A46052150461BF09EFD20
:1039900070B96A46062150461BF098FD40B96A4648
:1039A000322150461BF092FD10B96A466E2101E0AB
:1039B0000AE060E050461BF089FD28B96A466D2197
:1039C00050461BF083FD10B10320BDE8F88F6A4616
:1039D000692150461BF07AFDF0BB6A466A215046C9
:1039E0001BF074FDC0BB6A466E2150461BF06EFD95
:1039F00090BB6A466D2150461BF068FD60BB6A466D
:103A0000372150461BF062FD30BB6A4638215046D4
:103A10001BF05CFD00BB6A46352150461BF056FD8D
:103A2000D0B96A46402150461BF050FDA0B96A4605
:103A3000452150461BF04AFD70B96A464121504667
:103A40001BF044FD40B96A46422150461BF03EFD42
:103A500010B96A46432100E009E050461BF036FDEC
:103A600028B96A46492150461BF030FD08B10225AD
:103A700001E005B90125641C708CC0F30510A0425B
:103A80003FF614AF2846A0E70148406870470000A1
:103A9000C40000207047C0F30410072800D9072095
:103AA00070470000A0F57F41FF3905D0002804D001
:103AB000712803D208490AE01F207047074971386E
:103AC00080B2096829B1064A5268904201D2085C66
:103AD00070470020704700005CC3020828020020E5
:103AE0003C02002010B518210348FFF725FD0349CB
:103AF0000120087010BD0000CC30012044020020DD
:103B00002DE9F04190460C46050015D0FCF7C7FCA6
:103B10000A4F06462146BA68284690470446BA68C6
:103B20002819414690470146701A03E06218AA5CC2
:103B30002A55641CA042F9D2BDE8F0815802002049
:103B40002DE9F041094D90460E466A681C4607462D
:103B500019469047306020B120686A6838440021D7
:103B60009047C8F80000BDE8F0810000580200202E
:103B70002DE9F04F87B08A46DDE910581F4693467D
:103B80000446002105B129805CB12078002809D0C5
:103B9000BAF1000F05D0002618F0060F15D000204E
:103BA00004E0002007B0BDE8F08F401C215C0A292A
:103BB00004D00D2902D00029F7D100E0401C002DCF
:103BC000F0D04FF0FF312980ECE75FEA887001D533
:103BD00041F6FF77894608468DF81410049127E0D6
:103BE0000498CDF8189068B34FF0000C05AA06AB06
:103BF000CDF80CC0CDF80080CDE9013220443B4621
:103C00005A4651461DF0D6FB06997A1A314417B22E
:103C10000EB288B104990144049120780A280BD08F
:103C20000D2809D0605C0A280FD00D280DD0084659
:103C3000205C08B1002FD3DC049848B105B12E8078
:103C40000498AFE74FF0010CD0E7481C0490F3E76D
:103C5000064A04A9204652689047002DF0D001463C
:103C60000022504612F0D2FF06B2E8E758020020C8
:103C70002DE9F0411746884606001ED0002F1CD0C3
:103C8000FCF70DFC04463846FCF709FC050014D08F
:103C90000B4A2C444146926830469047411903E054
:103CA000621BB25C3255641EA142F9D930442A46E7
:103CB0003946BDE8F04115F0EDBFBDE8F0810000E8
:103CC0005802002000230278232902D0012A0DD0B7
:103CD0000FE02AB10021012A04D0022A04D008E012
:103CE000012101E0017004E0017001E0202902D00F
:103CF0000123184670470221F6E72DE9F0410E46F0
:103D0000804602460021334608461DF091FD0446D8
:103D10000027401C15F062FE050008D02F553346E1
:103D20004246611C1DF084FD2846BDE8F081FEE797
:103D30002DE9F0471E4614460D468246DDF82090D8
:103D400015E000BF4FEA540808FB065739465046B5
:103D50004A469047002808DD44F30000C0EB5404B5
:103D600007EB0605A4F1010401E005DA4446002C46
:103D7000E8D12046BDE8F0873846FBE72DE9FC5F37
:103D80009B460CAB8A468146DDE9116093E8121030
:103D9000DDE90F575FEA80784FF030031AD45EB147
:103DA0005FEAC07808D000F00C0858EA0C0803D08D
:103DB000761E01E00B55641CBC4204D2202CF9D3C2
:103DC00001E00B55641C5FEAC07803D0B44201D215
:103DD000202CF6D35FEAC06825D55FEA40580AD4A4
:103DE0004CB1BC4201D0B44205D1641E03D0102DA9
:103DF00003D1641E04E0102D02D0022D0AD00EE083
:103E0000850603D4202C1ED2782506E0202C1AD259
:103E1000582502E0202C16D262250D55641C202C5A
:103E200011D20B55641C202C0DD2BCF1000F01D017
:103E30002D2306E0430701D52B2302E0030702D51B
:103E400020230B55641CCDE900BAC84615468146AF
:103E50008B46AA46800714D1274607E02A46DDE9AB
:103E600000316D1C2020C446E0477F1CB742F5D3CB
:103E700007E02A466D1C641EDDE900311BF80400D2
:103E8000C047002CF5D15FEA897006D409E02A46C4
:103E9000DDE900316D1C2020C047A5EB0A00B042CF
:103EA000F5D32846BDE8FC9F2DE9F04F8FB0994629
:103EB0008B46DDE91818DDE91C63DDE91A479246F7
:103EC0008646002209B923F01003580507AD00D536
:103ED000C9B1B1FBF4F004FB1010C0B20A2801D242
:103EE000303009E05FEA836C02D54FF0410C01E00D
:103EF0004FF0610C60440A38B1FBF4F1A854521C35
:103F000009B1202AE5D3CDF80880CDE90563CDE9D4
:103F10000052CDE903474B46524659467046FFF7DB
:103F20002DFF0FB0BDE8F08F2DE9FF4F8FB01CAC17
:103F3000DDE9239594E8030820AC94E8C00400244C
:103F400050EA010201D125F010056A050DF11C08A7
:103F500002D550EA010217D032463B46FCF704FA7C
:103F6000D2B20A2A01D2303206E0AB0601D5412393
:103F700000E061231A440A3A08F80420641C50EA5D
:103F8000010201D0202CE7D3CDE90084CDF808B0A0
:103F9000CDE90595CDE9036A0FAF97E80F00FFF76C
:103FA000EDFE13B0BDE8F08F9A4200D288547047FE
:103FB000704700002DE9FF4F89B005460A9800249C
:103FC0009246002800D1FE4D8FE1252804D02246DC
:103FD000641C53460A990BE2491C4FF0000808463E
:103FE0000C9101782B2919D004DC202919D0232920
:103FF00004D119E02D290ED0302909D00026C8B2ED
:10400000FEF7E8FDB0B10CA8FEF7CDFD06461FE0B7
:1040100048F001010AE048F0020107E048F004011D
:1040200004E048F0080101E048F01001401C884617
:104030000C90D6E70C9908782A2809D1169840C820
:104040001690002E02DA48F002087642491C0C91C4
:104050000C984FF0000B01782E2919D1401C0C90C0
:1040600048F480680078FEF7B5FD20B10CA8FEF793
:104070009AFD83460CE00C9A10782A2808D11698ED
:1040800002C81690002900DC0021521C8B460C92BD
:104090000C9801786C290AD004DC68290FD06A29B1
:1040A00019D128E0742929D07A2914D126E0401C9E
:1040B0000C90017848F480786C291CD00BE0401CEF
:1040C0000C90017848F08008682904D148F040013C
:1040D000401C88460C9002460078692822D015DCE6
:1040E00062281FD00DDC252871D050281AD05828FE
:1040F0007FF46DAF16E048F40071E9E748F4807191
:10410000E6E7632878D06428F2D10BE0732874D0F6
:1041100004DC6F2806D07028EAD103E0752801D0AE
:104120007828E5D178280DD058280BD070280BD0EE
:10413000502809D06F2816D0622816D00A2128F0FE
:10414000100016E0102107E05078102148F488781C
:10415000562804D1521C0C921078582807D0107899
:10416000502804D006E0082109E0022107E048F0C9
:10417000200080461078692803D0642801D028F0F8
:104180000C085FEA485001D528F00108107869282A
:104190001ED064281CD0562864D05FEA885072D59F
:1041A000169804ABC01D002283E806080292CDE9F0
:1041B000076820F007005346F0E80212CDE900122C
:1041C0001690224628460A99FFF7AEFE89E00AE1DA
:1041D0005FEA885024D5169804AFC01D20F007036D
:1041E000F3E802021693002387E80A08CDE907687E
:1041F000002A03DA012102E080E0A6E0002100238A
:10420000029119461B1A914101DA114603E000217F
:10421000404261EB020153462246CDE90001D1E75D
:104220005FEAC85004D5169804C80FE0524215E062
:104230005FEA486003D5169810F8042B06E05FEAA1
:104240000860F0D5169830F8042B12B21690CDE91C
:10425000021BCDE90468D00F002AE7DDCDE900207C
:1042600053461EE01698AAEB040202C8169048684E
:10427000006800900A980B6801192846FFF79AFE1B
:1042800004442FE0FFE75FEAC8500CD5CDE9021BDC
:10429000CDE9046816980021534604C8CDE90021F1
:1042A0001690224619E05FEA486003D5169810F888
:1042B000042B08E05FEA0860169803D530F8042B59
:1042C00092B200E004C816900020CDE90020CDE9AC
:1042D000021BCDE904685346224628460A99FFF797
:1042E000E3FD04460C98401C0C900C9908780028BB
:1042F0007FF46BAE54457DD222467DE001275FEA14
:10430000887006D509E02246641C534620200A998D
:10431000A84738467F1CB042F5D316992246641C44
:1043200011F8040B169153460A99A8475FEA887062
:1043300006D4D7E72246641C534620200A99A84792
:1043400038467F1CB042F5D3CCE7169850F8049B52
:1043500016904B46BBF1000001D0014601E04FF042
:10436000FF31484600E0401C02780AB1491EFAD2EB
:10437000C71A5FEA485003D558465F4500D3074641
:104380005FEA887006D512E02246641C534620205E
:104390000A99A84738467F1CB042F5D307E000BF12
:1043A000224609F10109641C53460A99A84799F865
:1043B000000040B15FEA4851F2D5BBF1010B01E0CA
:1043C000B13F0008ECD25FEA887006D48AE7224643
:1043D000641C534620200A99A84738467F1CB042E7
:1043E000F5D37FE706E02246641C534625200A9950
:1043F000A84777E7AAF10102534600200A99A84787
:104400000DB02046BDE8F08F10B502004FF000005F
:104410000CD04B1E194200D0FEE70A44521E9A43AC
:10442000B2F5004F02D20C2A01D9104610BD0C2063
:1044300010BD08444A1E401E9043114200D0FEE7C2
:10444000704700002DE9F0410F4601210025044688
:1044500041862E460BE01B49FCF708F910B16D1C94
:10446000ADB202E0608E401C6086761CB6B257F892
:10447000260010B101780029EDD1208EA8421ED06F
:10448000A06A002610B115F035FBA662E06A10B1F3
:1044900015F030FBE662E80015F0A0FAA06238B132
:1044A000680015F09BFAE06218B1A16A11B102E050
:1044B000FEE7FEE70025690015F02AFC2586BDE829
:1044C000F08100008C1C01082DE9F84F8146407AEC
:1044D0000F4600F00700022819D010468046974288
:1044E00000DD3A46164603202A4C2B4A00EB4600D4
:1044F00020F00305A06811681035411A636805EBC8
:10450000010C9C4505D2416821F0004124E0084699
:10451000E4E79D4219D892464FF0FF3B4819616885
:10452000884210D9002269461C48CDF800B00BF033
:10453000E3FC002269461A480BF0DEFCA168DAF8B9
:104540000000091AEAE7A068DDE7284615F046FAF8
:10455000C0B1416841F0004188EA6702416089EAE0
:1045600002010160416801F04041491C31F0804185
:1045700041608681A0F80E8005D500F110018160B0
:10458000BDE8F88FFEE7A16801F1100229448260BE
:10459000A160F5E7CC000020240200200DD900081E
:1045A00059FF000870B586B000224F4C8DF80820E6
:1045B0008DF80C208DF81020E2888A4201D0FF226D
:1045C000A270E18090F83C20142302F003024FF423
:1045D000B475012A24D0022A68D0A578AA4211D045
:1045E00010F8265F05EB051505EB4505B5FBF3F562
:1045F0002570407800EB001000EB4000B0FBF3F0BA
:104600006070A27004AA03A8CDE9000201EB41008A
:104610004FF6FF7101EA400002AB627821781BE09F
:10462000A678B24210D0868C06EB46067602B6FB20
:10463000F5F5A58090F8270000EB001000EB400096
:10464000B0FBF3F06070A27004AA03A8CDE90002E9
:10465000C9B202AB627844E008F059FE9DF80C0044
:10466000BDF8003044099DF8082064F30203ADF85A
:104670000030D308BDF800209DF8101063F3C70286
:10468000ADF80020CA08BDF8001062F30C21ADF8A7
:1046900000108108BDF8000061F34F30ADF8000054
:1046A00080B20090BDF8000006B070BDA678B2429E
:1046B00010D0868C06EB46067602B6FBF5F5A58093
:1046C00090F8260000EB001000EB4000B0FBF3F088
:1046D0002070A27004AA03A8CDE90002CAB2217812
:1046E00002ABA088B8E700007801002010B5084CA4
:1046F000012020700748FEF702FF0028A06803D0C1
:10470000BDE810401CF010BDBDE810401CF000BD1D
:10471000FC010020FC30012010B5044690F8420056
:10472000A16B820709D4B4F840204AB1A2F57F43B7
:10473000FF3B1BD0521EA4F84020B4F84020AAB979
:1047400009B1820712D521461448FEF773FFFFF71F
:10475000CDFFE16809B120468847216909B12046AB
:1047600088472046BDE8104015F0C4B9E26B5242BC
:104770002263002911D0820702D4626B5242226365
:104780004210521C62F3410084F84200A26A206A7F
:104790002262A062E06AE162A06310BDFC300120E9
:1047A00070B5304D68681CF08CFB0646687880F068
:1047B0000100687047E00020287094F84200697892
:1047C000C0F380028A4242D061F3820084F8420042
:1047D000216B8A19030719D4002917DC002A15DB7D
:1047E000C00709D1616939B120468847216A01446F
:1047F0002162A16A0844A062A16809B120468847E5
:1048000094F8420040F0080084F84200206B8019C0
:10481000206316D4E16A884200DD2163E169204605
:1048200088470146606A884204D0616262680AB1C2
:1048300020689047D4E90B01814202DB2046FFF754
:104840006BFF287818B10848FEF759FE03E02146AF
:104850000548FEF766FE0400ADD11CF038FB686029
:1048600070BD0000FC010020FC30012070B5044642
:1048700040680D4608B1FFF7F9FF2268002A04D00E
:1048800029462046BDE87040104770BD89B20CF043
:104890005BBC89B20CF058BC89B20CF091BC000032
:1048A0002DE9F14FDFF8C0A0DFF8C0B092B00025CD
:1048B0004FF4003940F267164FF6FF78DAF814002B
:1048C0000CF084F8044619F0B7F80EF097FF0EF0DC
:1048D000ADFF00EBD070411005201FF0BFFA07B20A
:1048E0000EF08CFF0EF0A2FF00EBD07041100520FF
:1048F0001FF0B4FA01B23A46204619F05BFB4F466E
:104900004A462046129915F099FD594600201FF09D
:10491000A5FA0EF0D8F901463A46204619F033FCC4
:10492000002120460CF04CFCFA2132201FF096FAB0
:10493000074668460BF00AFF0D4809A9CDE900407B
:104940000020089081E8C1000E97ADF840806846CD
:104950000BF070FF204608F099FC6D1C082DADD3BC
:1049600013B0BDE8F08F000030030020F0FFFF001F
:104970009348000810B50B481AF057FF0621094864
:104980001AF07EFF07482838007808B17F2100E040
:10499000FF2104481AF06CFFBDE810400148FFF702
:1049A0007FBF00005803002010B50B481AF03DFFF0
:1049B000022109481AF064FF07482838007808B136
:1049C0007F2100E0FF2104481AF052FFBDE81040AB
:1049D0000148FFF765BF0000580300202DE9FF4F95
:1049E00099B09846DDE926B12D9816468A464FF0D3
:1049F0000009042811D0052811D0062812D0142847
:104A000070D101270225002418FB06F00E901A9899
:104A1000401E0D90701E069051E10027F2E701271D
:104A20000325F0E701270225FFF72EF80068D0F8EC
:104A30003890E8E7289860430BEB202229986043E0
:104A40000AEB202110124FEA212E7DD41A9B9842A6
:104A50007ADABEF1000F77DBB64575DAD2B2CBB2A7
:104A6000802A05DAC2F17F024FF0FF31520003E0E5
:104A700001215200A2F580720992802B05DAC3F160
:104A80007F034FF0FF325B0003E001225B00A3F5E0
:104A900080730A930EFB080C199B0CFB05330793DC
:104AA0004318119372D4DDF834C063456EDC1EEBFD
:104AB00002036BD4DDF818C0634567DCDDF81CC069
:104AC00011FB05C1CDE915C112FB08F101FB05C1C0
:104AD0000C91D7B32D99052905D014290BD006299F
:104AE00055D066E0EFE01598807807900C988178B3
:104AF0001698807810E0199A0E990EFB08FC02EBCC
:104B000041010A180EFB08111CF8020007901198C9
:104B100003FB08F3085C995C079A91420AD00A9A51
:104B200011FB02F20A99C1F58073079911FB032169
:104B3000C1F30721079A90420DD0099A10FB02F2A7
:104B40000998C0F5807301E02FE035E0079810FB6D
:104B50000320C0F3072008442C994008085527D0AB
:104B600015980178407801EB0020ADF80C000C9806
:104B70000178407801EB0020ADF81000169801781C
:104B8000407801EB0020ADF8080023E04CE01598D8
:104B900001881FFA89F0814207D00C990988814267
:104BA00003D016990988814203D12C990020085519
:104BB00083E0FF210846CEE715980088ADF80C0089
:104BC00016980088ADF808000888ADF810002C98F9
:104BD000FF210155BDF80C00BDF81010884209D125
:104BE000BDF80810884205D12B98BDF80C1000EBD9
:104BF000440017E00A98C2B2DDE903100EF08CF908
:104C000004900998C2B2DDE902010EF085F97F2215
:104C1000029004990EF080F900902B98BDF80010D6
:104C200000EB4400018048E0079B93F800C05B78EC
:104C30000CEB0323DDF8ACC09BB22CF81430DDF88C
:104C4000B4C0BCF1050F06D0BCF1060F06D0BCF114
:104C5000140F09D10AE0079B9B780FE01FFA89FC2B
:104C6000634501D1002309E0FF2307E0199B0EFBF8
:104C7000083C0E9B00EB43031CF8033008B90029E5
:104C800005DBDDF834C0604503D1002901DD09985A
:104C90000AE0BEF1000F01D1002A04DB06998E451F
:104CA00008D1002A06DD0A98C0F1FF0010FB03F0CE
:104CB000010A00E000212C980155641C24B22A98B6
:104CC0008442FFF6B7AE1DB0BDE8F08F10B5818FFE
:104CD00092B00446A9B168460BF038FD0B4801219B
:104CE000CDE90040A08F0B9000200890CDE909018C
:104CF000074807900748039068460BF09BFD12B0E9
:104D000010BD12B0BDE810401EF010B8A52D02086D
:104D10000B080108A72D0208F8B50EF06FFD026818
:104D20002B4C2A495162617869B1406820B1016811
:104D3000E16001211CF0FBF90BF002FD016821612B
:104D400001211CF0F4F919F002FF054618F074FE79
:104D50000022FF21284619F038FA284613F0F0FC0B
:104D600002221146A06119F0E3F8284613F0E8FC8E
:104D70000021E0610B4600910D22A16915F0C2FBF4
:104D8000284615F0A1FF606118F056FE284616F07F
:104D9000F6FBE169498B401A801E06B2284617F0DF
:104DA00010FD01463246606919F004F900231A46E5
:104DB0000521606915F098FB054828301AF02BFC96
:104DC0002846BDE8F84019F003BB0000ED1E0208BC
:104DD0003003002010B50446406882080AD04968B4
:104DE00021F00301091D08446060204600F042F8EC
:104DF000204610BDFEE74068103120F003008842D5
:104E000001D301207047002070472DE9FC4705467B
:104E100048680C4620F0030001AA69461DF040F8DE
:104E2000DDE9007005EBC71101EB80098046D9F878
:104E3000380060B164B1C4E9020504F10806C46039
:104E400030460421FFF7F5FA864202D0FEE7FEE77E
:104E5000FEE7C9F838400120296900FA07F211433A
:104E6000296105EB870100FA08F04A6902434A61AB
:104E7000BDE8FC8710B5044600F087F8046010BD5B
:104E80002DE9FC4706464FF000000D000090074654
:104E9000019042D00C46E9460DF10408802907D361
:104EA000084621F079FF411F01208840401E04443C
:104EB0004246494620461CF0F3FF009C092C2CDAA0
:104EC00006EB8400019A40694FF0FF3101FA02F2CB
:104ED00010400CD1641C3069A14008401DD021F065
:104EE00053FF0446009006EB8000406978B121F042
:104EF0004BFF034606EBC411019001EB8000876B6A
:104F00005FB1786820F00300A84201D2FEE7FEE717
:104F100039463046009A1EF00BFF3846BDE8FC8744
:104F200010B50446FFF7A6FF416841F00201416059
:104F3000606840F00100606010BD10B5044600F0EC
:104F400024F8416821F002014160606820F001000E
:104F5000606010BD70B506460D46084600F015F8B5
:104F6000040010D02079C0070BD0686880080BD0EF
:104F70002146304600F03CF821462846FFF72AFF3C
:104F80000546284670BDFEE7FEE7426800F10801CD
:104F900022F00300001F0844910800D1FEE770478B
:104FA00070B506460C004FF000001ED0F2B120791B
:104FB0001546C0071BD011462046FFF71CFF78B1ED
:104FC0002946204600F025F805462046FFF752FF07
:104FD0006868294640F0020068603046FFF715FF18
:104FE0002046FFF7AAFF04F1080070BDFEE7FEE7C8
:104FF0007CB5054648680C4620F0030001AA6946C6
:105000001CF04EFFDDE90023214628461EF090FEED
:105010007CBD2DE9F0410D46044600F10801281F32
:105020000E18606806F1080720F00300401BA0F18D
:10503000040838460421FFF7FCF9874200D0FEE758
:10504000606820F0030108EB0500001D814200D0DC
:10505000FEE7307900F0030040EA0800706020F0BD
:1050600003000C2800D2FEE7207900F0030028435B
:1050700060603046FFF754FF3046BDE8F081000025
:1050800010B50B481AF0D1FB012109481AF035FC84
:1050900007482838007808B17F2100E0FF21044844
:1050A0001AF01FFCBDE8104001481DF095BE00003D
:1050B0005803002010B50D481AF0B7FB47F6FF71F2
:1050C0000A481AF03AFD012108481AF016FC074870
:1050D0002838007808B17F2100E0FF2103481AF04A
:1050E00000FCBDE8104001481DF076BE58030020CA
:1050F00010B50F481AF099FB04210D481AF01DFD58
:1051000001210B481AF0F9FB09482838007808B14A
:105110007F2100E0FF2106481AF0E3FB0421044848
:105120001AF0E7FBBDE8104001481DF055BE000035
:105130005803002010B50F481AF077FB04210D48E2
:105140001AF0FBFC01210B481AF0D7FB094828385C
:10515000007808B17F2100E0FF2106481AF0C1FB6A
:105160000C2104481AF0C5FBBDE8104001481DF0B1
:1051700033BE00005803002010B50D481AF055FB4F
:1051800004210B481AF0D9FC012109481AF0B5FB9B
:1051900007482838007808B17F2100E0FF21044843
:1051A0001AF09FFBBDE8104001481DF015BE00003D
:1051B0005803002010B50F481AF037FB04210D48A2
:1051C0001AF0BBFC01210B481AF097FB094828385C
:1051D000007808B17F2100E0FF2106481AF081FB2A
:1051E000032104481AF085FBBDE8104001481DF07A
:1051F000F3BD00005803002010B50F481AF015FB4E
:1052000004210D481AF099FC01210B481AF075FB96
:1052100009482838007808B17F2100E0FF210648BE
:105220001AF05FFB022104481AF063FBBDE810404E
:1052300001481DF0D1BD00005803002010B50F48F3
:105240001AF0F3FA04210D481AF077FC01210B48FB
:105250001AF053FB09482838007808B17F2100E094
:10526000FF2106481AF03DFB062104481AF041FBD5
:10527000BDE8104001481DF0AFBD000058030020FC
:1052800038B5044612F0BEFF054612F0F0FF0028C4
:10529000204605D0218FE18617F09BFD012038BD07
:1052A00011F05EF9002820461ED011F025F8218F5C
:1052B000E08E81420CD02087E08E00906A461C214F
:1052C000204611F08FFB0128E9D1204617F081FD1F
:1052D000284612F0D8FF0428E0D1204616F04AF9FB
:1052E000002112F033F8D9E711F096F9D6E770B53E
:1052F00011F074FB054616F083F9044628460CF0BD
:105300008DFD01462046BDE8704000221BF0E8B844
:105310002DE9F04F0D4687B00446002116F05EF8E7
:1053200060B32946204600F061FA2946204600F085
:105330006FF80021204616F07BFF059000212046E3
:1053400017F01EF804900021204616F042FE0128B6
:1053500000D0002080460021204617F061F9074662
:105360000021204616F0B0FE42F2D17906464F45A4
:105370000BD1608C000508D4012707E007B0284650
:10538000BDE8F04F1C2114F0C3BC0027204616F0E6
:10539000A3F8DFF878A0834620460021BAF804205D
:1053A00017F048F8D5F810C0AB682968CDF800C0F0
:1053B000CDF80C80CDE90131C2B239465846059B83
:1053C00009F072FE28834E4504D1608C400501D45B
:1053D000012600E00026204616F064F80746204625
:1053E0000021BAF8082017F025F8C2B26869002435
:1053F0006B68E9688DE81B0031463846049B09F06C
:1054000053FE688307B0BDE8F08F0000EC00002079
:105410002DE9F34F81B00C46019809F0C9F8064612
:10542000019816F059F88246304601F006F82061DE
:10543000400014F001FB20602069400014F0FCFAE9
:10544000002541F69A79A0603AE036F91510DFF8A8
:105450002081494533D10027DFF818B11FE03946D4
:10546000019815F0BBFF5946009017F0FAF9A8B95A
:10547000009809F0AFF8012810D1009809F0A0F8C1
:10548000A8420BD1009817F09CF94146404501DA3B
:10549000084602E0009817F094F980467F1C0198B6
:1054A00015F0AEFFB842DAD8B8F1000F03DBA168FF
:1054B00021F8158003E0A168002021F815006D1C7B
:1054C0002069A842C1D800252F46284641F69B787E
:1054D0004B4615E036F91010414504DB0D44A5F5A7
:1054E000F8559B3D0BE0994204D1A16831F81010AA
:1054F000394403E0A26822F8101039440FB2401C6E
:1055000021698142E6D80021019816F091FE2169B7
:10551000C1F1010200FB02A0C01B00B2002800DAAA
:10552000002000224FF0FF331146C44611E000BFB7
:1055300036F9117067450BDBA7F5F8579B3F3AB278
:1055400010FB02F3B3FBF5F3A76827F811300B4605
:10555000491C27698F42EBD8002B07DBA91A41436E
:10556000B1FBF5F1401AA16821F81300BDE8FE8FE8
:1055700001E0FFFF010006002DE9F14F0022114676
:10558000009818F0BDFB0021009816F05BFD044662
:105590000021009816F000FF20440FFA80F9002146
:1055A000009816F0FDFD20440FFA80F8009816F0E0
:1055B000BDFC00EB090101EB0800DFF898A006B282
:1055C0005446009815F01CFF074600252AE0009875
:1055D00021498068006850F82500834617F041F99A
:1055E000F8B9584617F04EFC40BB0021584616F05B
:1055F000C1FC18B3012821D002281FD003281DD0D8
:105600000021584617F024F858B9BBF81A10BBF817
:105610001600081A401C00B24844A04200DB0446B1
:1056200024B26D1CBD42D2D3544504D004EB080013
:1056300000B2B04200DC3046BDE8F88F0098BBF9FC
:105640001A10B0F91600081A411CA142E8DB0C46FA
:10565000E6E7000001E0FFFF010004002DE9F84F3C
:1056600000228046114618F035FB0021404616F016
:10567000E9FC04460021404616F03AFE20440FFAA9
:1056800080FA0021404616F0EBFD20440FFA80F925
:10569000404616F059FC00EB090101EB0A00DFF867
:1056A00044B105B25C46404615F0AAFE074600210B
:1056B000404616F07CFC01284FF0000644D078E00C
:1056C000D8F808004849006850F82600009017F004
:1056D000C8F8C0BB009817F0D5FB50B10098B8F9D6
:1056E0001810B0F91400091A481CA0422ADB4C1CFF
:1056F00028E00021009816F03DFC58B1032809D09D
:10570000062807D0082805D00021009816F09AFF37
:1057100058B118E00098B8F91810B0F91400081A38
:10572000411CA1420EDB0C460CE0009814300090A6
:105730000BF01FFE5044A04204DB00980BF019FE52
:1057400000EB0A0424B2761CBE42B9D35C453BD0C0
:1057500004EB090033E000BFD8F8080022490068D4
:1057600050F82600009017F07CF808BB009817F05E
:1057700089FB60BB0021009816F0FCFB38B30128C0
:1057800025D0042823D0072821D00021009816F026
:105790005FFF68B90098143000900BF0EAFD4844B0
:1057A000A04204DB00980BF0E4FD00EB090424B2F6
:1057B000761CBE42D0D35C4506D004EB0A0000B292
:1057C000584501D0A84200DC2846BDE8F88F009873
:1057D000B0F91810B8F91400091A481CA042E6DB09
:1057E0004C1CE4E701E0FFFF010004002DE9F84F45
:1057F0000C46834609F0E2FA064600F01EFE6061A0
:10580000400014F019F960606069400014F014F968
:10581000002541F69A79E0603AE036F91500DFF8A4
:105820002881484533D10027DFF820A11FE0394601
:10583000584615F0D3FD5146009017F012F8A8B95C
:10584000009809F043FB012810D1009809F034FBBF
:10585000A8420BD1009815F092FE4146404501DA6E
:10586000084602E0009815F08AFE80467F1C5846E4
:1058700015F0C6FDB842DAD8B8F1000F03DBE168D5
:1058800021F8158003E0E168002021F815006D1C67
:105890006069A842C1D800252F46284641F69B786A
:1058A0004B4615E036F91010414504DB0D44A5F5D3
:1058B000F8559B3D0BE0994204D1E16831F8101096
:1058C000394403E0E26822F8101039440FB2401C5A
:1058D00061698142E6D80021584616F051FD8146A3
:1058E000584615F0DFFD01466069C0F1010209FB71
:1058F0000210C01B00B2002800DA002000224FF086
:10590000FF331146C44610E036F9117067450BDBD2
:10591000A7F5F8579B3F3AB210FB02F3B3FBF5F340
:10592000E76827F811300B46491C67698F42EBD8AE
:10593000002B07DBA91A4143B1FBF5F1401AE168DE
:1059400021F81300BDE8F88F01E0FFFF0100060019
:105950001CB50B8804892344ADF800304B8844897A
:105960002344ADF802308B8804892344ADF8043019
:10597000C98843891944ADF80610436969469847B8
:105980001CBD00002DE9FF4F89B0C8781A9CC007E4
:105990000D46002801D0F84800E0F848069001D0F4
:1059A000F74800E0F748049001D1F54800E0F548D9
:1059B0004FF010034FF00C0E4FF0080BCDF8140011
:1059C0006188A2884FF0000AA1EB0201504609B29B
:1059D0005246D4F810C00FE002EB8207E66803EBF2
:1059E000870816F808805FEAC87809D00BEB8707AC
:1059F000F65B891B09B2521C9445EDD8002254E095
:105A00000EEB8707F65B304400B2F4E7E66802EB82
:105A1000820703EB870CB146CDF820C016F80C6066
:105A2000F60741D1002872D091FBF0F80EEB870603
:105A3000079639F8066006FB08F60FFA86FCCDF8E3
:105A400000C04FF0060C0CEB870C042639F90C80D3
:105A500006EB8706DDF800C039F90660E04500DC9A
:105A6000C446664504DC009EC446B04500DC66467C
:105A7000DDF800C00196664506D0DDF820C04FF085
:105A80000108C24649F80C80D4F80C80019E0BEB4B
:105A9000870728F80760D4F80CC0079F3CF8077008
:105AA000C01B891B00B209B2521C26699642ADD8B0
:105AB000BAF1000F84D10021099816F084FA012868
:105AC00026D000270020ADF80800ADF80C0003A98F
:105AD00002A8CDE900012089B4F9022003B2287898
