:020000040800F2
:10000000B00A002039020008C7130008AD1000082C
:10001000C51300082F0400089D1800080000000008
:10002000000000000000000000000000E9160008C9
:100030003104000800000000C9130008EB16000896
:10004000530200085302000853020008530200083C
:10005000530200085302000853020008530200082C
:10006000530200085302000853020008530200081C
:10007000530200085302000853020008530200080C
:100080005302000853020008530200080000000059
:100090000000000000000000000000005302000803
:1000A00053020008530200085302000853020008DC
:1000B00053020008530200085302000853020008CC
:1000C00053020008530200085302000853020008BC
:1000D0005302000853020008530200080000000009
:1000E00053020008530200085302000800000000F9
:1000F00000000000000000000000000053020008A3
:1001000000000000530200085302000853020008D8
:1001100000000000000000000000000000000000DF
:10012000530200085302000853020008530200085B
:100130005302000800000000000000000000000062
:100140000000000000000000000000005302000852
:10015000530200085302000853020008530200082B
:1001600053020008530200080000000000000000D5
:10017000000000000000000000000000000000007F
:100180000000000053020008000000000000000012
:10019000530200085302000800F002F800F03CF897
:1001A0000AA090E8000C82448344AAF10107DA45D2
:1001B00001D100F031F8AFF2090EBAE80F0013F0E8
:1001C000010F18BFFB1A43F0010318475417000032
:1001D00074170000103A24BF78C878C1FAD85207C3
:1001E00024BF30C830C144BF04680C6070470000B1
:1001F0000023002400250026103A28BF78C1FBD830
:10020000520728BF30C148BF0B6070471FB501F0CF
:1002100075FB1FBD10B510BD00F0D4F81146FFF7F7
:10022000F5FF01F04DFB00F0F2F803B4FFF7F2FF29
:1002300003BC00F0F5F80000094880470948004772
:10024000FEE7FEE7FEE7FEE7FEE7FEE7FEE7FEE786
:10025000FEE7FEE704480549054A064B70470000E3
:100260008117000899010008B0040020B00A00209E
:10027000B0060020B006002053EA020C00F06980AE
:100280002DE9F04B4FF00006002B1FBFB3FA83F5AA
:1002900003FA05F424FA05F65E4012BF1643B2FADB
:1002A00082F502FA05F4C5F120051EBF22FA05FC0D
:1002B00044EA0C04203556EA044C4FEA144418BFB3
:1002C000641C4FF000084FF00009904271EB030CE2
:1002D00039D3002919BFB1FA81F701FA07F6B0FA4C
:1002E00080F700FA07F6C7F120071EBF20FA07FCC7
:1002F00046EA0C062037B6FBF4FCA7EB0507103FD7
:1003000007F01F0BCBF120060CFA0BFB2CFA06F6BC
:1003100044BFB3460026202FA4BF5E464FF0000B1B
:100320005BEA060C08BF4FF0010B19EB0B09ABFBA6
:10033000027C48EB0608C01B06FB02CC0BFB03CC7F
:1003400071EB0C01C1E70B46024641464846BDE849
:10035000F08B13B54FF000004FF00001AFF30080B9
:10036000BDE81C4070474FF0000200B513469446AC
:100370009646203922BFA0E80C50A0E80C50B1F1FD
:100380002001BFF4F7AF090728BFA0E80C5048BF11
:100390000CC05DF804EB890028BF40F8042B08BFAF
:1003A000704748BF20F8022B11F0804F18BF00F8AB
:1003B000012B704770477047704700000048704736
:1003C0004C0400207546FFF7F9FFAE46050069466C
:1003D000534620F00700854618B020B5FFF73AFFD6
:1003E000BDE820404FF000064FF000074FF0000836
:1003F0004FF0000B21F00701AC46ACE8C009ACE8B7
:10040000C009ACE8C009ACE8C0098D46704710B51A
:100410000446AFF300802046BDE81040FFF705BF5B
:1004200001491820ABBEFEE7260002007047FEE738
:10043000704772B6FEE7000070B5044600F00CF994
:100440000546601C02D004480078044400F004F91A
:10045000401BA042FAD370BD000000202DE9F84FE8
:10046000DFF8B8A10022012403254FF00F090AF19B
:10047000040BAAF1040E00BF0B6804FA02F6334025
:10048000B34273D10F7907F00307012F01D0022F78
:1004900016D187684FEA420805FA08FC27EA0C07DC
:1004A000D1F80CC00CFA08FC4CEA070CC0F808C0E4
:1004B0004768B7430E79C6F3001696403E43466040
:1004C0000E79F643B6070DD0C768560005FA06FC4C
:1004D00027EA0C07D1F808C00CFA06FC4CEA070C16
:1004E000C0F80CC00E7906F00306022E10D1D60813
:1004F00000EB8608D8F8206057074FEAD76C09FA56
:100500000CF7BE430F6907FA0CF73743C8F82070A1
:1005100006684FEA420C05FA0CF7BE430F7907F064
:10052000030707FA0CF7374307604E6816F4403F9D
:100530006DD03B4E376847F480473760366822F00D
:10054000030706F480460096364E07EB060CDCF8EF
:10055000086897073F0F09FA07F826EA0806DFF848
:10056000C880404503D14FF000081EE04FE0DFF89F
:10057000BC80404502D14FF0010816E0DFF8B080A2
:10058000404502D14FF002080FE0DFF8A880404557
:1005900002D14FF0030808E0DFF89C80404502D10B
:1005A0004FF0040801E04FF0070808FA07F848EA9E
:1005B0000608CCF80888DAF800605746D1F804C07D
:1005C0009E435FEACC2C00D51E433E60DBF8006002
:1005D0005F46D1F804C09E435FEA8C2C00D51E43D1
:1005E0003E60DEF800607746D1F804C09E435FEAC3
:1005F0008C3C00D51E433E60084F083F3E68D1F852
:1006000004C09E435FEACC3C00D51E433E60521CB2
:10061000102AFFF431AFBDE8F88F0000083C01401C
:100620004438024000300140000002400004024013
:1006300000080240000C024000100240426921EA1A
:1006400002030A4043EA0241816170470AB18161B5
:1006500070470904FBE7000001488068704700000C
:1006600000000020024881680278114481607047D0
:10067000000000200B4810B5016841F400710160D2
:10068000016841F480610160016841F4807101609A
:10069000032000F061F80F2000F006F800F024F8C5
:1006A000002010BD003C024070B50D4D04464FF4D3
:1006B0007A712878B1FBF0F00A490968B1FBF0F0D3
:1006C00000F077FC48B9102C07D200222146501EBA
:1006D00000F022F800206C6070BD012070BD0000A9
:1006E000000000200C0000200A4808B5016841F411
:1006F00080410160006800F4804000900548001FC0
:10070000016841F080510160006800F08050009065
:1007100008BD000044380240F0B40E4B1B680C4684
:10072000C3F30223C3F10705042D00D90425191DC5
:10073000072901D2002300E0DB1E012606FA05F19D
:10074000491E214099409E40761E16403143F0BC20
:1007500001F0A5B80CED00E0064900F007020868BA
:100760004FF6FF03184040EA0220034A1043086096
:10077000704700000CED00E00000FA052DE9F0479D
:100780000E46050065D0DFF81481D8F80000F7B2F6
:1007900000F00700B04207D288F80070D8F80000D7
:1007A00000F00700B04254D128683D4C810712D5B3
:1007B000400703D5206840F4E05020602878000707
:1007C00003D5206840F4604020602068A96820F0CC
:1007D000F000084320602878C0072DD030496868B1
:1007E0000839012812D0022813D0032811D0096833
:1007F000890700292DDA216821F0030101432160D6
:10080000FFF72AFF814641F2883A0EE00968890322
:10081000EFE709688901ECE7FFF71EFFA0EB09018C
:10082000514502D90320BDE8F0872068696800F0CF
:100830000C00B0EB810FEFD1D8F80010404601F06A
:100840000701B14207D90770006800F00700B04205
:1008500001D00120E7E72878400705D52068E9683E
:1008600020F4E050084320602878000706D520686F
:10087000296920F4604040EAC100206000F038F8A7
:100880002168084AC1F30311515CC8400649086059
:1008900006480068FFF708FF0020C4E7003C02405C
:1008A00008380240061900080C000020040000204F
:1008B0000448054900680968044AC1F38221515C73
:1008C000C84070470C000020083802401619000884
:1008D0000448054900680968044AC1F34231515C83
:1008E000C84070470C000020083802401619000864
:1008F000154810B5006810F00C02144813D01449C4
:10090000042A0FD0082A0ED10F4C241F2268236816
:1009100002F03F025B0207D52068C0F38810A0FBFD
:10092000010106E0084610BD2168C1F38811A1FB52
:1009300000010023FFF7A0FC2168C1F30141491C1D
:100940004900B0FBF1F010BD083802400024F4006B
:1009500040787D012DE9F84F04006ED02078DFF853
:100960004C93C007A9F104054AD009F104000168BD
:10097000C1F38101012908D00068C0F38100022879
:100980000AD1D9F80000400206D52868800337D57F
:1009900060680028E1D033E06068B0F5803F10D097
:1009A000B0F5A02F286810D020F480302860286887
:1009B00020F4802028606068A8B1FFF74DFE06464D
:1009C0000DE0286840F48030F4E740F4802028608F
:1009D000F7E700BFFFF740FE801B642873D8286844
:1009E0008003F7D50CE0FFF737FE064605E000BFB1
:1009F000FFF732FE801B6428F0D828688003F7D404
:100A00002078DFF8AC8280074FF0000A3ED5A74877
:100A1000001D016811F00C0F08D00068C0F38100C0
:100A200002280BD1D9F80000400207D428688007BB
:100A300016D5E068012800D112E033E1E068B8B1D2
:100A40000120C8F80000FFF707FE064605E000BFDA
:100A5000FFF702FE801B0228C0D828688007F7D560
:100A60002868216920F0F80040EAC10028600DE004
:100A7000C8F800A0FFF7F0FD064604E0FFF7ECFD24
:100A8000801B02281FD828688007F7D42078000729
:100A900022D5864F87486169703771B101210160A5
:100AA000FFF7DAFD064604E0FFF7D6FD801B0228BB
:100AB00009D838688007F7D50EE0C0F800A0FFF726
:100AC000CBFD064605E082E0FFF7C6FD801B02284D
:100AD0007DD838688007F7D42078400768D5DFF8DC
:100AE000CCB100270BF13C0BDBF80000C0000BD4AD
:100AF000DBF8001041F08051CBF80010DBF800006B
:100B0000012700F0805000906B4E3068C00510D473
:100B1000306840F480703060FFF79EFD009005E083
:100B2000FFF79AFD0099401A022850D83068C00596
:100B3000F6D55E4EA0686C3601280FD005283068C7
:100B400010D020F001003060306820F004003060E8
:100B5000A068B8B1FFF780FD00900FE0306840F06A
:100B60000100F4E740F004003060F7E7FFF774FDA0
:100B70000099411A41F28830814266D83068800776
:100B8000F4D50EE0FFF768FD009007E0FFF764FD85
:100B90000099411A41F28830814256D83068800766
:100BA000F4D42FB1DBF8001021F08051CBF8001005
:100BB000A069C8B33D49091D0968C1F38101022933
:100BC0004AD00228504607D0C8F8600000E03CE058
:100BD000FFF742FD04463BE04746C8F86000FFF7D8
:100BE0003BFD064605E000BFFFF736FD801B0228EF
:100BF0002BD828688001F7D4D4E907010843A16AFB
:100C00002E4A490802EB0141626A41EA8211084317
:100C100094F82C1040EA0161C9F8001001203866F0
:100C2000FFF71AFD044606E03EE000BFFFF714FDA3
:100C3000001B022809D828688001F7D534E000BFDE
:100C4000FFF70AFD001B022802D90320BDE8F88F38
:100C500028688001F4D427E00128F7D0D9F80000F3
:100C6000E26900F4800191421CD1226A00F03F0148
:100C7000914217D147F6C071626A0140B1EB821F01
:100C800010D1A26A4FF0FF3300F4403103EB52025F
:100C9000B1EB024F06D194F82C1000F07060B0EB6D
:100CA000016F01D00120D1E70020CFE704380240D6
:100CB00000004742800E4742007000400000FFFFE6
:100CC00070B5040009D0606A002540B125616561F6
:100CD000A56294F8510040B10CE0012070BD60683D
:100CE000B0F5827FF4D0E561F2E784F850502046F9
:100CF00000F044F8022084F851002068016821F0D7
:100D000040010160A088218900F4827001F404414F
:100D10000843A18901F400610843217C01F002012C
:100D20000843217D01F001010843218B01F400718A
:100D30000843217F01F03801084394F8201001F0A6
:100D400080010843218D01F40051084321680860A7
:100D5000A069042101EA104094F8241001F0100168
:100D60000843216848602068C16921F40061C161BD
:100D70006565012084F85100002070BDF0B587B092
:100D8000044614216846FFF7EEFA2A4A2168002437
:100D90002948022503260527914217D126491431F7
:100DA0000A6842F480520A60096801F48051059192
:100DB000016841F0010101600068694600F001002E
:100DC0000590A020CDE900051C482CE01C4A91426A
:100DD0002ED1194910310A6842F480420A6009682C
:100DE00001F480410591016841F00401016001684E
:100DF00001F004010591016841F002010160006801
:100E000002AA00F0020005900C20CDE9000582E85E
:100E1000D00069460B48FFF721FB4FF48060CDE915
:100E200000050948694602AA82E8D000FFF716FBD0
:100E300007B0F0BD003001403038024000000240F1
:100E40000038004000080240000402402DE9F84F3D
:100E5000984616468A460446FFF7FEFB814694F8FC
:100E6000510001281ED1BAF1000F73D0002E71D0AD
:100E700094F85000012815D0012784F85070032001
:100E800084F8510000256565C4F830A0A686E68682
:100E9000A563A587E58765642564A068B0F5004F64
:100EA00003D00CE00220BDE8F88F2068016821F033
:100EB000400101602068016841F4804101602068C0
:100EC0000168490603D4016841F040010160E0680F
:100ED000B0F5006F606803D048B3012E27D047E01B
:100EE00008B1012E1FD1206B21680088C86006E080
:100EF00020688168890709D5216B0988C160206B4A
:100F0000801C2063E08E401EE0860CE0FFF7A4FB0F
:100F1000A0EB0901414503D3B8F1FF3F03D035E011
:100F2000B8F1000F32D0E08E0028E1D123E0206B31
:100F300021680078087306E02068816889070AD56F
:100F4000216B09780173206B401C2063E08E401EEA
:100F5000E0860DE02BE0FFF77FFBA0EB09014145A8
:100F600003D3B8F1FF3F03D010E0B8F1000F0DD06C
:100F7000E08E0028E0D14A464146204600F026FA9D
:100F800008B120206065A06830B109E084F8517094
:100F900084F85050032086E72068C168806800907C
:100FA00084F8517004F8505F60680028F3D0012085
:100FB00079E710B5401EB0F1807F01D3012010BD4C
:100FC0004FF0E02460610F21601700F068FC002002
:100FD000A06107202061002010BD70B5040004D07E
:100FE00094F84100002510B106E0012070BD84F89E
:100FF0004050204600F024F8242084F84100206866
:10100000C16821F40051C160204600F0C1FB206896
:10101000016921F4904101612068416921F02A01B0
:1010200041612068C16841F40051C16065642020BD
:1010300084F8410084F842006563002070BD000020
:1010400010B586B0044614216846FFF78CF91449A0
:101050002068884221D113480021026842F0100222
:101060000260006800F0100005900E481438026815
:1010700042F001020260006800F0010005904FF4A8
:10108000C06000900220CDE90101032003900720F9
:10109000049069460448FFF7E1F906B010BD00006E
:1010A000001001404438024000000240FEE72DE9F4
:1010B000F041283087B228323431343395B28EB2C1
:1010C0009CB22A2000F06AF8380A00F075F8F8B2ED
:1010D00000F072F8280A00F06FF8E8B200F06CF83F
:1010E0002B2000F05BF8300A00F066F8F0B200F058
:1010F00063F8200A00F060F8E0B200F05DF8BDE8A7
:10110000F0412C2000F04AB870B5040AC5B20021A5
:101110008623EF220846FFF7CAFF0F4900204FF44D
:10112000A27200BF01F8104001EB4003401C80B2E6
:101130005D709042F6D3012240210848FFF786FAFD
:1011400000244FF422752946034800F009F8641C76
:10115000A4B2642CF7D370BD080100200000024047
:1011600070B5094C0D460646002210212046FFF7B7
:101170006DFA2946304600F009F82046BDE8704077
:1011800001221021FFF762BA000002400A46014620
:10119000FF230148FFF75ABE1000002001B50022CE
:1011A00040210448FFF752FA01216846FFF7D8FFB3
:1011B00008BD00000000024001B5012240210448A2
:1011C000FFF744FA01216846FFF7CAFF08BD000097
:1011D000000002402DE9F04786B014216846FFF771
:1011E000C2F843480024016841F0800101600168B1
:1011F00001F080010591016841F00401016001687E
:1012000001F004010591016841F0010101600168EC
:1012100001F001010591016841F0020101600068DF
:10122000DFF8D09000F0020005900022132148461C
:10123000FFF70CFA304F4FF4A975002229463846C3
:10124000FFF704FADFF8B4A0002244F23001504660
:10125000FFF7FCF903264FF01108CDE90068CDE94E
:10126000024669464846FFF7F9F800950125CDE9A1
:101270000154694638460394FFF7F0F810200090B7
:10128000CDE90154694648460394FFF7E7F820206A
:101290004FF48817CDE90007694602944846FFF7E6
:1012A000DDF80095CDE9017469465046FFF7D6F8A0
:1012B00002200090CDE90104CDE903406946504683
:1012C000FFF7CCF8A8030090CDE9015469465046D9
:1012D0000394FFF7C3F83020CDE90008CDE90246BA
:1012E00069465046FFF7BAF806B0BDE8F08700003F
:1012F0003038024000080240000002400004024072
:10130000104810B50E4901604FF482714160002110
:1013100002228160C0E90312012242615202C0E947
:1013200006210162416281620A21C162FFF7C8FCA5
:10133000002803D0BDE81040FFF77BB810BD0000C7
:1013400000300140100000200F4810B50D49016029
:101350004FF48271416000218160C1604FF40072DE
:101360000161C0E90512C1610162416281620A2125
:10137000C162FFF7A5FC002803D0BDE81040FFF7CD
:1013800058B810BD00380040680000200C4810B567
:101390000A4901604FF4E1314160002181600C2273
:1013A000C160C0E904128161C161FFF716FE002827
:1013B00003D0BDE81040FFF73CB810BD001001405D
:1013C000C0000020FEE7FEE770470000F8B51546B4
:1013D0000E460B46009204460122022100F02CF832
:1013E000A0B9134813490068B0FBF1F04FF47A71CB
:1013F000484300906068B0F5827F0DD133460022EB
:1014000080212046009500F017F870B1606D40F023
:10141000200060650320F8BD009830B1401E0090A8
:1014200020688068C0430006F6D50020F8BD0000A3
:101430000C00002000366E012DE9F8431E4691464F
:1014400088460446089DFFF707F9401B351AFFF749
:1014500003F9074625480068C0F3CB30684338E0FD
:10146000701C37D0FFF7F8F8C01BA84203D215B1A3
:10147000009860B32CE02068416821F0E0014160F1
:101480006068B0F5827F0BD1A068B0F5004F02D044
:10149000B0F5806F04D12068016821F0400101603F
:1014A000A06AB0F5005F09D12068016821F40051FD
:1014B00001602068016841F400510160012084F856
:1014C0005100002084F850000320BDE8F883002577
:1014D000401E00902068816838EA010004D0002195
:1014E0004945BDD10020F0E70121F9E70C000020BB
:1014F00070B57B4C002202212046FFF7A7F8794DFA
:10150000002210212846FFF7A1F80C20FEF794FFD7
:10151000012210212846FFF799F80C20FEF78CFFD6
:101520001120FFF73BFE0C20FEF786FF3A20FFF765
:1015300035FE0520FFF740FEC520FFF72FFE1A20DD
:10154000FFF73AFE3620FFF729FEA020FFF734FE12
:10155000B220FFF723FE0520FFF72EFE0520FFF740
:101560002BFE0020FFF728FE3320FFF725FE332057
:10157000FFF722FEB720FFF711FE0520FFF71CFE44
:10158000BB20FFF70BFE3F20FFF716FEC020FFF742
:1015900005FE2C20FFF710FEC220FFF7FFFD012003
:1015A000FFF70AFEC320FFF7F9FD0F20FFF704FE47
:1015B000C420FFF7F3FD2020FFF7FEFDC620FFF754
:1015C000EDFD0120FFF7F8FDD020FFF7E7FDA42097
:1015D000FFF7F2FDA120FFF7EFFDE820FFF7DEFDAA
:1015E0000320FFF7E9FDE920FFF7D8FD0920FFF709
:1015F000E3FD0920FFF7E0FD0820FFF7DDFDE02017
:10160000FFF7CCFDD020FFF7D7FD0520FFF7D4FD75
:101610000920FFF7D1FD0920FFF7CEFD0820FFF7D5
:10162000CBFD1420FFF7C8FD2820FFF7C5FD3320B0
:10163000FFF7C2FD3F20FFF7BFFD0720FFF7BCFD0E
:101640001320FFF7B9FD1420FFF7B6FD2820FFF7A0
:10165000B3FD3020FFF7B0FDE120FFF79FFDD02064
:10166000FFF7AAFD0520FFF7A7FD0920FFF7A4FD5E
:101670000920FFF7A1FD0820FFF79EFD0320FFF7DB
:101680009BFD2420FFF798FD3220FFF795FD3220C7
:10169000FFF792FD3B20FFF78FFD1420FFF78CFD35
:1016A0001320FFF789FD2820FFF786FD2F20FFF785
:1016B00083FD2120FFF772FD2920FFF76FFD002138
:1016C0008623EF220846FFF7F2FC4FF6FF70FFF784
:1016D0001BFD2046BDE8704001220221FEF7B6BF87
:1016E00000000240000802407047FEF7BBBF000048
:1016F00030B593B030216846FEF735FE14210CA8B2
:10170000FEF731FE1C480024016841F08051016061
:10171000006800F0805011901848016841F4404181
:1017200001600068022500F4404011900120039000
:1017300010200490009506950820CDE9074064200C
:10174000CDE9090504200B906846FFF703F908B1BD
:1017500072B6FEE70F20CDE90C054FF48050CDE9BD
:101760000E4003210CA81094FFF708F8002801D0C0
:1017700072B6FEE713B030BD403802400070004042
:101780000248016841F470010160704788ED00E093
:1017900070B5044600680169E26821F440511143C4
:1017A00001612169A068E269084361691143084346
:1017B0002168CA6849F20C639A430243CA602068F0
:1017C0004169A26921F440711143416131492068A6
:1017D000884202D03049884202D1FFF779F801E00F
:1017E000FFF766F8E2690023192164253226B2F575
:1017F000004F626828D0A0FB0101930F9200FEF712
:101800003BFD0146B0FBF5F06FF01802504301EBD1
:10181000800006EB0010B0FBF5F000F0F002B1FB29
:10182000F5F002EB0012B1FBF5F06FF0180358432E
:1018300001EB800006EB0010B0FBF5F000F00F00AC
:1018400021681044886070BDA0FB010192185B41C3
:10185000FEF712FD0146B0FBF5F00201B1FBF5F019
:101860006FF01803584301EB800006EBC000B0FB9B
:10187000F5F000F0F80002EB4002B1FBF5F0584340
:1018800001EB800006EBC000B0FBF5F000F00700B4
:10189000D6E700000010014000140140FEE70907F0
:1018A000090E002804DB00F1E02080F800147047E6
:1018B00000F00F0000F1E02080F8141D70470000D8
:1018C000FEF7D8FEFFF714FFFFF784FCFFF75EFD7D
:1018D000FFF716FDFFF738FDFFF70AFE064D4FF440
:1018E00080444FF47A7621462846FEF7A7FE30461C
:1018F000FEF7A2FDF7E70000000402404FF0407041
:10190000E1EE100A70470000000000000000010234
:101910000304060708090000000001020304000098
:10192000401900080000002010000000D401000849
:101930005019000810000020A00A0000F001000863
:101940000100000010000000000000000024F4006E
:040000050800019955
:00000001FF
